{
  "_format": "hh-sol-artifact-1",
  "contractName": "CashXProtocolReferral",
  "sourceName": "contracts/CashXProtocolReferral.sol",
  "abi": [
    {
      "anonymous": false,
      "inputs": [
        {
          "indexed": false,
          "internalType": "address",
          "name": "user",
          "type": "address"
        }
      ],
      "name": "AddedToRandomList",
      "type": "event"
    },
    {
      "anonymous": false,
      "inputs": [
        {
          "indexed": false,
          "internalType": "address",
          "name": "previousAdmin",
          "type": "address"
        },
        {
          "indexed": false,
          "internalType": "address",
          "name": "newAdmin",
          "type": "address"
        }
      ],
      "name": "AdminChanged",
      "type": "event"
    },
    {
      "anonymous": false,
      "inputs": [
        {
          "indexed": true,
          "internalType": "address",
          "name": "beacon",
          "type": "address"
        }
      ],
      "name": "BeaconUpgraded",
      "type": "event"
    },
    {
      "anonymous": false,
      "inputs": [
        {
          "indexed": false,
          "internalType": "uint8",
          "name": "version",
          "type": "uint8"
        }
      ],
      "name": "Initialized",
      "type": "event"
    },
    {
      "anonymous": false,
      "inputs": [
        {
          "indexed": true,
          "internalType": "address",
          "name": "previousOwner",
          "type": "address"
        },
        {
          "indexed": true,
          "internalType": "address",
          "name": "newOwner",
          "type": "address"
        }
      ],
      "name": "OwnershipTransferred",
      "type": "event"
    },
    {
      "anonymous": false,
      "inputs": [
        {
          "indexed": false,
          "internalType": "address",
          "name": "by",
          "type": "address"
        },
        {
          "indexed": false,
          "internalType": "address",
          "name": "to",
          "type": "address"
        },
        {
          "indexed": false,
          "internalType": "address",
          "name": "user",
          "type": "address"
        }
      ],
      "name": "ParentAdded",
      "type": "event"
    },
    {
      "anonymous": false,
      "inputs": [
        {
          "indexed": false,
          "internalType": "address",
          "name": "to",
          "type": "address"
        },
        {
          "indexed": false,
          "internalType": "address",
          "name": "user",
          "type": "address"
        },
        {
          "indexed": false,
          "internalType": "uint256",
          "name": "valueInWei",
          "type": "uint256"
        },
        {
          "indexed": false,
          "internalType": "uint32",
          "name": "level",
          "type": "uint32"
        }
      ],
      "name": "ReferralRewardsPaid",
      "type": "event"
    },
    {
      "anonymous": false,
      "inputs": [
        {
          "indexed": false,
          "internalType": "address",
          "name": "by",
          "type": "address"
        },
        {
          "indexed": false,
          "internalType": "address",
          "name": "user",
          "type": "address"
        }
      ],
      "name": "ReferrerAdded",
      "type": "event"
    },
    {
      "anonymous": false,
      "inputs": [
        {
          "indexed": false,
          "internalType": "string",
          "name": "reason",
          "type": "string"
        }
      ],
      "name": "ReferrerNoAdded",
      "type": "event"
    },
    {
      "anonymous": false,
      "inputs": [
        {
          "indexed": false,
          "internalType": "address",
          "name": "by",
          "type": "address"
        },
        {
          "indexed": false,
          "internalType": "address",
          "name": "to",
          "type": "address"
        },
        {
          "indexed": false,
          "internalType": "address",
          "name": "user",
          "type": "address"
        },
        {
          "indexed": false,
          "internalType": "uint256",
          "name": "valueInWei",
          "type": "uint256"
        }
      ],
      "name": "Registration",
      "type": "event"
    },
    {
      "anonymous": false,
      "inputs": [
        {
          "indexed": false,
          "internalType": "address",
          "name": "by",
          "type": "address"
        },
        {
          "indexed": false,
          "internalType": "address",
          "name": "to",
          "type": "address"
        },
        {
          "indexed": false,
          "internalType": "address",
          "name": "user",
          "type": "address"
        }
      ],
      "name": "RegistrationAssigned",
      "type": "event"
    },
    {
      "anonymous": false,
      "inputs": [
        {
          "indexed": false,
          "internalType": "address",
          "name": "user",
          "type": "address"
        }
      ],
      "name": "RemovedFromRandomList",
      "type": "event"
    },
    {
      "anonymous": false,
      "inputs": [
        {
          "indexed": false,
          "internalType": "address",
          "name": "to",
          "type": "address"
        },
        {
          "indexed": false,
          "internalType": "address",
          "name": "user",
          "type": "address"
        },
        {
          "indexed": false,
          "internalType": "uint32",
          "name": "level",
          "type": "uint32"
        }
      ],
      "name": "TeamAddressAdded",
      "type": "event"
    },
    {
      "anonymous": false,
      "inputs": [
        {
          "indexed": false,
          "internalType": "address",
          "name": "to",
          "type": "address"
        },
        {
          "indexed": false,
          "internalType": "uint256",
          "name": "valueInWei",
          "type": "uint256"
        }
      ],
      "name": "TeamWalletRewardPaid",
      "type": "event"
    },
    {
      "anonymous": false,
      "inputs": [
        {
          "indexed": false,
          "internalType": "string",
          "name": "reason",
          "type": "string"
        }
      ],
      "name": "UpgradeRewardNotPaid",
      "type": "event"
    },
    {
      "anonymous": false,
      "inputs": [
        {
          "indexed": false,
          "internalType": "address",
          "name": "to",
          "type": "address"
        },
        {
          "indexed": false,
          "internalType": "address",
          "name": "by",
          "type": "address"
        },
        {
          "indexed": false,
          "internalType": "uint256",
          "name": "valueInWei",
          "type": "uint256"
        }
      ],
      "name": "UpgradeRewardPaid",
      "type": "event"
    },
    {
      "anonymous": false,
      "inputs": [
        {
          "indexed": true,
          "internalType": "address",
          "name": "implementation",
          "type": "address"
        }
      ],
      "name": "Upgraded",
      "type": "event"
    },
    {
      "anonymous": false,
      "inputs": [
        {
          "indexed": false,
          "internalType": "address",
          "name": "to",
          "type": "address"
        },
        {
          "indexed": false,
          "internalType": "uint256",
          "name": "valueInWei",
          "type": "uint256"
        }
      ],
      "name": "WeeklyRewardsPaid",
      "type": "event"
    },
    {
      "inputs": [],
      "name": "distributeWeeklyReward",
      "outputs": [],
      "stateMutability": "nonpayable",
      "type": "function"
    },
    {
      "inputs": [],
      "name": "getContractDefaults",
      "outputs": [
        {
          "internalType": "address",
          "name": "teamWallet",
          "type": "address"
        },
        {
          "internalType": "uint256",
          "name": "teamWalletRate",
          "type": "uint256"
        },
        {
          "internalType": "address",
          "name": "liquidityWallet",
          "type": "address"
        },
        {
          "internalType": "uint256",
          "name": "liquidityCreationrate",
          "type": "uint256"
        },
        {
          "internalType": "address",
          "name": "defaultReferrer",
          "type": "address"
        },
        {
          "internalType": "uint256",
          "name": "registrationValueInUSD",
          "type": "uint256"
        }
      ],
      "stateMutability": "view",
      "type": "function"
    },
    {
      "inputs": [],
      "name": "getNativePriceInUSD",
      "outputs": [
        {
          "internalType": "uint256",
          "name": "",
          "type": "uint256"
        }
      ],
      "stateMutability": "view",
      "type": "function"
    },
    {
      "inputs": [],
      "name": "getRegistrationsStats",
      "outputs": [
        {
          "internalType": "uint32",
          "name": "totalUser",
          "type": "uint32"
        },
        {
          "internalType": "uint256",
          "name": "totalRegistrationValueInUSD",
          "type": "uint256"
        },
        {
          "internalType": "uint256",
          "name": "totalReferralPaidInUSD",
          "type": "uint256"
        },
        {
          "internalType": "uint256",
          "name": "totalWeeklyRewardsPaidInUSD",
          "type": "uint256"
        }
      ],
      "stateMutability": "view",
      "type": "function"
    },
    {
      "inputs": [],
      "name": "getUpgradePlans",
      "outputs": [
        {
          "components": [
            {
              "internalType": "uint8",
              "name": "id",
              "type": "uint8"
            },
            {
              "internalType": "uint256",
              "name": "valueToUpgradeInUSD",
              "type": "uint256"
            }
          ],
          "internalType": "struct UpgradeStruct[]",
          "name": "upgradePlans",
          "type": "tuple[]"
        },
        {
          "internalType": "uint8",
          "name": "upgradePlansCount",
          "type": "uint8"
        }
      ],
      "stateMutability": "view",
      "type": "function"
    },
    {
      "inputs": [
        {
          "internalType": "uint8",
          "name": "_id",
          "type": "uint8"
        }
      ],
      "name": "getUpgradePlansById",
      "outputs": [
        {
          "components": [
            {
              "internalType": "uint8",
              "name": "id",
              "type": "uint8"
            },
            {
              "internalType": "uint256",
              "name": "valueToUpgradeInUSD",
              "type": "uint256"
            }
          ],
          "internalType": "struct UpgradeStruct",
          "name": "",
          "type": "tuple"
        }
      ],
      "stateMutability": "view",
      "type": "function"
    },
    {
      "inputs": [
        {
          "internalType": "address",
          "name": "_userAddress",
          "type": "address"
        }
      ],
      "name": "getUserAccount",
      "outputs": [
        {
          "components": [
            {
              "internalType": "address",
              "name": "self",
              "type": "address"
            },
            {
              "internalType": "address",
              "name": "parent",
              "type": "address"
            },
            {
              "internalType": "address",
              "name": "referrer",
              "type": "address"
            },
            {
              "internalType": "address[]",
              "name": "referee",
              "type": "address[]"
            },
            {
              "components": [
                {
                  "internalType": "address",
                  "name": "referee",
                  "type": "address"
                },
                {
                  "internalType": "address",
                  "name": "assignedTo",
                  "type": "address"
                }
              ],
              "internalType": "struct RefereeStruct[]",
              "name": "refereeAssigned",
              "type": "tuple[]"
            },
            {
              "components": [
                {
                  "internalType": "address",
                  "name": "teamMember",
                  "type": "address"
                },
                {
                  "internalType": "uint8",
                  "name": "level",
                  "type": "uint8"
                }
              ],
              "internalType": "struct TeamStruct[]",
              "name": "team",
              "type": "tuple[]"
            },
            {
              "internalType": "uint256",
              "name": "selfBusinessInUSD",
              "type": "uint256"
            },
            {
              "internalType": "uint256",
              "name": "upgradedValueInUSD",
              "type": "uint256"
            },
            {
              "internalType": "uint8",
              "name": "upgradeId",
              "type": "uint8"
            },
            {
              "internalType": "uint256",
              "name": "directBusinessInUSD",
              "type": "uint256"
            },
            {
              "internalType": "uint256",
              "name": "teamBusinessInUSD",
              "type": "uint256"
            },
            {
              "internalType": "uint256",
              "name": "referralRewardsInUSD",
              "type": "uint256"
            },
            {
              "internalType": "uint256",
              "name": "weeklyRewardsInUSD",
              "type": "uint256"
            },
            {
              "internalType": "uint256",
              "name": "upgradeRewardsInUSD",
              "type": "uint256"
            },
            {
              "internalType": "uint256",
              "name": "userRandomIndex",
              "type": "uint256"
            }
          ],
          "internalType": "struct AccountStruct",
          "name": "",
          "type": "tuple"
        }
      ],
      "stateMutability": "view",
      "type": "function"
    },
    {
      "inputs": [
        {
          "internalType": "address",
          "name": "_userAddress",
          "type": "address"
        }
      ],
      "name": "getUserBusiness",
      "outputs": [
        {
          "internalType": "uint256",
          "name": "selfBusinessInUSD",
          "type": "uint256"
        },
        {
          "internalType": "uint256",
          "name": "directBusinessInUSD",
          "type": "uint256"
        },
        {
          "internalType": "uint256",
          "name": "teamBusinessInUSD",
          "type": "uint256"
        },
        {
          "internalType": "uint256",
          "name": "totalBusinessInUSD",
          "type": "uint256"
        }
      ],
      "stateMutability": "view",
      "type": "function"
    },
    {
      "inputs": [
        {
          "internalType": "address",
          "name": "_userAddress",
          "type": "address"
        }
      ],
      "name": "getUserCurrentUpgradeLevel",
      "outputs": [
        {
          "internalType": "uint8",
          "name": "level",
          "type": "uint8"
        },
        {
          "internalType": "uint256",
          "name": "totalUpgradeValueInUSD",
          "type": "uint256"
        }
      ],
      "stateMutability": "view",
      "type": "function"
    },
    {
      "inputs": [
        {
          "internalType": "address",
          "name": "_userAddress",
          "type": "address"
        }
      ],
      "name": "getUserRewards",
      "outputs": [
        {
          "internalType": "uint256",
          "name": "referralRewardInUSD",
          "type": "uint256"
        },
        {
          "internalType": "uint256",
          "name": "weeklyRewardInUSD",
          "type": "uint256"
        },
        {
          "internalType": "uint256",
          "name": "upgradeRewardsInUSD",
          "type": "uint256"
        },
        {
          "internalType": "uint256",
          "name": "totalRewards",
          "type": "uint256"
        }
      ],
      "stateMutability": "view",
      "type": "function"
    },
    {
      "inputs": [
        {
          "internalType": "address",
          "name": "_userAddress",
          "type": "address"
        }
      ],
      "name": "getUserTeam",
      "outputs": [
        {
          "internalType": "address",
          "name": "referrer",
          "type": "address"
        },
        {
          "internalType": "address[]",
          "name": "referees",
          "type": "address[]"
        },
        {
          "internalType": "uint256",
          "name": "refereeCount",
          "type": "uint256"
        },
        {
          "components": [
            {
              "internalType": "address",
              "name": "referee",
              "type": "address"
            },
            {
              "internalType": "address",
              "name": "assignedTo",
              "type": "address"
            }
          ],
          "internalType": "struct RefereeStruct[]",
          "name": "refereeAssigned",
          "type": "tuple[]"
        },
        {
          "internalType": "uint256",
          "name": "refereeAssignedCount",
          "type": "uint256"
        },
        {
          "components": [
            {
              "internalType": "address",
              "name": "teamMember",
              "type": "address"
            },
            {
              "internalType": "uint8",
              "name": "level",
              "type": "uint8"
            }
          ],
          "internalType": "struct TeamStruct[]",
          "name": "team",
          "type": "tuple[]"
        },
        {
          "internalType": "uint256",
          "name": "teamCount",
          "type": "uint256"
        }
      ],
      "stateMutability": "view",
      "type": "function"
    },
    {
      "inputs": [],
      "name": "getWeeklyRewardToBeDistributed",
      "outputs": [
        {
          "internalType": "uint256",
          "name": "_rewardValue",
          "type": "uint256"
        },
        {
          "internalType": "uint256",
          "name": "_remianingTime",
          "type": "uint256"
        },
        {
          "internalType": "uint256",
          "name": "_endTime",
          "type": "uint256"
        }
      ],
      "stateMutability": "view",
      "type": "function"
    },
    {
      "inputs": [],
      "name": "initialize",
      "outputs": [],
      "stateMutability": "nonpayable",
      "type": "function"
    },
    {
      "inputs": [],
      "name": "needNativeToRegister",
      "outputs": [
        {
          "internalType": "uint256",
          "name": "",
          "type": "uint256"
        }
      ],
      "stateMutability": "view",
      "type": "function"
    },
    {
      "inputs": [],
      "name": "owner",
      "outputs": [
        {
          "internalType": "address",
          "name": "",
          "type": "address"
        }
      ],
      "stateMutability": "view",
      "type": "function"
    },
    {
      "inputs": [],
      "name": "proxiableUUID",
      "outputs": [
        {
          "internalType": "bytes32",
          "name": "",
          "type": "bytes32"
        }
      ],
      "stateMutability": "view",
      "type": "function"
    },
    {
      "inputs": [
        {
          "internalType": "address",
          "name": "_referrer",
          "type": "address"
        }
      ],
      "name": "registrationNative",
      "outputs": [],
      "stateMutability": "payable",
      "type": "function"
    },
    {
      "inputs": [],
      "name": "renounceOwnership",
      "outputs": [],
      "stateMutability": "nonpayable",
      "type": "function"
    },
    {
      "inputs": [],
      "name": "setDefaults",
      "outputs": [],
      "stateMutability": "nonpayable",
      "type": "function"
    },
    {
      "inputs": [
        {
          "internalType": "address",
          "name": "newOwner",
          "type": "address"
        }
      ],
      "name": "transferOwnership",
      "outputs": [],
      "stateMutability": "nonpayable",
      "type": "function"
    },
    {
      "inputs": [
        {
          "internalType": "uint256[]",
          "name": "_valueToUpgradeInDecimals",
          "type": "uint256[]"
        }
      ],
      "name": "updateUpgradePlans",
      "outputs": [],
      "stateMutability": "nonpayable",
      "type": "function"
    },
    {
      "inputs": [],
      "name": "upgradeAccountNative",
      "outputs": [],
      "stateMutability": "payable",
      "type": "function"
    },
    {
      "inputs": [
        {
          "internalType": "address",
          "name": "newImplementation",
          "type": "address"
        }
      ],
      "name": "upgradeTo",
      "outputs": [],
      "stateMutability": "nonpayable",
      "type": "function"
    },
    {
      "inputs": [
        {
          "internalType": "address",
          "name": "newImplementation",
          "type": "address"
        },
        {
          "internalType": "bytes",
          "name": "data",
          "type": "bytes"
        }
      ],
      "name": "upgradeToAndCall",
      "outputs": [],
      "stateMutability": "payable",
      "type": "function"
    },
    {
      "stateMutability": "payable",
      "type": "receive"
    }
  ],
  "bytecode": "0x60a06040523060805234801561001457600080fd5b5060805161428661004c600039600081816107980152818161082201528181610947015281816109cc0152610ab601526142866000f3fe60806040526004361061018f5760003560e01c8063846688f7116100d6578063ebd0f48f1161007f578063f925017111610059578063f9250171146104be578063faeda7e5146104f7578063fb47e0161461052a57600080fd5b8063ebd0f48f14610469578063f2fde38b1461047e578063f87127b41461049e57600080fd5b8063a9df9fae116100b0578063a9df9fae146103c9578063ac21689a14610434578063e35422e71461044957600080fd5b8063846688f71461035c5780638da5cb5b1461038c578063a7be6a72146103b457600080fd5b806352d1902d11610138578063715018a611610112578063715018a61461032a578063770cc0dd1461033f5780638129fc1c1461034757600080fd5b806352d1902d146102cf57806359a04544146102f257806363a540421461031557600080fd5b80633659cfe6116101695780633659cfe614610287578063438c2f55146102a95780634f1ef286146102bc57600080fd5b80630690c6a81461019b578063078b0fb7146101e05780631a7463441461022057600080fd5b3661019657005b600080fd5b3480156101a757600080fd5b5060c95460cb5460cc5460ce546040805163ffffffff909516855260208501939093529183015260608201526080015b60405180910390f35b3480156101ec57600080fd5b506102006101fb366004613c22565b610557565b6040805194855260208501939093529183015260608201526080016101d7565b34801561022c57600080fd5b5060cf5460d95460d15460d75460d854604080516001600160a01b03808816825260ff600160a01b909804881660208301529586169181019190915294909216606085015291909116608083015260a082015260c0016101d7565b34801561029357600080fd5b506102a76102a2366004613c22565b61078e565b005b6102a76102b7366004613c22565b61090e565b6102a76102ca366004613c53565b61093d565b3480156102db57600080fd5b506102e4610aa9565b6040519081526020016101d7565b3480156102fe57600080fd5b50610307610b6e565b6040516101d7929190613d15565b34801561032157600080fd5b5060dc546102e4565b34801561033657600080fd5b506102a7610c5c565b6102a7610c70565b34801561035357600080fd5b506102a7610c92565b34801561036857600080fd5b50610371610e87565b604080519384526020840192909252908201526060016101d7565b34801561039857600080fd5b506033546040516001600160a01b0390911681526020016101d7565b3480156103c057600080fd5b506102a7610ebd565b3480156103d557600080fd5b506104276103e4366004613d7a565b6040805180820182526000808252602091820181905260ff938416815260db82528290208251808401909352805490931682526001909201549181019190915290565b6040516101d79190613d9d565b34801561044057600080fd5b506102e4610f51565b34801561045557600080fd5b506102a7610464366004613db7565b610f80565b34801561047557600080fd5b506102a761102d565b34801561048a57600080fd5b506102a7610499366004613c22565b6112b6565b3480156104aa57600080fd5b506102006104b9366004613c22565b611343565b3480156104ca57600080fd5b506104de6104d9366004613c22565b611565565b6040805160ff90931683526020830191909152016101d7565b34801561050357600080fd5b50610517610512366004613c22565b611789565b6040516101d79796959493929190613eff565b34801561053657600080fd5b5061054a610545366004613c22565b6119d0565b6040516101d79190613f68565b6001600160a01b03808216600090815260da6020908152604080832081516101e0810183528154861681526001820154861681850152600282015490951685830152600381018054835181860281018601909452808452949586958695869586959394606086019391929091908301828280156105fd57602002820191906000526020600020905b81546001600160a01b031681526001909101906020018083116105df575b5050505050815260200160048201805480602002602001604051908101604052809291908181526020016000905b82821015610676576000848152602090819020604080518082019091526002850290910180546001600160a01b0390811683526001918201541682840152908352909201910161062b565b50505050815260200160058201805480602002602001604051908101604052809291908181526020016000905b828210156106ec57600084815260209081902060408051808201909152908401546001600160a01b0381168252600160a01b900460ff16818301528252600190920191016106a3565b505050908252506006820154602082015260078201546040820152600882015460ff16606082015260098201546080820152600a82015460a0820152600b82015460c0820152600c82015460e0820152600d820154610100820152600e90910154610120909101526101608101516101808201516101a08301519197509550935090508261077a85876140a5565b61078491906140a5565b9150509193509193565b6001600160a01b037f00000000000000000000000000000000000000000000000000000000000000001630036108205760405162461bcd60e51b815260206004820152602c60248201527f46756e6374696f6e206d7573742062652063616c6c6564207468726f7567682060448201526b19195b1959d85d1958d85b1b60a21b60648201526084015b60405180910390fd5b7f00000000000000000000000000000000000000000000000000000000000000006001600160a01b031661087b7f360894a13ba1a3210667c828492db98dca3e2076cc3735a920a3ca505d382bbc546001600160a01b031690565b6001600160a01b0316146108e65760405162461bcd60e51b815260206004820152602c60248201527f46756e6374696f6e206d7573742062652063616c6c6564207468726f7567682060448201526b6163746976652070726f787960a01b6064820152608401610817565b6108ef81611c5f565b6040805160008082526020820190925261090b91839190611c67565b50565b34600061091a60dc5490565b905060006109288383611e07565b90506109378433838686611e2f565b50505050565b6001600160a01b037f00000000000000000000000000000000000000000000000000000000000000001630036109ca5760405162461bcd60e51b815260206004820152602c60248201527f46756e6374696f6e206d7573742062652063616c6c6564207468726f7567682060448201526b19195b1959d85d1958d85b1b60a21b6064820152608401610817565b7f00000000000000000000000000000000000000000000000000000000000000006001600160a01b0316610a257f360894a13ba1a3210667c828492db98dca3e2076cc3735a920a3ca505d382bbc546001600160a01b031690565b6001600160a01b031614610a905760405162461bcd60e51b815260206004820152602c60248201527f46756e6374696f6e206d7573742062652063616c6c6564207468726f7567682060448201526b6163746976652070726f787960a01b6064820152608401610817565b610a9982611c5f565b610aa582826001611c67565b5050565b6000306001600160a01b037f00000000000000000000000000000000000000000000000000000000000000001614610b495760405162461bcd60e51b815260206004820152603860248201527f555550535570677261646561626c653a206d757374206e6f742062652063616c60448201527f6c6564207468726f7567682064656c656761746563616c6c00000000000000006064820152608401610817565b507f360894a13ba1a3210667c828492db98dca3e2076cc3735a920a3ca505d382bbc90565b60606000610b7a6126ef565b905060008160ff1667ffffffffffffffff811115610b9a57610b9a613c3d565b604051908082528060200260200182016040528015610bdf57816020015b6040805180820190915260008082526020820152815260200190600190039081610bb85790505b50905060005b8260ff168160ff161015610c555760ff808216600081815260db60209081526040918290208251808401909352805490941682526001909301549281019290925283518491908110610c3957610c396140b8565b602002602001018190525080610c4e906140ce565b9050610be5565b5092909150565b610c6461273d565b610c6e6000612797565b565b346000610c8582610c8060dc5490565b611e07565b9050610aa58282336127e9565b600054610100900460ff1615808015610cb25750600054600160ff909116105b80610ccc5750303b158015610ccc575060005460ff166001145b610d3e5760405162461bcd60e51b815260206004820152602e60248201527f496e697469616c697a61626c653a20636f6e747261637420697320616c72656160448201527f647920696e697469616c697a65640000000000000000000000000000000000006064820152608401610817565b6000805460ff191660011790558015610d61576000805461ff0019166101001790555b60d7805473eb1100091ce830ba58a04834c35d29b75b53eb746001600160a01b03199182161790915568015af1d78b58c4000060d85560d5805461ffff191661083c179055600260d65560cf805474ffffffffffffffffffffffffffffffffffffffffff1916741476b7c991c3ef93b6771fac97a984a2cb37962fbc17905560d18054601060ff199182161790915560d3805490911660041790554260d45560d9805473efa6077f510b10a6c1b2f8da24a89fc561ac94459216919091179055680d8d726b7177a8000060dc55610e36612ba1565b610e3e612c14565b801561090b576000805461ff0019169055604051600181527f7f26b83ff96e1f2b6a682f133852f6798a09c465da95921460cefb3847402498906020015b60405180910390a150565b60d25460d4546000908190610e9f9062093a806140a5565b90504280821115610eb757610eb481836140ed565b92505b50909192565b610ec561273d565b60d780546001600160a01b03908116600081815260da602052604080822080546001600160a01b0319908116909417905584548416808352908220600190810180548516909217909155935460ca805495860181559091527f42d72674974f694b5f5159593243114d38a5c39c89d6b62fee061ff523240ee19093018054939092169216919091179055565b6000610f5c60dc5490565b60d854610f7190670de0b6b3a7640000614100565b610f7b919061412d565b905090565b610f8861273d565b60005b60ff8116821115611028576040518060400160405280826001610fae9190614141565b60ff16815260200184848460ff16818110610fcb57610fcb6140b8565b90506020020135670de0b6b3a7640000610fe59190614100565b905260ff828116600090815260db602090815260409091208351815460ff191693169290921782559190910151600190910155611021816140ce565b9050610f8b565b505050565b60d254600061103f82610c8060dc5490565b9050600060d45462093a8061105491906140a5565b905042818110156110a75760405162461bcd60e51b815260206004820152601c60248201527f5765656b6c792074696d65206973206e6f74206f766572207965742e000000006044820152606401610817565b600060d254116110f95760405162461bcd60e51b815260206004820152601860248201527f4e6f207265776172647320746f206469737472696275746500000000000000006044820152606401610817565b600060c980548060200260200160405190810160405280929190818152602001828054801561115157602002820191906000526020600020905b81546001600160a01b03168152600190910190602001808311611133575b505050505090506000424460014361116991906140ed565b6040805160208101949094528301919091524060608201526080016040516020818303038152906040528051906020012060001c905060008251826111ae919061415a565b905060008382815181106111c4576111c46140b8565b60200260200101519050600060da6000836001600160a01b03166001600160a01b0316815260200190815260200160002090508781600c01600082825461120b91906140a5565b90915550506040516001600160a01b038316908a156108fc02908b906000818181858888f19350505050158015611246573d6000803e3d6000fd5b50600060d28190554260d45560ce80548a92906112649084906140a5565b9091555050604080516001600160a01b0384168152602081018a90527ffff6edc60fd30afefcc47525cdf85502200830b22550391f79f9e383df03afad910160405180910390a1505050505050505050565b6112be61273d565b6001600160a01b03811661133a5760405162461bcd60e51b815260206004820152602660248201527f4f776e61626c653a206e6577206f776e657220697320746865207a65726f206160448201527f64647265737300000000000000000000000000000000000000000000000000006064820152608401610817565b61090b81612797565b6001600160a01b03808216600090815260da6020908152604080832081516101e0810183528154861681526001820154861681850152600282015490951685830152600381018054835181860281018601909452808452949586958695869586959394606086019391929091908301828280156113e957602002820191906000526020600020905b81546001600160a01b031681526001909101906020018083116113cb575b5050505050815260200160048201805480602002602001604051908101604052809291908181526020016000905b82821015611462576000848152602090819020604080518082019091526002850290910180546001600160a01b03908116835260019182015416828401529083529092019101611417565b50505050815260200160058201805480602002602001604051908101604052809291908181526020016000905b828210156114d857600084815260209081902060408051808201909152908401546001600160a01b0381168252600160a01b900460ff168183015282526001909201910161148f565b505050908252506006820154602082015260078201546040820152600882015460ff16606082015260098201546080820152600a82015460a0820152600b82015460c080830191909152600c83015460e0830152600d830154610100830152600e9092015461012091820152908201519082015161014083015191975095509350905061078485846140a5565b6001600160a01b03808216600090815260da6020908152604080832081516101e081018352815486168152600182015486168185015260028201549095168583015260038101805483518186028101860190945280845294958695869591946060860193909290919083018282801561160757602002820191906000526020600020905b81546001600160a01b031681526001909101906020018083116115e9575b5050505050815260200160048201805480602002602001604051908101604052809291908181526020016000905b82821015611680576000848152602090819020604080518082019091526002850290910180546001600160a01b03908116835260019182015416828401529083529092019101611635565b50505050815260200160058201805480602002602001604051908101604052809291908181526020016000905b828210156116f657600084815260209081902060408051808201909152908401546001600160a01b0381168252600160a01b900460ff16818301528252600190920191016116ad565b505050908252506006820154602082015260078201546040820152600882015460ff908116606083015260098301546080830152600a83015460a0830152600b83015460c0830152600c83015460e0830152600d83015461010080840191909152600e909301546101209092019190915290820151919250161561177d5780610100015192505b60e00151919391925050565b6001600160a01b03808216600090815260da6020908152604080832081516101e0810183528154861681526001820154861681850152600282015490951685830152600381018054835181860281018601909452808452949560609587958795879587958795869590949293858901939092919083018282801561183657602002820191906000526020600020905b81546001600160a01b03168152600190910190602001808311611818575b5050505050815260200160048201805480602002602001604051908101604052809291908181526020016000905b828210156118af576000848152602090819020604080518082019091526002850290910180546001600160a01b03908116835260019182015416828401529083529092019101611864565b50505050815260200160058201805480602002602001604051908101604052809291908181526020016000905b8282101561192557600084815260209081902060408051808201909152908401546001600160a01b0381168252600160a01b900460ff16818301528252600190920191016118dc565b50505090825250600682015460208201526007820154604080830191909152600883015460ff166060808401919091526009840154608080850191909152600a85015460a080860191909152600b86015460c0860152600c86015460e0860152600d860154610100860152600e90950154610120909401939093529084015190840151805192850151805195909401518051929f919e50929c50929a50929850965090945092505050565b611a67604051806101e0016040528060006001600160a01b0316815260200160006001600160a01b0316815260200160006001600160a01b031681526020016060815260200160608152602001606081526020016000815260200160008152602001600060ff1681526020016000815260200160008152602001600081526020016000815260200160008152602001600081525090565b6001600160a01b03808316600090815260da602090815260409182902082516101e081018452815485168152600182015485168184015260028201549094168484015260038101805484518185028101850190955280855291936060860193909290830182828015611b0257602002820191906000526020600020905b81546001600160a01b03168152600190910190602001808311611ae4575b5050505050815260200160048201805480602002602001604051908101604052809291908181526020016000905b82821015611b7b576000848152602090819020604080518082019091526002850290910180546001600160a01b03908116835260019182015416828401529083529092019101611b30565b50505050815260200160058201805480602002602001604051908101604052809291908181526020016000905b82821015611bf157600084815260209081902060408051808201909152908401546001600160a01b0381168252600160a01b900460ff1681830152825260019092019101611ba8565b505050908252506006820154602082015260078201546040820152600882015460ff16606082015260098201546080820152600a82015460a0820152600b82015460c0820152600c82015460e0820152600d820154610100820152600e909101546101209091015292915050565b61090b61273d565b7f4910fdfa16fed3260ed0e7147f7cc6da11a60208b5b9406d12a635614ffd91435460ff1615611c9a5761102883612c7f565b826001600160a01b03166352d1902d6040518163ffffffff1660e01b8152600401602060405180830381865afa925050508015611cf4575060408051601f3d908101601f19168201909252611cf19181019061416e565b60015b611d665760405162461bcd60e51b815260206004820152602e60248201527f45524331393637557067726164653a206e657720696d706c656d656e7461746960448201527f6f6e206973206e6f7420555550530000000000000000000000000000000000006064820152608401610817565b7f360894a13ba1a3210667c828492db98dca3e2076cc3735a920a3ca505d382bbc8114611dfb5760405162461bcd60e51b815260206004820152602960248201527f45524331393637557067726164653a20756e737570706f727465642070726f7860448201527f6961626c655555494400000000000000000000000000000000000000000000006064820152608401610817565b50611028838383612d3d565b6000670de0b6b3a7640000611e1c8385614100565b611e26919061412d565b90505b92915050565b60d8546064611e3f82605f614100565b611e49919061412d565b841015611ebe5760405162461bcd60e51b815260206004820152602660248201527f56616c7565206973206c657373207468656e20726567697374726174696f6e2060448201527f76616c75652e00000000000000000000000000000000000000000000000000006064820152608401610817565b60d5546001600160a01b03808716600090815260da6020526040808220928a1682528120600683015460ff8086169561010090041693919015611f435760405162461bcd60e51b815260206004820152601760248201527f5573657220616c726561647920726567697374657265640000000000000000006044820152606401610817565b81546001600160a01b0316611f6c5781546001600160a01b0319166001600160a01b038b161782555b80546001600160a01b0316611f955780546001600160a01b0319166001600160a01b038c161781555b8160060154600003611fed5760c980546001810182556000919091527f66be4f155c5ef2ebd3772b228f2f00681e4ed5826cdb3b1943cc11ad15ad1d280180546001600160a01b0319166001600160a01b038c161790555b8882600601600082825461200191906140a5565b9091555050604080516101e08101825283546001600160a01b039081168252600185015481166020808401919091526002860154909116828401526003850180548451818402810184019095528085526121f4948793606086019391929083018282801561209857602002820191906000526020600020905b81546001600160a01b0316815260019091019060200180831161207a575b5050505050815260200160048201805480602002602001604051908101604052809291908181526020016000905b82821015612111576000848152602090819020604080518082019091526002850290910180546001600160a01b039081168352600191820154168284015290835290920191016120c6565b50505050815260200160058201805480602002602001604051908101604052809291908181526020016000905b8282101561218757600084815260209081902060408051808201909152908401546001600160a01b0381168252600160a01b900460ff168183015282526001909201910161213e565b505050908252506006820154602082015260078201546040820152600882015460ff16606082015260098201546080820152600a82015460a0820152600b82015460c0820152600c82015460e0820152600d820154610100820152600e9091015461012090910152612d62565b612207576122028b8b612d81565b61226f565b7f1f4fff38c5e64af9e759d590409f022ea913658008bb1d0cd35e028244f01ecf604051612266906020808252601f908201527f5573657220416c72656164792068617665207265666572726572207365742e00604082015260600190565b60405180910390a15b600182015460028301548354604080516001600160a01b0394851681529284166020840152921681830152606081018b905290517f0411c58b3c1e8a39d91c901e5c807bff1401650beedc45aba65112756bb929b49181900360800190a1600060646122de60ff88168b614100565b6122e8919061412d565b905060006122f6828a611e07565b60018501546001600160a01b03908116600090815260da6020526040902080549293509116156123e35780546040516001600160a01b039091169084156108fc029085906000818181858888f19350505050158015612359573d6000803e3d6000fd5b508054604080516001600160a01b039283168152918f1660208301528101849052600160608201527f153f77382d7e07de734977ae352e9b1f5f8ad4b1c0033c883a9a33456a87836f9060800160405180910390a18181600b0160008282546123c291906140a5565b925050819055508b8160090160008282546123dd91906140a5565b90915550505b6123ed82876140a5565b955060005b8760ff168160ff16101561255d57604080516101e08101825287546001600160a01b0390811682526001890154811660208084019190915260028a015490911682840152600389018054845181840281018401909552808552612508948b936060860193919290830182828015612098576020028201919060005260206000209081546001600160a01b0316815260019091019060200180831161207a5750505050508152602001600482018054806020026020016040519081016040528092919081815260200160009082821015612111576000848152602090819020604080518082019091526002850290910180546001600160a01b039081168352600191820154168284015290835290920191016120c6565b1561255d5760028601546001600160a01b0316600090815260da60205260408120600a810180549197508f9290916125419084906140a5565b9091555094955085945080612555816140ce565b9150506123f2565b5060cf5460009060649061257b90600160a01b900460ff168e614100565b612585919061412d565b60cf546040519192506001600160a01b03169082156108fc029083906000818181858888f193505050501580156125c0573d6000803e3d6000fd5b5060cf54604080516001600160a01b039092168252602082018390527f5aa75bdb3269082e844d731608afae2a07cbf194f251e3f857b870af86b754fb910160405180910390a18660cc600082825461261991906140a5565b925050819055508c60cb600082825461263291906140a5565b909155505060d15460009060649061264d9060ff168f614100565b612657919061412d565b60d9546040519192506001600160a01b03169082156108fc029083906000818181858888f19350505050158015612692573d6000803e3d6000fd5b508060d060008282546126a591906140a5565b909155505060d3546064906126bd9060ff168f614100565b6126c7919061412d565b60d260008282546126d891906140a5565b909155505050505050505050505050505050505050565b6000805b60328160ff1610156127395760ff808216600090815260db602052604090205416156127395781612723816140ce565b9250508080612731906140ce565b9150506126f3565b5090565b6033546001600160a01b03163314610c6e5760405162461bcd60e51b815260206004820181905260248201527f4f776e61626c653a2063616c6c6572206973206e6f7420746865206f776e65726044820152606401610817565b603380546001600160a01b038381166001600160a01b0319831681179093556040519116919082907f8be0079c531659141344cd1fd0a4f28419497f9722a3daafe3b4186f6b6457e090600090a35050565b6001600160a01b038116600090815260da60209081526040808320600881015460ff90811680865260db8552838620845180860190955280549092168452600190910154938301939093529261283d6126ef565b905081602001518610156128b95760405162461bcd60e51b815260206004820152602660248201527f56616c75652073686f756c6420626520657175616c20746f207570677261646560448201527f2076616c756500000000000000000000000000000000000000000000000000006064820152608401610817565b8060ff168360ff161061290e5760405162461bcd60e51b815260206004820152601f60248201527f5573657220636f6e73756d656420616c6c207570677261646520706c616e73006044820152606401610817565b8584600701600082825461292291906140a5565b90915550600090505b8360ff168111612b695760028501546001600160a01b031615612b695760028501546001600160a01b0316600090815260da6020526040902060ff85168203612b5757600881015460ff8087169116118015612990575080546001600160a01b031615155b15612a3a578781600d0160008282546129a991906140a5565b909155505080546040516001600160a01b03909116908a156108fc02908b906000818181858888f193505050501580156129e7573d6000803e3d6000fd5b508054604080516001600160a01b039283168152918916602083015281018a90527fb37800f632235e56e1626c9e9df3de1e167e9298f0d25f59fd74ec65e31116529060600160405180910390a1612b51565b7f6696b78fc1713892e6e2bb3df5cdc986ab67a0c675898c7ef535bd2201ca9451604051612abf906020808252603f908201527f55706c696e6520686173206e6f742075706772616465642e20416d6f756e742060408201527f7472616e73666572656420746f206c69717569646974792077616c6c65742e00606082015260800190565b60405180910390a160d9546040516001600160a01b039091169081908b156108fc02908c906000818181858888f19350505050158015612b03573d6000803e3d6000fd5b50604080516001600160a01b0380841682528a1660208201529081018b90527fb37800f632235e56e1626c9e9df3de1e167e9298f0d25f59fd74ec65e31116529060600160405180910390a1505b50612b69565b9450612b6281614187565b905061292b565b5060088401805460ff16906000612b7f836140ce565b91906101000a81548160ff021916908360ff1602179055505050505050505050565b600054610100900460ff16612c0c5760405162461bcd60e51b815260206004820152602b60248201527f496e697469616c697a61626c653a20636f6e7472616374206973206e6f74206960448201526a6e697469616c697a696e6760a81b6064820152608401610817565b610c6e613770565b600054610100900460ff16610c6e5760405162461bcd60e51b815260206004820152602b60248201527f496e697469616c697a61626c653a20636f6e7472616374206973206e6f74206960448201526a6e697469616c697a696e6760a81b6064820152608401610817565b6001600160a01b0381163b612cfc5760405162461bcd60e51b815260206004820152602d60248201527f455243313936373a206e657720696d706c656d656e746174696f6e206973206e60448201527f6f74206120636f6e7472616374000000000000000000000000000000000000006064820152608401610817565b7f360894a13ba1a3210667c828492db98dca3e2076cc3735a920a3ca505d382bbc80546001600160a01b0319166001600160a01b0392909216919091179055565b612d46836137e4565b600082511180612d535750805b15611028576109378383613824565b60408101516000906001600160a01b031615612d7c575060015b919050565b6001600160a01b03808216600081815260da6020526040902091841603612dea5760405162461bcd60e51b815260206004820152601a60248201527f596f752063616e6e6f7420726566657220796f757273656c662e0000000000006044820152606401610817565b60006001600160a01b038416612e1a575060d7546001600160a01b0316600090815260da60205260409020612e34565b506001600160a01b038316600090815260da602052604090205b604080516101e08101825282546001600160a01b039081168252600184015481166020808401919091526002850154909116828401526003840180548451818402810184019095528085526130229486936060860193919290830182828015612ec657602002820191906000526020600020905b81546001600160a01b03168152600190910190602001808311612ea8575b5050505050815260200160048201805480602002602001604051908101604052809291908181526020016000905b82821015612f3f576000848152602090819020604080518082019091526002850290910180546001600160a01b03908116835260019182015416828401529083529092019101612ef4565b50505050815260200160058201805480602002602001604051908101604052809291908181526020016000905b82821015612fb557600084815260209081902060408051808201909152908401546001600160a01b0381168252600160a01b900460ff1681830152825260019092019101612f6c565b505050908252506006820154602082015260078201546040820152600882015460ff16606082015260098201546080820152600a82015460a0820152600b82015460c0820152600c82015460e0820152600d820154610100820152600e909101546101209091015261392f565b613173576130308183613959565b60038101805460018082018355600083815260209081902090920180546001600160a01b0319166001600160a01b0388811691909117909155604080516101e08101825286548316815292860154821683850152600286015490911682820152835481518185028101850190925280825261316094929386936060860193929091830182828015612ec6576020028201919060005260206000209081546001600160a01b03168152600190910190602001808311612ea85750505050508152602001600482018054806020026020016040519081016040528092919081815260200160009082821015612f3f576000848152602090819020604080518082019091526002850290910180546001600160a01b03908116835260019182015416828401529083529092019101612ef4565b1561316e5761316e816139bc565b6135a5565b600060da6000613181613ab1565b6001600160a01b03166001600160a01b0316815260200190815260200160002090506131ad8184613959565b604080516101e08101825282546001600160a01b039081168252600184015481166020808401919091526002850154909116828401526003840180548451818402810184019095528085526132b59486936060860193919290830182828015612ec6576020028201919060005260206000209081546001600160a01b03168152600190910190602001808311612ea85750505050508152602001600482018054806020026020016040519081016040528092919081815260200160009082821015612f3f576000848152602090819020604080518082019091526002850290910180546001600160a01b03908116835260019182015416828401529083529092019101612ef4565b156132c3576132c3816139bc565b81548154604080516001600160a01b03938416815291831660208301529186168183015290517fa1b30426557565c4fa85ce5f9c88513d7d3f49d21eb30569c249b07b037831ef9181900360600190a1604080518082019091526001600160a01b0380861682528254811660208084019182526004860180546001818101835560009283529282209551600290910290950180549585166001600160a01b0319968716178155925192909101805492909316919093161790556006840154900361357557604080516101e08101825284546001600160a01b03908116825260018601548116602080840191909152600287015490911682840152600386018054845181840281018401909552808552613575948893606086019391929083018282801561341957602002820191906000526020600020905b81546001600160a01b031681526001909101906020018083116133fb575b5050505050815260200160048201805480602002602001604051908101604052809291908181526020016000905b82821015613492576000848152602090819020604080518082019091526002850290910180546001600160a01b03908116835260019182015416828401529083529092019101613447565b50505050815260200160058201805480602002602001604051908101604052809291908181526020016000905b8282101561350857600084815260209081902060408051808201909152908401546001600160a01b0381168252600160a01b900460ff16818301528252600190920191016134bf565b505050908252506006820154602082015260078201546040820152600882015460ff16606082015260098201546080820152600a82015460a0820152600b82015460c0820152600c82015460e0820152600d820154610100820152600e9091015461012090910152613b38565b6003018054600181018255600091825260209091200180546001600160a01b0319166001600160a01b0385161790555b60018201546001600160a01b03166136235780546001830180546001600160a01b039283166001600160a01b0319909116811790915560028401546040805192835290831660208301529185168183015290517f8efa008f8ae98ae30d3219078a298c85bc25a62f50c57ed9a3ec838b7eed9f479181900360600190a15b60d554610100900460ff1660005b8160ff168160ff1610156137685760028401546001600160a01b0316156137685760028401546001600160a01b03908116600090815260da60209081526040918290208251808401909352928816825291945060058501918101613696846001614141565b60ff90811690915282546001818101855560009485526020948590208451920180549590940151909216600160a01b0274ffffffffffffffffffffffffffffffffffffffffff199094166001600160a01b03918216179390931790915584547f85db3f10b88ea7fc653f3f818097a3fc3c543196ed60cad2251df922bcc9ad7f9216908790613726908590614141565b604080516001600160a01b03948516815293909216602084015260ff169082015260600160405180910390a18293508080613760906140ce565b915050613631565b505050505050565b600054610100900460ff166137db5760405162461bcd60e51b815260206004820152602b60248201527f496e697469616c697a61626c653a20636f6e7472616374206973206e6f74206960448201526a6e697469616c697a696e6760a81b6064820152608401610817565b610c6e33612797565b6137ed81612c7f565b6040516001600160a01b038216907fbc7cd75a20ee27fd9adebab32041f755214dbc6bffa90cc0225b39da2e5c2d3b90600090a250565b60606001600160a01b0383163b6138a35760405162461bcd60e51b815260206004820152602660248201527f416464726573733a2064656c65676174652063616c6c20746f206e6f6e2d636f60448201527f6e747261637400000000000000000000000000000000000000000000000000006064820152608401610817565b600080846001600160a01b0316846040516138be91906141c4565b600060405180830381855af49150503d80600081146138f9576040519150601f19603f3d011682016040523d82523d6000602084013e6138fe565b606091505b5091509150613926828260405180606001604052806027815260200161422a60279139613bc1565b95945050505050565b600060d654826060015151118061394c575060d654826060015151145b15612d7c57506001919050565b81546002820180546001600160a01b0319166001600160a01b0392831617905582548254604080519284168352921660208201527fec49a3c8c4ae06c18160fe86119c381c9d213ac3e052ff35b594da8687b193c7910160405180910390a15050565b60ca80546139cc906001906140ed565b815481106139dc576139dc6140b8565b9060005260206000200160009054906101000a90046001600160a01b031660ca82600e015481548110613a1157613a116140b8565b9060005260206000200160006101000a8154816001600160a01b0302191690836001600160a01b0316021790555060ca805480613a5057613a506141e0565b6000828152602090819020600019908301810180546001600160a01b031916905590910190915581546040516001600160a01b0390911681527f644b85583ba83e73113ffc0c122b165819ca11db493cd4cc38f5ba29138ffa1b9101610e7c565b6000804244613ac16001436140ed565b60408051602081019490945283019190915240606082015260800160408051601f19818403018152919052805160209091012060ca54909150600090613b07908361415a565b905060ca8181548110613b1c57613b1c6140b8565b6000918252602090912001546001600160a01b03169392505050565b60ca80546101c0830181905282516001820183556000929092527f42d72674974f694b5f5159593243114d38a5c39c89d6b62fee061ff523240ee10180546001600160a01b0319166001600160a01b039283161790558151604051911681527f06baf10092c7ea144c4fb56fb8cf641e1f00e291a535b5d54b547eadb29485a790602001610e7c565b60608315613bd0575081613bda565b613bda8383613be1565b9392505050565b815115613bf15781518083602001fd5b8060405162461bcd60e51b815260040161081791906141f6565b80356001600160a01b0381168114612d7c57600080fd5b600060208284031215613c3457600080fd5b611e2682613c0b565b634e487b7160e01b600052604160045260246000fd5b60008060408385031215613c6657600080fd5b613c6f83613c0b565b9150602083013567ffffffffffffffff80821115613c8c57600080fd5b818501915085601f830112613ca057600080fd5b813581811115613cb257613cb2613c3d565b604051601f8201601f19908116603f01168101908382118183101715613cda57613cda613c3d565b81604052828152886020848701011115613cf357600080fd5b8260208601602083013760006020848301015280955050505050509250929050565b60408082528351828201819052600091906020906060850190828801855b82811015613d6357613d53848351805160ff168252602090810151910152565b9285019290840190600101613d33565b50505060ff95909516930192909252509092915050565b600060208284031215613d8c57600080fd5b813560ff81168114613bda57600080fd5b815160ff1681526020808301519082015260408101611e29565b60008060208385031215613dca57600080fd5b823567ffffffffffffffff80821115613de257600080fd5b818501915085601f830112613df657600080fd5b813581811115613e0557600080fd5b8660208260051b8501011115613e1a57600080fd5b60209290920196919550909350505050565b600081518084526020808501945080840160005b83811015613e655781516001600160a01b031687529582019590820190600101613e40565b509495945050505050565b600081518084526020808501945080840160005b83811015613e6557815180516001600160a01b03908116895290840151168388015260409096019590820190600101613e84565b600081518084526020808501945080840160005b83811015613e6557815180516001600160a01b0316885283015160ff168388015260409096019590820190600101613ecc565b6001600160a01b038816815260e060208201526000613f2160e0830189613e2c565b8760408401528281036060840152613f398188613e70565b905085608084015282810360a0840152613f538186613eb8565b9150508260c083015298975050505050505050565b60208152613f826020820183516001600160a01b03169052565b60006020830151613f9e60408401826001600160a01b03169052565b5060408301516001600160a01b03811660608401525060608301516101e0806080850152613fd0610200850183613e2c565b91506080850151601f19808685030160a0870152613fee8483613e70565b935060a08701519150808685030160c08701525061400c8382613eb8565b92505060c085015160e085015260e085015161010081818701528087015191505061012061403e8187018360ff169052565b8601516101408681019190915286015161016080870191909152860151610180808701919091528601516101a0808701919091528601516101c0808701919091529095015193019290925250919050565b634e487b7160e01b600052601160045260246000fd5b80820180821115611e2957611e2961408f565b634e487b7160e01b600052603260045260246000fd5b600060ff821660ff81036140e4576140e461408f565b60010192915050565b81810381811115611e2957611e2961408f565b8082028115828204841417611e2957611e2961408f565b634e487b7160e01b600052601260045260246000fd5b60008261413c5761413c614117565b500490565b60ff8181168382160190811115611e2957611e2961408f565b60008261416957614169614117565b500690565b60006020828403121561418057600080fd5b5051919050565b6000600182016141995761419961408f565b5060010190565b60005b838110156141bb5781810151838201526020016141a3565b50506000910152565b600082516141d68184602087016141a0565b9190910192915050565b634e487b7160e01b600052603160045260246000fd5b60208152600082518060208401526142158160408501602087016141a0565b601f01601f1916919091016040019291505056fe416464726573733a206c6f772d6c6576656c2064656c65676174652063616c6c206661696c6564a2646970667358221220fd243f8c5bbcd223ab15ac10541ee4b019b265a0b0f286fcbb565f520ba6d5eb64736f6c63430008120033",
  "linkReferences": {},
  "deployedLinkReferences": {}
}