{
  "_format": "hh-sol-artifact-1",
  "contractName": "CashXProtocolReferral",
  "sourceName": "contracts/CashXProtocolReferral.sol",
  "abi": [
    {
      "anonymous": false,
      "inputs": [
        {
          "indexed": false,
          "internalType": "address",
          "name": "user",
          "type": "address"
        }
      ],
      "name": "AddedToRandomList",
      "type": "event"
    },
    {
      "anonymous": false,
      "inputs": [
        {
          "indexed": false,
          "internalType": "address",
          "name": "previousAdmin",
          "type": "address"
        },
        {
          "indexed": false,
          "internalType": "address",
          "name": "newAdmin",
          "type": "address"
        }
      ],
      "name": "AdminChanged",
      "type": "event"
    },
    {
      "anonymous": false,
      "inputs": [
        {
          "indexed": true,
          "internalType": "address",
          "name": "beacon",
          "type": "address"
        }
      ],
      "name": "BeaconUpgraded",
      "type": "event"
    },
    {
      "anonymous": false,
      "inputs": [
        {
          "indexed": false,
          "internalType": "uint8",
          "name": "version",
          "type": "uint8"
        }
      ],
      "name": "Initialized",
      "type": "event"
    },
    {
      "anonymous": false,
      "inputs": [
        {
          "indexed": true,
          "internalType": "address",
          "name": "previousOwner",
          "type": "address"
        },
        {
          "indexed": true,
          "internalType": "address",
          "name": "newOwner",
          "type": "address"
        }
      ],
      "name": "OwnershipTransferred",
      "type": "event"
    },
    {
      "anonymous": false,
      "inputs": [
        {
          "indexed": false,
          "internalType": "address",
          "name": "by",
          "type": "address"
        },
        {
          "indexed": false,
          "internalType": "address",
          "name": "to",
          "type": "address"
        },
        {
          "indexed": false,
          "internalType": "address",
          "name": "user",
          "type": "address"
        }
      ],
      "name": "ParentAdded",
      "type": "event"
    },
    {
      "anonymous": false,
      "inputs": [
        {
          "indexed": false,
          "internalType": "address",
          "name": "to",
          "type": "address"
        },
        {
          "indexed": false,
          "internalType": "address",
          "name": "user",
          "type": "address"
        },
        {
          "indexed": false,
          "internalType": "uint256",
          "name": "valueInWei",
          "type": "uint256"
        },
        {
          "indexed": false,
          "internalType": "uint32",
          "name": "level",
          "type": "uint32"
        }
      ],
      "name": "ReferralRewardsPaid",
      "type": "event"
    },
    {
      "anonymous": false,
      "inputs": [
        {
          "indexed": false,
          "internalType": "address",
          "name": "by",
          "type": "address"
        },
        {
          "indexed": false,
          "internalType": "address",
          "name": "user",
          "type": "address"
        }
      ],
      "name": "ReferrerAdded",
      "type": "event"
    },
    {
      "anonymous": false,
      "inputs": [
        {
          "indexed": false,
          "internalType": "string",
          "name": "reason",
          "type": "string"
        }
      ],
      "name": "ReferrerNoAdded",
      "type": "event"
    },
    {
      "anonymous": false,
      "inputs": [
        {
          "indexed": false,
          "internalType": "address",
          "name": "by",
          "type": "address"
        },
        {
          "indexed": false,
          "internalType": "address",
          "name": "to",
          "type": "address"
        },
        {
          "indexed": false,
          "internalType": "address",
          "name": "user",
          "type": "address"
        },
        {
          "indexed": false,
          "internalType": "uint256",
          "name": "valueInWei",
          "type": "uint256"
        }
      ],
      "name": "Registration",
      "type": "event"
    },
    {
      "anonymous": false,
      "inputs": [
        {
          "indexed": false,
          "internalType": "address",
          "name": "by",
          "type": "address"
        },
        {
          "indexed": false,
          "internalType": "address",
          "name": "to",
          "type": "address"
        },
        {
          "indexed": false,
          "internalType": "address",
          "name": "user",
          "type": "address"
        }
      ],
      "name": "RegistrationAssigned",
      "type": "event"
    },
    {
      "anonymous": false,
      "inputs": [
        {
          "indexed": false,
          "internalType": "address",
          "name": "user",
          "type": "address"
        }
      ],
      "name": "RemovedFromRandomList",
      "type": "event"
    },
    {
      "anonymous": false,
      "inputs": [
        {
          "indexed": false,
          "internalType": "address",
          "name": "to",
          "type": "address"
        },
        {
          "indexed": false,
          "internalType": "address",
          "name": "user",
          "type": "address"
        },
        {
          "indexed": false,
          "internalType": "uint32",
          "name": "level",
          "type": "uint32"
        }
      ],
      "name": "TeamAddressAdded",
      "type": "event"
    },
    {
      "anonymous": false,
      "inputs": [
        {
          "indexed": false,
          "internalType": "address",
          "name": "to",
          "type": "address"
        },
        {
          "indexed": false,
          "internalType": "uint256",
          "name": "valueInWei",
          "type": "uint256"
        }
      ],
      "name": "TeamWalletRewardPaid",
      "type": "event"
    },
    {
      "anonymous": false,
      "inputs": [
        {
          "indexed": false,
          "internalType": "string",
          "name": "reason",
          "type": "string"
        }
      ],
      "name": "UpgradeRewardNotPaid",
      "type": "event"
    },
    {
      "anonymous": false,
      "inputs": [
        {
          "indexed": false,
          "internalType": "address",
          "name": "to",
          "type": "address"
        },
        {
          "indexed": false,
          "internalType": "address",
          "name": "by",
          "type": "address"
        },
        {
          "indexed": false,
          "internalType": "uint256",
          "name": "valueInWei",
          "type": "uint256"
        }
      ],
      "name": "UpgradeRewardPaid",
      "type": "event"
    },
    {
      "anonymous": false,
      "inputs": [
        {
          "indexed": true,
          "internalType": "address",
          "name": "implementation",
          "type": "address"
        }
      ],
      "name": "Upgraded",
      "type": "event"
    },
    {
      "anonymous": false,
      "inputs": [
        {
          "indexed": false,
          "internalType": "address",
          "name": "to",
          "type": "address"
        },
        {
          "indexed": false,
          "internalType": "uint256",
          "name": "valueInWei",
          "type": "uint256"
        }
      ],
      "name": "WeeklyRewardsPaid",
      "type": "event"
    },
    {
      "inputs": [],
      "name": "distributeWeeklyReward",
      "outputs": [],
      "stateMutability": "nonpayable",
      "type": "function"
    },
    {
      "inputs": [],
      "name": "getRegistrationsStats",
      "outputs": [
        {
          "internalType": "uint32",
          "name": "totalUser",
          "type": "uint32"
        },
        {
          "internalType": "uint256",
          "name": "totalRegistrationValue",
          "type": "uint256"
        },
        {
          "internalType": "uint256",
          "name": "totalReferralPaid",
          "type": "uint256"
        },
        {
          "internalType": "uint256",
          "name": "totalWeeklyRewardsPaid",
          "type": "uint256"
        }
      ],
      "stateMutability": "view",
      "type": "function"
    },
    {
      "inputs": [
        {
          "internalType": "address",
          "name": "_userAddress",
          "type": "address"
        }
      ],
      "name": "getUserAccount",
      "outputs": [
        {
          "components": [
            {
              "internalType": "address",
              "name": "self",
              "type": "address"
            },
            {
              "internalType": "address",
              "name": "parent",
              "type": "address"
            },
            {
              "internalType": "address",
              "name": "referrer",
              "type": "address"
            },
            {
              "internalType": "address[]",
              "name": "referee",
              "type": "address[]"
            },
            {
              "components": [
                {
                  "internalType": "address",
                  "name": "referee",
                  "type": "address"
                },
                {
                  "internalType": "address",
                  "name": "assignedTo",
                  "type": "address"
                }
              ],
              "internalType": "struct RefereeStruct[]",
              "name": "refereeAssigned",
              "type": "tuple[]"
            },
            {
              "components": [
                {
                  "internalType": "address",
                  "name": "teamMember",
                  "type": "address"
                },
                {
                  "internalType": "uint8",
                  "name": "level",
                  "type": "uint8"
                }
              ],
              "internalType": "struct TeamStruct[]",
              "name": "team",
              "type": "tuple[]"
            },
            {
              "internalType": "uint256",
              "name": "selfBusiness",
              "type": "uint256"
            },
            {
              "internalType": "uint256",
              "name": "upgradedValue",
              "type": "uint256"
            },
            {
              "internalType": "uint8",
              "name": "upgradeId",
              "type": "uint8"
            },
            {
              "internalType": "uint256",
              "name": "directBusiness",
              "type": "uint256"
            },
            {
              "internalType": "uint256",
              "name": "teamBusiness",
              "type": "uint256"
            },
            {
              "internalType": "uint256",
              "name": "referralRewards",
              "type": "uint256"
            },
            {
              "internalType": "uint256",
              "name": "weeklyRewards",
              "type": "uint256"
            },
            {
              "internalType": "uint256",
              "name": "upgradeRewards",
              "type": "uint256"
            },
            {
              "internalType": "uint256",
              "name": "userRandomIndex",
              "type": "uint256"
            }
          ],
          "internalType": "struct AccountStruct",
          "name": "",
          "type": "tuple"
        }
      ],
      "stateMutability": "view",
      "type": "function"
    },
    {
      "inputs": [
        {
          "internalType": "address",
          "name": "_userAddress",
          "type": "address"
        }
      ],
      "name": "getUserBusiness",
      "outputs": [
        {
          "internalType": "uint256",
          "name": "selfBusiness",
          "type": "uint256"
        },
        {
          "internalType": "uint256",
          "name": "directBusiness",
          "type": "uint256"
        },
        {
          "internalType": "uint256",
          "name": "teamBusiness",
          "type": "uint256"
        },
        {
          "internalType": "uint256",
          "name": "totalBusiness",
          "type": "uint256"
        }
      ],
      "stateMutability": "view",
      "type": "function"
    },
    {
      "inputs": [
        {
          "internalType": "address",
          "name": "_userAddress",
          "type": "address"
        }
      ],
      "name": "getUserCurrentUpgradeLevel",
      "outputs": [
        {
          "internalType": "uint8",
          "name": "currentUpgradeId",
          "type": "uint8"
        },
        {
          "internalType": "uint256",
          "name": "upgradedValue",
          "type": "uint256"
        }
      ],
      "stateMutability": "view",
      "type": "function"
    },
    {
      "inputs": [
        {
          "internalType": "address",
          "name": "_userAddress",
          "type": "address"
        }
      ],
      "name": "getUserRewards",
      "outputs": [
        {
          "internalType": "uint256",
          "name": "referralReward",
          "type": "uint256"
        },
        {
          "internalType": "uint256",
          "name": "weeklyReward",
          "type": "uint256"
        },
        {
          "internalType": "uint256",
          "name": "upgradeRewards",
          "type": "uint256"
        }
      ],
      "stateMutability": "view",
      "type": "function"
    },
    {
      "inputs": [
        {
          "internalType": "address",
          "name": "_userAddress",
          "type": "address"
        }
      ],
      "name": "getUserTeam",
      "outputs": [
        {
          "internalType": "address",
          "name": "referrer",
          "type": "address"
        },
        {
          "internalType": "address[]",
          "name": "referees",
          "type": "address[]"
        },
        {
          "internalType": "uint256",
          "name": "refereeCount",
          "type": "uint256"
        },
        {
          "components": [
            {
              "internalType": "address",
              "name": "referee",
              "type": "address"
            },
            {
              "internalType": "address",
              "name": "assignedTo",
              "type": "address"
            }
          ],
          "internalType": "struct RefereeStruct[]",
          "name": "refereeAssigned",
          "type": "tuple[]"
        },
        {
          "internalType": "uint256",
          "name": "refereeAssignedCount",
          "type": "uint256"
        },
        {
          "components": [
            {
              "internalType": "address",
              "name": "teamMember",
              "type": "address"
            },
            {
              "internalType": "uint8",
              "name": "level",
              "type": "uint8"
            }
          ],
          "internalType": "struct TeamStruct[]",
          "name": "team",
          "type": "tuple[]"
        },
        {
          "internalType": "uint256",
          "name": "teamCount",
          "type": "uint256"
        }
      ],
      "stateMutability": "view",
      "type": "function"
    },
    {
      "inputs": [],
      "name": "getWeeklyRewardToBeDistributed",
      "outputs": [
        {
          "internalType": "uint256",
          "name": "_rewardValue",
          "type": "uint256"
        },
        {
          "internalType": "uint256",
          "name": "_remianingTime",
          "type": "uint256"
        },
        {
          "internalType": "uint256",
          "name": "_endTime",
          "type": "uint256"
        }
      ],
      "stateMutability": "view",
      "type": "function"
    },
    {
      "inputs": [],
      "name": "initialize",
      "outputs": [],
      "stateMutability": "nonpayable",
      "type": "function"
    },
    {
      "inputs": [],
      "name": "owner",
      "outputs": [
        {
          "internalType": "address",
          "name": "",
          "type": "address"
        }
      ],
      "stateMutability": "view",
      "type": "function"
    },
    {
      "inputs": [],
      "name": "proxiableUUID",
      "outputs": [
        {
          "internalType": "bytes32",
          "name": "",
          "type": "bytes32"
        }
      ],
      "stateMutability": "view",
      "type": "function"
    },
    {
      "inputs": [
        {
          "internalType": "address",
          "name": "_referrer",
          "type": "address"
        }
      ],
      "name": "registrationNative",
      "outputs": [],
      "stateMutability": "payable",
      "type": "function"
    },
    {
      "inputs": [],
      "name": "renounceOwnership",
      "outputs": [],
      "stateMutability": "nonpayable",
      "type": "function"
    },
    {
      "inputs": [],
      "name": "setDefaults",
      "outputs": [],
      "stateMutability": "nonpayable",
      "type": "function"
    },
    {
      "inputs": [
        {
          "internalType": "address",
          "name": "newOwner",
          "type": "address"
        }
      ],
      "name": "transferOwnership",
      "outputs": [],
      "stateMutability": "nonpayable",
      "type": "function"
    },
    {
      "inputs": [
        {
          "internalType": "address",
          "name": "newImplementation",
          "type": "address"
        }
      ],
      "name": "upgradeTo",
      "outputs": [],
      "stateMutability": "nonpayable",
      "type": "function"
    },
    {
      "inputs": [
        {
          "internalType": "address",
          "name": "newImplementation",
          "type": "address"
        },
        {
          "internalType": "bytes",
          "name": "data",
          "type": "bytes"
        }
      ],
      "name": "upgradeToAndCall",
      "outputs": [],
      "stateMutability": "payable",
      "type": "function"
    },
    {
      "stateMutability": "payable",
      "type": "receive"
    }
  ],
  "bytecode": "0x60a06040523060805234801561001457600080fd5b50608051613df561004c600039600081816105b70152818161064101528181610742015281816107c701526108b10152613df56000f3fe6080604052600436106101125760003560e01c8063846688f7116100a5578063f2fde38b11610074578063f925017111610059578063f9250171146102fa578063faeda7e514610333578063fb47e0161461036657600080fd5b8063f2fde38b1461029a578063f87127b4146102ba57600080fd5b8063846688f7146102335780638da5cb5b14610248578063a7be6a7214610270578063ebd0f48f1461028557600080fd5b80634f1ef286116100e15780634f1ef286146101d357806352d1902d146101e6578063715018a6146102095780638129fc1c1461021e57600080fd5b80630690c6a81461011e578063078b0fb7146101635780633659cfe61461019e578063438c2f55146101c057600080fd5b3661011957005b600080fd5b34801561012a57600080fd5b5060c95460cb5460cc5460ce546040805163ffffffff909516855260208501939093529183015260608201526080015b60405180910390f35b34801561016f57600080fd5b5061018361017e36600461388e565b610393565b6040805193845260208401929092529082015260600161015a565b3480156101aa57600080fd5b506101be6101b936600461388e565b6105ad565b005b6101be6101ce36600461388e565b61072d565b6101be6101e13660046138bf565b610738565b3480156101f257600080fd5b506101fb6108a4565b60405190815260200161015a565b34801561021557600080fd5b506101be610969565b34801561022a57600080fd5b506101be61097d565b34801561023f57600080fd5b50610183610b82565b34801561025457600080fd5b506033546040516001600160a01b03909116815260200161015a565b34801561027c57600080fd5b506101be610bb8565b34801561029157600080fd5b506101be610c4f565b3480156102a657600080fd5b506101be6102b536600461388e565b610ec0565b3480156102c657600080fd5b506102da6102d536600461388e565b610f4d565b60408051948552602085019390935291830152606082015260800161015a565b34801561030657600080fd5b5061031a61031536600461388e565b611179565b6040805160ff909316835260208301919091520161015a565b34801561033f57600080fd5b5061035361034e36600461388e565b61138f565b60405161015a9796959493929190613a1d565b34801561037257600080fd5b5061038661038136600461388e565b6115d6565b60405161015a9190613af0565b6001600160a01b03808216600090815260dc6020908152604080832081516101e08101835281548616815260018201548616818501526002820154909516858301526003810180548351818602810186019094528084529495869586958695929493606086019392909183018282801561043657602002820191906000526020600020905b81546001600160a01b03168152600190910190602001808311610418575b5050505050815260200160048201805480602002602001604051908101604052809291908181526020016000905b828210156104af576000848152602090819020604080518082019091526002850290910180546001600160a01b03908116835260019182015416828401529083529092019101610464565b50505050815260200160058201805480602002602001604051908101604052809291908181526020016000905b8282101561052557600084815260209081902060408051808201909152908401546001600160a01b0381168252600160a01b900460ff16818301528252600190920191016104dc565b505050908252506006820154602082015260078201546040820152600882015460ff16606082015260098201546080820152600a82015460a0820152600b82015460c0820152600c82015460e0820152600d820154610100820152600e90910154610120909101526101608101516101808201516101a0909201519097919650945092505050565b6001600160a01b037f000000000000000000000000000000000000000000000000000000000000000016300361063f5760405162461bcd60e51b815260206004820152602c60248201527f46756e6374696f6e206d7573742062652063616c6c6564207468726f7567682060448201526b19195b1959d85d1958d85b1b60a21b60648201526084015b60405180910390fd5b7f00000000000000000000000000000000000000000000000000000000000000006001600160a01b031661069a7f360894a13ba1a3210667c828492db98dca3e2076cc3735a920a3ca505d382bbc546001600160a01b031690565b6001600160a01b0316146107055760405162461bcd60e51b815260206004820152602c60248201527f46756e6374696f6e206d7573742062652063616c6c6564207468726f7567682060448201526b6163746976652070726f787960a01b6064820152608401610636565b61070e81611865565b6040805160008082526020820190925261072a9183919061186d565b50565b61072a813334611a12565b6001600160a01b037f00000000000000000000000000000000000000000000000000000000000000001630036107c55760405162461bcd60e51b815260206004820152602c60248201527f46756e6374696f6e206d7573742062652063616c6c6564207468726f7567682060448201526b19195b1959d85d1958d85b1b60a21b6064820152608401610636565b7f00000000000000000000000000000000000000000000000000000000000000006001600160a01b03166108207f360894a13ba1a3210667c828492db98dca3e2076cc3735a920a3ca505d382bbc546001600160a01b031690565b6001600160a01b03161461088b5760405162461bcd60e51b815260206004820152602c60248201527f46756e6374696f6e206d7573742062652063616c6c6564207468726f7567682060448201526b6163746976652070726f787960a01b6064820152608401610636565b61089482611865565b6108a08282600161186d565b5050565b6000306001600160a01b037f000000000000000000000000000000000000000000000000000000000000000016146109445760405162461bcd60e51b815260206004820152603860248201527f555550535570677261646561626c653a206d757374206e6f742062652063616c60448201527f6c6564207468726f7567682064656c656761746563616c6c00000000000000006064820152608401610636565b507f360894a13ba1a3210667c828492db98dca3e2076cc3735a920a3ca505d382bbc90565b61097161222d565b61097b6000612287565b565b600054610100900460ff161580801561099d5750600054600160ff909116105b806109b75750303b1580156109b7575060005460ff166001145b610a295760405162461bcd60e51b815260206004820152602e60248201527f496e697469616c697a61626c653a20636f6e747261637420697320616c72656160448201527f647920696e697469616c697a65640000000000000000000000000000000000006064820152608401610636565b6000805460ff191660011790558015610a4c576000805461ff0019166101001790555b60d980546001600160a01b03191673eb1100091ce830ba58a04834c35d29b75b53eb7417905567016345785d8a000060da556040805160208101909152603c8152610a9b9060d69060016137bc565b5060d7805460ff19908116600a17909155600260d85560d08054741476b7c991c3ef93b6771fac97a984a2cb37962fbc74ffffffffffffffffffffffffffffffffffffffffff1990911617905560d280548216601017905560d4805490911660041790554260d55560db80546001600160a01b03191673efa6077f510b10a6c1b2f8da24a89fc561ac9445179055610b316122d9565b610b3961234c565b801561072a576000805461ff0019169055604051600181527f7f26b83ff96e1f2b6a682f133852f6798a09c465da95921460cefb3847402498906020015b60405180910390a150565b60d35460d5546000908190610b9a9062093a80613c2d565b90504280821115610bb257610baf8183613c40565b92505b50909192565b610bc061222d565b60d980546001600160a01b03908116600081815260dc602052604080822080546001600160a01b0319908116909417905584548416808352908220600101805490931617909155915460ca8054919092169290610c1f57610c1f613c53565b9060005260206000200160006101000a8154816001600160a01b0302191690836001600160a01b03160217905550565b60d35460d554600090610c659062093a80613c2d565b90504281811015610cb85760405162461bcd60e51b815260206004820152601c60248201527f5765656b6c792074696d65206973206e6f74206f766572207965742e000000006044820152606401610636565b60008311610d085760405162461bcd60e51b815260206004820152601860248201527f4e6f207265776172647320746f206469737472696275746500000000000000006044820152606401610636565b600060c9805480602002602001604051908101604052809291908181526020018280548015610d6057602002820191906000526020600020905b81546001600160a01b03168152600190910190602001808311610d42575b5050505050905060004244600143610d789190613c40565b6040805160208101949094528301919091524060608201526080016040516020818303038152906040528051906020012060001c90506000825182610dbd9190613c7f565b90506000838281518110610dd357610dd3613c53565b6020908102919091018101516001600160a01b038116600090815260dc90925260409091209091508715610eb6578781600c016000828254610e159190613c2d565b90915550506040516001600160a01b0383169089156108fc02908a906000818181858888f19350505050158015610e50573d6000803e3d6000fd5b50600060d38190554260d55560ce80548a9290610e6e908490613c2d565b9091555050604080516001600160a01b0384168152602081018a90527ffff6edc60fd30afefcc47525cdf85502200830b22550391f79f9e383df03afad910160405180910390a15b5050505050505050565b610ec861222d565b6001600160a01b038116610f445760405162461bcd60e51b815260206004820152602660248201527f4f776e61626c653a206e6577206f776e657220697320746865207a65726f206160448201527f64647265737300000000000000000000000000000000000000000000000000006064820152608401610636565b61072a81612287565b6001600160a01b03808216600090815260dc6020908152604080832081516101e081018352815486168152600182015486168185015260028201549095168583015260038101805483518186028101860190945280845294958695869586958695939460608601939192909190830182828015610ff357602002820191906000526020600020905b81546001600160a01b03168152600190910190602001808311610fd5575b5050505050815260200160048201805480602002602001604051908101604052809291908181526020016000905b8282101561106c576000848152602090819020604080518082019091526002850290910180546001600160a01b03908116835260019182015416828401529083529092019101611021565b50505050815260200160058201805480602002602001604051908101604052809291908181526020016000905b828210156110e257600084815260209081902060408051808201909152908401546001600160a01b0381168252600160a01b900460ff1681830152825260019092019101611099565b505050908252506006820154602082015260078201546040820152600882015460ff16606082015260098201546080820152600a82015460a0820152600b82015460c080830191909152600c83015460e0830152600d830154610100830152600e9092015461012091820152908201519082015161014083015191975095509350905061116f8584613c2d565b9150509193509193565b6001600160a01b03808216600090815260dc6020908152604080832081516101e081018352815486168152600182015486168185015260028201549095168583015260038101805483518186028101860190945280845294958695869591946060860193909290919083018282801561121b57602002820191906000526020600020905b81546001600160a01b031681526001909101906020018083116111fd575b5050505050815260200160048201805480602002602001604051908101604052809291908181526020016000905b82821015611294576000848152602090819020604080518082019091526002850290910180546001600160a01b03908116835260019182015416828401529083529092019101611249565b50505050815260200160058201805480602002602001604051908101604052809291908181526020016000905b8282101561130a57600084815260209081902060408051808201909152908401546001600160a01b0381168252600160a01b900460ff16818301528252600190920191016112c1565b505050908252506006820154602082015260078201546040820152600882015460ff16606082015260098201546080820152600a82015460a0820152600b82015460c0820152600c82015460e080830191909152600d83015461010080840191909152600e909301546101209092019190915290820151910151909590945092505050565b6001600160a01b03808216600090815260dc6020908152604080832081516101e0810183528154861681526001820154861681850152600282015490951685830152600381018054835181860281018601909452808452949560609587958795879587958795869590949293858901939092919083018282801561143c57602002820191906000526020600020905b81546001600160a01b0316815260019091019060200180831161141e575b5050505050815260200160048201805480602002602001604051908101604052809291908181526020016000905b828210156114b5576000848152602090819020604080518082019091526002850290910180546001600160a01b0390811683526001918201541682840152908352909201910161146a565b50505050815260200160058201805480602002602001604051908101604052809291908181526020016000905b8282101561152b57600084815260209081902060408051808201909152908401546001600160a01b0381168252600160a01b900460ff16818301528252600190920191016114e2565b50505090825250600682015460208201526007820154604080830191909152600883015460ff166060808401919091526009840154608080850191909152600a85015460a080860191909152600b86015460c0860152600c86015460e0860152600d860154610100860152600e90950154610120909401939093529084015190840151805192850151805195909401518051929f919e50929c50929a50929850965090945092505050565b61166d604051806101e0016040528060006001600160a01b0316815260200160006001600160a01b0316815260200160006001600160a01b031681526020016060815260200160608152602001606081526020016000815260200160008152602001600060ff1681526020016000815260200160008152602001600081526020016000815260200160008152602001600081525090565b6001600160a01b03808316600090815260dc602090815260409182902082516101e08101845281548516815260018201548516818401526002820154909416848401526003810180548451818502810185019095528085529193606086019390929083018282801561170857602002820191906000526020600020905b81546001600160a01b031681526001909101906020018083116116ea575b5050505050815260200160048201805480602002602001604051908101604052809291908181526020016000905b82821015611781576000848152602090819020604080518082019091526002850290910180546001600160a01b03908116835260019182015416828401529083529092019101611736565b50505050815260200160058201805480602002602001604051908101604052809291908181526020016000905b828210156117f757600084815260209081902060408051808201909152908401546001600160a01b0381168252600160a01b900460ff16818301528252600190920191016117ae565b505050908252506006820154602082015260078201546040820152600882015460ff16606082015260098201546080820152600a82015460a0820152600b82015460c0820152600c82015460e0820152600d820154610100820152600e909101546101209091015292915050565b61072a61222d565b7f4910fdfa16fed3260ed0e7147f7cc6da11a60208b5b9406d12a635614ffd91435460ff16156118a5576118a0836123b7565b505050565b826001600160a01b03166352d1902d6040518163ffffffff1660e01b8152600401602060405180830381865afa9250505080156118ff575060408051601f3d908101601f191682019092526118fc91810190613c93565b60015b6119715760405162461bcd60e51b815260206004820152602e60248201527f45524331393637557067726164653a206e657720696d706c656d656e7461746960448201527f6f6e206973206e6f7420555550530000000000000000000000000000000000006064820152608401610636565b7f360894a13ba1a3210667c828492db98dca3e2076cc3735a920a3ca505d382bbc8114611a065760405162461bcd60e51b815260206004820152602960248201527f45524331393637557067726164653a20756e737570706f727465642070726f7860448201527f6961626c655555494400000000000000000000000000000000000000000000006064820152608401610636565b506118a0838383612475565b60da5480821015611a8b5760405162461bcd60e51b815260206004820152602660248201527f56616c7565206973206c657373207468656e20726567697374726174696f6e2060448201527f76616c75652e00000000000000000000000000000000000000000000000000006064820152608401610636565b600060d6805480602002602001604051908101604052809291908181526020018280548015611af757602002820191906000526020600020906000905b825461010083900a900460ff16815260206001928301818104948501949093039092029101808411611ac85790505b505060d7546001600160a01b03808a16600090815260dc60205260408082208d84168352908220805498995060ff90941697919650945091925016611b505780546001600160a01b0319166001600160a01b038a161781555b81546001600160a01b0316611b795781546001600160a01b0319166001600160a01b0389161782555b8160060154600003611bd757815460c980546001810182556000919091527f66be4f155c5ef2ebd3772b228f2f00681e4ed5826cdb3b1943cc11ad15ad1d280180546001600160a01b0319166001600160a01b039092169190911790555b6006820180549088906000611bec8385613c2d565b90915550611bfc90508a8a6124a0565b600183015460028401548454604080516001600160a01b0394851681529284166020840152921681830152606081018a905290517f0411c58b3c1e8a39d91c901e5c807bff1401650beedc45aba65112756bb929b49181900360800190a16000606487600081518110611c7157611c71613c53565b602002602001015160ff168a611c879190613cac565b611c919190613cc3565b905081600003611d715760018401546001600160a01b03908116600090815260dc60205260409020805490911615611d6b5780546040516001600160a01b039091169083156108fc029084906000818181858888f19350505050158015611cfc573d6000803e3d6000fd5b508054604080516001600160a01b039283168152918d1660208301528101839052600160608201527f153f77382d7e07de734977ae352e9b1f5f8ad4b1c0033c883a9a33456a87836f9060800160405180910390a18181600b016000828254611d659190613c2d565b90915550505b50611e1c565b82546040516001600160a01b039091169082156108fc029083906000818181858888f19350505050158015611daa573d6000803e3d6000fd5b506002840154604080516001600160a01b039283168152918c1660208301528101829052600160608201527f153f77382d7e07de734977ae352e9b1f5f8ad4b1c0033c883a9a33456a87836f9060800160405180910390a18083600b016000828254611e169190613c2d565b90915550505b611e268186613c2d565b945060005b8660ff168160ff16101561209e57604080516101e08101825286546001600160a01b03908116825260018801548116602080840191909152600289015490911682840152600388018054845181840281018401909552808552612027948a936060860193919290830182828015611ecb57602002820191906000526020600020905b81546001600160a01b03168152600190910190602001808311611ead575b5050505050815260200160048201805480602002602001604051908101604052809291908181526020016000905b82821015611f44576000848152602090819020604080518082019091526002850290910180546001600160a01b03908116835260019182015416828401529083529092019101611ef9565b50505050815260200160058201805480602002602001604051908101604052809291908181526020016000905b82821015611fba57600084815260209081902060408051808201909152908401546001600160a01b0381168252600160a01b900460ff1681830152825260019092019101611f71565b505050908252506006820154602082015260078201546040820152600882015460ff16606082015260098201546080820152600a82015460a0820152600b82015460c0820152600c82015460e0820152600d820154610100820152600e90910154610120909101526132d8565b1561209e5760028501546001600160a01b0316600090815260dc60205260408120945060ff8216900361206e57898460090160008282546120689190613c2d565b90915550505b8984600a0160008282546120829190613c2d565b909155509394508493508061209681613cd7565b915050611e2b565b5060d0546000906064906120bc90600160a01b900460ff168c613cac565b6120c69190613cc3565b60d0546040519192506001600160a01b03169082156108fc029083906000818181858888f19350505050158015612101573d6000803e3d6000fd5b5060d054604080516001600160a01b039092168252602082018390527f5aa75bdb3269082e844d731608afae2a07cbf194f251e3f857b870af86b754fb910160405180910390a18560cc600082825461215a9190613c2d565b925050819055508960cb60008282546121739190613c2d565b909155505060d25460009060649061218e9060ff168d613cac565b6121989190613cc3565b60db546040519192506001600160a01b03169082156108fc029083906000818181858888f193505050501580156121d3573d6000803e3d6000fd5b508060d160008282546121e69190613c2d565b909155505060d4546064906121fe9060ff168d613cac565b6122089190613cc3565b60d360008282546122199190613c2d565b909155505050505050505050505050505050565b6033546001600160a01b0316331461097b5760405162461bcd60e51b815260206004820181905260248201527f4f776e61626c653a2063616c6c6572206973206e6f7420746865206f776e65726044820152606401610636565b603380546001600160a01b038381166001600160a01b0319831681179093556040519116919082907f8be0079c531659141344cd1fd0a4f28419497f9722a3daafe3b4186f6b6457e090600090a35050565b600054610100900460ff166123445760405162461bcd60e51b815260206004820152602b60248201527f496e697469616c697a61626c653a20636f6e7472616374206973206e6f74206960448201526a6e697469616c697a696e6760a81b6064820152608401610636565b61097b6132f7565b600054610100900460ff1661097b5760405162461bcd60e51b815260206004820152602b60248201527f496e697469616c697a61626c653a20636f6e7472616374206973206e6f74206960448201526a6e697469616c697a696e6760a81b6064820152608401610636565b6001600160a01b0381163b6124345760405162461bcd60e51b815260206004820152602d60248201527f455243313936373a206e657720696d706c656d656e746174696f6e206973206e60448201527f6f74206120636f6e7472616374000000000000000000000000000000000000006064820152608401610636565b7f360894a13ba1a3210667c828492db98dca3e2076cc3735a920a3ca505d382bbc80546001600160a01b0319166001600160a01b0392909216919091179055565b61247e8361336b565b60008251118061248b5750805b156118a05761249a83836133ab565b50505050565b6001600160a01b03808216600081815260dc60205260409020918416036125095760405162461bcd60e51b815260206004820152601a60248201527f596f752063616e6e6f7420726566657220796f757273656c662e0000000000006044820152606401610636565b604080516101e08101825282546001600160a01b039081168252600184015481166020808401919091526002850154909116828401526003840180548451818402810184019095528085526126119486936060860193919290830182828015611ecb576020028201919060005260206000209081546001600160a01b03168152600190910190602001808311611ead5750505050508152602001600482018054806020026020016040519081016040528092919081815260200160009082821015611f44576000848152602090819020604080518082019091526002850290910180546001600160a01b03908116835260019182015416828401529083529092019101611ef9565b61326c5760006001600160a01b038416612645575060d9546001600160a01b0316600090815260dc6020526040902061265f565b506001600160a01b038316600090815260dc602052604090205b604080516101e08101825282546001600160a01b0390811682526001840154811660208084019190915260028501549091168284015260038401805484518184028101840190955280855261284d94869360608601939192908301828280156126f157602002820191906000526020600020905b81546001600160a01b031681526001909101906020018083116126d3575b5050505050815260200160048201805480602002602001604051908101604052809291908181526020016000905b8282101561276a576000848152602090819020604080518082019091526002850290910180546001600160a01b0390811683526001918201541682840152908352909201910161271f565b50505050815260200160058201805480602002602001604051908101604052809291908181526020016000905b828210156127e057600084815260209081902060408051808201909152908401546001600160a01b0381168252600160a01b900460ff1681830152825260019092019101612797565b505050908252506006820154602082015260078201546040820152600882015460ff16606082015260098201546080820152600a82015460a0820152600b82015460c0820152600c82015460e0820152600d820154610100820152600e90910154610120909101526134b8565b612b835761285b81836134d0565b60038101805460018082018355600083815260209081902090920180546001600160a01b0319166001600160a01b0388811691909117909155604080516101e08101825286548316815292860154821683850152600286015490911682820152835481518185028101850190925280825261298b949293869360608601939290918301828280156126f1576020028201919060005260206000209081546001600160a01b031681526001909101906020018083116126d3575050505050815260200160048201805480602002602001604051908101604052809291908181526020016000908282101561276a576000848152602090819020604080518082019091526002850290910180546001600160a01b0390811683526001918201541682840152908352909201910161271f565b15612b7e57604080516101e08101825282546001600160a01b03908116825260018401548116602080840191909152600285015490911682840152600384018054845181840281018401909552808552612b7e9486936060860193919290830182828015612a2257602002820191906000526020600020905b81546001600160a01b03168152600190910190602001808311612a04575b5050505050815260200160048201805480602002602001604051908101604052809291908181526020016000905b82821015612a9b576000848152602090819020604080518082019091526002850290910180546001600160a01b03908116835260019182015416828401529083529092019101612a50565b50505050815260200160058201805480602002602001604051908101604052809291908181526020016000905b82821015612b1157600084815260209081902060408051808201909152908401546001600160a01b0381168252600160a01b900460ff1681830152825260019092019101612ac8565b505050908252506006820154602082015260078201546040820152600882015460ff16606082015260098201546080820152600a82015460a0820152600b82015460c0820152600c82015460e0820152600d820154610100820152600e909101546101209091015261356c565b612eac565b600060dc6000612b91613662565b6001600160a01b03166001600160a01b031681526020019081526020016000209050612bbd81846134d0565b604080516101e08101825282546001600160a01b03908116825260018401548116602080840191909152600285015490911682840152600384018054845181840281018401909552808552612cc594869360608601939192908301828280156126f1576020028201919060005260206000209081546001600160a01b031681526001909101906020018083116126d3575050505050815260200160048201805480602002602001604051908101604052809291908181526020016000908282101561276a576000848152602090819020604080518082019091526002850290910180546001600160a01b0390811683526001918201541682840152908352909201910161271f565b15612dd257604080516101e08101825282546001600160a01b03908116825260018401548116602080840191909152600285015490911682840152600384018054845181840281018401909552808552612dd29486936060860193919290830182828015612a22576020028201919060005260206000209081546001600160a01b03168152600190910190602001808311612a045750505050508152602001600482018054806020026020016040519081016040528092919081815260200160009082821015612a9b576000848152602090819020604080518082019091526002850290910180546001600160a01b03908116835260019182015416828401529083529092019101612a50565b81548154604080516001600160a01b03938416815291831660208301529186168183015290517fa1b30426557565c4fa85ce5f9c88513d7d3f49d21eb30569c249b07b037831ef9181900360600190a1604080518082019091526001600160a01b038086168083528354821660208085019182526004870180546001818101835560009283528383209751600290920290970180549187166001600160a01b031992831617815593519387018054949096169381169390931790945560039095018054948501815583529390912090910180549092161790555b81600e01546000036130a657604080516101e08101825283546001600160a01b039081168252600185015481166020808401919091526002860154909116828401526003850180548451818402810184019095528085526130a69487936060860193919290830182828015612f4a57602002820191906000526020600020905b81546001600160a01b03168152600190910190602001808311612f2c575b5050505050815260200160048201805480602002602001604051908101604052809291908181526020016000905b82821015612fc3576000848152602090819020604080518082019091526002850290910180546001600160a01b03908116835260019182015416828401529083529092019101612f78565b50505050815260200160058201805480602002602001604051908101604052809291908181526020016000905b8282101561303957600084815260209081902060408051808201909152908401546001600160a01b0381168252600160a01b900460ff1681830152825260019092019101612ff0565b505050908252506006820154602082015260078201546040820152600882015460ff16606082015260098201546080820152600a82015460a0820152600b82015460c0820152600c82015460e0820152600d820154610100820152600e90910154610120909101526136e9565b60018201546001600160a01b03166131245780546001830180546001600160a01b039283166001600160a01b0319909116811790915560028401546040805192835290831660208301529185168183015290517f8efa008f8ae98ae30d3219078a298c85bc25a62f50c57ed9a3ec838b7eed9f479181900360600190a15b60d75460ff1660005b8160ff168160ff1610156132645760028401546001600160a01b0316156132645760028401546001600160a01b03908116600090815260dc60209081526040918290208251808401909352928816825291945060058501918101613192846001613cf6565b60ff90811690915282546001818101855560009485526020948590208451920180549590940151909216600160a01b0274ffffffffffffffffffffffffffffffffffffffffff199094166001600160a01b03918216179390931790915584547f85db3f10b88ea7fc653f3f818097a3fc3c543196ed60cad2251df922bcc9ad7f9216908790613222908590613cf6565b604080516001600160a01b03948516815293909216602084015260ff169082015260600160405180910390a1829350808061325c90613cd7565b91505061312d565b505050505050565b7f1f4fff38c5e64af9e759d590409f022ea913658008bb1d0cd35e028244f01ecf6040516132cb906020808252601f908201527f5573657220416c72656164792068617665207265666572726572207365742e00604082015260600190565b60405180910390a1505050565b60408101516000906001600160a01b0316156132f2575060015b919050565b600054610100900460ff166133625760405162461bcd60e51b815260206004820152602b60248201527f496e697469616c697a61626c653a20636f6e7472616374206973206e6f74206960448201526a6e697469616c697a696e6760a81b6064820152608401610636565b61097b33612287565b613374816123b7565b6040516001600160a01b038216907fbc7cd75a20ee27fd9adebab32041f755214dbc6bffa90cc0225b39da2e5c2d3b90600090a250565b60606001600160a01b0383163b61342a5760405162461bcd60e51b815260206004820152602660248201527f416464726573733a2064656c65676174652063616c6c20746f206e6f6e2d636f60448201527f6e747261637400000000000000000000000000000000000000000000000000006064820152608401610636565b600080846001600160a01b0316846040516134459190613d33565b600060405180830381855af49150503d8060008114613480576040519150601f19603f3d011682016040523d82523d6000602084013e613485565b606091505b50915091506134ad8282604051806060016040528060278152602001613d9960279139613772565b925050505b92915050565b600060d854826060015151106132f257506001919050565b60018101546001600160a01b03166135095760018083015490820180546001600160a01b0319166001600160a01b039092169190911790555b81546002820180546001600160a01b0319166001600160a01b0392831617905582548254604080519284168352921660208201527fec49a3c8c4ae06c18160fe86119c381c9d213ac3e052ff35b594da8687b193c7910160405180910390a15050565b60ca805461357c90600190613c40565b8154811061358c5761358c613c53565b9060005260206000200160009054906101000a90046001600160a01b031660ca826101c00151815481106135c2576135c2613c53565b9060005260206000200160006101000a8154816001600160a01b0302191690836001600160a01b0316021790555060ca80548061360157613601613d4f565b600082815260209020810160001990810180546001600160a01b031916905501905580516040517f644b85583ba83e73113ffc0c122b165819ca11db493cd4cc38f5ba29138ffa1b91610b77916001600160a01b0391909116815260200190565b6000804244613672600143613c40565b60408051602081019490945283019190915240606082015260800160408051601f19818403018152919052805160209091012060ca549091506000906136b89083613c7f565b905060ca81815481106136cd576136cd613c53565b6000918252602090912001546001600160a01b03169392505050565b60ca80546101c0830181905282516001820183556000929092527f42d72674974f694b5f5159593243114d38a5c39c89d6b62fee061ff523240ee10180546001600160a01b0319166001600160a01b039283161790558151604051911681527f06baf10092c7ea144c4fb56fb8cf641e1f00e291a535b5d54b547eadb29485a790602001610b77565b6060831561378157508161378b565b61378b8383613792565b9392505050565b8151156137a25781518083602001fd5b8060405162461bcd60e51b81526004016106369190613d65565b82805482825590600052602060002090601f016020900481019282156138525791602002820160005b8382111561382357835183826101000a81548160ff021916908360ff16021790555092602001926001016020816000010492830192600103026137e5565b80156138505782816101000a81549060ff0219169055600101602081600001049283019260010302613823565b505b5061385e929150613862565b5090565b5b8082111561385e5760008155600101613863565b80356001600160a01b03811681146132f257600080fd5b6000602082840312156138a057600080fd5b61378b82613877565b634e487b7160e01b600052604160045260246000fd5b600080604083850312156138d257600080fd5b6138db83613877565b9150602083013567ffffffffffffffff808211156138f857600080fd5b818501915085601f83011261390c57600080fd5b81358181111561391e5761391e6138a9565b604051601f8201601f19908116603f01168101908382118183101715613946576139466138a9565b8160405282815288602084870101111561395f57600080fd5b8260208601602083013760006020848301015280955050505050509250929050565b600081518084526020808501945080840160005b838110156139cb57815180516001600160a01b039081168952602091820151169088015260408701965090820190600101613995565b509495945050505050565b600081518084526020808501945080840160005b838110156139cb57815180516001600160a01b0316885283015160ff1683880152604090960195908201906001016139ea565b600060e082016001600160a01b03808b168452602060e081860152828b5180855261010087019150828d01945060005b81811015613a6b578551851683529483019491830191600101613a4d565b50508a60408701528581036060870152613a85818b613981565b935050505085608084015282810360a0840152613aa281866139d6565b9150508260c083015298975050505050505050565b600081518084526020808501945080840160005b838110156139cb5781516001600160a01b031687529582019590820190600101613acb565b60208152613b0a6020820183516001600160a01b03169052565b60006020830151613b2660408401826001600160a01b03169052565b5060408301516001600160a01b03811660608401525060608301516101e0806080850152613b58610200850183613ab7565b91506080850151601f19808685030160a0870152613b768483613981565b935060a08701519150808685030160c087015250613b9483826139d6565b92505060c085015160e085015260e0850151610100818187015280870151915050610120613bc68187018360ff169052565b8601516101408681019190915286015161016080870191909152860151610180808701919091528601516101a0808701919091528601516101c0808701919091529095015193019290925250919050565b634e487b7160e01b600052601160045260246000fd5b808201808211156134b2576134b2613c17565b818103818111156134b2576134b2613c17565b634e487b7160e01b600052603260045260246000fd5b634e487b7160e01b600052601260045260246000fd5b600082613c8e57613c8e613c69565b500690565b600060208284031215613ca557600080fd5b5051919050565b80820281158282048414176134b2576134b2613c17565b600082613cd257613cd2613c69565b500490565b600060ff821660ff8103613ced57613ced613c17565b60010192915050565b60ff81811683821601908111156134b2576134b2613c17565b60005b83811015613d2a578181015183820152602001613d12565b50506000910152565b60008251613d45818460208701613d0f565b9190910192915050565b634e487b7160e01b600052603160045260246000fd5b6020815260008251806020840152613d84816040850160208701613d0f565b601f01601f1916919091016040019291505056fe416464726573733a206c6f772d6c6576656c2064656c65676174652063616c6c206661696c6564a264697066735822122079723689b01a1563a87d3f650847647766f06e7a7910e28b352b266f9fb61be364736f6c63430008120033",
  "linkReferences": {},
  "deployedLinkReferences": {}
}