{
  "_format": "hh-sol-artifact-1",
  "contractName": "CashXProtocolReferral",
  "sourceName": "contracts/CashXProtocolReferral.sol",
  "abi": [
    {
      "anonymous": false,
      "inputs": [
        {
          "indexed": false,
          "internalType": "address",
          "name": "user",
          "type": "address"
        }
      ],
      "name": "AddedToRandomList",
      "type": "event"
    },
    {
      "anonymous": false,
      "inputs": [
        {
          "indexed": false,
          "internalType": "address",
          "name": "previousAdmin",
          "type": "address"
        },
        {
          "indexed": false,
          "internalType": "address",
          "name": "newAdmin",
          "type": "address"
        }
      ],
      "name": "AdminChanged",
      "type": "event"
    },
    {
      "anonymous": false,
      "inputs": [
        {
          "indexed": true,
          "internalType": "address",
          "name": "beacon",
          "type": "address"
        }
      ],
      "name": "BeaconUpgraded",
      "type": "event"
    },
    {
      "anonymous": false,
      "inputs": [
        {
          "indexed": false,
          "internalType": "uint8",
          "name": "version",
          "type": "uint8"
        }
      ],
      "name": "Initialized",
      "type": "event"
    },
    {
      "anonymous": false,
      "inputs": [
        {
          "indexed": true,
          "internalType": "address",
          "name": "previousOwner",
          "type": "address"
        },
        {
          "indexed": true,
          "internalType": "address",
          "name": "newOwner",
          "type": "address"
        }
      ],
      "name": "OwnershipTransferred",
      "type": "event"
    },
    {
      "anonymous": false,
      "inputs": [
        {
          "indexed": false,
          "internalType": "address",
          "name": "by",
          "type": "address"
        },
        {
          "indexed": false,
          "internalType": "address",
          "name": "to",
          "type": "address"
        },
        {
          "indexed": false,
          "internalType": "address",
          "name": "user",
          "type": "address"
        }
      ],
      "name": "ParentAdded",
      "type": "event"
    },
    {
      "anonymous": false,
      "inputs": [
        {
          "indexed": false,
          "internalType": "address",
          "name": "to",
          "type": "address"
        },
        {
          "indexed": false,
          "internalType": "address",
          "name": "user",
          "type": "address"
        },
        {
          "indexed": false,
          "internalType": "uint256",
          "name": "valueInWei",
          "type": "uint256"
        },
        {
          "indexed": false,
          "internalType": "uint32",
          "name": "level",
          "type": "uint32"
        }
      ],
      "name": "ReferralRewardsPaid",
      "type": "event"
    },
    {
      "anonymous": false,
      "inputs": [
        {
          "indexed": false,
          "internalType": "address",
          "name": "by",
          "type": "address"
        },
        {
          "indexed": false,
          "internalType": "address",
          "name": "user",
          "type": "address"
        }
      ],
      "name": "ReferrerAdded",
      "type": "event"
    },
    {
      "anonymous": false,
      "inputs": [
        {
          "indexed": false,
          "internalType": "string",
          "name": "reason",
          "type": "string"
        }
      ],
      "name": "ReferrerNoAdded",
      "type": "event"
    },
    {
      "anonymous": false,
      "inputs": [
        {
          "indexed": false,
          "internalType": "address",
          "name": "by",
          "type": "address"
        },
        {
          "indexed": false,
          "internalType": "address",
          "name": "to",
          "type": "address"
        },
        {
          "indexed": false,
          "internalType": "address",
          "name": "user",
          "type": "address"
        },
        {
          "indexed": false,
          "internalType": "uint256",
          "name": "valueInWei",
          "type": "uint256"
        }
      ],
      "name": "Registration",
      "type": "event"
    },
    {
      "anonymous": false,
      "inputs": [
        {
          "indexed": false,
          "internalType": "address",
          "name": "by",
          "type": "address"
        },
        {
          "indexed": false,
          "internalType": "address",
          "name": "to",
          "type": "address"
        },
        {
          "indexed": false,
          "internalType": "address",
          "name": "user",
          "type": "address"
        }
      ],
      "name": "RegistrationAssigned",
      "type": "event"
    },
    {
      "anonymous": false,
      "inputs": [
        {
          "indexed": false,
          "internalType": "address",
          "name": "user",
          "type": "address"
        }
      ],
      "name": "RemovedFromRandomList",
      "type": "event"
    },
    {
      "anonymous": false,
      "inputs": [
        {
          "indexed": false,
          "internalType": "address",
          "name": "to",
          "type": "address"
        },
        {
          "indexed": false,
          "internalType": "address",
          "name": "user",
          "type": "address"
        },
        {
          "indexed": false,
          "internalType": "uint32",
          "name": "level",
          "type": "uint32"
        }
      ],
      "name": "TeamAddressAdded",
      "type": "event"
    },
    {
      "anonymous": false,
      "inputs": [
        {
          "indexed": false,
          "internalType": "address",
          "name": "to",
          "type": "address"
        },
        {
          "indexed": false,
          "internalType": "uint256",
          "name": "valueInWei",
          "type": "uint256"
        }
      ],
      "name": "TeamWalletRewardPaid",
      "type": "event"
    },
    {
      "anonymous": false,
      "inputs": [
        {
          "indexed": false,
          "internalType": "string",
          "name": "reason",
          "type": "string"
        }
      ],
      "name": "UpgradeRewardNotPaid",
      "type": "event"
    },
    {
      "anonymous": false,
      "inputs": [
        {
          "indexed": false,
          "internalType": "address",
          "name": "to",
          "type": "address"
        },
        {
          "indexed": false,
          "internalType": "address",
          "name": "by",
          "type": "address"
        },
        {
          "indexed": false,
          "internalType": "uint256",
          "name": "valueInWei",
          "type": "uint256"
        }
      ],
      "name": "UpgradeRewardPaid",
      "type": "event"
    },
    {
      "anonymous": false,
      "inputs": [
        {
          "indexed": true,
          "internalType": "address",
          "name": "implementation",
          "type": "address"
        }
      ],
      "name": "Upgraded",
      "type": "event"
    },
    {
      "anonymous": false,
      "inputs": [
        {
          "indexed": false,
          "internalType": "address",
          "name": "to",
          "type": "address"
        },
        {
          "indexed": false,
          "internalType": "uint256",
          "name": "valueInWei",
          "type": "uint256"
        }
      ],
      "name": "WeeklyRewardsPaid",
      "type": "event"
    },
    {
      "inputs": [
        {
          "internalType": "address",
          "name": "_chainLinkOracleAddress",
          "type": "address"
        }
      ],
      "name": "checkIfChainLinkOracleAddressSupporeted",
      "outputs": [
        {
          "internalType": "bool",
          "name": "",
          "type": "bool"
        }
      ],
      "stateMutability": "view",
      "type": "function"
    },
    {
      "inputs": [
        {
          "internalType": "address",
          "name": "_chainLinkOracleAddress",
          "type": "address"
        }
      ],
      "name": "distributeWeeklyReward",
      "outputs": [],
      "stateMutability": "nonpayable",
      "type": "function"
    },
    {
      "inputs": [],
      "name": "getAllUsers",
      "outputs": [
        {
          "internalType": "address[]",
          "name": "",
          "type": "address[]"
        }
      ],
      "stateMutability": "view",
      "type": "function"
    },
    {
      "inputs": [],
      "name": "getContractDefaults",
      "outputs": [
        {
          "internalType": "address",
          "name": "teamWallet",
          "type": "address"
        },
        {
          "internalType": "uint256",
          "name": "teamWalletRate",
          "type": "uint256"
        },
        {
          "internalType": "address",
          "name": "liquidityWallet",
          "type": "address"
        },
        {
          "internalType": "uint256",
          "name": "liquidityCreationrate",
          "type": "uint256"
        },
        {
          "internalType": "address",
          "name": "defaultReferrer",
          "type": "address"
        },
        {
          "internalType": "uint256",
          "name": "registrationValueInUSD",
          "type": "uint256"
        }
      ],
      "stateMutability": "view",
      "type": "function"
    },
    {
      "inputs": [],
      "name": "getNativePriceInUSD",
      "outputs": [
        {
          "internalType": "uint256",
          "name": "",
          "type": "uint256"
        }
      ],
      "stateMutability": "view",
      "type": "function"
    },
    {
      "inputs": [],
      "name": "getRandomUserList",
      "outputs": [
        {
          "internalType": "address[]",
          "name": "",
          "type": "address[]"
        }
      ],
      "stateMutability": "view",
      "type": "function"
    },
    {
      "inputs": [],
      "name": "getRegistrationsStats",
      "outputs": [
        {
          "internalType": "uint32",
          "name": "totalUser",
          "type": "uint32"
        },
        {
          "internalType": "uint256",
          "name": "totalRegistrationValueInUSD",
          "type": "uint256"
        },
        {
          "internalType": "uint256",
          "name": "totalReferralPaidInUSD",
          "type": "uint256"
        },
        {
          "internalType": "uint256",
          "name": "totalWeeklyRewardsPaidInUSD",
          "type": "uint256"
        }
      ],
      "stateMutability": "view",
      "type": "function"
    },
    {
      "inputs": [],
      "name": "getSupportedChainLinkOracleAddress",
      "outputs": [
        {
          "internalType": "address[]",
          "name": "",
          "type": "address[]"
        }
      ],
      "stateMutability": "view",
      "type": "function"
    },
    {
      "inputs": [],
      "name": "getUpgradePlans",
      "outputs": [
        {
          "components": [
            {
              "internalType": "uint8",
              "name": "id",
              "type": "uint8"
            },
            {
              "internalType": "uint256",
              "name": "valueToUpgradeInUSD",
              "type": "uint256"
            }
          ],
          "internalType": "struct UpgradeStruct[]",
          "name": "upgradePlans",
          "type": "tuple[]"
        },
        {
          "internalType": "uint8",
          "name": "upgradePlansCount",
          "type": "uint8"
        }
      ],
      "stateMutability": "view",
      "type": "function"
    },
    {
      "inputs": [
        {
          "internalType": "uint8",
          "name": "_id",
          "type": "uint8"
        }
      ],
      "name": "getUpgradePlansById",
      "outputs": [
        {
          "components": [
            {
              "internalType": "uint8",
              "name": "id",
              "type": "uint8"
            },
            {
              "internalType": "uint256",
              "name": "valueToUpgradeInUSD",
              "type": "uint256"
            }
          ],
          "internalType": "struct UpgradeStruct",
          "name": "",
          "type": "tuple"
        }
      ],
      "stateMutability": "view",
      "type": "function"
    },
    {
      "inputs": [
        {
          "internalType": "address",
          "name": "_userAddress",
          "type": "address"
        }
      ],
      "name": "getUserAccount",
      "outputs": [
        {
          "components": [
            {
              "internalType": "address",
              "name": "self",
              "type": "address"
            },
            {
              "internalType": "address",
              "name": "parent",
              "type": "address"
            },
            {
              "internalType": "address",
              "name": "referrer",
              "type": "address"
            },
            {
              "internalType": "address[]",
              "name": "referee",
              "type": "address[]"
            },
            {
              "components": [
                {
                  "internalType": "address",
                  "name": "referee",
                  "type": "address"
                },
                {
                  "internalType": "address",
                  "name": "assignedTo",
                  "type": "address"
                }
              ],
              "internalType": "struct RefereeStruct[]",
              "name": "refereeAssigned",
              "type": "tuple[]"
            },
            {
              "components": [
                {
                  "internalType": "address",
                  "name": "teamMember",
                  "type": "address"
                },
                {
                  "internalType": "uint8",
                  "name": "level",
                  "type": "uint8"
                }
              ],
              "internalType": "struct TeamStruct[]",
              "name": "team",
              "type": "tuple[]"
            },
            {
              "internalType": "uint256",
              "name": "selfBusinessInUSD",
              "type": "uint256"
            },
            {
              "internalType": "uint256",
              "name": "upgradedValueInUSD",
              "type": "uint256"
            },
            {
              "internalType": "uint8",
              "name": "upgradeId",
              "type": "uint8"
            },
            {
              "internalType": "uint256",
              "name": "directBusinessInUSD",
              "type": "uint256"
            },
            {
              "internalType": "uint256",
              "name": "teamBusinessInUSD",
              "type": "uint256"
            },
            {
              "internalType": "uint256",
              "name": "referralRewardsInUSD",
              "type": "uint256"
            },
            {
              "internalType": "uint256",
              "name": "weeklyRewardsInUSD",
              "type": "uint256"
            },
            {
              "internalType": "uint256",
              "name": "upgradeRewardsInUSD",
              "type": "uint256"
            },
            {
              "internalType": "uint256",
              "name": "userRandomIndex",
              "type": "uint256"
            }
          ],
          "internalType": "struct AccountStruct",
          "name": "",
          "type": "tuple"
        }
      ],
      "stateMutability": "view",
      "type": "function"
    },
    {
      "inputs": [
        {
          "internalType": "address",
          "name": "_userAddress",
          "type": "address"
        }
      ],
      "name": "getUserBusiness",
      "outputs": [
        {
          "internalType": "uint256",
          "name": "selfBusinessInUSD",
          "type": "uint256"
        },
        {
          "internalType": "uint256",
          "name": "directBusinessInUSD",
          "type": "uint256"
        },
        {
          "internalType": "uint256",
          "name": "teamBusinessInUSD",
          "type": "uint256"
        },
        {
          "internalType": "uint256",
          "name": "totalBusinessInUSD",
          "type": "uint256"
        }
      ],
      "stateMutability": "view",
      "type": "function"
    },
    {
      "inputs": [
        {
          "internalType": "address",
          "name": "_userAddress",
          "type": "address"
        }
      ],
      "name": "getUserCurrentUpgradeLevel",
      "outputs": [
        {
          "internalType": "uint8",
          "name": "level",
          "type": "uint8"
        },
        {
          "internalType": "uint256",
          "name": "totalUpgradeValueInUSD",
          "type": "uint256"
        }
      ],
      "stateMutability": "view",
      "type": "function"
    },
    {
      "inputs": [
        {
          "internalType": "address",
          "name": "_userAddress",
          "type": "address"
        }
      ],
      "name": "getUserRewards",
      "outputs": [
        {
          "internalType": "uint256",
          "name": "referralRewardInUSD",
          "type": "uint256"
        },
        {
          "internalType": "uint256",
          "name": "weeklyRewardInUSD",
          "type": "uint256"
        },
        {
          "internalType": "uint256",
          "name": "upgradeRewardsInUSD",
          "type": "uint256"
        },
        {
          "internalType": "uint256",
          "name": "totalRewards",
          "type": "uint256"
        }
      ],
      "stateMutability": "view",
      "type": "function"
    },
    {
      "inputs": [
        {
          "internalType": "address",
          "name": "_userAddress",
          "type": "address"
        }
      ],
      "name": "getUserTeam",
      "outputs": [
        {
          "internalType": "address",
          "name": "referrer",
          "type": "address"
        },
        {
          "internalType": "address[]",
          "name": "referees",
          "type": "address[]"
        },
        {
          "internalType": "uint256",
          "name": "refereeCount",
          "type": "uint256"
        },
        {
          "components": [
            {
              "internalType": "address",
              "name": "referee",
              "type": "address"
            },
            {
              "internalType": "address",
              "name": "assignedTo",
              "type": "address"
            }
          ],
          "internalType": "struct RefereeStruct[]",
          "name": "refereeAssigned",
          "type": "tuple[]"
        },
        {
          "internalType": "uint256",
          "name": "refereeAssignedCount",
          "type": "uint256"
        },
        {
          "components": [
            {
              "internalType": "address",
              "name": "teamMember",
              "type": "address"
            },
            {
              "internalType": "uint8",
              "name": "level",
              "type": "uint8"
            }
          ],
          "internalType": "struct TeamStruct[]",
          "name": "team",
          "type": "tuple[]"
        },
        {
          "internalType": "uint256",
          "name": "teamCount",
          "type": "uint256"
        }
      ],
      "stateMutability": "view",
      "type": "function"
    },
    {
      "inputs": [],
      "name": "getWeeklyRewardToBeDistributed",
      "outputs": [
        {
          "internalType": "uint256",
          "name": "_rewardValue",
          "type": "uint256"
        },
        {
          "internalType": "uint256",
          "name": "_remianingTime",
          "type": "uint256"
        },
        {
          "internalType": "uint256",
          "name": "_endTime",
          "type": "uint256"
        }
      ],
      "stateMutability": "view",
      "type": "function"
    },
    {
      "inputs": [],
      "name": "initialize",
      "outputs": [],
      "stateMutability": "nonpayable",
      "type": "function"
    },
    {
      "inputs": [
        {
          "internalType": "address",
          "name": "_chainLinkOracleAddress",
          "type": "address"
        }
      ],
      "name": "needNativeToRegister",
      "outputs": [
        {
          "internalType": "uint256",
          "name": "",
          "type": "uint256"
        }
      ],
      "stateMutability": "view",
      "type": "function"
    },
    {
      "inputs": [],
      "name": "needTokensToRegister",
      "outputs": [
        {
          "internalType": "uint256",
          "name": "",
          "type": "uint256"
        }
      ],
      "stateMutability": "view",
      "type": "function"
    },
    {
      "inputs": [],
      "name": "owner",
      "outputs": [
        {
          "internalType": "address",
          "name": "",
          "type": "address"
        }
      ],
      "stateMutability": "view",
      "type": "function"
    },
    {
      "inputs": [],
      "name": "proxiableUUID",
      "outputs": [
        {
          "internalType": "bytes32",
          "name": "",
          "type": "bytes32"
        }
      ],
      "stateMutability": "view",
      "type": "function"
    },
    {
      "inputs": [
        {
          "internalType": "address",
          "name": "_referrer",
          "type": "address"
        },
        {
          "internalType": "address",
          "name": "_chainLinkOracleAddress",
          "type": "address"
        }
      ],
      "name": "registrationNative",
      "outputs": [],
      "stateMutability": "payable",
      "type": "function"
    },
    {
      "inputs": [],
      "name": "renounceOwnership",
      "outputs": [],
      "stateMutability": "nonpayable",
      "type": "function"
    },
    {
      "inputs": [
        {
          "internalType": "address",
          "name": "_chainLinkOracleAddress",
          "type": "address"
        },
        {
          "internalType": "bool",
          "name": "_status",
          "type": "bool"
        }
      ],
      "name": "setChainLinkOracleAddress",
      "outputs": [],
      "stateMutability": "nonpayable",
      "type": "function"
    },
    {
      "inputs": [],
      "name": "setDefaults",
      "outputs": [],
      "stateMutability": "nonpayable",
      "type": "function"
    },
    {
      "inputs": [
        {
          "internalType": "address",
          "name": "newOwner",
          "type": "address"
        }
      ],
      "name": "transferOwnership",
      "outputs": [],
      "stateMutability": "nonpayable",
      "type": "function"
    },
    {
      "inputs": [
        {
          "internalType": "uint256[]",
          "name": "_valueToUpgradeInDecimals",
          "type": "uint256[]"
        }
      ],
      "name": "updateUpgradePlans",
      "outputs": [],
      "stateMutability": "nonpayable",
      "type": "function"
    },
    {
      "inputs": [
        {
          "internalType": "address",
          "name": "_chainLinkOracleAddress",
          "type": "address"
        }
      ],
      "name": "upgradeAccountNative",
      "outputs": [],
      "stateMutability": "payable",
      "type": "function"
    },
    {
      "inputs": [
        {
          "internalType": "address",
          "name": "newImplementation",
          "type": "address"
        }
      ],
      "name": "upgradeTo",
      "outputs": [],
      "stateMutability": "nonpayable",
      "type": "function"
    },
    {
      "inputs": [
        {
          "internalType": "address",
          "name": "newImplementation",
          "type": "address"
        },
        {
          "internalType": "bytes",
          "name": "data",
          "type": "bytes"
        }
      ],
      "name": "upgradeToAndCall",
      "outputs": [],
      "stateMutability": "payable",
      "type": "function"
    },
    {
      "stateMutability": "payable",
      "type": "receive"
    }
  ],
  "bytecode": "0x60a06040523060805234801561001457600080fd5b50608051614e0361004c600039600081816109ec01528181610a7101528181610b6701528181610bec0152610cd60152614e036000f3fe6080604052600436106101d15760003560e01c80638129fc1c116100f7578063d277b8a911610095578063f87127b411610064578063f87127b4146105ca578063f9250171146105ea578063faeda7e514610623578063fb47e0161461065657600080fd5b8063d277b8a914610555578063e2842d7914610575578063e35422e71461058a578063f2fde38b146105aa57600080fd5b8063a0db38e5116100d1578063a0db38e5146104af578063a7be6a72146104c2578063a9df9fae146104d7578063c53b219e1461054257600080fd5b80638129fc1c14610442578063846688f7146104575780638da5cb5b1461048757600080fd5b80633659cfe61161016f5780635eda81ce1161013e5780635eda81ce146103e357806363a5404214610403578063715018a6146104185780637ec37e031461042d57600080fd5b80633659cfe6146103765780634f1ef2861461039857806352d1902d146103ab57806359a04544146103c057600080fd5b806308e922ba116101ab57806308e922ba146102905780630f2a2d38146102b257806311f4d576146102c65780631a7463441461030f57600080fd5b80630690c6a8146101dd578063078b0fb71461022257806307c560d11461026257600080fd5b366101d857005b600080fd5b3480156101e957600080fd5b5060c95460cb5460cc5460ce546040805163ffffffff909516855260208501939093529183015260608201526080015b60405180910390f35b34801561022e57600080fd5b5061024261023d366004614607565b610683565b604080519485526020850193909352918301526060820152608001610219565b34801561026e57600080fd5b5061028261027d366004614607565b6108ba565b604051908152602001610219565b34801561029c57600080fd5b506102a5610980565b6040516102199190614666565b3480156102be57600080fd5b506000610282565b3480156102d257600080fd5b506102ff6102e1366004614607565b6001600160a01b0316600090815260dd602052604090205460ff1690565b6040519015158152602001610219565b34801561031b57600080fd5b5060cf5460d95460d15460d75460d854604080516001600160a01b03808816825260ff600160a01b909804881660208301529586169181019190915294909216606085015291909116608083015260a082015260c001610219565b34801561038257600080fd5b50610396610391366004614607565b6109e2565b005b6103966103a636600461468f565b610b5d565b3480156103b757600080fd5b50610282610cc9565b3480156103cc57600080fd5b506103d5610d8e565b604051610219929190614751565b3480156103ef57600080fd5b506103966103fe3660046147b6565b610e7c565b34801561040f57600080fd5b5060de54610282565b34801561042457600080fd5b506103966110c5565b34801561043957600080fd5b506102a56110d9565b34801561044e57600080fd5b50610396611139565b34801561046357600080fd5b5061046c61132e565b60408051938452602084019290925290820152606001610219565b34801561049357600080fd5b506033546040516001600160a01b039091168152602001610219565b6103966104bd366004614607565b611364565b3480156104ce57600080fd5b506103966113f3565b3480156104e357600080fd5b506105356104f2366004614801565b6040805180820182526000808252602091820181905260ff938416815260dc82528290208251808401909352805490931682526001909201549181019190915290565b604051610219919061481e565b610396610550366004614838565b611554565b34801561056157600080fd5b50610396610570366004614607565b611693565b34801561058157600080fd5b506102a561198a565b34801561059657600080fd5b506103966105a536600461486b565b6119ea565b3480156105b657600080fd5b506103966105c5366004614607565b611a92565b3480156105d657600080fd5b506102426105e5366004614607565b611b1f565b3480156105f657600080fd5b5061060a610605366004614607565b611d41565b6040805160ff9093168352602083019190915201610219565b34801561062f57600080fd5b5061064361063e366004614607565b611f65565b604051610219979695949392919061496f565b34801561066257600080fd5b50610676610671366004614607565b6121ac565b60405161021991906149d8565b6001600160a01b03808216600090815260db6020908152604080832081516101e08101835281548616815260018201548616818501526002820154909516858301526003810180548351818602810186019094528084529495869586958695869593946060860193919290919083018282801561072957602002820191906000526020600020905b81546001600160a01b0316815260019091019060200180831161070b575b5050505050815260200160048201805480602002602001604051908101604052809291908181526020016000905b828210156107a2576000848152602090819020604080518082019091526002850290910180546001600160a01b03908116835260019182015416828401529083529092019101610757565b50505050815260200160058201805480602002602001604051908101604052809291908181526020016000905b8282101561081857600084815260209081902060408051808201909152908401546001600160a01b0381168252600160a01b900460ff16818301528252600190920191016107cf565b505050908252506006820154602082015260078201546040820152600882015460ff16606082015260098201546080820152600a82015460a0820152600b82015460c0820152600c82015460e0820152600d820154610100820152600e90910154610120909101526101608101516101808201516101a0830151919750955093509050826108a68587614b15565b6108b09190614b15565b9150509193509193565b6001600160a01b038116600090815260dd602052604081205460ff1615156001146109525760405162461bcd60e51b815260206004820152603860248201527f506c6561736520636865636b2074686520636861696e4c696e6b4f7261636c6560448201527f41646472657373206f72206e6f7420737570706f72746564000000000000000060648201526084015b60405180910390fd5b61095b8261243b565b60d85461097090670de0b6b3a7640000614b28565b61097a9190614b55565b92915050565b606060da8054806020026020016040519081016040528092919081815260200182805480156109d857602002820191906000526020600020905b81546001600160a01b031681526001909101906020018083116109ba575b5050505050905090565b6001600160a01b037f0000000000000000000000000000000000000000000000000000000000000000163003610a6f5760405162461bcd60e51b815260206004820152602c60248201527f46756e6374696f6e206d7573742062652063616c6c6564207468726f7567682060448201526b19195b1959d85d1958d85b1b60a21b6064820152608401610949565b7f00000000000000000000000000000000000000000000000000000000000000006001600160a01b0316610aca7f360894a13ba1a3210667c828492db98dca3e2076cc3735a920a3ca505d382bbc546001600160a01b031690565b6001600160a01b031614610b355760405162461bcd60e51b815260206004820152602c60248201527f46756e6374696f6e206d7573742062652063616c6c6564207468726f7567682060448201526b6163746976652070726f787960a01b6064820152608401610949565b610b3e81612519565b60408051600080825260208201909252610b5a91839190612521565b50565b6001600160a01b037f0000000000000000000000000000000000000000000000000000000000000000163003610bea5760405162461bcd60e51b815260206004820152602c60248201527f46756e6374696f6e206d7573742062652063616c6c6564207468726f7567682060448201526b19195b1959d85d1958d85b1b60a21b6064820152608401610949565b7f00000000000000000000000000000000000000000000000000000000000000006001600160a01b0316610c457f360894a13ba1a3210667c828492db98dca3e2076cc3735a920a3ca505d382bbc546001600160a01b031690565b6001600160a01b031614610cb05760405162461bcd60e51b815260206004820152602c60248201527f46756e6374696f6e206d7573742062652063616c6c6564207468726f7567682060448201526b6163746976652070726f787960a01b6064820152608401610949565b610cb982612519565b610cc582826001612521565b5050565b6000306001600160a01b037f00000000000000000000000000000000000000000000000000000000000000001614610d695760405162461bcd60e51b815260206004820152603860248201527f555550535570677261646561626c653a206d757374206e6f742062652063616c60448201527f6c6564207468726f7567682064656c656761746563616c6c00000000000000006064820152608401610949565b507f360894a13ba1a3210667c828492db98dca3e2076cc3735a920a3ca505d382bbc90565b60606000610d9a6126c1565b905060008160ff1667ffffffffffffffff811115610dba57610dba614679565b604051908082528060200260200182016040528015610dff57816020015b6040805180820190915260008082526020820152815260200190600190039081610dd85790505b50905060005b8260ff168160ff161015610e755760ff808216600081815260dc60209081526040918290208251808401909352805490941682526001909301549281019290925283518491908110610e5957610e59614b69565b602002602001018190525080610e6e90614b7f565b9050610e05565b5092909150565b610e8461270f565b6001600160a01b038216600090815260dd602052604090205460ff1681151581151503610ef35760405162461bcd60e51b815260206004820152601260248201527f53746174757320616c72656164792073657400000000000000000000000000006044820152606401610949565b6001600160a01b038316600090815260dd60205260409020805460ff1916831515908117909155600103610f735760da80546001810182556000919091527fb3d6e86317c38844915b053a0c35ff2fc103b684e96cef2918ab06844eb51aaf0180546001600160a01b0385166001600160a01b0319909116179055505050565b600060da805480602002602001604051908101604052809291908181526020018280548015610fcb57602002820191906000526020600020905b81546001600160a01b03168152600190910190602001808311610fad575b505083519394506000925050505b818110156110bc57856001600160a01b0316838281518110610ffd57610ffd614b69565b60200260200101516001600160a01b0316036110ac578261101f600184614b9e565b8151811061102f5761102f614b69565b602002602001015160da828154811061104a5761104a614b69565b9060005260206000200160006101000a8154816001600160a01b0302191690836001600160a01b0316021790555060da80548061108957611089614bb1565b600082815260209020810160001990810180546001600160a01b03191690550190555b6110b581614bc7565b9050610fd9565b5050505b505050565b6110cd61270f565b6110d76000612769565b565b606060ca8054806020026020016040519081016040528092919081815260200182805480156109d8576020028201919060005260206000209081546001600160a01b031681526001909101906020018083116109ba575050505050905090565b600054610100900460ff16158080156111595750600054600160ff909116105b806111735750303b158015611173575060005460ff166001145b6111e55760405162461bcd60e51b815260206004820152602e60248201527f496e697469616c697a61626c653a20636f6e747261637420697320616c72656160448201527f647920696e697469616c697a65640000000000000000000000000000000000006064820152608401610949565b6000805460ff191660011790558015611208576000805461ff0019166101001790555b60d7805473eb1100091ce830ba58a04834c35d29b75b53eb746001600160a01b03199182161790915568015af1d78b58c4000060d85560d5805461ffff191661083c179055600260d65560cf805474ffffffffffffffffffffffffffffffffffffffffff1916741476b7c991c3ef93b6771fac97a984a2cb37962fbc17905560d18054601060ff199182161790915560d3805490911660041790554260d45560d9805473efa6077f510b10a6c1b2f8da24a89fc561ac94459216919091179055680d8d726b7177a8000060de556112dd6127bb565b6112e561282e565b8015610b5a576000805461ff0019169055604051600181527f7f26b83ff96e1f2b6a682f133852f6798a09c465da95921460cefb3847402498906020015b60405180910390a150565b60d25460d45460009081906113469062093a80614b15565b9050428082111561135e5761135b8183614b9e565b92505b50909192565b6001600160a01b038116600090815260dd602052604090205460ff1615156001146113d15760405162461bcd60e51b815260206004820152601660248201527f43757272656e6379206e6f7420737570706f72746564000000000000000000006044820152606401610949565b3460006113e6826113e18561243b565b612899565b90506110c08282336128b8565b6113fb61270f565b60d780546001600160a01b03908116600081815260db6020908152604080832080546001600160a01b0319908116909517905585548516808452908320600190810180548616909217909155945460ca80548088019091557f42d72674974f694b5f5159593243114d38a5c39c89d6b62fee061ff523240ee1018054919095169084161790935560da805480860182557fb3d6e86317c38844915b053a0c35ff2fc103b684e96cef2918ab06844eb51aaf9081018054730567f2323251f0aab15c8dfb1967e4e8a7d42aee9086161790558154808701909255018054739c85f470f9ba23dfc4fe9531933c2ce2c1739c3993168317905560dd9092527f24857c067b5bf6f722cf08bb2f122c0d209943adbf232b134dbc20e92ceb6302805460ff19908116851790915591527f104bf10f5154d0643a3dd424c451ce4851c3ba6f6d1398592580574e3e1a420480549091169091179055565b6001600160a01b0382166115d05760405162461bcd60e51b815260206004820152602360248201527f5a65726f20416464726573732063616e6e6f742062652074686520726566657260448201527f72657200000000000000000000000000000000000000000000000000000000006064820152608401610949565b6001600160a01b038116600090815260dd602052604090205460ff1615156001146116635760405162461bcd60e51b815260206004820152602360248201527f43757272656e637920596f752073656c6563746564206e6f7420737570706f7260448201527f74656400000000000000000000000000000000000000000000000000000000006064820152608401610949565b34600061166f8361243b565b9050600061167d8383612899565b905061168c8533838686612c70565b5050505050565b6001600160a01b038116600090815260dd602052604090205460ff1615156001146117005760405162461bcd60e51b815260206004820152601660248201527f43757272656e6379206e6f7420737570706f72746564000000000000000000006044820152606401610949565b60d2546000611712826113e18561243b565b9050600060d45462093a806117279190614b15565b9050428181101561177a5760405162461bcd60e51b815260206004820152601c60248201527f5765656b6c792074696d65206973206e6f74206f766572207965742e000000006044820152606401610949565b600060d254116117cc5760405162461bcd60e51b815260206004820152601860248201527f4e6f207265776172647320746f206469737472696275746500000000000000006044820152606401610949565b600060c980548060200260200160405190810160405280929190818152602001828054801561182457602002820191906000526020600020905b81546001600160a01b03168152600190910190602001808311611806575b505050505090506000424460014361183c9190614b9e565b6040805160208101949094528301919091524060608201526080016040516020818303038152906040528051906020012060001c905060008251826118819190614be0565b9050600083828151811061189757611897614b69565b60200260200101519050600060db6000836001600160a01b03166001600160a01b0316815260200190815260200160002090508781600c0160008282546118de9190614b15565b90915550506040516001600160a01b038316908a156108fc02908b906000818181858888f19350505050158015611919573d6000803e3d6000fd5b50600060d28190554260d45560ce80548a9290611937908490614b15565b9091555050604080516001600160a01b0384168152602081018a90527ffff6edc60fd30afefcc47525cdf85502200830b22550391f79f9e383df03afad910160405180910390a150505050505050505050565b606060c98054806020026020016040519081016040528092919081815260200182805480156109d8576020028201919060005260206000209081546001600160a01b031681526001909101906020018083116109ba575050505050905090565b6119f261270f565b60005b60ff81168211156110c0576040518060400160405280826001611a189190614bf4565b60ff16815260200184848460ff16818110611a3557611a35614b69565b90506020020135670de0b6b3a7640000611a4f9190614b28565b905260ff828116600090815260dc602090815260409091208351815460ff191693169290921782559190910151600190910155611a8b81614b7f565b90506119f5565b611a9a61270f565b6001600160a01b038116611b165760405162461bcd60e51b815260206004820152602660248201527f4f776e61626c653a206e6577206f776e657220697320746865207a65726f206160448201527f64647265737300000000000000000000000000000000000000000000000000006064820152608401610949565b610b5a81612769565b6001600160a01b03808216600090815260db6020908152604080832081516101e081018352815486168152600182015486168185015260028201549095168583015260038101805483518186028101860190945280845294958695869586958695939460608601939192909190830182828015611bc557602002820191906000526020600020905b81546001600160a01b03168152600190910190602001808311611ba7575b5050505050815260200160048201805480602002602001604051908101604052809291908181526020016000905b82821015611c3e576000848152602090819020604080518082019091526002850290910180546001600160a01b03908116835260019182015416828401529083529092019101611bf3565b50505050815260200160058201805480602002602001604051908101604052809291908181526020016000905b82821015611cb457600084815260209081902060408051808201909152908401546001600160a01b0381168252600160a01b900460ff1681830152825260019092019101611c6b565b505050908252506006820154602082015260078201546040820152600882015460ff16606082015260098201546080820152600a82015460a0820152600b82015460c080830191909152600c83015460e0830152600d830154610100830152600e909201546101209182015290820151908201516101408301519197509550935090506108b08584614b15565b6001600160a01b03808216600090815260db6020908152604080832081516101e0810183528154861681526001820154861681850152600282015490951685830152600381018054835181860281018601909452808452949586958695919460608601939092909190830182828015611de357602002820191906000526020600020905b81546001600160a01b03168152600190910190602001808311611dc5575b5050505050815260200160048201805480602002602001604051908101604052809291908181526020016000905b82821015611e5c576000848152602090819020604080518082019091526002850290910180546001600160a01b03908116835260019182015416828401529083529092019101611e11565b50505050815260200160058201805480602002602001604051908101604052809291908181526020016000905b82821015611ed257600084815260209081902060408051808201909152908401546001600160a01b0381168252600160a01b900460ff1681830152825260019092019101611e89565b505050908252506006820154602082015260078201546040820152600882015460ff908116606083015260098301546080830152600a83015460a0830152600b83015460c0830152600c83015460e0830152600d83015461010080840191909152600e9093015461012090920191909152908201519192501615611f595780610100015192505b60e00151919391925050565b6001600160a01b03808216600090815260db6020908152604080832081516101e0810183528154861681526001820154861681850152600282015490951685830152600381018054835181860281018601909452808452949560609587958795879587958795869590949293858901939092919083018282801561201257602002820191906000526020600020905b81546001600160a01b03168152600190910190602001808311611ff4575b5050505050815260200160048201805480602002602001604051908101604052809291908181526020016000905b8282101561208b576000848152602090819020604080518082019091526002850290910180546001600160a01b03908116835260019182015416828401529083529092019101612040565b50505050815260200160058201805480602002602001604051908101604052809291908181526020016000905b8282101561210157600084815260209081902060408051808201909152908401546001600160a01b0381168252600160a01b900460ff16818301528252600190920191016120b8565b50505090825250600682015460208201526007820154604080830191909152600883015460ff166060808401919091526009840154608080850191909152600a85015460a080860191909152600b86015460c0860152600c86015460e0860152600d860154610100860152600e90950154610120909401939093529084015190840151805192850151805195909401518051929f919e50929c50929a50929850965090945092505050565b612243604051806101e0016040528060006001600160a01b0316815260200160006001600160a01b0316815260200160006001600160a01b031681526020016060815260200160608152602001606081526020016000815260200160008152602001600060ff1681526020016000815260200160008152602001600081526020016000815260200160008152602001600081525090565b6001600160a01b03808316600090815260db602090815260409182902082516101e0810184528154851681526001820154851681840152600282015490941684840152600381018054845181850281018501909552808552919360608601939092908301828280156122de57602002820191906000526020600020905b81546001600160a01b031681526001909101906020018083116122c0575b5050505050815260200160048201805480602002602001604051908101604052809291908181526020016000905b82821015612357576000848152602090819020604080518082019091526002850290910180546001600160a01b0390811683526001918201541682840152908352909201910161230c565b50505050815260200160058201805480602002602001604051908101604052809291908181526020016000905b828210156123cd57600084815260209081902060408051808201909152908401546001600160a01b0381168252600160a01b900460ff1681830152825260019092019101612384565b505050908252506006820154602082015260078201546040820152600882015460ff16606082015260098201546080820152600a82015460a0820152600b82015460c0820152600c82015460e0820152600d820154610100820152600e909101546101209091015292915050565b600080829050612512816001600160a01b03166350d25bcd6040518163ffffffff1660e01b8152600401602060405180830381865afa158015612482573d6000803e3d6000fd5b505050506040513d601f19601f820116820180604052508101906124a69190614c0d565b826001600160a01b031663313ce5676040518163ffffffff1660e01b8152600401602060405180830381865afa1580156124e4573d6000803e3d6000fd5b505050506040513d601f19601f820116820180604052508101906125089190614c26565b60ff16601261371b565b9392505050565b610b5a61270f565b7f4910fdfa16fed3260ed0e7147f7cc6da11a60208b5b9406d12a635614ffd91435460ff1615612554576110c08361374f565b826001600160a01b03166352d1902d6040518163ffffffff1660e01b8152600401602060405180830381865afa9250505080156125ae575060408051601f3d908101601f191682019092526125ab91810190614c0d565b60015b6126205760405162461bcd60e51b815260206004820152602e60248201527f45524331393637557067726164653a206e657720696d706c656d656e7461746960448201527f6f6e206973206e6f7420555550530000000000000000000000000000000000006064820152608401610949565b7f360894a13ba1a3210667c828492db98dca3e2076cc3735a920a3ca505d382bbc81146126b55760405162461bcd60e51b815260206004820152602960248201527f45524331393637557067726164653a20756e737570706f727465642070726f7860448201527f6961626c655555494400000000000000000000000000000000000000000000006064820152608401610949565b506110c083838361380d565b6000805b60328160ff16101561270b5760ff808216600090815260dc6020526040902054161561270b57816126f581614b7f565b925050808061270390614b7f565b9150506126c5565b5090565b6033546001600160a01b031633146110d75760405162461bcd60e51b815260206004820181905260248201527f4f776e61626c653a2063616c6c6572206973206e6f7420746865206f776e65726044820152606401610949565b603380546001600160a01b038381166001600160a01b0319831681179093556040519116919082907f8be0079c531659141344cd1fd0a4f28419497f9722a3daafe3b4186f6b6457e090600090a35050565b600054610100900460ff166128265760405162461bcd60e51b815260206004820152602b60248201527f496e697469616c697a61626c653a20636f6e7472616374206973206e6f74206960448201526a6e697469616c697a696e6760a81b6064820152608401610949565b6110d7613838565b600054610100900460ff166110d75760405162461bcd60e51b815260206004820152602b60248201527f496e697469616c697a61626c653a20636f6e7472616374206973206e6f74206960448201526a6e697469616c697a696e6760a81b6064820152608401610949565b6000670de0b6b3a76400006128ae8385614b28565b6125129190614b55565b6001600160a01b038116600090815260db60209081526040808320600881015460ff90811680865260dc8552838620845180860190955280549092168452600190910154938301939093529261290c6126c1565b905081602001518610156129885760405162461bcd60e51b815260206004820152602660248201527f56616c75652073686f756c6420626520657175616c20746f207570677261646560448201527f2076616c756500000000000000000000000000000000000000000000000000006064820152608401610949565b8060ff168360ff16106129dd5760405162461bcd60e51b815260206004820152601f60248201527f5573657220636f6e73756d656420616c6c207570677261646520706c616e73006044820152606401610949565b858460070160008282546129f19190614b15565b90915550600090505b8360ff168111612c385760028501546001600160a01b031615612c385760028501546001600160a01b0316600090815260db6020526040902060ff85168203612c2657600881015460ff8087169116118015612a5f575080546001600160a01b031615155b15612b09578781600d016000828254612a789190614b15565b909155505080546040516001600160a01b03909116908a156108fc02908b906000818181858888f19350505050158015612ab6573d6000803e3d6000fd5b508054604080516001600160a01b039283168152918916602083015281018a90527fb37800f632235e56e1626c9e9df3de1e167e9298f0d25f59fd74ec65e31116529060600160405180910390a1612c20565b7f6696b78fc1713892e6e2bb3df5cdc986ab67a0c675898c7ef535bd2201ca9451604051612b8e906020808252603f908201527f55706c696e6520686173206e6f742075706772616465642e20416d6f756e742060408201527f7472616e73666572656420746f206c69717569646974792077616c6c65742e00606082015260800190565b60405180910390a160d9546040516001600160a01b039091169081908b156108fc02908c906000818181858888f19350505050158015612bd2573d6000803e3d6000fd5b50604080516001600160a01b0380841682528a1660208201529081018b90527fb37800f632235e56e1626c9e9df3de1e167e9298f0d25f59fd74ec65e31116529060600160405180910390a1505b50612c38565b9450612c3181614bc7565b90506129fa565b5060088401805460ff16906000612c4e83614b7f565b91906101000a81548160ff021916908360ff1602179055505050505050505050565b60d8546064612c8082605f614b28565b612c8a9190614b55565b841015612cff5760405162461bcd60e51b815260206004820152602660248201527f56616c7565206973206c657373207468656e20726567697374726174696f6e2060448201527f76616c75652e00000000000000000000000000000000000000000000000000006064820152608401610949565b60d5546001600160a01b03808716600090815260db6020526040808220928a1682528120600683015460ff8086169561010090041693919015612d845760405162461bcd60e51b815260206004820152601760248201527f5573657220616c726561647920726567697374657265640000000000000000006044820152606401610949565b81546001600160a01b0316612dad5781546001600160a01b0319166001600160a01b038b161782555b80546001600160a01b0316612dd65780546001600160a01b0319166001600160a01b038c161781555b81600601546000036130195760c98054600180820183556000929092527f66be4f155c5ef2ebd3772b228f2f00681e4ed5826cdb3b1943cc11ad15ad1d280180546001600160a01b0319166001600160a01b038d811691909117909155604080516101e08101825285548316815292850154821660208085019190915260028601549092168382015260038501805482518185028101850190935280835261301994938793606086019390929091830182828015612ebd57602002820191906000526020600020905b81546001600160a01b03168152600190910190602001808311612e9f575b5050505050815260200160048201805480602002602001604051908101604052809291908181526020016000905b82821015612f36576000848152602090819020604080518082019091526002850290910180546001600160a01b03908116835260019182015416828401529083529092019101612eeb565b50505050815260200160058201805480602002602001604051908101604052809291908181526020016000905b82821015612fac57600084815260209081902060408051808201909152908401546001600160a01b0381168252600160a01b900460ff1681830152825260019092019101612f63565b505050908252506006820154602082015260078201546040820152600882015460ff16606082015260098201546080820152600a82015460a0820152600b82015460c0820152600c82015460e0820152600d820154610100820152600e90910154610120909101526138ac565b8882600601600082825461302d9190614b15565b9091555050604080516101e08101825283546001600160a01b0390811682526001850154811660208084019190915260028601549091168284015260038501805484518184028101840190955280855261322094879360608601939192908301828280156130c457602002820191906000526020600020905b81546001600160a01b031681526001909101906020018083116130a6575b5050505050815260200160048201805480602002602001604051908101604052809291908181526020016000905b8282101561313d576000848152602090819020604080518082019091526002850290910180546001600160a01b039081168352600191820154168284015290835290920191016130f2565b50505050815260200160058201805480602002602001604051908101604052809291908181526020016000905b828210156131b357600084815260209081902060408051808201909152908401546001600160a01b0381168252600160a01b900460ff168183015282526001909201910161316a565b505050908252506006820154602082015260078201546040820152600882015460ff16606082015260098201546080820152600a82015460a0820152600b82015460c0820152600c82015460e0820152600d820154610100820152600e9091015461012090910152613935565b6132335761322e8b8b613954565b61329b565b7f1f4fff38c5e64af9e759d590409f022ea913658008bb1d0cd35e028244f01ecf604051613292906020808252601f908201527f5573657220416c72656164792068617665207265666572726572207365742e00604082015260600190565b60405180910390a15b600182015460028301548354604080516001600160a01b0394851681529284166020840152921681830152606081018b905290517f0411c58b3c1e8a39d91c901e5c807bff1401650beedc45aba65112756bb929b49181900360800190a16000606461330a60ff88168b614b28565b6133149190614b55565b90506000613322828a612899565b60018501546001600160a01b03908116600090815260db60205260409020805492935091161561340f5780546040516001600160a01b039091169084156108fc029085906000818181858888f19350505050158015613385573d6000803e3d6000fd5b508054604080516001600160a01b039283168152918f1660208301528101849052600160608201527f153f77382d7e07de734977ae352e9b1f5f8ad4b1c0033c883a9a33456a87836f9060800160405180910390a18181600b0160008282546133ee9190614b15565b925050819055508b8160090160008282546134099190614b15565b90915550505b6134198287614b15565b955060005b8760ff168160ff16101561358957604080516101e08101825287546001600160a01b0390811682526001890154811660208084019190915260028a015490911682840152600389018054845181840281018401909552808552613534948b9360608601939192908301828280156130c4576020028201919060005260206000209081546001600160a01b031681526001909101906020018083116130a6575050505050815260200160048201805480602002602001604051908101604052809291908181526020016000908282101561313d576000848152602090819020604080518082019091526002850290910180546001600160a01b039081168352600191820154168284015290835290920191016130f2565b156135895760028601546001600160a01b0316600090815260db60205260408120600a810180549197508f92909161356d908490614b15565b909155509495508594508061358181614b7f565b91505061341e565b5060cf546000906064906135a790600160a01b900460ff168e614b28565b6135b19190614b55565b60cf546040519192506001600160a01b03169082156108fc029083906000818181858888f193505050501580156135ec573d6000803e3d6000fd5b5060cf54604080516001600160a01b039092168252602082018390527f5aa75bdb3269082e844d731608afae2a07cbf194f251e3f857b870af86b754fb910160405180910390a18660cc60008282546136459190614b15565b925050819055508c60cb600082825461365e9190614b15565b909155505060d1546000906064906136799060ff168f614b28565b6136839190614b55565b60d9546040519192506001600160a01b03169082156108fc029083906000818181858888f193505050501580156136be573d6000803e3d6000fd5b508060d060008282546136d19190614b15565b909155505060d3546064906136e99060ff168f614b28565b6136f39190614b55565b60d260008282546137049190614b15565b909155505050505050505050505050505050505050565b600061372883600a614d27565b61373383600a614d27565b61373d9086614b28565b6137479190614b55565b949350505050565b6001600160a01b0381163b6137cc5760405162461bcd60e51b815260206004820152602d60248201527f455243313936373a206e657720696d706c656d656e746174696f6e206973206e60448201527f6f74206120636f6e7472616374000000000000000000000000000000000000006064820152608401610949565b7f360894a13ba1a3210667c828492db98dca3e2076cc3735a920a3ca505d382bbc80546001600160a01b0319166001600160a01b0392909216919091179055565b6138168361425e565b6000825111806138235750805b156110c057613832838361429e565b50505050565b600054610100900460ff166138a35760405162461bcd60e51b815260206004820152602b60248201527f496e697469616c697a61626c653a20636f6e7472616374206973206e6f74206960448201526a6e697469616c697a696e6760a81b6064820152608401610949565b6110d733612769565b60ca80546101c0830181905282516001820183556000929092527f42d72674974f694b5f5159593243114d38a5c39c89d6b62fee061ff523240ee10180546001600160a01b0319166001600160a01b039283161790558151604051911681527f06baf10092c7ea144c4fb56fb8cf641e1f00e291a535b5d54b547eadb29485a790602001611323565b60408101516000906001600160a01b03161561394f575060015b919050565b6001600160a01b03808216600081815260db60205260409020918416036139bd5760405162461bcd60e51b815260206004820152601a60248201527f596f752063616e6e6f7420726566657220796f757273656c662e0000000000006044820152606401610949565b60006001600160a01b0384166139ed575060d7546001600160a01b0316600090815260db60205260409020613a07565b506001600160a01b038316600090815260db602052604090205b604080516101e08101825282546001600160a01b03908116825260018401548116602080840191909152600285015490911682840152600384018054845181840281018401909552808552613bf59486936060860193919290830182828015613a9957602002820191906000526020600020905b81546001600160a01b03168152600190910190602001808311613a7b575b5050505050815260200160048201805480602002602001604051908101604052809291908181526020016000905b82821015613b12576000848152602090819020604080518082019091526002850290910180546001600160a01b03908116835260019182015416828401529083529092019101613ac7565b50505050815260200160058201805480602002602001604051908101604052809291908181526020016000905b82821015613b8857600084815260209081902060408051808201909152908401546001600160a01b0381168252600160a01b900460ff1681830152825260019092019101613b3f565b505050908252506006820154602082015260078201546040820152600882015460ff16606082015260098201546080820152600a82015460a0820152600b82015460c0820152600c82015460e0820152600d820154610100820152600e90910154610120909101526143a9565b613d4657613c0381836143d3565b60038101805460018082018355600083815260209081902090920180546001600160a01b0319166001600160a01b0388811691909117909155604080516101e081018252865483168152928601548216838501526002860154909116828201528354815181850281018501909252808252613d3394929386936060860193929091830182828015613a99576020028201919060005260206000209081546001600160a01b03168152600190910190602001808311613a7b5750505050508152602001600482018054806020026020016040519081016040528092919081815260200160009082821015613b12576000848152602090819020604080518082019091526002850290910180546001600160a01b03908116835260019182015416828401529083529092019101613ac7565b15613d4157613d4181614436565b61409b565b613d4f81614436565b600060db6000613d5d61452b565b6001600160a01b03166001600160a01b031681526020019081526020016000209050613d8981846143d3565b604080516101e08101825282546001600160a01b03908116825260018401548116602080840191909152600285015490911682840152600384018054845181840281018401909552808552613e919486936060860193919290830182828015613a99576020028201919060005260206000209081546001600160a01b03168152600190910190602001808311613a7b5750505050508152602001600482018054806020026020016040519081016040528092919081815260200160009082821015613b12576000848152602090819020604080518082019091526002850290910180546001600160a01b03908116835260019182015416828401529083529092019101613ac7565b15613e9f57613e9f81614436565b81548154604080516001600160a01b03938416815291831660208301529186168183015290517fa1b30426557565c4fa85ce5f9c88513d7d3f49d21eb30569c249b07b037831ef9181900360600190a1604080518082019091526001600160a01b0380861682528254811660208084019182526004860180546001818101835560009283529282209551600290910290950180549585166001600160a01b0319968716178155925192909101805492909316919093161790556006840154900361406b57604080516101e08101825284546001600160a01b0390811682526001860154811660208084019190915260028701549091168284015260038601805484518184028101840190955280855261406b9488936060860193919290830182828015612ebd576020028201919060005260206000209081546001600160a01b03168152600190910190602001808311612e9f5750505050508152602001600482018054806020026020016040519081016040528092919081815260200160009082821015612f36576000848152602090819020604080518082019091526002850290910180546001600160a01b03908116835260019182015416828401529083529092019101612eeb565b6003018054600181018255600091825260209091200180546001600160a01b0319166001600160a01b0385161790555b60018201546001600160a01b03166141195780546001830180546001600160a01b039283166001600160a01b0319909116811790915560028401546040805192835290831660208301529185168183015290517f8efa008f8ae98ae30d3219078a298c85bc25a62f50c57ed9a3ec838b7eed9f479181900360600190a15b60d554610100900460ff1660005b8160ff168160ff1610156110bc5760028401546001600160a01b0316156110bc5760028401546001600160a01b03908116600090815260db6020908152604091829020825180840190935292881682529194506005850191810161418c846001614bf4565b60ff90811690915282546001818101855560009485526020948590208451920180549590940151909216600160a01b0274ffffffffffffffffffffffffffffffffffffffffff199094166001600160a01b03918216179390931790915584547f85db3f10b88ea7fc653f3f818097a3fc3c543196ed60cad2251df922bcc9ad7f921690879061421c908590614bf4565b604080516001600160a01b03948516815293909216602084015260ff169082015260600160405180910390a1829350808061425690614b7f565b915050614127565b6142678161374f565b6040516001600160a01b038216907fbc7cd75a20ee27fd9adebab32041f755214dbc6bffa90cc0225b39da2e5c2d3b90600090a250565b60606001600160a01b0383163b61431d5760405162461bcd60e51b815260206004820152602660248201527f416464726573733a2064656c65676174652063616c6c20746f206e6f6e2d636f60448201527f6e747261637400000000000000000000000000000000000000000000000000006064820152608401610949565b600080846001600160a01b0316846040516143389190614d57565b600060405180830381855af49150503d8060008114614373576040519150601f19603f3d011682016040523d82523d6000602084013e614378565b606091505b50915091506143a08282604051806060016040528060278152602001614da7602791396145b2565b95945050505050565b600060d65482606001515111806143c6575060d654826060015151145b1561394f57506001919050565b81546002820180546001600160a01b0319166001600160a01b0392831617905582548254604080519284168352921660208201527fec49a3c8c4ae06c18160fe86119c381c9d213ac3e052ff35b594da8687b193c7910160405180910390a15050565b60ca805461444690600190614b9e565b8154811061445657614456614b69565b9060005260206000200160009054906101000a90046001600160a01b031660ca82600e01548154811061448b5761448b614b69565b9060005260206000200160006101000a8154816001600160a01b0302191690836001600160a01b0316021790555060ca8054806144ca576144ca614bb1565b6000828152602090819020600019908301810180546001600160a01b031916905590910190915581546040516001600160a01b0390911681527f644b85583ba83e73113ffc0c122b165819ca11db493cd4cc38f5ba29138ffa1b9101611323565b600080424461453b600143614b9e565b60408051602081019490945283019190915240606082015260800160408051601f19818403018152919052805160209091012060ca549091506000906145819083614be0565b905060ca818154811061459657614596614b69565b6000918252602090912001546001600160a01b03169392505050565b606083156145c1575081612512565b61251283838151156145d65781518083602001fd5b8060405162461bcd60e51b81526004016109499190614d73565b80356001600160a01b038116811461394f57600080fd5b60006020828403121561461957600080fd5b612512826145f0565b600081518084526020808501945080840160005b8381101561465b5781516001600160a01b031687529582019590820190600101614636565b509495945050505050565b6020815260006125126020830184614622565b634e487b7160e01b600052604160045260246000fd5b600080604083850312156146a257600080fd5b6146ab836145f0565b9150602083013567ffffffffffffffff808211156146c857600080fd5b818501915085601f8301126146dc57600080fd5b8135818111156146ee576146ee614679565b604051601f8201601f19908116603f0116810190838211818310171561471657614716614679565b8160405282815288602084870101111561472f57600080fd5b8260208601602083013760006020848301015280955050505050509250929050565b60408082528351828201819052600091906020906060850190828801855b8281101561479f5761478f848351805160ff168252602090810151910152565b928501929084019060010161476f565b50505060ff95909516930192909252509092915050565b600080604083850312156147c957600080fd5b6147d2836145f0565b9150602083013580151581146147e757600080fd5b809150509250929050565b60ff81168114610b5a57600080fd5b60006020828403121561481357600080fd5b8135612512816147f2565b815160ff168152602080830151908201526040810161097a565b6000806040838503121561484b57600080fd5b614854836145f0565b9150614862602084016145f0565b90509250929050565b6000806020838503121561487e57600080fd5b823567ffffffffffffffff8082111561489657600080fd5b818501915085601f8301126148aa57600080fd5b8135818111156148b957600080fd5b8660208260051b85010111156148ce57600080fd5b60209290920196919550909350505050565b600081518084526020808501945080840160005b8381101561465b57815180516001600160a01b039081168952908401511683880152604090960195908201906001016148f4565b600081518084526020808501945080840160005b8381101561465b57815180516001600160a01b0316885283015160ff16838801526040909601959082019060010161493c565b6001600160a01b038816815260e06020820152600061499160e0830189614622565b87604084015282810360608401526149a981886148e0565b905085608084015282810360a08401526149c38186614928565b9150508260c083015298975050505050505050565b602081526149f26020820183516001600160a01b03169052565b60006020830151614a0e60408401826001600160a01b03169052565b5060408301516001600160a01b03811660608401525060608301516101e0806080850152614a40610200850183614622565b91506080850151601f19808685030160a0870152614a5e84836148e0565b935060a08701519150808685030160c087015250614a7c8382614928565b92505060c085015160e085015260e0850151610100818187015280870151915050610120614aae8187018360ff169052565b8601516101408681019190915286015161016080870191909152860151610180808701919091528601516101a0808701919091528601516101c0808701919091529095015193019290925250919050565b634e487b7160e01b600052601160045260246000fd5b8082018082111561097a5761097a614aff565b808202811582820484141761097a5761097a614aff565b634e487b7160e01b600052601260045260246000fd5b600082614b6457614b64614b3f565b500490565b634e487b7160e01b600052603260045260246000fd5b600060ff821660ff8103614b9557614b95614aff565b60010192915050565b8181038181111561097a5761097a614aff565b634e487b7160e01b600052603160045260246000fd5b600060018201614bd957614bd9614aff565b5060010190565b600082614bef57614bef614b3f565b500690565b60ff818116838216019081111561097a5761097a614aff565b600060208284031215614c1f57600080fd5b5051919050565b600060208284031215614c3857600080fd5b8151612512816147f2565b600181815b80851115614c7e578160001904821115614c6457614c64614aff565b80851615614c7157918102915b93841c9390800290614c48565b509250929050565b600082614c955750600161097a565b81614ca25750600061097a565b8160018114614cb85760028114614cc257614cde565b600191505061097a565b60ff841115614cd357614cd3614aff565b50506001821b61097a565b5060208310610133831016604e8410600b8410161715614d01575081810a61097a565b614d0b8383614c43565b8060001904821115614d1f57614d1f614aff565b029392505050565b60006125128383614c86565b60005b83811015614d4e578181015183820152602001614d36565b50506000910152565b60008251614d69818460208701614d33565b9190910192915050565b6020815260008251806020840152614d92816040850160208701614d33565b601f01601f1916919091016040019291505056fe416464726573733a206c6f772d6c6576656c2064656c65676174652063616c6c206661696c6564a264697066735822122064b28baba76332be99a6e7d9bb9b51208a22361b9528688490599fd4b7b68c4a64736f6c63430008120033",
  "linkReferences": {},
  "deployedLinkReferences": {}
}