{
  "_format": "hh-sol-artifact-1",
  "contractName": "CashXProtocolReferral",
  "sourceName": "contracts/CashXProtocolReferral.sol",
  "abi": [
    {
      "anonymous": false,
      "inputs": [
        {
          "indexed": false,
          "internalType": "address",
          "name": "user",
          "type": "address"
        }
      ],
      "name": "AddedToRandomList",
      "type": "event"
    },
    {
      "anonymous": false,
      "inputs": [
        {
          "indexed": false,
          "internalType": "address",
          "name": "previousAdmin",
          "type": "address"
        },
        {
          "indexed": false,
          "internalType": "address",
          "name": "newAdmin",
          "type": "address"
        }
      ],
      "name": "AdminChanged",
      "type": "event"
    },
    {
      "anonymous": false,
      "inputs": [
        {
          "indexed": true,
          "internalType": "address",
          "name": "beacon",
          "type": "address"
        }
      ],
      "name": "BeaconUpgraded",
      "type": "event"
    },
    {
      "anonymous": false,
      "inputs": [
        {
          "indexed": false,
          "internalType": "uint8",
          "name": "version",
          "type": "uint8"
        }
      ],
      "name": "Initialized",
      "type": "event"
    },
    {
      "anonymous": false,
      "inputs": [
        {
          "indexed": true,
          "internalType": "address",
          "name": "previousOwner",
          "type": "address"
        },
        {
          "indexed": true,
          "internalType": "address",
          "name": "newOwner",
          "type": "address"
        }
      ],
      "name": "OwnershipTransferred",
      "type": "event"
    },
    {
      "anonymous": false,
      "inputs": [
        {
          "indexed": false,
          "internalType": "address",
          "name": "by",
          "type": "address"
        },
        {
          "indexed": false,
          "internalType": "address",
          "name": "to",
          "type": "address"
        },
        {
          "indexed": false,
          "internalType": "address",
          "name": "user",
          "type": "address"
        }
      ],
      "name": "ParentAdded",
      "type": "event"
    },
    {
      "anonymous": false,
      "inputs": [
        {
          "indexed": false,
          "internalType": "address",
          "name": "to",
          "type": "address"
        },
        {
          "indexed": false,
          "internalType": "address",
          "name": "user",
          "type": "address"
        },
        {
          "indexed": false,
          "internalType": "uint256",
          "name": "valueInWei",
          "type": "uint256"
        },
        {
          "indexed": false,
          "internalType": "uint32",
          "name": "level",
          "type": "uint32"
        }
      ],
      "name": "ReferralRewardsPaid",
      "type": "event"
    },
    {
      "anonymous": false,
      "inputs": [
        {
          "indexed": false,
          "internalType": "address",
          "name": "by",
          "type": "address"
        },
        {
          "indexed": false,
          "internalType": "address",
          "name": "user",
          "type": "address"
        }
      ],
      "name": "ReferrerAdded",
      "type": "event"
    },
    {
      "anonymous": false,
      "inputs": [
        {
          "indexed": false,
          "internalType": "string",
          "name": "reason",
          "type": "string"
        }
      ],
      "name": "ReferrerNoAdded",
      "type": "event"
    },
    {
      "anonymous": false,
      "inputs": [
        {
          "indexed": false,
          "internalType": "address",
          "name": "by",
          "type": "address"
        },
        {
          "indexed": false,
          "internalType": "address",
          "name": "to",
          "type": "address"
        },
        {
          "indexed": false,
          "internalType": "address",
          "name": "user",
          "type": "address"
        },
        {
          "indexed": false,
          "internalType": "uint256",
          "name": "valueInWei",
          "type": "uint256"
        }
      ],
      "name": "Registration",
      "type": "event"
    },
    {
      "anonymous": false,
      "inputs": [
        {
          "indexed": false,
          "internalType": "address",
          "name": "by",
          "type": "address"
        },
        {
          "indexed": false,
          "internalType": "address",
          "name": "to",
          "type": "address"
        },
        {
          "indexed": false,
          "internalType": "address",
          "name": "user",
          "type": "address"
        }
      ],
      "name": "RegistrationAssigned",
      "type": "event"
    },
    {
      "anonymous": false,
      "inputs": [
        {
          "indexed": false,
          "internalType": "address",
          "name": "user",
          "type": "address"
        }
      ],
      "name": "RemovedFromRandomList",
      "type": "event"
    },
    {
      "anonymous": false,
      "inputs": [
        {
          "indexed": false,
          "internalType": "address",
          "name": "to",
          "type": "address"
        },
        {
          "indexed": false,
          "internalType": "address",
          "name": "user",
          "type": "address"
        },
        {
          "indexed": false,
          "internalType": "uint32",
          "name": "level",
          "type": "uint32"
        }
      ],
      "name": "TeamAddressAdded",
      "type": "event"
    },
    {
      "anonymous": false,
      "inputs": [
        {
          "indexed": false,
          "internalType": "address",
          "name": "to",
          "type": "address"
        },
        {
          "indexed": false,
          "internalType": "uint256",
          "name": "valueInWei",
          "type": "uint256"
        }
      ],
      "name": "TeamWalletRewardPaid",
      "type": "event"
    },
    {
      "anonymous": false,
      "inputs": [
        {
          "indexed": false,
          "internalType": "string",
          "name": "reason",
          "type": "string"
        }
      ],
      "name": "UpgradeRewardNotPaid",
      "type": "event"
    },
    {
      "anonymous": false,
      "inputs": [
        {
          "indexed": false,
          "internalType": "address",
          "name": "to",
          "type": "address"
        },
        {
          "indexed": false,
          "internalType": "address",
          "name": "by",
          "type": "address"
        },
        {
          "indexed": false,
          "internalType": "uint256",
          "name": "valueInWei",
          "type": "uint256"
        }
      ],
      "name": "UpgradeRewardPaid",
      "type": "event"
    },
    {
      "anonymous": false,
      "inputs": [
        {
          "indexed": true,
          "internalType": "address",
          "name": "implementation",
          "type": "address"
        }
      ],
      "name": "Upgraded",
      "type": "event"
    },
    {
      "anonymous": false,
      "inputs": [
        {
          "indexed": false,
          "internalType": "address",
          "name": "to",
          "type": "address"
        },
        {
          "indexed": false,
          "internalType": "uint256",
          "name": "valueInWei",
          "type": "uint256"
        }
      ],
      "name": "WeeklyRewardsPaid",
      "type": "event"
    },
    {
      "inputs": [],
      "name": "distributeWeeklyReward",
      "outputs": [],
      "stateMutability": "nonpayable",
      "type": "function"
    },
    {
      "inputs": [],
      "name": "getAllUsers",
      "outputs": [
        {
          "internalType": "address[]",
          "name": "",
          "type": "address[]"
        }
      ],
      "stateMutability": "view",
      "type": "function"
    },
    {
      "inputs": [],
      "name": "getContractDefaults",
      "outputs": [
        {
          "internalType": "address",
          "name": "teamWallet",
          "type": "address"
        },
        {
          "internalType": "uint256",
          "name": "teamWalletRate",
          "type": "uint256"
        },
        {
          "internalType": "address",
          "name": "liquidityWallet",
          "type": "address"
        },
        {
          "internalType": "uint256",
          "name": "liquidityCreationrate",
          "type": "uint256"
        },
        {
          "internalType": "address",
          "name": "defaultReferrer",
          "type": "address"
        },
        {
          "internalType": "uint256",
          "name": "registrationValueInUSD",
          "type": "uint256"
        }
      ],
      "stateMutability": "view",
      "type": "function"
    },
    {
      "inputs": [],
      "name": "getNativePriceInUSD",
      "outputs": [
        {
          "internalType": "uint256",
          "name": "",
          "type": "uint256"
        }
      ],
      "stateMutability": "view",
      "type": "function"
    },
    {
      "inputs": [],
      "name": "getRandomUserList",
      "outputs": [
        {
          "internalType": "address[]",
          "name": "",
          "type": "address[]"
        }
      ],
      "stateMutability": "view",
      "type": "function"
    },
    {
      "inputs": [],
      "name": "getRegistrationsStats",
      "outputs": [
        {
          "internalType": "uint32",
          "name": "totalUser",
          "type": "uint32"
        },
        {
          "internalType": "uint256",
          "name": "totalRegistrationValueInUSD",
          "type": "uint256"
        },
        {
          "internalType": "uint256",
          "name": "totalReferralPaidInUSD",
          "type": "uint256"
        },
        {
          "internalType": "uint256",
          "name": "totalWeeklyRewardsPaidInUSD",
          "type": "uint256"
        }
      ],
      "stateMutability": "view",
      "type": "function"
    },
    {
      "inputs": [],
      "name": "getUpgradePlans",
      "outputs": [
        {
          "components": [
            {
              "internalType": "uint8",
              "name": "id",
              "type": "uint8"
            },
            {
              "internalType": "uint256",
              "name": "valueToUpgradeInUSD",
              "type": "uint256"
            }
          ],
          "internalType": "struct UpgradeStruct[]",
          "name": "upgradePlans",
          "type": "tuple[]"
        },
        {
          "internalType": "uint8",
          "name": "upgradePlansCount",
          "type": "uint8"
        }
      ],
      "stateMutability": "view",
      "type": "function"
    },
    {
      "inputs": [
        {
          "internalType": "uint8",
          "name": "_id",
          "type": "uint8"
        }
      ],
      "name": "getUpgradePlansById",
      "outputs": [
        {
          "components": [
            {
              "internalType": "uint8",
              "name": "id",
              "type": "uint8"
            },
            {
              "internalType": "uint256",
              "name": "valueToUpgradeInUSD",
              "type": "uint256"
            }
          ],
          "internalType": "struct UpgradeStruct",
          "name": "",
          "type": "tuple"
        }
      ],
      "stateMutability": "view",
      "type": "function"
    },
    {
      "inputs": [
        {
          "internalType": "address",
          "name": "_userAddress",
          "type": "address"
        }
      ],
      "name": "getUserAccount",
      "outputs": [
        {
          "components": [
            {
              "internalType": "address",
              "name": "self",
              "type": "address"
            },
            {
              "internalType": "address",
              "name": "parent",
              "type": "address"
            },
            {
              "internalType": "address",
              "name": "referrer",
              "type": "address"
            },
            {
              "internalType": "address[]",
              "name": "referee",
              "type": "address[]"
            },
            {
              "components": [
                {
                  "internalType": "address",
                  "name": "referee",
                  "type": "address"
                },
                {
                  "internalType": "address",
                  "name": "assignedTo",
                  "type": "address"
                }
              ],
              "internalType": "struct RefereeStruct[]",
              "name": "refereeAssigned",
              "type": "tuple[]"
            },
            {
              "components": [
                {
                  "internalType": "address",
                  "name": "teamMember",
                  "type": "address"
                },
                {
                  "internalType": "uint8",
                  "name": "level",
                  "type": "uint8"
                }
              ],
              "internalType": "struct TeamStruct[]",
              "name": "team",
              "type": "tuple[]"
            },
            {
              "internalType": "uint256",
              "name": "selfBusinessInUSD",
              "type": "uint256"
            },
            {
              "internalType": "uint256",
              "name": "upgradedValueInUSD",
              "type": "uint256"
            },
            {
              "internalType": "uint8",
              "name": "upgradeId",
              "type": "uint8"
            },
            {
              "internalType": "uint256",
              "name": "directBusinessInUSD",
              "type": "uint256"
            },
            {
              "internalType": "uint256",
              "name": "teamBusinessInUSD",
              "type": "uint256"
            },
            {
              "internalType": "uint256",
              "name": "referralRewardsInUSD",
              "type": "uint256"
            },
            {
              "internalType": "uint256",
              "name": "weeklyRewardsInUSD",
              "type": "uint256"
            },
            {
              "internalType": "uint256",
              "name": "upgradeRewardsInUSD",
              "type": "uint256"
            },
            {
              "internalType": "uint256",
              "name": "userRandomIndex",
              "type": "uint256"
            }
          ],
          "internalType": "struct AccountStruct",
          "name": "",
          "type": "tuple"
        }
      ],
      "stateMutability": "view",
      "type": "function"
    },
    {
      "inputs": [
        {
          "internalType": "address",
          "name": "_userAddress",
          "type": "address"
        }
      ],
      "name": "getUserBusiness",
      "outputs": [
        {
          "internalType": "uint256",
          "name": "selfBusinessInUSD",
          "type": "uint256"
        },
        {
          "internalType": "uint256",
          "name": "directBusinessInUSD",
          "type": "uint256"
        },
        {
          "internalType": "uint256",
          "name": "teamBusinessInUSD",
          "type": "uint256"
        },
        {
          "internalType": "uint256",
          "name": "totalBusinessInUSD",
          "type": "uint256"
        }
      ],
      "stateMutability": "view",
      "type": "function"
    },
    {
      "inputs": [
        {
          "internalType": "address",
          "name": "_userAddress",
          "type": "address"
        }
      ],
      "name": "getUserCurrentUpgradeLevel",
      "outputs": [
        {
          "internalType": "uint8",
          "name": "level",
          "type": "uint8"
        },
        {
          "internalType": "uint256",
          "name": "totalUpgradeValueInUSD",
          "type": "uint256"
        }
      ],
      "stateMutability": "view",
      "type": "function"
    },
    {
      "inputs": [
        {
          "internalType": "address",
          "name": "_userAddress",
          "type": "address"
        }
      ],
      "name": "getUserRewards",
      "outputs": [
        {
          "internalType": "uint256",
          "name": "referralRewardInUSD",
          "type": "uint256"
        },
        {
          "internalType": "uint256",
          "name": "weeklyRewardInUSD",
          "type": "uint256"
        },
        {
          "internalType": "uint256",
          "name": "upgradeRewardsInUSD",
          "type": "uint256"
        },
        {
          "internalType": "uint256",
          "name": "totalRewards",
          "type": "uint256"
        }
      ],
      "stateMutability": "view",
      "type": "function"
    },
    {
      "inputs": [
        {
          "internalType": "address",
          "name": "_userAddress",
          "type": "address"
        }
      ],
      "name": "getUserTeam",
      "outputs": [
        {
          "internalType": "address",
          "name": "referrer",
          "type": "address"
        },
        {
          "internalType": "address[]",
          "name": "referees",
          "type": "address[]"
        },
        {
          "internalType": "uint256",
          "name": "refereeCount",
          "type": "uint256"
        },
        {
          "components": [
            {
              "internalType": "address",
              "name": "referee",
              "type": "address"
            },
            {
              "internalType": "address",
              "name": "assignedTo",
              "type": "address"
            }
          ],
          "internalType": "struct RefereeStruct[]",
          "name": "refereeAssigned",
          "type": "tuple[]"
        },
        {
          "internalType": "uint256",
          "name": "refereeAssignedCount",
          "type": "uint256"
        },
        {
          "components": [
            {
              "internalType": "address",
              "name": "teamMember",
              "type": "address"
            },
            {
              "internalType": "uint8",
              "name": "level",
              "type": "uint8"
            }
          ],
          "internalType": "struct TeamStruct[]",
          "name": "team",
          "type": "tuple[]"
        },
        {
          "internalType": "uint256",
          "name": "teamCount",
          "type": "uint256"
        }
      ],
      "stateMutability": "view",
      "type": "function"
    },
    {
      "inputs": [],
      "name": "getWeeklyRewardToBeDistributed",
      "outputs": [
        {
          "internalType": "uint256",
          "name": "_rewardValue",
          "type": "uint256"
        },
        {
          "internalType": "uint256",
          "name": "_remianingTime",
          "type": "uint256"
        },
        {
          "internalType": "uint256",
          "name": "_endTime",
          "type": "uint256"
        }
      ],
      "stateMutability": "view",
      "type": "function"
    },
    {
      "inputs": [],
      "name": "initialize",
      "outputs": [],
      "stateMutability": "nonpayable",
      "type": "function"
    },
    {
      "inputs": [],
      "name": "needNativeToRegister",
      "outputs": [
        {
          "internalType": "uint256",
          "name": "",
          "type": "uint256"
        }
      ],
      "stateMutability": "view",
      "type": "function"
    },
    {
      "inputs": [],
      "name": "owner",
      "outputs": [
        {
          "internalType": "address",
          "name": "",
          "type": "address"
        }
      ],
      "stateMutability": "view",
      "type": "function"
    },
    {
      "inputs": [],
      "name": "proxiableUUID",
      "outputs": [
        {
          "internalType": "bytes32",
          "name": "",
          "type": "bytes32"
        }
      ],
      "stateMutability": "view",
      "type": "function"
    },
    {
      "inputs": [
        {
          "internalType": "address",
          "name": "_referrer",
          "type": "address"
        }
      ],
      "name": "registrationNative",
      "outputs": [],
      "stateMutability": "payable",
      "type": "function"
    },
    {
      "inputs": [],
      "name": "renounceOwnership",
      "outputs": [],
      "stateMutability": "nonpayable",
      "type": "function"
    },
    {
      "inputs": [],
      "name": "setDefaults",
      "outputs": [],
      "stateMutability": "nonpayable",
      "type": "function"
    },
    {
      "inputs": [
        {
          "internalType": "address",
          "name": "newOwner",
          "type": "address"
        }
      ],
      "name": "transferOwnership",
      "outputs": [],
      "stateMutability": "nonpayable",
      "type": "function"
    },
    {
      "inputs": [
        {
          "internalType": "uint256[]",
          "name": "_valueToUpgradeInDecimals",
          "type": "uint256[]"
        }
      ],
      "name": "updateUpgradePlans",
      "outputs": [],
      "stateMutability": "nonpayable",
      "type": "function"
    },
    {
      "inputs": [],
      "name": "upgradeAccountNative",
      "outputs": [],
      "stateMutability": "payable",
      "type": "function"
    },
    {
      "inputs": [
        {
          "internalType": "address",
          "name": "newImplementation",
          "type": "address"
        }
      ],
      "name": "upgradeTo",
      "outputs": [],
      "stateMutability": "nonpayable",
      "type": "function"
    },
    {
      "inputs": [
        {
          "internalType": "address",
          "name": "newImplementation",
          "type": "address"
        },
        {
          "internalType": "bytes",
          "name": "data",
          "type": "bytes"
        }
      ],
      "name": "upgradeToAndCall",
      "outputs": [],
      "stateMutability": "payable",
      "type": "function"
    },
    {
      "stateMutability": "payable",
      "type": "receive"
    }
  ],
  "bytecode": "0x60a06040523060805234801561001457600080fd5b5060805161453261004c600039600081816107e50152818161086f01528181610a1001528181610a950152610b7f01526145326000f3fe6080604052600436106101a55760003560e01c8063846688f7116100e1578063e35422e71161008a578063f87127b411610064578063f87127b4146104eb578063f92501711461050b578063faeda7e514610544578063fb47e0161461057757600080fd5b8063e35422e714610496578063ebd0f48f146104b6578063f2fde38b146104cb57600080fd5b8063a9df9fae116100bb578063a9df9fae14610401578063ac21689a1461046c578063e2842d791461048157600080fd5b8063846688f7146103945780638da5cb5b146103c4578063a7be6a72146103ec57600080fd5b806352d1902d1161014e578063715018a611610128578063715018a614610340578063770cc0dd146103555780637ec37e031461035d5780638129fc1c1461037f57600080fd5b806352d1902d146102e557806359a045441461030857806363a540421461032b57600080fd5b80633659cfe61161017f5780633659cfe61461029d578063438c2f55146102bf5780634f1ef286146102d257600080fd5b80630690c6a8146101b1578063078b0fb7146101f65780631a7463441461023657600080fd5b366101ac57005b600080fd5b3480156101bd57600080fd5b5060c95460cb5460cc5460ce546040805163ffffffff909516855260208501939093529183015260608201526080015b60405180910390f35b34801561020257600080fd5b50610216610211366004613ebb565b6105a4565b6040805194855260208501939093529183015260608201526080016101ed565b34801561024257600080fd5b5060cf5460d95460d15460d75460d854604080516001600160a01b03808816825260ff600160a01b909804881660208301529586169181019190915294909216606085015291909116608083015260a082015260c0016101ed565b3480156102a957600080fd5b506102bd6102b8366004613ebb565b6107db565b005b6102bd6102cd366004613ebb565b61095b565b6102bd6102e0366004613eec565b610a06565b3480156102f157600080fd5b506102fa610b72565b6040519081526020016101ed565b34801561031457600080fd5b5061031d610c37565b6040516101ed929190613fae565b34801561033757600080fd5b5060dc546102fa565b34801561034c57600080fd5b506102bd610d25565b6102bd610d39565b34801561036957600080fd5b50610372610d5b565b6040516101ed9190614057565b34801561038b57600080fd5b506102bd610dbd565b3480156103a057600080fd5b506103a9610fb2565b604080519384526020840192909252908201526060016101ed565b3480156103d057600080fd5b506033546040516001600160a01b0390911681526020016101ed565b3480156103f857600080fd5b506102bd610fe8565b34801561040d57600080fd5b5061045f61041c36600461406a565b6040805180820182526000808252602091820181905260ff938416815260db82528290208251808401909352805490931682526001909201549181019190915290565b6040516101ed919061408d565b34801561047857600080fd5b506102fa61107c565b34801561048d57600080fd5b506103726110ab565b3480156104a257600080fd5b506102bd6104b13660046140a7565b61110b565b3480156104c257600080fd5b506102bd6111b8565b3480156104d757600080fd5b506102bd6104e6366004613ebb565b611441565b3480156104f757600080fd5b50610216610506366004613ebb565b6114ce565b34801561051757600080fd5b5061052b610526366004613ebb565b6116f0565b6040805160ff90931683526020830191909152016101ed565b34801561055057600080fd5b5061056461055f366004613ebb565b611914565b6040516101ed97969594939291906141ab565b34801561058357600080fd5b50610597610592366004613ebb565b611b5b565b6040516101ed9190614214565b6001600160a01b03808216600090815260da6020908152604080832081516101e08101835281548616815260018201548616818501526002820154909516858301526003810180548351818602810186019094528084529495869586958695869593946060860193919290919083018282801561064a57602002820191906000526020600020905b81546001600160a01b0316815260019091019060200180831161062c575b5050505050815260200160048201805480602002602001604051908101604052809291908181526020016000905b828210156106c3576000848152602090819020604080518082019091526002850290910180546001600160a01b03908116835260019182015416828401529083529092019101610678565b50505050815260200160058201805480602002602001604051908101604052809291908181526020016000905b8282101561073957600084815260209081902060408051808201909152908401546001600160a01b0381168252600160a01b900460ff16818301528252600190920191016106f0565b505050908252506006820154602082015260078201546040820152600882015460ff16606082015260098201546080820152600a82015460a0820152600b82015460c0820152600c82015460e0820152600d820154610100820152600e90910154610120909101526101608101516101808201516101a0830151919750955093509050826107c78587614351565b6107d19190614351565b9150509193509193565b6001600160a01b037f000000000000000000000000000000000000000000000000000000000000000016300361086d5760405162461bcd60e51b815260206004820152602c60248201527f46756e6374696f6e206d7573742062652063616c6c6564207468726f7567682060448201526b19195b1959d85d1958d85b1b60a21b60648201526084015b60405180910390fd5b7f00000000000000000000000000000000000000000000000000000000000000006001600160a01b03166108c87f360894a13ba1a3210667c828492db98dca3e2076cc3735a920a3ca505d382bbc546001600160a01b031690565b6001600160a01b0316146109335760405162461bcd60e51b815260206004820152602c60248201527f46756e6374696f6e206d7573742062652063616c6c6564207468726f7567682060448201526b6163746976652070726f787960a01b6064820152608401610864565b61093c81611dea565b6040805160008082526020820190925261095891839190611df2565b50565b6001600160a01b0381166109d75760405162461bcd60e51b815260206004820152602360248201527f5a65726f20416464726573732063616e6e6f742062652074686520726566657260448201527f72657200000000000000000000000000000000000000000000000000000000006064820152608401610864565b3460006109e360dc5490565b905060006109f18383611f92565b9050610a008433838686611fba565b50505050565b6001600160a01b037f0000000000000000000000000000000000000000000000000000000000000000163003610a935760405162461bcd60e51b815260206004820152602c60248201527f46756e6374696f6e206d7573742062652063616c6c6564207468726f7567682060448201526b19195b1959d85d1958d85b1b60a21b6064820152608401610864565b7f00000000000000000000000000000000000000000000000000000000000000006001600160a01b0316610aee7f360894a13ba1a3210667c828492db98dca3e2076cc3735a920a3ca505d382bbc546001600160a01b031690565b6001600160a01b031614610b595760405162461bcd60e51b815260206004820152602c60248201527f46756e6374696f6e206d7573742062652063616c6c6564207468726f7567682060448201526b6163746976652070726f787960a01b6064820152608401610864565b610b6282611dea565b610b6e82826001611df2565b5050565b6000306001600160a01b037f00000000000000000000000000000000000000000000000000000000000000001614610c125760405162461bcd60e51b815260206004820152603860248201527f555550535570677261646561626c653a206d757374206e6f742062652063616c60448201527f6c6564207468726f7567682064656c656761746563616c6c00000000000000006064820152608401610864565b507f360894a13ba1a3210667c828492db98dca3e2076cc3735a920a3ca505d382bbc90565b60606000610c43612a65565b905060008160ff1667ffffffffffffffff811115610c6357610c63613ed6565b604051908082528060200260200182016040528015610ca857816020015b6040805180820190915260008082526020820152815260200190600190039081610c815790505b50905060005b8260ff168160ff161015610d1e5760ff808216600081815260db60209081526040918290208251808401909352805490941682526001909301549281019290925283518491908110610d0257610d02614364565b602002602001018190525080610d179061437a565b9050610cae565b5092909150565b610d2d612ab3565b610d376000612b0d565b565b346000610d4e82610d4960dc5490565b611f92565b9050610b6e828233612b5f565b606060ca805480602002602001604051908101604052809291908181526020018280548015610db357602002820191906000526020600020905b81546001600160a01b03168152600190910190602001808311610d95575b5050505050905090565b600054610100900460ff1615808015610ddd5750600054600160ff909116105b80610df75750303b158015610df7575060005460ff166001145b610e695760405162461bcd60e51b815260206004820152602e60248201527f496e697469616c697a61626c653a20636f6e747261637420697320616c72656160448201527f647920696e697469616c697a65640000000000000000000000000000000000006064820152608401610864565b6000805460ff191660011790558015610e8c576000805461ff0019166101001790555b60d7805473eb1100091ce830ba58a04834c35d29b75b53eb746001600160a01b03199182161790915568015af1d78b58c4000060d85560d5805461ffff191661083c179055600260d65560cf805474ffffffffffffffffffffffffffffffffffffffffff1916741476b7c991c3ef93b6771fac97a984a2cb37962fbc17905560d18054601060ff199182161790915560d3805490911660041790554260d45560d9805473efa6077f510b10a6c1b2f8da24a89fc561ac94459216919091179055680d8d726b7177a8000060dc55610f61612f17565b610f69612f8a565b8015610958576000805461ff0019169055604051600181527f7f26b83ff96e1f2b6a682f133852f6798a09c465da95921460cefb3847402498906020015b60405180910390a150565b60d25460d4546000908190610fca9062093a80614351565b90504280821115610fe257610fdf8183614399565b92505b50909192565b610ff0612ab3565b60d780546001600160a01b03908116600081815260da602052604080822080546001600160a01b0319908116909417905584548416808352908220600190810180548516909217909155935460ca805495860181559091527f42d72674974f694b5f5159593243114d38a5c39c89d6b62fee061ff523240ee19093018054939092169216919091179055565b600061108760dc5490565b60d85461109c90670de0b6b3a76400006143ac565b6110a691906143d9565b905090565b606060c9805480602002602001604051908101604052809291908181526020018280548015610db3576020028201919060005260206000209081546001600160a01b03168152600190910190602001808311610d95575050505050905090565b611113612ab3565b60005b60ff81168211156111b357604051806040016040528082600161113991906143ed565b60ff16815260200184848460ff1681811061115657611156614364565b90506020020135670de0b6b3a764000061117091906143ac565b905260ff828116600090815260db602090815260409091208351815460ff1916931692909217825591909101516001909101556111ac8161437a565b9050611116565b505050565b60d25460006111ca82610d4960dc5490565b9050600060d45462093a806111df9190614351565b905042818110156112325760405162461bcd60e51b815260206004820152601c60248201527f5765656b6c792074696d65206973206e6f74206f766572207965742e000000006044820152606401610864565b600060d254116112845760405162461bcd60e51b815260206004820152601860248201527f4e6f207265776172647320746f206469737472696275746500000000000000006044820152606401610864565b600060c98054806020026020016040519081016040528092919081815260200182805480156112dc57602002820191906000526020600020905b81546001600160a01b031681526001909101906020018083116112be575b50505050509050600042446001436112f49190614399565b6040805160208101949094528301919091524060608201526080016040516020818303038152906040528051906020012060001c905060008251826113399190614406565b9050600083828151811061134f5761134f614364565b60200260200101519050600060da6000836001600160a01b03166001600160a01b0316815260200190815260200160002090508781600c0160008282546113969190614351565b90915550506040516001600160a01b038316908a156108fc02908b906000818181858888f193505050501580156113d1573d6000803e3d6000fd5b50600060d28190554260d45560ce80548a92906113ef908490614351565b9091555050604080516001600160a01b0384168152602081018a90527ffff6edc60fd30afefcc47525cdf85502200830b22550391f79f9e383df03afad910160405180910390a1505050505050505050565b611449612ab3565b6001600160a01b0381166114c55760405162461bcd60e51b815260206004820152602660248201527f4f776e61626c653a206e6577206f776e657220697320746865207a65726f206160448201527f64647265737300000000000000000000000000000000000000000000000000006064820152608401610864565b61095881612b0d565b6001600160a01b03808216600090815260da6020908152604080832081516101e08101835281548616815260018201548616818501526002820154909516858301526003810180548351818602810186019094528084529495869586958695869593946060860193919290919083018282801561157457602002820191906000526020600020905b81546001600160a01b03168152600190910190602001808311611556575b5050505050815260200160048201805480602002602001604051908101604052809291908181526020016000905b828210156115ed576000848152602090819020604080518082019091526002850290910180546001600160a01b039081168352600191820154168284015290835290920191016115a2565b50505050815260200160058201805480602002602001604051908101604052809291908181526020016000905b8282101561166357600084815260209081902060408051808201909152908401546001600160a01b0381168252600160a01b900460ff168183015282526001909201910161161a565b505050908252506006820154602082015260078201546040820152600882015460ff16606082015260098201546080820152600a82015460a0820152600b82015460c080830191909152600c83015460e0830152600d830154610100830152600e909201546101209182015290820151908201516101408301519197509550935090506107d18584614351565b6001600160a01b03808216600090815260da6020908152604080832081516101e081018352815486168152600182015486168185015260028201549095168583015260038101805483518186028101860190945280845294958695869591946060860193909290919083018282801561179257602002820191906000526020600020905b81546001600160a01b03168152600190910190602001808311611774575b5050505050815260200160048201805480602002602001604051908101604052809291908181526020016000905b8282101561180b576000848152602090819020604080518082019091526002850290910180546001600160a01b039081168352600191820154168284015290835290920191016117c0565b50505050815260200160058201805480602002602001604051908101604052809291908181526020016000905b8282101561188157600084815260209081902060408051808201909152908401546001600160a01b0381168252600160a01b900460ff1681830152825260019092019101611838565b505050908252506006820154602082015260078201546040820152600882015460ff908116606083015260098301546080830152600a83015460a0830152600b83015460c0830152600c83015460e0830152600d83015461010080840191909152600e90930154610120909201919091529082015191925016156119085780610100015192505b60e00151919391925050565b6001600160a01b03808216600090815260da6020908152604080832081516101e081018352815486168152600182015486168185015260028201549095168583015260038101805483518186028101860190945280845294956060958795879587958795879586959094929385890193909291908301828280156119c157602002820191906000526020600020905b81546001600160a01b031681526001909101906020018083116119a3575b5050505050815260200160048201805480602002602001604051908101604052809291908181526020016000905b82821015611a3a576000848152602090819020604080518082019091526002850290910180546001600160a01b039081168352600191820154168284015290835290920191016119ef565b50505050815260200160058201805480602002602001604051908101604052809291908181526020016000905b82821015611ab057600084815260209081902060408051808201909152908401546001600160a01b0381168252600160a01b900460ff1681830152825260019092019101611a67565b50505090825250600682015460208201526007820154604080830191909152600883015460ff166060808401919091526009840154608080850191909152600a85015460a080860191909152600b86015460c0860152600c86015460e0860152600d860154610100860152600e90950154610120909401939093529084015190840151805192850151805195909401518051929f919e50929c50929a50929850965090945092505050565b611bf2604051806101e0016040528060006001600160a01b0316815260200160006001600160a01b0316815260200160006001600160a01b031681526020016060815260200160608152602001606081526020016000815260200160008152602001600060ff1681526020016000815260200160008152602001600081526020016000815260200160008152602001600081525090565b6001600160a01b03808316600090815260da602090815260409182902082516101e081018452815485168152600182015485168184015260028201549094168484015260038101805484518185028101850190955280855291936060860193909290830182828015611c8d57602002820191906000526020600020905b81546001600160a01b03168152600190910190602001808311611c6f575b5050505050815260200160048201805480602002602001604051908101604052809291908181526020016000905b82821015611d06576000848152602090819020604080518082019091526002850290910180546001600160a01b03908116835260019182015416828401529083529092019101611cbb565b50505050815260200160058201805480602002602001604051908101604052809291908181526020016000905b82821015611d7c57600084815260209081902060408051808201909152908401546001600160a01b0381168252600160a01b900460ff1681830152825260019092019101611d33565b505050908252506006820154602082015260078201546040820152600882015460ff16606082015260098201546080820152600a82015460a0820152600b82015460c0820152600c82015460e0820152600d820154610100820152600e909101546101209091015292915050565b610958612ab3565b7f4910fdfa16fed3260ed0e7147f7cc6da11a60208b5b9406d12a635614ffd91435460ff1615611e25576111b383612ff5565b826001600160a01b03166352d1902d6040518163ffffffff1660e01b8152600401602060405180830381865afa925050508015611e7f575060408051601f3d908101601f19168201909252611e7c9181019061441a565b60015b611ef15760405162461bcd60e51b815260206004820152602e60248201527f45524331393637557067726164653a206e657720696d706c656d656e7461746960448201527f6f6e206973206e6f7420555550530000000000000000000000000000000000006064820152608401610864565b7f360894a13ba1a3210667c828492db98dca3e2076cc3735a920a3ca505d382bbc8114611f865760405162461bcd60e51b815260206004820152602960248201527f45524331393637557067726164653a20756e737570706f727465642070726f7860448201527f6961626c655555494400000000000000000000000000000000000000000000006064820152608401610864565b506111b38383836130b3565b6000670de0b6b3a7640000611fa783856143ac565b611fb191906143d9565b90505b92915050565b60d8546064611fca82605f6143ac565b611fd491906143d9565b8410156120495760405162461bcd60e51b815260206004820152602660248201527f56616c7565206973206c657373207468656e20726567697374726174696f6e2060448201527f76616c75652e00000000000000000000000000000000000000000000000000006064820152608401610864565b60d5546001600160a01b03808716600090815260da6020526040808220928a1682528120600683015460ff80861695610100900416939190156120ce5760405162461bcd60e51b815260206004820152601760248201527f5573657220616c726561647920726567697374657265640000000000000000006044820152606401610864565b81546001600160a01b03166120f75781546001600160a01b0319166001600160a01b038b161782555b80546001600160a01b03166121205780546001600160a01b0319166001600160a01b038c161781555b81600601546000036123635760c98054600180820183556000929092527f66be4f155c5ef2ebd3772b228f2f00681e4ed5826cdb3b1943cc11ad15ad1d280180546001600160a01b0319166001600160a01b038d811691909117909155604080516101e0810182528554831681529285015482166020808501919091526002860154909216838201526003850180548251818502810185019093528083526123639493879360608601939092909183018282801561220757602002820191906000526020600020905b81546001600160a01b031681526001909101906020018083116121e9575b5050505050815260200160048201805480602002602001604051908101604052809291908181526020016000905b82821015612280576000848152602090819020604080518082019091526002850290910180546001600160a01b03908116835260019182015416828401529083529092019101612235565b50505050815260200160058201805480602002602001604051908101604052809291908181526020016000905b828210156122f657600084815260209081902060408051808201909152908401546001600160a01b0381168252600160a01b900460ff16818301528252600190920191016122ad565b505050908252506006820154602082015260078201546040820152600882015460ff16606082015260098201546080820152600a82015460a0820152600b82015460c0820152600c82015460e0820152600d820154610100820152600e90910154610120909101526130d8565b888260060160008282546123779190614351565b9091555050604080516101e08101825283546001600160a01b0390811682526001850154811660208084019190915260028601549091168284015260038501805484518184028101840190955280855261256a948793606086019391929083018282801561240e57602002820191906000526020600020905b81546001600160a01b031681526001909101906020018083116123f0575b5050505050815260200160048201805480602002602001604051908101604052809291908181526020016000905b82821015612487576000848152602090819020604080518082019091526002850290910180546001600160a01b0390811683526001918201541682840152908352909201910161243c565b50505050815260200160058201805480602002602001604051908101604052809291908181526020016000905b828210156124fd57600084815260209081902060408051808201909152908401546001600160a01b0381168252600160a01b900460ff16818301528252600190920191016124b4565b505050908252506006820154602082015260078201546040820152600882015460ff16606082015260098201546080820152600a82015460a0820152600b82015460c0820152600c82015460e0820152600d820154610100820152600e9091015461012090910152613161565b61257d576125788b8b613180565b6125e5565b7f1f4fff38c5e64af9e759d590409f022ea913658008bb1d0cd35e028244f01ecf6040516125dc906020808252601f908201527f5573657220416c72656164792068617665207265666572726572207365742e00604082015260600190565b60405180910390a15b600182015460028301548354604080516001600160a01b0394851681529284166020840152921681830152606081018b905290517f0411c58b3c1e8a39d91c901e5c807bff1401650beedc45aba65112756bb929b49181900360800190a16000606461265460ff88168b6143ac565b61265e91906143d9565b9050600061266c828a611f92565b60018501546001600160a01b03908116600090815260da6020526040902080549293509116156127595780546040516001600160a01b039091169084156108fc029085906000818181858888f193505050501580156126cf573d6000803e3d6000fd5b508054604080516001600160a01b039283168152918f1660208301528101849052600160608201527f153f77382d7e07de734977ae352e9b1f5f8ad4b1c0033c883a9a33456a87836f9060800160405180910390a18181600b0160008282546127389190614351565b925050819055508b8160090160008282546127539190614351565b90915550505b6127638287614351565b955060005b8760ff168160ff1610156128d357604080516101e08101825287546001600160a01b0390811682526001890154811660208084019190915260028a01549091168284015260038901805484518184028101840190955280855261287e948b93606086019391929083018282801561240e576020028201919060005260206000209081546001600160a01b031681526001909101906020018083116123f05750505050508152602001600482018054806020026020016040519081016040528092919081815260200160009082821015612487576000848152602090819020604080518082019091526002850290910180546001600160a01b0390811683526001918201541682840152908352909201910161243c565b156128d35760028601546001600160a01b0316600090815260da60205260408120600a810180549197508f9290916128b7908490614351565b90915550949550859450806128cb8161437a565b915050612768565b5060cf546000906064906128f190600160a01b900460ff168e6143ac565b6128fb91906143d9565b60cf546040519192506001600160a01b03169082156108fc029083906000818181858888f19350505050158015612936573d6000803e3d6000fd5b5060cf54604080516001600160a01b039092168252602082018390527f5aa75bdb3269082e844d731608afae2a07cbf194f251e3f857b870af86b754fb910160405180910390a18660cc600082825461298f9190614351565b925050819055508c60cb60008282546129a89190614351565b909155505060d1546000906064906129c39060ff168f6143ac565b6129cd91906143d9565b60d9546040519192506001600160a01b03169082156108fc029083906000818181858888f19350505050158015612a08573d6000803e3d6000fd5b508060d06000828254612a1b9190614351565b909155505060d354606490612a339060ff168f6143ac565b612a3d91906143d9565b60d26000828254612a4e9190614351565b909155505050505050505050505050505050505050565b6000805b60328160ff161015612aaf5760ff808216600090815260db60205260409020541615612aaf5781612a998161437a565b9250508080612aa79061437a565b915050612a69565b5090565b6033546001600160a01b03163314610d375760405162461bcd60e51b815260206004820181905260248201527f4f776e61626c653a2063616c6c6572206973206e6f7420746865206f776e65726044820152606401610864565b603380546001600160a01b038381166001600160a01b0319831681179093556040519116919082907f8be0079c531659141344cd1fd0a4f28419497f9722a3daafe3b4186f6b6457e090600090a35050565b6001600160a01b038116600090815260da60209081526040808320600881015460ff90811680865260db85528386208451808601909552805490921684526001909101549383019390935292612bb3612a65565b90508160200151861015612c2f5760405162461bcd60e51b815260206004820152602660248201527f56616c75652073686f756c6420626520657175616c20746f207570677261646560448201527f2076616c756500000000000000000000000000000000000000000000000000006064820152608401610864565b8060ff168360ff1610612c845760405162461bcd60e51b815260206004820152601f60248201527f5573657220636f6e73756d656420616c6c207570677261646520706c616e73006044820152606401610864565b85846007016000828254612c989190614351565b90915550600090505b8360ff168111612edf5760028501546001600160a01b031615612edf5760028501546001600160a01b0316600090815260da6020526040902060ff85168203612ecd57600881015460ff8087169116118015612d06575080546001600160a01b031615155b15612db0578781600d016000828254612d1f9190614351565b909155505080546040516001600160a01b03909116908a156108fc02908b906000818181858888f19350505050158015612d5d573d6000803e3d6000fd5b508054604080516001600160a01b039283168152918916602083015281018a90527fb37800f632235e56e1626c9e9df3de1e167e9298f0d25f59fd74ec65e31116529060600160405180910390a1612ec7565b7f6696b78fc1713892e6e2bb3df5cdc986ab67a0c675898c7ef535bd2201ca9451604051612e35906020808252603f908201527f55706c696e6520686173206e6f742075706772616465642e20416d6f756e742060408201527f7472616e73666572656420746f206c69717569646974792077616c6c65742e00606082015260800190565b60405180910390a160d9546040516001600160a01b039091169081908b156108fc02908c906000818181858888f19350505050158015612e79573d6000803e3d6000fd5b50604080516001600160a01b0380841682528a1660208201529081018b90527fb37800f632235e56e1626c9e9df3de1e167e9298f0d25f59fd74ec65e31116529060600160405180910390a1505b50612edf565b9450612ed881614433565b9050612ca1565b5060088401805460ff16906000612ef58361437a565b91906101000a81548160ff021916908360ff1602179055505050505050505050565b600054610100900460ff16612f825760405162461bcd60e51b815260206004820152602b60248201527f496e697469616c697a61626c653a20636f6e7472616374206973206e6f74206960448201526a6e697469616c697a696e6760a81b6064820152608401610864565b610d37613a92565b600054610100900460ff16610d375760405162461bcd60e51b815260206004820152602b60248201527f496e697469616c697a61626c653a20636f6e7472616374206973206e6f74206960448201526a6e697469616c697a696e6760a81b6064820152608401610864565b6001600160a01b0381163b6130725760405162461bcd60e51b815260206004820152602d60248201527f455243313936373a206e657720696d706c656d656e746174696f6e206973206e60448201527f6f74206120636f6e7472616374000000000000000000000000000000000000006064820152608401610864565b7f360894a13ba1a3210667c828492db98dca3e2076cc3735a920a3ca505d382bbc80546001600160a01b0319166001600160a01b0392909216919091179055565b6130bc83613b06565b6000825111806130c95750805b156111b357610a008383613b46565b60ca80546101c0830181905282516001820183556000929092527f42d72674974f694b5f5159593243114d38a5c39c89d6b62fee061ff523240ee10180546001600160a01b0319166001600160a01b039283161790558151604051911681527f06baf10092c7ea144c4fb56fb8cf641e1f00e291a535b5d54b547eadb29485a790602001610fa7565b60408101516000906001600160a01b03161561317b575060015b919050565b6001600160a01b03808216600081815260da60205260409020918416036131e95760405162461bcd60e51b815260206004820152601a60248201527f596f752063616e6e6f7420726566657220796f757273656c662e0000000000006044820152606401610864565b60006001600160a01b038416613219575060d7546001600160a01b0316600090815260da60205260409020613233565b506001600160a01b038316600090815260da602052604090205b604080516101e08101825282546001600160a01b0390811682526001840154811660208084019190915260028501549091168284015260038401805484518184028101840190955280855261342194869360608601939192908301828280156132c557602002820191906000526020600020905b81546001600160a01b031681526001909101906020018083116132a7575b5050505050815260200160048201805480602002602001604051908101604052809291908181526020016000905b8282101561333e576000848152602090819020604080518082019091526002850290910180546001600160a01b039081168352600191820154168284015290835290920191016132f3565b50505050815260200160058201805480602002602001604051908101604052809291908181526020016000905b828210156133b457600084815260209081902060408051808201909152908401546001600160a01b0381168252600160a01b900460ff168183015282526001909201910161336b565b505050908252506006820154602082015260078201546040820152600882015460ff16606082015260098201546080820152600a82015460a0820152600b82015460c0820152600c82015460e0820152600d820154610100820152600e9091015461012090910152613c51565b6135725761342f8183613c7b565b60038101805460018082018355600083815260209081902090920180546001600160a01b0319166001600160a01b0388811691909117909155604080516101e08101825286548316815292860154821683850152600286015490911682820152835481518185028101850190925280825261355f949293869360608601939290918301828280156132c5576020028201919060005260206000209081546001600160a01b031681526001909101906020018083116132a7575050505050815260200160048201805480602002602001604051908101604052809291908181526020016000908282101561333e576000848152602090819020604080518082019091526002850290910180546001600160a01b039081168352600191820154168284015290835290920191016132f3565b1561356d5761356d81613cde565b6138c7565b61357b81613cde565b600060da6000613589613dd3565b6001600160a01b03166001600160a01b0316815260200190815260200160002090506135b58184613c7b565b604080516101e08101825282546001600160a01b039081168252600184015481166020808401919091526002850154909116828401526003840180548451818402810184019095528085526136bd94869360608601939192908301828280156132c5576020028201919060005260206000209081546001600160a01b031681526001909101906020018083116132a7575050505050815260200160048201805480602002602001604051908101604052809291908181526020016000908282101561333e576000848152602090819020604080518082019091526002850290910180546001600160a01b039081168352600191820154168284015290835290920191016132f3565b156136cb576136cb81613cde565b81548154604080516001600160a01b03938416815291831660208301529186168183015290517fa1b30426557565c4fa85ce5f9c88513d7d3f49d21eb30569c249b07b037831ef9181900360600190a1604080518082019091526001600160a01b0380861682528254811660208084019182526004860180546001818101835560009283529282209551600290910290950180549585166001600160a01b0319968716178155925192909101805492909316919093161790556006840154900361389757604080516101e08101825284546001600160a01b039081168252600186015481166020808401919091526002870154909116828401526003860180548451818402810184019095528085526138979488936060860193919290830182828015612207576020028201919060005260206000209081546001600160a01b031681526001909101906020018083116121e95750505050508152602001600482018054806020026020016040519081016040528092919081815260200160009082821015612280576000848152602090819020604080518082019091526002850290910180546001600160a01b03908116835260019182015416828401529083529092019101612235565b6003018054600181018255600091825260209091200180546001600160a01b0319166001600160a01b0385161790555b60018201546001600160a01b03166139455780546001830180546001600160a01b039283166001600160a01b0319909116811790915560028401546040805192835290831660208301529185168183015290517f8efa008f8ae98ae30d3219078a298c85bc25a62f50c57ed9a3ec838b7eed9f479181900360600190a15b60d554610100900460ff1660005b8160ff168160ff161015613a8a5760028401546001600160a01b031615613a8a5760028401546001600160a01b03908116600090815260da602090815260409182902082518084019093529288168252919450600585019181016139b88460016143ed565b60ff90811690915282546001818101855560009485526020948590208451920180549590940151909216600160a01b0274ffffffffffffffffffffffffffffffffffffffffff199094166001600160a01b03918216179390931790915584547f85db3f10b88ea7fc653f3f818097a3fc3c543196ed60cad2251df922bcc9ad7f9216908790613a489085906143ed565b604080516001600160a01b03948516815293909216602084015260ff169082015260600160405180910390a18293508080613a829061437a565b915050613953565b505050505050565b600054610100900460ff16613afd5760405162461bcd60e51b815260206004820152602b60248201527f496e697469616c697a61626c653a20636f6e7472616374206973206e6f74206960448201526a6e697469616c697a696e6760a81b6064820152608401610864565b610d3733612b0d565b613b0f81612ff5565b6040516001600160a01b038216907fbc7cd75a20ee27fd9adebab32041f755214dbc6bffa90cc0225b39da2e5c2d3b90600090a250565b60606001600160a01b0383163b613bc55760405162461bcd60e51b815260206004820152602660248201527f416464726573733a2064656c65676174652063616c6c20746f206e6f6e2d636f60448201527f6e747261637400000000000000000000000000000000000000000000000000006064820152608401610864565b600080846001600160a01b031684604051613be09190614470565b600060405180830381855af49150503d8060008114613c1b576040519150601f19603f3d011682016040523d82523d6000602084013e613c20565b606091505b5091509150613c4882826040518060600160405280602781526020016144d660279139613e5a565b95945050505050565b600060d6548260600151511180613c6e575060d654826060015151145b1561317b57506001919050565b81546002820180546001600160a01b0319166001600160a01b0392831617905582548254604080519284168352921660208201527fec49a3c8c4ae06c18160fe86119c381c9d213ac3e052ff35b594da8687b193c7910160405180910390a15050565b60ca8054613cee90600190614399565b81548110613cfe57613cfe614364565b9060005260206000200160009054906101000a90046001600160a01b031660ca82600e015481548110613d3357613d33614364565b9060005260206000200160006101000a8154816001600160a01b0302191690836001600160a01b0316021790555060ca805480613d7257613d7261448c565b6000828152602090819020600019908301810180546001600160a01b031916905590910190915581546040516001600160a01b0390911681527f644b85583ba83e73113ffc0c122b165819ca11db493cd4cc38f5ba29138ffa1b9101610fa7565b6000804244613de3600143614399565b60408051602081019490945283019190915240606082015260800160408051601f19818403018152919052805160209091012060ca54909150600090613e299083614406565b905060ca8181548110613e3e57613e3e614364565b6000918252602090912001546001600160a01b03169392505050565b60608315613e69575081613e73565b613e738383613e7a565b9392505050565b815115613e8a5781518083602001fd5b8060405162461bcd60e51b815260040161086491906144a2565b80356001600160a01b038116811461317b57600080fd5b600060208284031215613ecd57600080fd5b611fb182613ea4565b634e487b7160e01b600052604160045260246000fd5b60008060408385031215613eff57600080fd5b613f0883613ea4565b9150602083013567ffffffffffffffff80821115613f2557600080fd5b818501915085601f830112613f3957600080fd5b813581811115613f4b57613f4b613ed6565b604051601f8201601f19908116603f01168101908382118183101715613f7357613f73613ed6565b81604052828152886020848701011115613f8c57600080fd5b8260208601602083013760006020848301015280955050505050509250929050565b60408082528351828201819052600091906020906060850190828801855b82811015613ffc57613fec848351805160ff168252602090810151910152565b9285019290840190600101613fcc565b50505060ff95909516930192909252509092915050565b600081518084526020808501945080840160005b8381101561404c5781516001600160a01b031687529582019590820190600101614027565b509495945050505050565b602081526000611fb16020830184614013565b60006020828403121561407c57600080fd5b813560ff81168114613e7357600080fd5b815160ff1681526020808301519082015260408101611fb4565b600080602083850312156140ba57600080fd5b823567ffffffffffffffff808211156140d257600080fd5b818501915085601f8301126140e657600080fd5b8135818111156140f557600080fd5b8660208260051b850101111561410a57600080fd5b60209290920196919550909350505050565b600081518084526020808501945080840160005b8381101561404c57815180516001600160a01b03908116895290840151168388015260409096019590820190600101614130565b600081518084526020808501945080840160005b8381101561404c57815180516001600160a01b0316885283015160ff168388015260409096019590820190600101614178565b6001600160a01b038816815260e0602082015260006141cd60e0830189614013565b87604084015282810360608401526141e5818861411c565b905085608084015282810360a08401526141ff8186614164565b9150508260c083015298975050505050505050565b6020815261422e6020820183516001600160a01b03169052565b6000602083015161424a60408401826001600160a01b03169052565b5060408301516001600160a01b03811660608401525060608301516101e080608085015261427c610200850183614013565b91506080850151601f19808685030160a087015261429a848361411c565b935060a08701519150808685030160c0870152506142b88382614164565b92505060c085015160e085015260e08501516101008181870152808701519150506101206142ea8187018360ff169052565b8601516101408681019190915286015161016080870191909152860151610180808701919091528601516101a0808701919091528601516101c0808701919091529095015193019290925250919050565b634e487b7160e01b600052601160045260246000fd5b80820180821115611fb457611fb461433b565b634e487b7160e01b600052603260045260246000fd5b600060ff821660ff81036143905761439061433b565b60010192915050565b81810381811115611fb457611fb461433b565b8082028115828204841417611fb457611fb461433b565b634e487b7160e01b600052601260045260246000fd5b6000826143e8576143e86143c3565b500490565b60ff8181168382160190811115611fb457611fb461433b565b600082614415576144156143c3565b500690565b60006020828403121561442c57600080fd5b5051919050565b6000600182016144455761444561433b565b5060010190565b60005b8381101561446757818101518382015260200161444f565b50506000910152565b6000825161448281846020870161444c565b9190910192915050565b634e487b7160e01b600052603160045260246000fd5b60208152600082518060208401526144c181604085016020870161444c565b601f01601f1916919091016040019291505056fe416464726573733a206c6f772d6c6576656c2064656c65676174652063616c6c206661696c6564a2646970667358221220e032ed732517395734bdb4dcc9a58af61f7ef43d89c91ccbbb8dd472acf0eff364736f6c63430008120033",
  "linkReferences": {},
  "deployedLinkReferences": {}
}