{
  "_format": "hh-sol-artifact-1",
  "contractName": "CashXProtocolReferral",
  "sourceName": "contracts/CashXProtocolReferral.sol",
  "abi": [
    {
      "anonymous": false,
      "inputs": [
        {
          "indexed": false,
          "internalType": "address",
          "name": "user",
          "type": "address"
        }
      ],
      "name": "AddedToRandomList",
      "type": "event"
    },
    {
      "anonymous": false,
      "inputs": [
        {
          "indexed": false,
          "internalType": "address",
          "name": "previousAdmin",
          "type": "address"
        },
        {
          "indexed": false,
          "internalType": "address",
          "name": "newAdmin",
          "type": "address"
        }
      ],
      "name": "AdminChanged",
      "type": "event"
    },
    {
      "anonymous": false,
      "inputs": [
        {
          "indexed": true,
          "internalType": "address",
          "name": "beacon",
          "type": "address"
        }
      ],
      "name": "BeaconUpgraded",
      "type": "event"
    },
    {
      "anonymous": false,
      "inputs": [
        {
          "indexed": false,
          "internalType": "uint8",
          "name": "version",
          "type": "uint8"
        }
      ],
      "name": "Initialized",
      "type": "event"
    },
    {
      "anonymous": false,
      "inputs": [
        {
          "indexed": true,
          "internalType": "address",
          "name": "previousOwner",
          "type": "address"
        },
        {
          "indexed": true,
          "internalType": "address",
          "name": "newOwner",
          "type": "address"
        }
      ],
      "name": "OwnershipTransferred",
      "type": "event"
    },
    {
      "anonymous": false,
      "inputs": [
        {
          "indexed": false,
          "internalType": "address",
          "name": "by",
          "type": "address"
        },
        {
          "indexed": false,
          "internalType": "address",
          "name": "to",
          "type": "address"
        },
        {
          "indexed": false,
          "internalType": "address",
          "name": "user",
          "type": "address"
        }
      ],
      "name": "ParentAdded",
      "type": "event"
    },
    {
      "anonymous": false,
      "inputs": [
        {
          "indexed": false,
          "internalType": "address",
          "name": "to",
          "type": "address"
        },
        {
          "indexed": false,
          "internalType": "address",
          "name": "user",
          "type": "address"
        },
        {
          "indexed": false,
          "internalType": "uint256",
          "name": "valueInWei",
          "type": "uint256"
        },
        {
          "indexed": false,
          "internalType": "uint32",
          "name": "level",
          "type": "uint32"
        }
      ],
      "name": "ReferralRewardsPaid",
      "type": "event"
    },
    {
      "anonymous": false,
      "inputs": [
        {
          "indexed": false,
          "internalType": "address",
          "name": "by",
          "type": "address"
        },
        {
          "indexed": false,
          "internalType": "address",
          "name": "user",
          "type": "address"
        }
      ],
      "name": "ReferrerAdded",
      "type": "event"
    },
    {
      "anonymous": false,
      "inputs": [
        {
          "indexed": false,
          "internalType": "string",
          "name": "reason",
          "type": "string"
        }
      ],
      "name": "ReferrerNoAdded",
      "type": "event"
    },
    {
      "anonymous": false,
      "inputs": [
        {
          "indexed": false,
          "internalType": "address",
          "name": "by",
          "type": "address"
        },
        {
          "indexed": false,
          "internalType": "address",
          "name": "to",
          "type": "address"
        },
        {
          "indexed": false,
          "internalType": "address",
          "name": "user",
          "type": "address"
        },
        {
          "indexed": false,
          "internalType": "uint256",
          "name": "valueInWei",
          "type": "uint256"
        }
      ],
      "name": "Registration",
      "type": "event"
    },
    {
      "anonymous": false,
      "inputs": [
        {
          "indexed": false,
          "internalType": "address",
          "name": "by",
          "type": "address"
        },
        {
          "indexed": false,
          "internalType": "address",
          "name": "to",
          "type": "address"
        },
        {
          "indexed": false,
          "internalType": "address",
          "name": "user",
          "type": "address"
        }
      ],
      "name": "RegistrationAssigned",
      "type": "event"
    },
    {
      "anonymous": false,
      "inputs": [
        {
          "indexed": false,
          "internalType": "address",
          "name": "user",
          "type": "address"
        }
      ],
      "name": "RemovedFromRandomList",
      "type": "event"
    },
    {
      "anonymous": false,
      "inputs": [
        {
          "indexed": false,
          "internalType": "address",
          "name": "to",
          "type": "address"
        },
        {
          "indexed": false,
          "internalType": "address",
          "name": "user",
          "type": "address"
        },
        {
          "indexed": false,
          "internalType": "uint32",
          "name": "level",
          "type": "uint32"
        }
      ],
      "name": "TeamAddressAdded",
      "type": "event"
    },
    {
      "anonymous": false,
      "inputs": [
        {
          "indexed": false,
          "internalType": "address",
          "name": "to",
          "type": "address"
        },
        {
          "indexed": false,
          "internalType": "uint256",
          "name": "valueInWei",
          "type": "uint256"
        }
      ],
      "name": "TeamWalletRewardPaid",
      "type": "event"
    },
    {
      "anonymous": false,
      "inputs": [
        {
          "indexed": false,
          "internalType": "string",
          "name": "reason",
          "type": "string"
        }
      ],
      "name": "UpgradeRewardNotPaid",
      "type": "event"
    },
    {
      "anonymous": false,
      "inputs": [
        {
          "indexed": false,
          "internalType": "address",
          "name": "to",
          "type": "address"
        },
        {
          "indexed": false,
          "internalType": "address",
          "name": "by",
          "type": "address"
        },
        {
          "indexed": false,
          "internalType": "uint256",
          "name": "valueInWei",
          "type": "uint256"
        }
      ],
      "name": "UpgradeRewardPaid",
      "type": "event"
    },
    {
      "anonymous": false,
      "inputs": [
        {
          "indexed": true,
          "internalType": "address",
          "name": "implementation",
          "type": "address"
        }
      ],
      "name": "Upgraded",
      "type": "event"
    },
    {
      "anonymous": false,
      "inputs": [
        {
          "indexed": false,
          "internalType": "address",
          "name": "to",
          "type": "address"
        },
        {
          "indexed": false,
          "internalType": "uint256",
          "name": "valueInWei",
          "type": "uint256"
        }
      ],
      "name": "WeeklyRewardsPaid",
      "type": "event"
    },
    {
      "inputs": [],
      "name": "distributeWeeklyReward",
      "outputs": [],
      "stateMutability": "nonpayable",
      "type": "function"
    },
    {
      "inputs": [],
      "name": "getNativePriceInUSD",
      "outputs": [
        {
          "internalType": "uint256",
          "name": "",
          "type": "uint256"
        }
      ],
      "stateMutability": "view",
      "type": "function"
    },
    {
      "inputs": [],
      "name": "getRegistrationsStats",
      "outputs": [
        {
          "internalType": "uint32",
          "name": "totalUser",
          "type": "uint32"
        },
        {
          "internalType": "uint256",
          "name": "totalRegistrationValueInUSD",
          "type": "uint256"
        },
        {
          "internalType": "uint256",
          "name": "totalReferralPaidInUSD",
          "type": "uint256"
        },
        {
          "internalType": "uint256",
          "name": "totalWeeklyRewardsPaidInUSD",
          "type": "uint256"
        }
      ],
      "stateMutability": "view",
      "type": "function"
    },
    {
      "inputs": [],
      "name": "getUpgradePlans",
      "outputs": [
        {
          "components": [
            {
              "internalType": "uint8",
              "name": "id",
              "type": "uint8"
            },
            {
              "internalType": "uint256",
              "name": "valueToUpgradeInUSD",
              "type": "uint256"
            }
          ],
          "internalType": "struct UpgradeStruct[]",
          "name": "upgradePlans",
          "type": "tuple[]"
        },
        {
          "internalType": "uint8",
          "name": "upgradePlansCount",
          "type": "uint8"
        }
      ],
      "stateMutability": "view",
      "type": "function"
    },
    {
      "inputs": [
        {
          "internalType": "address",
          "name": "_userAddress",
          "type": "address"
        }
      ],
      "name": "getUserAccount",
      "outputs": [
        {
          "components": [
            {
              "internalType": "address",
              "name": "self",
              "type": "address"
            },
            {
              "internalType": "address",
              "name": "parent",
              "type": "address"
            },
            {
              "internalType": "address",
              "name": "referrer",
              "type": "address"
            },
            {
              "internalType": "address[]",
              "name": "referee",
              "type": "address[]"
            },
            {
              "components": [
                {
                  "internalType": "address",
                  "name": "referee",
                  "type": "address"
                },
                {
                  "internalType": "address",
                  "name": "assignedTo",
                  "type": "address"
                }
              ],
              "internalType": "struct RefereeStruct[]",
              "name": "refereeAssigned",
              "type": "tuple[]"
            },
            {
              "components": [
                {
                  "internalType": "address",
                  "name": "teamMember",
                  "type": "address"
                },
                {
                  "internalType": "uint8",
                  "name": "level",
                  "type": "uint8"
                }
              ],
              "internalType": "struct TeamStruct[]",
              "name": "team",
              "type": "tuple[]"
            },
            {
              "internalType": "uint256",
              "name": "selfBusinessInUSD",
              "type": "uint256"
            },
            {
              "internalType": "uint256",
              "name": "upgradedValueInUSD",
              "type": "uint256"
            },
            {
              "internalType": "uint8",
              "name": "upgradeId",
              "type": "uint8"
            },
            {
              "internalType": "uint256",
              "name": "directBusinessInUSD",
              "type": "uint256"
            },
            {
              "internalType": "uint256",
              "name": "teamBusinessInUSD",
              "type": "uint256"
            },
            {
              "internalType": "uint256",
              "name": "referralRewardsInUSD",
              "type": "uint256"
            },
            {
              "internalType": "uint256",
              "name": "weeklyRewardsInUSD",
              "type": "uint256"
            },
            {
              "internalType": "uint256",
              "name": "upgradeRewardsInUSD",
              "type": "uint256"
            },
            {
              "internalType": "uint256",
              "name": "userRandomIndex",
              "type": "uint256"
            }
          ],
          "internalType": "struct AccountStruct",
          "name": "",
          "type": "tuple"
        }
      ],
      "stateMutability": "view",
      "type": "function"
    },
    {
      "inputs": [
        {
          "internalType": "address",
          "name": "_userAddress",
          "type": "address"
        }
      ],
      "name": "getUserBusiness",
      "outputs": [
        {
          "internalType": "uint256",
          "name": "selfBusinessInUSD",
          "type": "uint256"
        },
        {
          "internalType": "uint256",
          "name": "directBusinessInUSD",
          "type": "uint256"
        },
        {
          "internalType": "uint256",
          "name": "teamBusinessInUSD",
          "type": "uint256"
        },
        {
          "internalType": "uint256",
          "name": "totalBusinessInUSD",
          "type": "uint256"
        }
      ],
      "stateMutability": "view",
      "type": "function"
    },
    {
      "inputs": [
        {
          "internalType": "address",
          "name": "_userAddress",
          "type": "address"
        }
      ],
      "name": "getUserCurrentUpgradeLevel",
      "outputs": [
        {
          "internalType": "uint8",
          "name": "level",
          "type": "uint8"
        },
        {
          "internalType": "uint256",
          "name": "totalUpgradeValueInUSD",
          "type": "uint256"
        }
      ],
      "stateMutability": "view",
      "type": "function"
    },
    {
      "inputs": [
        {
          "internalType": "address",
          "name": "_userAddress",
          "type": "address"
        }
      ],
      "name": "getUserRewards",
      "outputs": [
        {
          "internalType": "uint256",
          "name": "referralRewardInUSD",
          "type": "uint256"
        },
        {
          "internalType": "uint256",
          "name": "weeklyRewardInUSD",
          "type": "uint256"
        },
        {
          "internalType": "uint256",
          "name": "upgradeRewardsInUSD",
          "type": "uint256"
        }
      ],
      "stateMutability": "view",
      "type": "function"
    },
    {
      "inputs": [
        {
          "internalType": "address",
          "name": "_userAddress",
          "type": "address"
        }
      ],
      "name": "getUserTeam",
      "outputs": [
        {
          "internalType": "address",
          "name": "referrer",
          "type": "address"
        },
        {
          "internalType": "address[]",
          "name": "referees",
          "type": "address[]"
        },
        {
          "internalType": "uint256",
          "name": "refereeCount",
          "type": "uint256"
        },
        {
          "components": [
            {
              "internalType": "address",
              "name": "referee",
              "type": "address"
            },
            {
              "internalType": "address",
              "name": "assignedTo",
              "type": "address"
            }
          ],
          "internalType": "struct RefereeStruct[]",
          "name": "refereeAssigned",
          "type": "tuple[]"
        },
        {
          "internalType": "uint256",
          "name": "refereeAssignedCount",
          "type": "uint256"
        },
        {
          "components": [
            {
              "internalType": "address",
              "name": "teamMember",
              "type": "address"
            },
            {
              "internalType": "uint8",
              "name": "level",
              "type": "uint8"
            }
          ],
          "internalType": "struct TeamStruct[]",
          "name": "team",
          "type": "tuple[]"
        },
        {
          "internalType": "uint256",
          "name": "teamCount",
          "type": "uint256"
        }
      ],
      "stateMutability": "view",
      "type": "function"
    },
    {
      "inputs": [],
      "name": "getWeeklyRewardToBeDistributed",
      "outputs": [
        {
          "internalType": "uint256",
          "name": "_rewardValue",
          "type": "uint256"
        },
        {
          "internalType": "uint256",
          "name": "_remianingTime",
          "type": "uint256"
        },
        {
          "internalType": "uint256",
          "name": "_endTime",
          "type": "uint256"
        }
      ],
      "stateMutability": "view",
      "type": "function"
    },
    {
      "inputs": [],
      "name": "initialize",
      "outputs": [],
      "stateMutability": "nonpayable",
      "type": "function"
    },
    {
      "inputs": [],
      "name": "needNativeToRegister",
      "outputs": [
        {
          "internalType": "uint256",
          "name": "",
          "type": "uint256"
        }
      ],
      "stateMutability": "view",
      "type": "function"
    },
    {
      "inputs": [],
      "name": "owner",
      "outputs": [
        {
          "internalType": "address",
          "name": "",
          "type": "address"
        }
      ],
      "stateMutability": "view",
      "type": "function"
    },
    {
      "inputs": [],
      "name": "proxiableUUID",
      "outputs": [
        {
          "internalType": "bytes32",
          "name": "",
          "type": "bytes32"
        }
      ],
      "stateMutability": "view",
      "type": "function"
    },
    {
      "inputs": [
        {
          "internalType": "address",
          "name": "_referrer",
          "type": "address"
        }
      ],
      "name": "registrationNative",
      "outputs": [],
      "stateMutability": "payable",
      "type": "function"
    },
    {
      "inputs": [],
      "name": "renounceOwnership",
      "outputs": [],
      "stateMutability": "nonpayable",
      "type": "function"
    },
    {
      "inputs": [],
      "name": "setDefaults",
      "outputs": [],
      "stateMutability": "nonpayable",
      "type": "function"
    },
    {
      "inputs": [
        {
          "internalType": "address",
          "name": "newOwner",
          "type": "address"
        }
      ],
      "name": "transferOwnership",
      "outputs": [],
      "stateMutability": "nonpayable",
      "type": "function"
    },
    {
      "inputs": [
        {
          "internalType": "uint8[]",
          "name": "_id",
          "type": "uint8[]"
        },
        {
          "internalType": "uint256[]",
          "name": "_valueToUpgrade",
          "type": "uint256[]"
        }
      ],
      "name": "updateUpgradePlans",
      "outputs": [],
      "stateMutability": "nonpayable",
      "type": "function"
    },
    {
      "inputs": [],
      "name": "upgradeAccountNative",
      "outputs": [],
      "stateMutability": "payable",
      "type": "function"
    },
    {
      "inputs": [
        {
          "internalType": "address",
          "name": "newImplementation",
          "type": "address"
        }
      ],
      "name": "upgradeTo",
      "outputs": [],
      "stateMutability": "nonpayable",
      "type": "function"
    },
    {
      "inputs": [
        {
          "internalType": "address",
          "name": "newImplementation",
          "type": "address"
        },
        {
          "internalType": "bytes",
          "name": "data",
          "type": "bytes"
        }
      ],
      "name": "upgradeToAndCall",
      "outputs": [],
      "stateMutability": "payable",
      "type": "function"
    },
    {
      "stateMutability": "payable",
      "type": "receive"
    }
  ],
  "bytecode": "0x60a06040523060805234801561001457600080fd5b5060805161416161004c60003960008181610725015281816107af015281816108d4015281816109590152610a4301526141616000f3fe6080604052600436106101795760003560e01c80638129fc1c116100cb578063ebd0f48f1161007f578063f925017111610059578063f9250171146103d6578063faeda7e51461040f578063fb47e0161461044257600080fd5b8063ebd0f48f14610361578063f2fde38b14610376578063f87127b41461039657600080fd5b80638da5cb5b116100b05780638da5cb5b1461030f578063a7be6a7214610337578063ac21689a1461034c57600080fd5b80638129fc1c146102e5578063846688f7146102fa57600080fd5b80634f1ef2861161012d57806363a540421161010757806363a54042146102b3578063715018a6146102c8578063770cc0dd146102dd57600080fd5b80634f1ef2861461025a57806352d1902d1461026d57806359a045441461029057600080fd5b80631c527ce31161015e5780631c527ce3146102055780633659cfe614610227578063438c2f551461024757600080fd5b80630690c6a814610185578063078b0fb7146101ca57600080fd5b3661018057005b600080fd5b34801561019157600080fd5b5060c95460cb5460cc5460ce546040805163ffffffff909516855260208501939093529183015260608201526080015b60405180910390f35b3480156101d657600080fd5b506101ea6101e5366004613aff565b61046f565b604080519384526020840192909252908201526060016101c1565b34801561021157600080fd5b50610225610220366004613b66565b610689565b005b34801561023357600080fd5b50610225610242366004613aff565b61071b565b610225610255366004613aff565b61089b565b610225610268366004613be8565b6108ca565b34801561027957600080fd5b50610282610a36565b6040519081526020016101c1565b34801561029c57600080fd5b506102a5610afb565b6040516101c1929190613caa565b3480156102bf57600080fd5b5060dc54610282565b3480156102d457600080fd5b50610225610be9565b610225610bfd565b3480156102f157600080fd5b50610225610c1f565b34801561030657600080fd5b506101ea610e14565b34801561031b57600080fd5b506033546040516001600160a01b0390911681526020016101c1565b34801561034357600080fd5b50610225610e4a565b34801561035857600080fd5b50610282610ede565b34801561036d57600080fd5b50610225610efb565b34801561038257600080fd5b50610225610391366004613aff565b611184565b3480156103a257600080fd5b506103b66103b1366004613aff565b611211565b6040805194855260208501939093529183015260608201526080016101c1565b3480156103e257600080fd5b506103f66103f1366004613aff565b61143d565b6040805160ff90931683526020830191909152016101c1565b34801561041b57600080fd5b5061042f61042a366004613aff565b611661565b6040516101c19796959493929190613dda565b34801561044e57600080fd5b5061046261045d366004613aff565b6118a8565b6040516101c19190613e43565b6001600160a01b03808216600090815260da6020908152604080832081516101e08101835281548616815260018201548616818501526002820154909516858301526003810180548351818602810186019094528084529495869586958695929493606086019392909183018282801561051257602002820191906000526020600020905b81546001600160a01b031681526001909101906020018083116104f4575b5050505050815260200160048201805480602002602001604051908101604052809291908181526020016000905b8282101561058b576000848152602090819020604080518082019091526002850290910180546001600160a01b03908116835260019182015416828401529083529092019101610540565b50505050815260200160058201805480602002602001604051908101604052809291908181526020016000905b8282101561060157600084815260209081902060408051808201909152908401546001600160a01b0381168252600160a01b900460ff16818301528252600190920191016105b8565b505050908252506006820154602082015260078201546040820152600882015460ff16606082015260098201546080820152600a82015460a0820152600b82015460c0820152600c82015460e0820152600d820154610100820152600e90910154610120909101526101608101516101808201516101a0909201519097919650945092505050565b610691611b37565b60005b60ff81168411156107145760405180604001604052808260ff16815260200184848460ff168181106106c8576106c8613f6a565b6020908102929092013590925260ff848116600090815260db8352604090208451815460ff191692169190911781559201516001909201919091555061070d81613f96565b9050610694565b5050505050565b6001600160a01b037f00000000000000000000000000000000000000000000000000000000000000001630036107ad5760405162461bcd60e51b815260206004820152602c60248201527f46756e6374696f6e206d7573742062652063616c6c6564207468726f7567682060448201526b19195b1959d85d1958d85b1b60a21b60648201526084015b60405180910390fd5b7f00000000000000000000000000000000000000000000000000000000000000006001600160a01b03166108087f360894a13ba1a3210667c828492db98dca3e2076cc3735a920a3ca505d382bbc546001600160a01b031690565b6001600160a01b0316146108735760405162461bcd60e51b815260206004820152602c60248201527f46756e6374696f6e206d7573742062652063616c6c6564207468726f7567682060448201526b6163746976652070726f787960a01b60648201526084016107a4565b61087c81611b91565b6040805160008082526020820190925261089891839190611b99565b50565b3460006108a760dc5490565b905060006108b58383611d3e565b90506108c48433838686611d66565b50505050565b6001600160a01b037f00000000000000000000000000000000000000000000000000000000000000001630036109575760405162461bcd60e51b815260206004820152602c60248201527f46756e6374696f6e206d7573742062652063616c6c6564207468726f7567682060448201526b19195b1959d85d1958d85b1b60a21b60648201526084016107a4565b7f00000000000000000000000000000000000000000000000000000000000000006001600160a01b03166109b27f360894a13ba1a3210667c828492db98dca3e2076cc3735a920a3ca505d382bbc546001600160a01b031690565b6001600160a01b031614610a1d5760405162461bcd60e51b815260206004820152602c60248201527f46756e6374696f6e206d7573742062652063616c6c6564207468726f7567682060448201526b6163746976652070726f787960a01b60648201526084016107a4565b610a2682611b91565b610a3282826001611b99565b5050565b6000306001600160a01b037f00000000000000000000000000000000000000000000000000000000000000001614610ad65760405162461bcd60e51b815260206004820152603860248201527f555550535570677261646561626c653a206d757374206e6f742062652063616c60448201527f6c6564207468726f7567682064656c656761746563616c6c000000000000000060648201526084016107a4565b507f360894a13ba1a3210667c828492db98dca3e2076cc3735a920a3ca505d382bbc90565b60606000610b07612626565b905060008160ff1667ffffffffffffffff811115610b2757610b27613bd2565b604051908082528060200260200182016040528015610b6c57816020015b6040805180820190915260008082526020820152815260200190600190039081610b455790505b50905060005b8260ff168160ff161015610be25760ff808216600081815260db60209081526040918290208251808401909352805490941682526001909301549281019290925283518491908110610bc657610bc6613f6a565b602002602001018190525080610bdb90613f96565b9050610b72565b5092909150565b610bf1611b37565b610bfb6000612674565b565b346000610c1282610c0d60dc5490565b611d3e565b9050610a328282336126c6565b600054610100900460ff1615808015610c3f5750600054600160ff909116105b80610c595750303b158015610c59575060005460ff166001145b610ccb5760405162461bcd60e51b815260206004820152602e60248201527f496e697469616c697a61626c653a20636f6e747261637420697320616c72656160448201527f647920696e697469616c697a656400000000000000000000000000000000000060648201526084016107a4565b6000805460ff191660011790558015610cee576000805461ff0019166101001790555b60d7805473eb1100091ce830ba58a04834c35d29b75b53eb746001600160a01b03199182161790915568015af1d78b58c4000060d85560d5805461ffff191661083c179055600260d65560cf805474ffffffffffffffffffffffffffffffffffffffffff1916741476b7c991c3ef93b6771fac97a984a2cb37962fbc17905560d18054601060ff199182161790915560d3805490911660041790554260d45560d9805473efa6077f510b10a6c1b2f8da24a89fc561ac94459216919091179055680d8d726b7177a8000060dc55610dc3612a7e565b610dcb612af1565b8015610898576000805461ff0019169055604051600181527f7f26b83ff96e1f2b6a682f133852f6798a09c465da95921460cefb3847402498906020015b60405180910390a150565b60d25460d4546000908190610e2c9062093a80613fb5565b90504280821115610e4457610e418183613fc8565b92505b50909192565b610e52611b37565b60d780546001600160a01b03908116600081815260da602052604080822080546001600160a01b0319908116909417905584548416808352908220600190810180548516909217909155935460ca805495860181559091527f42d72674974f694b5f5159593243114d38a5c39c89d6b62fee061ff523240ee19093018054939092169216919091179055565b6000610ee960dc5490565b60d854610ef69190613ff1565b905090565b60d2546000610f0d82610c0d60dc5490565b9050600060d45462093a80610f229190613fb5565b90504281811015610f755760405162461bcd60e51b815260206004820152601c60248201527f5765656b6c792074696d65206973206e6f74206f766572207965742e0000000060448201526064016107a4565b600060d25411610fc75760405162461bcd60e51b815260206004820152601860248201527f4e6f207265776172647320746f2064697374726962757465000000000000000060448201526064016107a4565b600060c980548060200260200160405190810160405280929190818152602001828054801561101f57602002820191906000526020600020905b81546001600160a01b03168152600190910190602001808311611001575b50505050509050600042446001436110379190613fc8565b6040805160208101949094528301919091524060608201526080016040516020818303038152906040528051906020012060001c9050600082518261107c9190614005565b9050600083828151811061109257611092613f6a565b60200260200101519050600060da6000836001600160a01b03166001600160a01b0316815260200190815260200160002090508781600c0160008282546110d99190613fb5565b90915550506040516001600160a01b038316908a156108fc02908b906000818181858888f19350505050158015611114573d6000803e3d6000fd5b50600060d28190554260d45560ce80548a9290611132908490613fb5565b9091555050604080516001600160a01b0384168152602081018a90527ffff6edc60fd30afefcc47525cdf85502200830b22550391f79f9e383df03afad910160405180910390a1505050505050505050565b61118c611b37565b6001600160a01b0381166112085760405162461bcd60e51b815260206004820152602660248201527f4f776e61626c653a206e6577206f776e657220697320746865207a65726f206160448201527f646472657373000000000000000000000000000000000000000000000000000060648201526084016107a4565b61089881612674565b6001600160a01b03808216600090815260da6020908152604080832081516101e0810183528154861681526001820154861681850152600282015490951685830152600381018054835181860281018601909452808452949586958695869586959394606086019391929091908301828280156112b757602002820191906000526020600020905b81546001600160a01b03168152600190910190602001808311611299575b5050505050815260200160048201805480602002602001604051908101604052809291908181526020016000905b82821015611330576000848152602090819020604080518082019091526002850290910180546001600160a01b039081168352600191820154168284015290835290920191016112e5565b50505050815260200160058201805480602002602001604051908101604052809291908181526020016000905b828210156113a657600084815260209081902060408051808201909152908401546001600160a01b0381168252600160a01b900460ff168183015282526001909201910161135d565b505050908252506006820154602082015260078201546040820152600882015460ff16606082015260098201546080820152600a82015460a0820152600b82015460c080830191909152600c83015460e0830152600d830154610100830152600e909201546101209182015290820151908201516101408301519197509550935090506114338584613fb5565b9150509193509193565b6001600160a01b03808216600090815260da6020908152604080832081516101e08101835281548616815260018201548616818501526002820154909516858301526003810180548351818602810186019094528084529495869586959194606086019390929091908301828280156114df57602002820191906000526020600020905b81546001600160a01b031681526001909101906020018083116114c1575b5050505050815260200160048201805480602002602001604051908101604052809291908181526020016000905b82821015611558576000848152602090819020604080518082019091526002850290910180546001600160a01b0390811683526001918201541682840152908352909201910161150d565b50505050815260200160058201805480602002602001604051908101604052809291908181526020016000905b828210156115ce57600084815260209081902060408051808201909152908401546001600160a01b0381168252600160a01b900460ff1681830152825260019092019101611585565b505050908252506006820154602082015260078201546040820152600882015460ff908116606083015260098301546080830152600a83015460a0830152600b83015460c0830152600c83015460e0830152600d83015461010080840191909152600e90930154610120909201919091529082015191925016156116555780610100015192505b60e00151919391925050565b6001600160a01b03808216600090815260da6020908152604080832081516101e0810183528154861681526001820154861681850152600282015490951685830152600381018054835181860281018601909452808452949560609587958795879587958795869590949293858901939092919083018282801561170e57602002820191906000526020600020905b81546001600160a01b031681526001909101906020018083116116f0575b5050505050815260200160048201805480602002602001604051908101604052809291908181526020016000905b82821015611787576000848152602090819020604080518082019091526002850290910180546001600160a01b0390811683526001918201541682840152908352909201910161173c565b50505050815260200160058201805480602002602001604051908101604052809291908181526020016000905b828210156117fd57600084815260209081902060408051808201909152908401546001600160a01b0381168252600160a01b900460ff16818301528252600190920191016117b4565b50505090825250600682015460208201526007820154604080830191909152600883015460ff166060808401919091526009840154608080850191909152600a85015460a080860191909152600b86015460c0860152600c86015460e0860152600d860154610100860152600e90950154610120909401939093529084015190840151805192850151805195909401518051929f919e50929c50929a50929850965090945092505050565b61193f604051806101e0016040528060006001600160a01b0316815260200160006001600160a01b0316815260200160006001600160a01b031681526020016060815260200160608152602001606081526020016000815260200160008152602001600060ff1681526020016000815260200160008152602001600081526020016000815260200160008152602001600081525090565b6001600160a01b03808316600090815260da602090815260409182902082516101e0810184528154851681526001820154851681840152600282015490941684840152600381018054845181850281018501909552808552919360608601939092908301828280156119da57602002820191906000526020600020905b81546001600160a01b031681526001909101906020018083116119bc575b5050505050815260200160048201805480602002602001604051908101604052809291908181526020016000905b82821015611a53576000848152602090819020604080518082019091526002850290910180546001600160a01b03908116835260019182015416828401529083529092019101611a08565b50505050815260200160058201805480602002602001604051908101604052809291908181526020016000905b82821015611ac957600084815260209081902060408051808201909152908401546001600160a01b0381168252600160a01b900460ff1681830152825260019092019101611a80565b505050908252506006820154602082015260078201546040820152600882015460ff16606082015260098201546080820152600a82015460a0820152600b82015460c0820152600c82015460e0820152600d820154610100820152600e909101546101209091015292915050565b6033546001600160a01b03163314610bfb5760405162461bcd60e51b815260206004820181905260248201527f4f776e61626c653a2063616c6c6572206973206e6f7420746865206f776e657260448201526064016107a4565b610898611b37565b7f4910fdfa16fed3260ed0e7147f7cc6da11a60208b5b9406d12a635614ffd91435460ff1615611bd157611bcc83612b5c565b505050565b826001600160a01b03166352d1902d6040518163ffffffff1660e01b8152600401602060405180830381865afa925050508015611c2b575060408051601f3d908101601f19168201909252611c2891810190614019565b60015b611c9d5760405162461bcd60e51b815260206004820152602e60248201527f45524331393637557067726164653a206e657720696d706c656d656e7461746960448201527f6f6e206973206e6f74205555505300000000000000000000000000000000000060648201526084016107a4565b7f360894a13ba1a3210667c828492db98dca3e2076cc3735a920a3ca505d382bbc8114611d325760405162461bcd60e51b815260206004820152602960248201527f45524331393637557067726164653a20756e737570706f727465642070726f7860448201527f6961626c6555554944000000000000000000000000000000000000000000000060648201526084016107a4565b50611bcc838383612c1a565b6000670de0b6b3a7640000611d538385614032565b611d5d9190613ff1565b90505b92915050565b60d8546064611d7682605f614032565b611d809190613ff1565b841015611df55760405162461bcd60e51b815260206004820152602660248201527f56616c7565206973206c657373207468656e20726567697374726174696f6e2060448201527f76616c75652e000000000000000000000000000000000000000000000000000060648201526084016107a4565b60d5546001600160a01b03808716600090815260da6020526040808220928a1682528120600683015460ff8086169561010090041693919015611e7a5760405162461bcd60e51b815260206004820152601760248201527f5573657220616c7265616479207265676973746572656400000000000000000060448201526064016107a4565b81546001600160a01b0316611ea35781546001600160a01b0319166001600160a01b038b161782555b80546001600160a01b0316611ecc5780546001600160a01b0319166001600160a01b038c161781555b8160060154600003611f245760c980546001810182556000919091527f66be4f155c5ef2ebd3772b228f2f00681e4ed5826cdb3b1943cc11ad15ad1d280180546001600160a01b0319166001600160a01b038c161790555b88826006016000828254611f389190613fb5565b9091555050604080516101e08101825283546001600160a01b0390811682526001850154811660208084019190915260028601549091168284015260038501805484518184028101840190955280855261212b9487936060860193919290830182828015611fcf57602002820191906000526020600020905b81546001600160a01b03168152600190910190602001808311611fb1575b5050505050815260200160048201805480602002602001604051908101604052809291908181526020016000905b82821015612048576000848152602090819020604080518082019091526002850290910180546001600160a01b03908116835260019182015416828401529083529092019101611ffd565b50505050815260200160058201805480602002602001604051908101604052809291908181526020016000905b828210156120be57600084815260209081902060408051808201909152908401546001600160a01b0381168252600160a01b900460ff1681830152825260019092019101612075565b505050908252506006820154602082015260078201546040820152600882015460ff16606082015260098201546080820152600a82015460a0820152600b82015460c0820152600c82015460e0820152600d820154610100820152600e9091015461012090910152612c3f565b61213e576121398b8b612c5e565b6121a6565b7f1f4fff38c5e64af9e759d590409f022ea913658008bb1d0cd35e028244f01ecf60405161219d906020808252601f908201527f5573657220416c72656164792068617665207265666572726572207365742e00604082015260600190565b60405180910390a15b600182015460028301548354604080516001600160a01b0394851681529284166020840152921681830152606081018b905290517f0411c58b3c1e8a39d91c901e5c807bff1401650beedc45aba65112756bb929b49181900360800190a16000606461221560ff88168b614032565b61221f9190613ff1565b9050600061222d828a611d3e565b60018501546001600160a01b03908116600090815260da60205260409020805492935091161561231a5780546040516001600160a01b039091169084156108fc029085906000818181858888f19350505050158015612290573d6000803e3d6000fd5b508054604080516001600160a01b039283168152918f1660208301528101849052600160608201527f153f77382d7e07de734977ae352e9b1f5f8ad4b1c0033c883a9a33456a87836f9060800160405180910390a18181600b0160008282546122f99190613fb5565b925050819055508b8160090160008282546123149190613fb5565b90915550505b6123248287613fb5565b955060005b8760ff168160ff16101561249457604080516101e08101825287546001600160a01b0390811682526001890154811660208084019190915260028a01549091168284015260038901805484518184028101840190955280855261243f948b936060860193919290830182828015611fcf576020028201919060005260206000209081546001600160a01b03168152600190910190602001808311611fb15750505050508152602001600482018054806020026020016040519081016040528092919081815260200160009082821015612048576000848152602090819020604080518082019091526002850290910180546001600160a01b03908116835260019182015416828401529083529092019101611ffd565b156124945760028601546001600160a01b0316600090815260da60205260408120600a810180549197508f929091612478908490613fb5565b909155509495508594508061248c81613f96565b915050612329565b5060cf546000906064906124b290600160a01b900460ff168e614032565b6124bc9190613ff1565b60cf546040519192506001600160a01b03169082156108fc029083906000818181858888f193505050501580156124f7573d6000803e3d6000fd5b5060cf54604080516001600160a01b039092168252602082018390527f5aa75bdb3269082e844d731608afae2a07cbf194f251e3f857b870af86b754fb910160405180910390a18660cc60008282546125509190613fb5565b925050819055508c60cb60008282546125699190613fb5565b909155505060d1546000906064906125849060ff168f614032565b61258e9190613ff1565b60d9546040519192506001600160a01b03169082156108fc029083906000818181858888f193505050501580156125c9573d6000803e3d6000fd5b508060d060008282546125dc9190613fb5565b909155505060d3546064906125f49060ff168f614032565b6125fe9190613ff1565b60d2600082825461260f9190613fb5565b909155505050505050505050505050505050505050565b6000805b60328160ff1610156126705760ff808216600090815260db60205260409020541615612670578161265a81613f96565b925050808061266890613f96565b91505061262a565b5090565b603380546001600160a01b038381166001600160a01b0319831681179093556040519116919082907f8be0079c531659141344cd1fd0a4f28419497f9722a3daafe3b4186f6b6457e090600090a35050565b6001600160a01b038116600090815260da60209081526040808320600881015460ff90811680865260db8552838620845180860190955280549092168452600190910154938301939093529261271a612626565b905081602001518610156127965760405162461bcd60e51b815260206004820152602660248201527f56616c75652073686f756c6420626520657175616c20746f207570677261646560448201527f2076616c7565000000000000000000000000000000000000000000000000000060648201526084016107a4565b8060ff168360ff16106127eb5760405162461bcd60e51b815260206004820152601f60248201527f5573657220636f6e73756d656420616c6c207570677261646520706c616e730060448201526064016107a4565b858460070160008282546127ff9190613fb5565b90915550600090505b8360ff168111612a465760028501546001600160a01b031615612a465760028501546001600160a01b0316600090815260da6020526040902060ff85168203612a3457600881015460ff808716911611801561286d575080546001600160a01b031615155b15612917578781600d0160008282546128869190613fb5565b909155505080546040516001600160a01b03909116908a156108fc02908b906000818181858888f193505050501580156128c4573d6000803e3d6000fd5b508054604080516001600160a01b039283168152918916602083015281018a90527fb37800f632235e56e1626c9e9df3de1e167e9298f0d25f59fd74ec65e31116529060600160405180910390a1612a2e565b7f6696b78fc1713892e6e2bb3df5cdc986ab67a0c675898c7ef535bd2201ca945160405161299c906020808252603f908201527f55706c696e6520686173206e6f742075706772616465642e20416d6f756e742060408201527f7472616e73666572656420746f206c69717569646974792077616c6c65742e00606082015260800190565b60405180910390a160d9546040516001600160a01b039091169081908b156108fc02908c906000818181858888f193505050501580156129e0573d6000803e3d6000fd5b50604080516001600160a01b0380841682528a1660208201529081018b90527fb37800f632235e56e1626c9e9df3de1e167e9298f0d25f59fd74ec65e31116529060600160405180910390a1505b50612a46565b9450612a3f81614049565b9050612808565b5060088401805460ff16906000612a5c83613f96565b91906101000a81548160ff021916908360ff1602179055505050505050505050565b600054610100900460ff16612ae95760405162461bcd60e51b815260206004820152602b60248201527f496e697469616c697a61626c653a20636f6e7472616374206973206e6f74206960448201526a6e697469616c697a696e6760a81b60648201526084016107a4565b610bfb61364d565b600054610100900460ff16610bfb5760405162461bcd60e51b815260206004820152602b60248201527f496e697469616c697a61626c653a20636f6e7472616374206973206e6f74206960448201526a6e697469616c697a696e6760a81b60648201526084016107a4565b6001600160a01b0381163b612bd95760405162461bcd60e51b815260206004820152602d60248201527f455243313936373a206e657720696d706c656d656e746174696f6e206973206e60448201527f6f74206120636f6e74726163740000000000000000000000000000000000000060648201526084016107a4565b7f360894a13ba1a3210667c828492db98dca3e2076cc3735a920a3ca505d382bbc80546001600160a01b0319166001600160a01b0392909216919091179055565b612c23836136c1565b600082511180612c305750805b15611bcc576108c48383613701565b60408101516000906001600160a01b031615612c59575060015b919050565b6001600160a01b03808216600081815260da6020526040902091841603612cc75760405162461bcd60e51b815260206004820152601a60248201527f596f752063616e6e6f7420726566657220796f757273656c662e00000000000060448201526064016107a4565b60006001600160a01b038416612cf7575060d7546001600160a01b0316600090815260da60205260409020612d11565b506001600160a01b038316600090815260da602052604090205b604080516101e08101825282546001600160a01b03908116825260018401548116602080840191909152600285015490911682840152600384018054845181840281018401909552808552612eff9486936060860193919290830182828015612da357602002820191906000526020600020905b81546001600160a01b03168152600190910190602001808311612d85575b5050505050815260200160048201805480602002602001604051908101604052809291908181526020016000905b82821015612e1c576000848152602090819020604080518082019091526002850290910180546001600160a01b03908116835260019182015416828401529083529092019101612dd1565b50505050815260200160058201805480602002602001604051908101604052809291908181526020016000905b82821015612e9257600084815260209081902060408051808201909152908401546001600160a01b0381168252600160a01b900460ff1681830152825260019092019101612e49565b505050908252506006820154602082015260078201546040820152600882015460ff16606082015260098201546080820152600a82015460a0820152600b82015460c0820152600c82015460e0820152600d820154610100820152600e909101546101209091015261380c565b61305057612f0d8183613836565b60038101805460018082018355600083815260209081902090920180546001600160a01b0319166001600160a01b0388811691909117909155604080516101e08101825286548316815292860154821683850152600286015490911682820152835481518185028101850190925280825261303d94929386936060860193929091830182828015612da3576020028201919060005260206000209081546001600160a01b03168152600190910190602001808311612d855750505050508152602001600482018054806020026020016040519081016040528092919081815260200160009082821015612e1c576000848152602090819020604080518082019091526002850290910180546001600160a01b03908116835260019182015416828401529083529092019101612dd1565b1561304b5761304b81613899565b613482565b600060da600061305e61398e565b6001600160a01b03166001600160a01b03168152602001908152602001600020905061308a8184613836565b604080516101e08101825282546001600160a01b039081168252600184015481166020808401919091526002850154909116828401526003840180548451818402810184019095528085526131929486936060860193919290830182828015612da3576020028201919060005260206000209081546001600160a01b03168152600190910190602001808311612d855750505050508152602001600482018054806020026020016040519081016040528092919081815260200160009082821015612e1c576000848152602090819020604080518082019091526002850290910180546001600160a01b03908116835260019182015416828401529083529092019101612dd1565b156131a0576131a081613899565b81548154604080516001600160a01b03938416815291831660208301529186168183015290517fa1b30426557565c4fa85ce5f9c88513d7d3f49d21eb30569c249b07b037831ef9181900360600190a1604080518082019091526001600160a01b0380861682528254811660208084019182526004860180546001818101835560009283529282209551600290910290950180549585166001600160a01b0319968716178155925192909101805492909316919093161790556006840154900361345257604080516101e08101825284546001600160a01b0390811682526001860154811660208084019190915260028701549091168284015260038601805484518184028101840190955280855261345294889360608601939192908301828280156132f657602002820191906000526020600020905b81546001600160a01b031681526001909101906020018083116132d8575b5050505050815260200160048201805480602002602001604051908101604052809291908181526020016000905b8282101561336f576000848152602090819020604080518082019091526002850290910180546001600160a01b03908116835260019182015416828401529083529092019101613324565b50505050815260200160058201805480602002602001604051908101604052809291908181526020016000905b828210156133e557600084815260209081902060408051808201909152908401546001600160a01b0381168252600160a01b900460ff168183015282526001909201910161339c565b505050908252506006820154602082015260078201546040820152600882015460ff16606082015260098201546080820152600a82015460a0820152600b82015460c0820152600c82015460e0820152600d820154610100820152600e9091015461012090910152613a15565b6003018054600181018255600091825260209091200180546001600160a01b0319166001600160a01b0385161790555b60018201546001600160a01b03166135005780546001830180546001600160a01b039283166001600160a01b0319909116811790915560028401546040805192835290831660208301529185168183015290517f8efa008f8ae98ae30d3219078a298c85bc25a62f50c57ed9a3ec838b7eed9f479181900360600190a15b60d554610100900460ff1660005b8160ff168160ff1610156136455760028401546001600160a01b0316156136455760028401546001600160a01b03908116600090815260da60209081526040918290208251808401909352928816825291945060058501918101613573846001614062565b60ff90811690915282546001818101855560009485526020948590208451920180549590940151909216600160a01b0274ffffffffffffffffffffffffffffffffffffffffff199094166001600160a01b03918216179390931790915584547f85db3f10b88ea7fc653f3f818097a3fc3c543196ed60cad2251df922bcc9ad7f9216908790613603908590614062565b604080516001600160a01b03948516815293909216602084015260ff169082015260600160405180910390a1829350808061363d90613f96565b91505061350e565b505050505050565b600054610100900460ff166136b85760405162461bcd60e51b815260206004820152602b60248201527f496e697469616c697a61626c653a20636f6e7472616374206973206e6f74206960448201526a6e697469616c697a696e6760a81b60648201526084016107a4565b610bfb33612674565b6136ca81612b5c565b6040516001600160a01b038216907fbc7cd75a20ee27fd9adebab32041f755214dbc6bffa90cc0225b39da2e5c2d3b90600090a250565b60606001600160a01b0383163b6137805760405162461bcd60e51b815260206004820152602660248201527f416464726573733a2064656c65676174652063616c6c20746f206e6f6e2d636f60448201527f6e7472616374000000000000000000000000000000000000000000000000000060648201526084016107a4565b600080846001600160a01b03168460405161379b919061409f565b600060405180830381855af49150503d80600081146137d6576040519150601f19603f3d011682016040523d82523d6000602084013e6137db565b606091505b5091509150613803828260405180606001604052806027815260200161410560279139613a9e565b95945050505050565b600060d6548260600151511180613829575060d654826060015151145b15612c5957506001919050565b81546002820180546001600160a01b0319166001600160a01b0392831617905582548254604080519284168352921660208201527fec49a3c8c4ae06c18160fe86119c381c9d213ac3e052ff35b594da8687b193c7910160405180910390a15050565b60ca80546138a990600190613fc8565b815481106138b9576138b9613f6a565b9060005260206000200160009054906101000a90046001600160a01b031660ca82600e0154815481106138ee576138ee613f6a565b9060005260206000200160006101000a8154816001600160a01b0302191690836001600160a01b0316021790555060ca80548061392d5761392d6140bb565b6000828152602090819020600019908301810180546001600160a01b031916905590910190915581546040516001600160a01b0390911681527f644b85583ba83e73113ffc0c122b165819ca11db493cd4cc38f5ba29138ffa1b9101610e09565b600080424461399e600143613fc8565b60408051602081019490945283019190915240606082015260800160408051601f19818403018152919052805160209091012060ca549091506000906139e49083614005565b905060ca81815481106139f9576139f9613f6a565b6000918252602090912001546001600160a01b03169392505050565b60ca80546101c0830181905282516001820183556000929092527f42d72674974f694b5f5159593243114d38a5c39c89d6b62fee061ff523240ee10180546001600160a01b0319166001600160a01b039283161790558151604051911681527f06baf10092c7ea144c4fb56fb8cf641e1f00e291a535b5d54b547eadb29485a790602001610e09565b60608315613aad575081613ab7565b613ab78383613abe565b9392505050565b815115613ace5781518083602001fd5b8060405162461bcd60e51b81526004016107a491906140d1565b80356001600160a01b0381168114612c5957600080fd5b600060208284031215613b1157600080fd5b611d5d82613ae8565b60008083601f840112613b2c57600080fd5b50813567ffffffffffffffff811115613b4457600080fd5b6020830191508360208260051b8501011115613b5f57600080fd5b9250929050565b60008060008060408587031215613b7c57600080fd5b843567ffffffffffffffff80821115613b9457600080fd5b613ba088838901613b1a565b90965094506020870135915080821115613bb957600080fd5b50613bc687828801613b1a565b95989497509550505050565b634e487b7160e01b600052604160045260246000fd5b60008060408385031215613bfb57600080fd5b613c0483613ae8565b9150602083013567ffffffffffffffff80821115613c2157600080fd5b818501915085601f830112613c3557600080fd5b813581811115613c4757613c47613bd2565b604051601f8201601f19908116603f01168101908382118183101715613c6f57613c6f613bd2565b81604052828152886020848701011115613c8857600080fd5b8260208601602083013760006020848301015280955050505050509250929050565b60408082528351828201819052600091906020906060850190828801855b82811015613cf0578151805160ff168552850151858501529285019290840190600101613cc8565b50505060ff95909516930192909252509092915050565b600081518084526020808501945080840160005b83811015613d405781516001600160a01b031687529582019590820190600101613d1b565b509495945050505050565b600081518084526020808501945080840160005b83811015613d4057815180516001600160a01b03908116895290840151168388015260409096019590820190600101613d5f565b600081518084526020808501945080840160005b83811015613d4057815180516001600160a01b0316885283015160ff168388015260409096019590820190600101613da7565b6001600160a01b038816815260e060208201526000613dfc60e0830189613d07565b8760408401528281036060840152613e148188613d4b565b905085608084015282810360a0840152613e2e8186613d93565b9150508260c083015298975050505050505050565b60208152613e5d6020820183516001600160a01b03169052565b60006020830151613e7960408401826001600160a01b03169052565b5060408301516001600160a01b03811660608401525060608301516101e0806080850152613eab610200850183613d07565b91506080850151601f19808685030160a0870152613ec98483613d4b565b935060a08701519150808685030160c087015250613ee78382613d93565b92505060c085015160e085015260e0850151610100818187015280870151915050610120613f198187018360ff169052565b8601516101408681019190915286015161016080870191909152860151610180808701919091528601516101a0808701919091528601516101c0808701919091529095015193019290925250919050565b634e487b7160e01b600052603260045260246000fd5b634e487b7160e01b600052601160045260246000fd5b600060ff821660ff8103613fac57613fac613f80565b60010192915050565b80820180821115611d6057611d60613f80565b81810381811115611d6057611d60613f80565b634e487b7160e01b600052601260045260246000fd5b60008261400057614000613fdb565b500490565b60008261401457614014613fdb565b500690565b60006020828403121561402b57600080fd5b5051919050565b8082028115828204841417611d6057611d60613f80565b60006001820161405b5761405b613f80565b5060010190565b60ff8181168382160190811115611d6057611d60613f80565b60005b8381101561409657818101518382015260200161407e565b50506000910152565b600082516140b181846020870161407b565b9190910192915050565b634e487b7160e01b600052603160045260246000fd5b60208152600082518060208401526140f081604085016020870161407b565b601f01601f1916919091016040019291505056fe416464726573733a206c6f772d6c6576656c2064656c65676174652063616c6c206661696c6564a2646970667358221220b1248a30c2ae5151833d4c8b3159b0ea3626d68a7ff7aa1d99bf1f85f876708364736f6c63430008120033",
  "linkReferences": {},
  "deployedLinkReferences": {}
}