{
  "_format": "hh-sol-artifact-1",
  "contractName": "CashXProtocolReferral",
  "sourceName": "contracts/CashXProtocolReferral.sol",
  "abi": [
    {
      "anonymous": false,
      "inputs": [
        {
          "indexed": false,
          "internalType": "address",
          "name": "user",
          "type": "address"
        }
      ],
      "name": "AddedToRandomList",
      "type": "event"
    },
    {
      "anonymous": false,
      "inputs": [
        {
          "indexed": false,
          "internalType": "address",
          "name": "previousAdmin",
          "type": "address"
        },
        {
          "indexed": false,
          "internalType": "address",
          "name": "newAdmin",
          "type": "address"
        }
      ],
      "name": "AdminChanged",
      "type": "event"
    },
    {
      "anonymous": false,
      "inputs": [
        {
          "indexed": true,
          "internalType": "address",
          "name": "beacon",
          "type": "address"
        }
      ],
      "name": "BeaconUpgraded",
      "type": "event"
    },
    {
      "anonymous": false,
      "inputs": [
        {
          "indexed": false,
          "internalType": "uint8",
          "name": "version",
          "type": "uint8"
        }
      ],
      "name": "Initialized",
      "type": "event"
    },
    {
      "anonymous": false,
      "inputs": [
        {
          "indexed": true,
          "internalType": "address",
          "name": "previousOwner",
          "type": "address"
        },
        {
          "indexed": true,
          "internalType": "address",
          "name": "newOwner",
          "type": "address"
        }
      ],
      "name": "OwnershipTransferred",
      "type": "event"
    },
    {
      "anonymous": false,
      "inputs": [
        {
          "indexed": false,
          "internalType": "address",
          "name": "by",
          "type": "address"
        },
        {
          "indexed": false,
          "internalType": "address",
          "name": "to",
          "type": "address"
        },
        {
          "indexed": false,
          "internalType": "address",
          "name": "user",
          "type": "address"
        }
      ],
      "name": "ParentAdded",
      "type": "event"
    },
    {
      "anonymous": false,
      "inputs": [
        {
          "indexed": false,
          "internalType": "address",
          "name": "to",
          "type": "address"
        },
        {
          "indexed": false,
          "internalType": "address",
          "name": "user",
          "type": "address"
        },
        {
          "indexed": false,
          "internalType": "uint256",
          "name": "valueInWei",
          "type": "uint256"
        },
        {
          "indexed": false,
          "internalType": "uint32",
          "name": "level",
          "type": "uint32"
        }
      ],
      "name": "ReferralRewardsPaid",
      "type": "event"
    },
    {
      "anonymous": false,
      "inputs": [
        {
          "indexed": false,
          "internalType": "address",
          "name": "by",
          "type": "address"
        },
        {
          "indexed": false,
          "internalType": "address",
          "name": "user",
          "type": "address"
        }
      ],
      "name": "ReferrerAdded",
      "type": "event"
    },
    {
      "anonymous": false,
      "inputs": [
        {
          "indexed": false,
          "internalType": "string",
          "name": "reason",
          "type": "string"
        }
      ],
      "name": "ReferrerNoAdded",
      "type": "event"
    },
    {
      "anonymous": false,
      "inputs": [
        {
          "indexed": false,
          "internalType": "address",
          "name": "by",
          "type": "address"
        },
        {
          "indexed": false,
          "internalType": "address",
          "name": "to",
          "type": "address"
        },
        {
          "indexed": false,
          "internalType": "address",
          "name": "user",
          "type": "address"
        },
        {
          "indexed": false,
          "internalType": "uint256",
          "name": "valueInWei",
          "type": "uint256"
        }
      ],
      "name": "Registration",
      "type": "event"
    },
    {
      "anonymous": false,
      "inputs": [
        {
          "indexed": false,
          "internalType": "address",
          "name": "by",
          "type": "address"
        },
        {
          "indexed": false,
          "internalType": "address",
          "name": "to",
          "type": "address"
        },
        {
          "indexed": false,
          "internalType": "address",
          "name": "user",
          "type": "address"
        }
      ],
      "name": "RegistrationAssigned",
      "type": "event"
    },
    {
      "anonymous": false,
      "inputs": [
        {
          "indexed": false,
          "internalType": "address",
          "name": "user",
          "type": "address"
        }
      ],
      "name": "RemovedFromRandomList",
      "type": "event"
    },
    {
      "anonymous": false,
      "inputs": [
        {
          "indexed": false,
          "internalType": "address",
          "name": "to",
          "type": "address"
        },
        {
          "indexed": false,
          "internalType": "address",
          "name": "user",
          "type": "address"
        },
        {
          "indexed": false,
          "internalType": "uint32",
          "name": "level",
          "type": "uint32"
        }
      ],
      "name": "TeamAddressAdded",
      "type": "event"
    },
    {
      "anonymous": false,
      "inputs": [
        {
          "indexed": false,
          "internalType": "address",
          "name": "to",
          "type": "address"
        },
        {
          "indexed": false,
          "internalType": "uint256",
          "name": "valueInWei",
          "type": "uint256"
        }
      ],
      "name": "TeamWalletRewardPaid",
      "type": "event"
    },
    {
      "anonymous": false,
      "inputs": [
        {
          "indexed": false,
          "internalType": "string",
          "name": "reason",
          "type": "string"
        }
      ],
      "name": "UpgradeRewardNotPaid",
      "type": "event"
    },
    {
      "anonymous": false,
      "inputs": [
        {
          "indexed": false,
          "internalType": "address",
          "name": "to",
          "type": "address"
        },
        {
          "indexed": false,
          "internalType": "address",
          "name": "by",
          "type": "address"
        },
        {
          "indexed": false,
          "internalType": "uint256",
          "name": "valueInWei",
          "type": "uint256"
        }
      ],
      "name": "UpgradeRewardPaid",
      "type": "event"
    },
    {
      "anonymous": false,
      "inputs": [
        {
          "indexed": true,
          "internalType": "address",
          "name": "implementation",
          "type": "address"
        }
      ],
      "name": "Upgraded",
      "type": "event"
    },
    {
      "anonymous": false,
      "inputs": [
        {
          "indexed": false,
          "internalType": "address",
          "name": "to",
          "type": "address"
        },
        {
          "indexed": false,
          "internalType": "uint256",
          "name": "valueInWei",
          "type": "uint256"
        }
      ],
      "name": "WeeklyRewardsPaid",
      "type": "event"
    },
    {
      "inputs": [],
      "name": "distributeWeeklyReward",
      "outputs": [],
      "stateMutability": "nonpayable",
      "type": "function"
    },
    {
      "inputs": [],
      "name": "getNativePriceInUSD",
      "outputs": [
        {
          "internalType": "uint256",
          "name": "",
          "type": "uint256"
        }
      ],
      "stateMutability": "view",
      "type": "function"
    },
    {
      "inputs": [],
      "name": "getRegistrationsStats",
      "outputs": [
        {
          "internalType": "uint32",
          "name": "totalUser",
          "type": "uint32"
        },
        {
          "internalType": "uint256",
          "name": "totalRegistrationValueInUSD",
          "type": "uint256"
        },
        {
          "internalType": "uint256",
          "name": "totalReferralPaidInUSD",
          "type": "uint256"
        },
        {
          "internalType": "uint256",
          "name": "totalWeeklyRewardsPaidInUSD",
          "type": "uint256"
        }
      ],
      "stateMutability": "view",
      "type": "function"
    },
    {
      "inputs": [],
      "name": "getUpgradePlans",
      "outputs": [
        {
          "components": [
            {
              "internalType": "uint8",
              "name": "id",
              "type": "uint8"
            },
            {
              "internalType": "uint256",
              "name": "valueToUpgradeInUSD",
              "type": "uint256"
            }
          ],
          "internalType": "struct UpgradeStruct[]",
          "name": "upgradePlans",
          "type": "tuple[]"
        },
        {
          "internalType": "uint8",
          "name": "upgradePlansCount",
          "type": "uint8"
        }
      ],
      "stateMutability": "view",
      "type": "function"
    },
    {
      "inputs": [
        {
          "internalType": "uint8",
          "name": "_id",
          "type": "uint8"
        }
      ],
      "name": "getUpgradePlansById",
      "outputs": [
        {
          "components": [
            {
              "internalType": "uint8",
              "name": "id",
              "type": "uint8"
            },
            {
              "internalType": "uint256",
              "name": "valueToUpgradeInUSD",
              "type": "uint256"
            }
          ],
          "internalType": "struct UpgradeStruct",
          "name": "",
          "type": "tuple"
        }
      ],
      "stateMutability": "view",
      "type": "function"
    },
    {
      "inputs": [
        {
          "internalType": "address",
          "name": "_userAddress",
          "type": "address"
        }
      ],
      "name": "getUserAccount",
      "outputs": [
        {
          "components": [
            {
              "internalType": "address",
              "name": "self",
              "type": "address"
            },
            {
              "internalType": "address",
              "name": "parent",
              "type": "address"
            },
            {
              "internalType": "address",
              "name": "referrer",
              "type": "address"
            },
            {
              "internalType": "address[]",
              "name": "referee",
              "type": "address[]"
            },
            {
              "components": [
                {
                  "internalType": "address",
                  "name": "referee",
                  "type": "address"
                },
                {
                  "internalType": "address",
                  "name": "assignedTo",
                  "type": "address"
                }
              ],
              "internalType": "struct RefereeStruct[]",
              "name": "refereeAssigned",
              "type": "tuple[]"
            },
            {
              "components": [
                {
                  "internalType": "address",
                  "name": "teamMember",
                  "type": "address"
                },
                {
                  "internalType": "uint8",
                  "name": "level",
                  "type": "uint8"
                }
              ],
              "internalType": "struct TeamStruct[]",
              "name": "team",
              "type": "tuple[]"
            },
            {
              "internalType": "uint256",
              "name": "selfBusinessInUSD",
              "type": "uint256"
            },
            {
              "internalType": "uint256",
              "name": "upgradedValueInUSD",
              "type": "uint256"
            },
            {
              "internalType": "uint8",
              "name": "upgradeId",
              "type": "uint8"
            },
            {
              "internalType": "uint256",
              "name": "directBusinessInUSD",
              "type": "uint256"
            },
            {
              "internalType": "uint256",
              "name": "teamBusinessInUSD",
              "type": "uint256"
            },
            {
              "internalType": "uint256",
              "name": "referralRewardsInUSD",
              "type": "uint256"
            },
            {
              "internalType": "uint256",
              "name": "weeklyRewardsInUSD",
              "type": "uint256"
            },
            {
              "internalType": "uint256",
              "name": "upgradeRewardsInUSD",
              "type": "uint256"
            },
            {
              "internalType": "uint256",
              "name": "userRandomIndex",
              "type": "uint256"
            }
          ],
          "internalType": "struct AccountStruct",
          "name": "",
          "type": "tuple"
        }
      ],
      "stateMutability": "view",
      "type": "function"
    },
    {
      "inputs": [
        {
          "internalType": "address",
          "name": "_userAddress",
          "type": "address"
        }
      ],
      "name": "getUserBusiness",
      "outputs": [
        {
          "internalType": "uint256",
          "name": "selfBusinessInUSD",
          "type": "uint256"
        },
        {
          "internalType": "uint256",
          "name": "directBusinessInUSD",
          "type": "uint256"
        },
        {
          "internalType": "uint256",
          "name": "teamBusinessInUSD",
          "type": "uint256"
        },
        {
          "internalType": "uint256",
          "name": "totalBusinessInUSD",
          "type": "uint256"
        }
      ],
      "stateMutability": "view",
      "type": "function"
    },
    {
      "inputs": [
        {
          "internalType": "address",
          "name": "_userAddress",
          "type": "address"
        }
      ],
      "name": "getUserCurrentUpgradeLevel",
      "outputs": [
        {
          "internalType": "uint8",
          "name": "level",
          "type": "uint8"
        },
        {
          "internalType": "uint256",
          "name": "totalUpgradeValueInUSD",
          "type": "uint256"
        }
      ],
      "stateMutability": "view",
      "type": "function"
    },
    {
      "inputs": [
        {
          "internalType": "address",
          "name": "_userAddress",
          "type": "address"
        }
      ],
      "name": "getUserRewards",
      "outputs": [
        {
          "internalType": "uint256",
          "name": "referralRewardInUSD",
          "type": "uint256"
        },
        {
          "internalType": "uint256",
          "name": "weeklyRewardInUSD",
          "type": "uint256"
        },
        {
          "internalType": "uint256",
          "name": "upgradeRewardsInUSD",
          "type": "uint256"
        }
      ],
      "stateMutability": "view",
      "type": "function"
    },
    {
      "inputs": [
        {
          "internalType": "address",
          "name": "_userAddress",
          "type": "address"
        }
      ],
      "name": "getUserTeam",
      "outputs": [
        {
          "internalType": "address",
          "name": "referrer",
          "type": "address"
        },
        {
          "internalType": "address[]",
          "name": "referees",
          "type": "address[]"
        },
        {
          "internalType": "uint256",
          "name": "refereeCount",
          "type": "uint256"
        },
        {
          "components": [
            {
              "internalType": "address",
              "name": "referee",
              "type": "address"
            },
            {
              "internalType": "address",
              "name": "assignedTo",
              "type": "address"
            }
          ],
          "internalType": "struct RefereeStruct[]",
          "name": "refereeAssigned",
          "type": "tuple[]"
        },
        {
          "internalType": "uint256",
          "name": "refereeAssignedCount",
          "type": "uint256"
        },
        {
          "components": [
            {
              "internalType": "address",
              "name": "teamMember",
              "type": "address"
            },
            {
              "internalType": "uint8",
              "name": "level",
              "type": "uint8"
            }
          ],
          "internalType": "struct TeamStruct[]",
          "name": "team",
          "type": "tuple[]"
        },
        {
          "internalType": "uint256",
          "name": "teamCount",
          "type": "uint256"
        }
      ],
      "stateMutability": "view",
      "type": "function"
    },
    {
      "inputs": [],
      "name": "getWeeklyRewardToBeDistributed",
      "outputs": [
        {
          "internalType": "uint256",
          "name": "_rewardValue",
          "type": "uint256"
        },
        {
          "internalType": "uint256",
          "name": "_remianingTime",
          "type": "uint256"
        },
        {
          "internalType": "uint256",
          "name": "_endTime",
          "type": "uint256"
        }
      ],
      "stateMutability": "view",
      "type": "function"
    },
    {
      "inputs": [],
      "name": "initialize",
      "outputs": [],
      "stateMutability": "nonpayable",
      "type": "function"
    },
    {
      "inputs": [],
      "name": "needNativeToRegister",
      "outputs": [
        {
          "internalType": "uint256",
          "name": "",
          "type": "uint256"
        }
      ],
      "stateMutability": "view",
      "type": "function"
    },
    {
      "inputs": [],
      "name": "owner",
      "outputs": [
        {
          "internalType": "address",
          "name": "",
          "type": "address"
        }
      ],
      "stateMutability": "view",
      "type": "function"
    },
    {
      "inputs": [],
      "name": "proxiableUUID",
      "outputs": [
        {
          "internalType": "bytes32",
          "name": "",
          "type": "bytes32"
        }
      ],
      "stateMutability": "view",
      "type": "function"
    },
    {
      "inputs": [
        {
          "internalType": "address",
          "name": "_referrer",
          "type": "address"
        }
      ],
      "name": "registrationNative",
      "outputs": [],
      "stateMutability": "payable",
      "type": "function"
    },
    {
      "inputs": [],
      "name": "renounceOwnership",
      "outputs": [],
      "stateMutability": "nonpayable",
      "type": "function"
    },
    {
      "inputs": [],
      "name": "setDefaults",
      "outputs": [],
      "stateMutability": "nonpayable",
      "type": "function"
    },
    {
      "inputs": [
        {
          "internalType": "address",
          "name": "newOwner",
          "type": "address"
        }
      ],
      "name": "transferOwnership",
      "outputs": [],
      "stateMutability": "nonpayable",
      "type": "function"
    },
    {
      "inputs": [
        {
          "internalType": "uint256[]",
          "name": "_valueToUpgradeInDecimals",
          "type": "uint256[]"
        }
      ],
      "name": "updateUpgradePlans",
      "outputs": [],
      "stateMutability": "nonpayable",
      "type": "function"
    },
    {
      "inputs": [],
      "name": "upgradeAccountNative",
      "outputs": [],
      "stateMutability": "payable",
      "type": "function"
    },
    {
      "inputs": [
        {
          "internalType": "address",
          "name": "newImplementation",
          "type": "address"
        }
      ],
      "name": "upgradeTo",
      "outputs": [],
      "stateMutability": "nonpayable",
      "type": "function"
    },
    {
      "inputs": [
        {
          "internalType": "address",
          "name": "newImplementation",
          "type": "address"
        },
        {
          "internalType": "bytes",
          "name": "data",
          "type": "bytes"
        }
      ],
      "name": "upgradeToAndCall",
      "outputs": [],
      "stateMutability": "payable",
      "type": "function"
    },
    {
      "stateMutability": "payable",
      "type": "receive"
    }
  ],
  "bytecode": "0x60a06040523060805234801561001457600080fd5b5060805161420161004c6000396000818161070901528181610793015281816108b80152818161093d0152610a2701526142016000f3fe6080604052600436106101845760003560e01c8063846688f7116100d6578063ebd0f48f1161007f578063f925017111610059578063f92501711461044c578063faeda7e514610485578063fb47e016146104b857600080fd5b8063ebd0f48f146103d7578063f2fde38b146103ec578063f87127b41461040c57600080fd5b8063a9df9fae116100b0578063a9df9fae14610337578063ac21689a146103a2578063e35422e7146103b757600080fd5b8063846688f7146102e55780638da5cb5b146102fa578063a7be6a721461032257600080fd5b806352d1902d11610138578063715018a611610112578063715018a6146102b3578063770cc0dd146102c85780638129fc1c146102d057600080fd5b806352d1902d1461025857806359a045441461027b57806363a540421461029e57600080fd5b80633659cfe6116101695780633659cfe614610210578063438c2f55146102325780634f1ef2861461024557600080fd5b80630690c6a814610190578063078b0fb7146101d557600080fd5b3661018b57005b600080fd5b34801561019c57600080fd5b5060c95460cb5460cc5460ce546040805163ffffffff909516855260208501939093529183015260608201526080015b60405180910390f35b3480156101e157600080fd5b506101f56101f0366004613b9d565b6104e5565b604080519384526020840192909252908201526060016101cc565b34801561021c57600080fd5b5061023061022b366004613b9d565b6106ff565b005b610230610240366004613b9d565b61087f565b610230610253366004613bce565b6108ae565b34801561026457600080fd5b5061026d610a1a565b6040519081526020016101cc565b34801561028757600080fd5b50610290610adf565b6040516101cc929190613c90565b3480156102aa57600080fd5b5060dc5461026d565b3480156102bf57600080fd5b50610230610bcd565b610230610be1565b3480156102dc57600080fd5b50610230610c03565b3480156102f157600080fd5b506101f5610df8565b34801561030657600080fd5b506033546040516001600160a01b0390911681526020016101cc565b34801561032e57600080fd5b50610230610e2e565b34801561034357600080fd5b50610395610352366004613cf5565b6040805180820182526000808252602091820181905260ff938416815260db82528290208251808401909352805490931682526001909201549181019190915290565b6040516101cc9190613d18565b3480156103ae57600080fd5b5061026d610ec2565b3480156103c357600080fd5b506102306103d2366004613d32565b610ef1565b3480156103e357600080fd5b50610230610f9e565b3480156103f857600080fd5b50610230610407366004613b9d565b611227565b34801561041857600080fd5b5061042c610427366004613b9d565b6112b4565b6040805194855260208501939093529183015260608201526080016101cc565b34801561045857600080fd5b5061046c610467366004613b9d565b6114e0565b6040805160ff90931683526020830191909152016101cc565b34801561049157600080fd5b506104a56104a0366004613b9d565b611704565b6040516101cc9796959493929190613e7a565b3480156104c457600080fd5b506104d86104d3366004613b9d565b61194b565b6040516101cc9190613ee3565b6001600160a01b03808216600090815260da6020908152604080832081516101e08101835281548616815260018201548616818501526002820154909516858301526003810180548351818602810186019094528084529495869586958695929493606086019392909183018282801561058857602002820191906000526020600020905b81546001600160a01b0316815260019091019060200180831161056a575b5050505050815260200160048201805480602002602001604051908101604052809291908181526020016000905b82821015610601576000848152602090819020604080518082019091526002850290910180546001600160a01b039081168352600191820154168284015290835290920191016105b6565b50505050815260200160058201805480602002602001604051908101604052809291908181526020016000905b8282101561067757600084815260209081902060408051808201909152908401546001600160a01b0381168252600160a01b900460ff168183015282526001909201910161062e565b505050908252506006820154602082015260078201546040820152600882015460ff16606082015260098201546080820152600a82015460a0820152600b82015460c0820152600c82015460e0820152600d820154610100820152600e90910154610120909101526101608101516101808201516101a0909201519097919650945092505050565b6001600160a01b037f00000000000000000000000000000000000000000000000000000000000000001630036107915760405162461bcd60e51b815260206004820152602c60248201527f46756e6374696f6e206d7573742062652063616c6c6564207468726f7567682060448201526b19195b1959d85d1958d85b1b60a21b60648201526084015b60405180910390fd5b7f00000000000000000000000000000000000000000000000000000000000000006001600160a01b03166107ec7f360894a13ba1a3210667c828492db98dca3e2076cc3735a920a3ca505d382bbc546001600160a01b031690565b6001600160a01b0316146108575760405162461bcd60e51b815260206004820152602c60248201527f46756e6374696f6e206d7573742062652063616c6c6564207468726f7567682060448201526b6163746976652070726f787960a01b6064820152608401610788565b61086081611bda565b6040805160008082526020820190925261087c91839190611be2565b50565b34600061088b60dc5490565b905060006108998383611d82565b90506108a88433838686611daa565b50505050565b6001600160a01b037f000000000000000000000000000000000000000000000000000000000000000016300361093b5760405162461bcd60e51b815260206004820152602c60248201527f46756e6374696f6e206d7573742062652063616c6c6564207468726f7567682060448201526b19195b1959d85d1958d85b1b60a21b6064820152608401610788565b7f00000000000000000000000000000000000000000000000000000000000000006001600160a01b03166109967f360894a13ba1a3210667c828492db98dca3e2076cc3735a920a3ca505d382bbc546001600160a01b031690565b6001600160a01b031614610a015760405162461bcd60e51b815260206004820152602c60248201527f46756e6374696f6e206d7573742062652063616c6c6564207468726f7567682060448201526b6163746976652070726f787960a01b6064820152608401610788565b610a0a82611bda565b610a1682826001611be2565b5050565b6000306001600160a01b037f00000000000000000000000000000000000000000000000000000000000000001614610aba5760405162461bcd60e51b815260206004820152603860248201527f555550535570677261646561626c653a206d757374206e6f742062652063616c60448201527f6c6564207468726f7567682064656c656761746563616c6c00000000000000006064820152608401610788565b507f360894a13ba1a3210667c828492db98dca3e2076cc3735a920a3ca505d382bbc90565b60606000610aeb61266a565b905060008160ff1667ffffffffffffffff811115610b0b57610b0b613bb8565b604051908082528060200260200182016040528015610b5057816020015b6040805180820190915260008082526020820152815260200190600190039081610b295790505b50905060005b8260ff168160ff161015610bc65760ff808216600081815260db60209081526040918290208251808401909352805490941682526001909301549281019290925283518491908110610baa57610baa61400a565b602002602001018190525080610bbf90614036565b9050610b56565b5092909150565b610bd56126b8565b610bdf6000612712565b565b346000610bf682610bf160dc5490565b611d82565b9050610a16828233612764565b600054610100900460ff1615808015610c235750600054600160ff909116105b80610c3d5750303b158015610c3d575060005460ff166001145b610caf5760405162461bcd60e51b815260206004820152602e60248201527f496e697469616c697a61626c653a20636f6e747261637420697320616c72656160448201527f647920696e697469616c697a65640000000000000000000000000000000000006064820152608401610788565b6000805460ff191660011790558015610cd2576000805461ff0019166101001790555b60d7805473eb1100091ce830ba58a04834c35d29b75b53eb746001600160a01b03199182161790915568015af1d78b58c4000060d85560d5805461ffff191661083c179055600260d65560cf805474ffffffffffffffffffffffffffffffffffffffffff1916741476b7c991c3ef93b6771fac97a984a2cb37962fbc17905560d18054601060ff199182161790915560d3805490911660041790554260d45560d9805473efa6077f510b10a6c1b2f8da24a89fc561ac94459216919091179055680d8d726b7177a8000060dc55610da7612b1c565b610daf612b8f565b801561087c576000805461ff0019169055604051600181527f7f26b83ff96e1f2b6a682f133852f6798a09c465da95921460cefb3847402498906020015b60405180910390a150565b60d25460d4546000908190610e109062093a80614055565b90504280821115610e2857610e258183614068565b92505b50909192565b610e366126b8565b60d780546001600160a01b03908116600081815260da602052604080822080546001600160a01b0319908116909417905584548416808352908220600190810180548516909217909155935460ca805495860181559091527f42d72674974f694b5f5159593243114d38a5c39c89d6b62fee061ff523240ee19093018054939092169216919091179055565b6000610ecd60dc5490565b60d854610ee290670de0b6b3a764000061407b565b610eec91906140a8565b905090565b610ef96126b8565b60005b60ff8116821115610f99576040518060400160405280826001610f1f91906140bc565b60ff16815260200184848460ff16818110610f3c57610f3c61400a565b90506020020135670de0b6b3a7640000610f56919061407b565b905260ff828116600090815260db602090815260409091208351815460ff191693169290921782559190910151600190910155610f9281614036565b9050610efc565b505050565b60d2546000610fb082610bf160dc5490565b9050600060d45462093a80610fc59190614055565b905042818110156110185760405162461bcd60e51b815260206004820152601c60248201527f5765656b6c792074696d65206973206e6f74206f766572207965742e000000006044820152606401610788565b600060d2541161106a5760405162461bcd60e51b815260206004820152601860248201527f4e6f207265776172647320746f206469737472696275746500000000000000006044820152606401610788565b600060c98054806020026020016040519081016040528092919081815260200182805480156110c257602002820191906000526020600020905b81546001600160a01b031681526001909101906020018083116110a4575b50505050509050600042446001436110da9190614068565b6040805160208101949094528301919091524060608201526080016040516020818303038152906040528051906020012060001c9050600082518261111f91906140d5565b905060008382815181106111355761113561400a565b60200260200101519050600060da6000836001600160a01b03166001600160a01b0316815260200190815260200160002090508781600c01600082825461117c9190614055565b90915550506040516001600160a01b038316908a156108fc02908b906000818181858888f193505050501580156111b7573d6000803e3d6000fd5b50600060d28190554260d45560ce80548a92906111d5908490614055565b9091555050604080516001600160a01b0384168152602081018a90527ffff6edc60fd30afefcc47525cdf85502200830b22550391f79f9e383df03afad910160405180910390a1505050505050505050565b61122f6126b8565b6001600160a01b0381166112ab5760405162461bcd60e51b815260206004820152602660248201527f4f776e61626c653a206e6577206f776e657220697320746865207a65726f206160448201527f64647265737300000000000000000000000000000000000000000000000000006064820152608401610788565b61087c81612712565b6001600160a01b03808216600090815260da6020908152604080832081516101e08101835281548616815260018201548616818501526002820154909516858301526003810180548351818602810186019094528084529495869586958695869593946060860193919290919083018282801561135a57602002820191906000526020600020905b81546001600160a01b0316815260019091019060200180831161133c575b5050505050815260200160048201805480602002602001604051908101604052809291908181526020016000905b828210156113d3576000848152602090819020604080518082019091526002850290910180546001600160a01b03908116835260019182015416828401529083529092019101611388565b50505050815260200160058201805480602002602001604051908101604052809291908181526020016000905b8282101561144957600084815260209081902060408051808201909152908401546001600160a01b0381168252600160a01b900460ff1681830152825260019092019101611400565b505050908252506006820154602082015260078201546040820152600882015460ff16606082015260098201546080820152600a82015460a0820152600b82015460c080830191909152600c83015460e0830152600d830154610100830152600e909201546101209182015290820151908201516101408301519197509550935090506114d68584614055565b9150509193509193565b6001600160a01b03808216600090815260da6020908152604080832081516101e081018352815486168152600182015486168185015260028201549095168583015260038101805483518186028101860190945280845294958695869591946060860193909290919083018282801561158257602002820191906000526020600020905b81546001600160a01b03168152600190910190602001808311611564575b5050505050815260200160048201805480602002602001604051908101604052809291908181526020016000905b828210156115fb576000848152602090819020604080518082019091526002850290910180546001600160a01b039081168352600191820154168284015290835290920191016115b0565b50505050815260200160058201805480602002602001604051908101604052809291908181526020016000905b8282101561167157600084815260209081902060408051808201909152908401546001600160a01b0381168252600160a01b900460ff1681830152825260019092019101611628565b505050908252506006820154602082015260078201546040820152600882015460ff908116606083015260098301546080830152600a83015460a0830152600b83015460c0830152600c83015460e0830152600d83015461010080840191909152600e90930154610120909201919091529082015191925016156116f85780610100015192505b60e00151919391925050565b6001600160a01b03808216600090815260da6020908152604080832081516101e081018352815486168152600182015486168185015260028201549095168583015260038101805483518186028101860190945280845294956060958795879587958795879586959094929385890193909291908301828280156117b157602002820191906000526020600020905b81546001600160a01b03168152600190910190602001808311611793575b5050505050815260200160048201805480602002602001604051908101604052809291908181526020016000905b8282101561182a576000848152602090819020604080518082019091526002850290910180546001600160a01b039081168352600191820154168284015290835290920191016117df565b50505050815260200160058201805480602002602001604051908101604052809291908181526020016000905b828210156118a057600084815260209081902060408051808201909152908401546001600160a01b0381168252600160a01b900460ff1681830152825260019092019101611857565b50505090825250600682015460208201526007820154604080830191909152600883015460ff166060808401919091526009840154608080850191909152600a85015460a080860191909152600b86015460c0860152600c86015460e0860152600d860154610100860152600e90950154610120909401939093529084015190840151805192850151805195909401518051929f919e50929c50929a50929850965090945092505050565b6119e2604051806101e0016040528060006001600160a01b0316815260200160006001600160a01b0316815260200160006001600160a01b031681526020016060815260200160608152602001606081526020016000815260200160008152602001600060ff1681526020016000815260200160008152602001600081526020016000815260200160008152602001600081525090565b6001600160a01b03808316600090815260da602090815260409182902082516101e081018452815485168152600182015485168184015260028201549094168484015260038101805484518185028101850190955280855291936060860193909290830182828015611a7d57602002820191906000526020600020905b81546001600160a01b03168152600190910190602001808311611a5f575b5050505050815260200160048201805480602002602001604051908101604052809291908181526020016000905b82821015611af6576000848152602090819020604080518082019091526002850290910180546001600160a01b03908116835260019182015416828401529083529092019101611aab565b50505050815260200160058201805480602002602001604051908101604052809291908181526020016000905b82821015611b6c57600084815260209081902060408051808201909152908401546001600160a01b0381168252600160a01b900460ff1681830152825260019092019101611b23565b505050908252506006820154602082015260078201546040820152600882015460ff16606082015260098201546080820152600a82015460a0820152600b82015460c0820152600c82015460e0820152600d820154610100820152600e909101546101209091015292915050565b61087c6126b8565b7f4910fdfa16fed3260ed0e7147f7cc6da11a60208b5b9406d12a635614ffd91435460ff1615611c1557610f9983612bfa565b826001600160a01b03166352d1902d6040518163ffffffff1660e01b8152600401602060405180830381865afa925050508015611c6f575060408051601f3d908101601f19168201909252611c6c918101906140e9565b60015b611ce15760405162461bcd60e51b815260206004820152602e60248201527f45524331393637557067726164653a206e657720696d706c656d656e7461746960448201527f6f6e206973206e6f7420555550530000000000000000000000000000000000006064820152608401610788565b7f360894a13ba1a3210667c828492db98dca3e2076cc3735a920a3ca505d382bbc8114611d765760405162461bcd60e51b815260206004820152602960248201527f45524331393637557067726164653a20756e737570706f727465642070726f7860448201527f6961626c655555494400000000000000000000000000000000000000000000006064820152608401610788565b50610f99838383612cb8565b6000670de0b6b3a7640000611d97838561407b565b611da191906140a8565b90505b92915050565b60d8546064611dba82605f61407b565b611dc491906140a8565b841015611e395760405162461bcd60e51b815260206004820152602660248201527f56616c7565206973206c657373207468656e20726567697374726174696f6e2060448201527f76616c75652e00000000000000000000000000000000000000000000000000006064820152608401610788565b60d5546001600160a01b03808716600090815260da6020526040808220928a1682528120600683015460ff8086169561010090041693919015611ebe5760405162461bcd60e51b815260206004820152601760248201527f5573657220616c726561647920726567697374657265640000000000000000006044820152606401610788565b81546001600160a01b0316611ee75781546001600160a01b0319166001600160a01b038b161782555b80546001600160a01b0316611f105780546001600160a01b0319166001600160a01b038c161781555b8160060154600003611f685760c980546001810182556000919091527f66be4f155c5ef2ebd3772b228f2f00681e4ed5826cdb3b1943cc11ad15ad1d280180546001600160a01b0319166001600160a01b038c161790555b88826006016000828254611f7c9190614055565b9091555050604080516101e08101825283546001600160a01b0390811682526001850154811660208084019190915260028601549091168284015260038501805484518184028101840190955280855261216f948793606086019391929083018282801561201357602002820191906000526020600020905b81546001600160a01b03168152600190910190602001808311611ff5575b5050505050815260200160048201805480602002602001604051908101604052809291908181526020016000905b8282101561208c576000848152602090819020604080518082019091526002850290910180546001600160a01b03908116835260019182015416828401529083529092019101612041565b50505050815260200160058201805480602002602001604051908101604052809291908181526020016000905b8282101561210257600084815260209081902060408051808201909152908401546001600160a01b0381168252600160a01b900460ff16818301528252600190920191016120b9565b505050908252506006820154602082015260078201546040820152600882015460ff16606082015260098201546080820152600a82015460a0820152600b82015460c0820152600c82015460e0820152600d820154610100820152600e9091015461012090910152612cdd565b6121825761217d8b8b612cfc565b6121ea565b7f1f4fff38c5e64af9e759d590409f022ea913658008bb1d0cd35e028244f01ecf6040516121e1906020808252601f908201527f5573657220416c72656164792068617665207265666572726572207365742e00604082015260600190565b60405180910390a15b600182015460028301548354604080516001600160a01b0394851681529284166020840152921681830152606081018b905290517f0411c58b3c1e8a39d91c901e5c807bff1401650beedc45aba65112756bb929b49181900360800190a16000606461225960ff88168b61407b565b61226391906140a8565b90506000612271828a611d82565b60018501546001600160a01b03908116600090815260da60205260409020805492935091161561235e5780546040516001600160a01b039091169084156108fc029085906000818181858888f193505050501580156122d4573d6000803e3d6000fd5b508054604080516001600160a01b039283168152918f1660208301528101849052600160608201527f153f77382d7e07de734977ae352e9b1f5f8ad4b1c0033c883a9a33456a87836f9060800160405180910390a18181600b01600082825461233d9190614055565b925050819055508b8160090160008282546123589190614055565b90915550505b6123688287614055565b955060005b8760ff168160ff1610156124d857604080516101e08101825287546001600160a01b0390811682526001890154811660208084019190915260028a015490911682840152600389018054845181840281018401909552808552612483948b936060860193919290830182828015612013576020028201919060005260206000209081546001600160a01b03168152600190910190602001808311611ff5575050505050815260200160048201805480602002602001604051908101604052809291908181526020016000908282101561208c576000848152602090819020604080518082019091526002850290910180546001600160a01b03908116835260019182015416828401529083529092019101612041565b156124d85760028601546001600160a01b0316600090815260da60205260408120600a810180549197508f9290916124bc908490614055565b90915550949550859450806124d081614036565b91505061236d565b5060cf546000906064906124f690600160a01b900460ff168e61407b565b61250091906140a8565b60cf546040519192506001600160a01b03169082156108fc029083906000818181858888f1935050505015801561253b573d6000803e3d6000fd5b5060cf54604080516001600160a01b039092168252602082018390527f5aa75bdb3269082e844d731608afae2a07cbf194f251e3f857b870af86b754fb910160405180910390a18660cc60008282546125949190614055565b925050819055508c60cb60008282546125ad9190614055565b909155505060d1546000906064906125c89060ff168f61407b565b6125d291906140a8565b60d9546040519192506001600160a01b03169082156108fc029083906000818181858888f1935050505015801561260d573d6000803e3d6000fd5b508060d060008282546126209190614055565b909155505060d3546064906126389060ff168f61407b565b61264291906140a8565b60d260008282546126539190614055565b909155505050505050505050505050505050505050565b6000805b60328160ff1610156126b45760ff808216600090815260db602052604090205416156126b4578161269e81614036565b92505080806126ac90614036565b91505061266e565b5090565b6033546001600160a01b03163314610bdf5760405162461bcd60e51b815260206004820181905260248201527f4f776e61626c653a2063616c6c6572206973206e6f7420746865206f776e65726044820152606401610788565b603380546001600160a01b038381166001600160a01b0319831681179093556040519116919082907f8be0079c531659141344cd1fd0a4f28419497f9722a3daafe3b4186f6b6457e090600090a35050565b6001600160a01b038116600090815260da60209081526040808320600881015460ff90811680865260db855283862084518086019095528054909216845260019091015493830193909352926127b861266a565b905081602001518610156128345760405162461bcd60e51b815260206004820152602660248201527f56616c75652073686f756c6420626520657175616c20746f207570677261646560448201527f2076616c756500000000000000000000000000000000000000000000000000006064820152608401610788565b8060ff168360ff16106128895760405162461bcd60e51b815260206004820152601f60248201527f5573657220636f6e73756d656420616c6c207570677261646520706c616e73006044820152606401610788565b8584600701600082825461289d9190614055565b90915550600090505b8360ff168111612ae45760028501546001600160a01b031615612ae45760028501546001600160a01b0316600090815260da6020526040902060ff85168203612ad257600881015460ff808716911611801561290b575080546001600160a01b031615155b156129b5578781600d0160008282546129249190614055565b909155505080546040516001600160a01b03909116908a156108fc02908b906000818181858888f19350505050158015612962573d6000803e3d6000fd5b508054604080516001600160a01b039283168152918916602083015281018a90527fb37800f632235e56e1626c9e9df3de1e167e9298f0d25f59fd74ec65e31116529060600160405180910390a1612acc565b7f6696b78fc1713892e6e2bb3df5cdc986ab67a0c675898c7ef535bd2201ca9451604051612a3a906020808252603f908201527f55706c696e6520686173206e6f742075706772616465642e20416d6f756e742060408201527f7472616e73666572656420746f206c69717569646974792077616c6c65742e00606082015260800190565b60405180910390a160d9546040516001600160a01b039091169081908b156108fc02908c906000818181858888f19350505050158015612a7e573d6000803e3d6000fd5b50604080516001600160a01b0380841682528a1660208201529081018b90527fb37800f632235e56e1626c9e9df3de1e167e9298f0d25f59fd74ec65e31116529060600160405180910390a1505b50612ae4565b9450612add81614102565b90506128a6565b5060088401805460ff16906000612afa83614036565b91906101000a81548160ff021916908360ff1602179055505050505050505050565b600054610100900460ff16612b875760405162461bcd60e51b815260206004820152602b60248201527f496e697469616c697a61626c653a20636f6e7472616374206973206e6f74206960448201526a6e697469616c697a696e6760a81b6064820152608401610788565b610bdf6136eb565b600054610100900460ff16610bdf5760405162461bcd60e51b815260206004820152602b60248201527f496e697469616c697a61626c653a20636f6e7472616374206973206e6f74206960448201526a6e697469616c697a696e6760a81b6064820152608401610788565b6001600160a01b0381163b612c775760405162461bcd60e51b815260206004820152602d60248201527f455243313936373a206e657720696d706c656d656e746174696f6e206973206e60448201527f6f74206120636f6e7472616374000000000000000000000000000000000000006064820152608401610788565b7f360894a13ba1a3210667c828492db98dca3e2076cc3735a920a3ca505d382bbc80546001600160a01b0319166001600160a01b0392909216919091179055565b612cc18361375f565b600082511180612cce5750805b15610f99576108a8838361379f565b60408101516000906001600160a01b031615612cf7575060015b919050565b6001600160a01b03808216600081815260da6020526040902091841603612d655760405162461bcd60e51b815260206004820152601a60248201527f596f752063616e6e6f7420726566657220796f757273656c662e0000000000006044820152606401610788565b60006001600160a01b038416612d95575060d7546001600160a01b0316600090815260da60205260409020612daf565b506001600160a01b038316600090815260da602052604090205b604080516101e08101825282546001600160a01b03908116825260018401548116602080840191909152600285015490911682840152600384018054845181840281018401909552808552612f9d9486936060860193919290830182828015612e4157602002820191906000526020600020905b81546001600160a01b03168152600190910190602001808311612e23575b5050505050815260200160048201805480602002602001604051908101604052809291908181526020016000905b82821015612eba576000848152602090819020604080518082019091526002850290910180546001600160a01b03908116835260019182015416828401529083529092019101612e6f565b50505050815260200160058201805480602002602001604051908101604052809291908181526020016000905b82821015612f3057600084815260209081902060408051808201909152908401546001600160a01b0381168252600160a01b900460ff1681830152825260019092019101612ee7565b505050908252506006820154602082015260078201546040820152600882015460ff16606082015260098201546080820152600a82015460a0820152600b82015460c0820152600c82015460e0820152600d820154610100820152600e90910154610120909101526138aa565b6130ee57612fab81836138d4565b60038101805460018082018355600083815260209081902090920180546001600160a01b0319166001600160a01b0388811691909117909155604080516101e0810182528654831681529286015482168385015260028601549091168282015283548151818502810185019092528082526130db94929386936060860193929091830182828015612e41576020028201919060005260206000209081546001600160a01b03168152600190910190602001808311612e235750505050508152602001600482018054806020026020016040519081016040528092919081815260200160009082821015612eba576000848152602090819020604080518082019091526002850290910180546001600160a01b03908116835260019182015416828401529083529092019101612e6f565b156130e9576130e981613937565b613520565b600060da60006130fc613a2c565b6001600160a01b03166001600160a01b03168152602001908152602001600020905061312881846138d4565b604080516101e08101825282546001600160a01b039081168252600184015481166020808401919091526002850154909116828401526003840180548451818402810184019095528085526132309486936060860193919290830182828015612e41576020028201919060005260206000209081546001600160a01b03168152600190910190602001808311612e235750505050508152602001600482018054806020026020016040519081016040528092919081815260200160009082821015612eba576000848152602090819020604080518082019091526002850290910180546001600160a01b03908116835260019182015416828401529083529092019101612e6f565b1561323e5761323e81613937565b81548154604080516001600160a01b03938416815291831660208301529186168183015290517fa1b30426557565c4fa85ce5f9c88513d7d3f49d21eb30569c249b07b037831ef9181900360600190a1604080518082019091526001600160a01b0380861682528254811660208084019182526004860180546001818101835560009283529282209551600290910290950180549585166001600160a01b031996871617815592519290910180549290931691909316179055600684015490036134f057604080516101e08101825284546001600160a01b039081168252600186015481166020808401919091526002870154909116828401526003860180548451818402810184019095528085526134f0948893606086019391929083018282801561339457602002820191906000526020600020905b81546001600160a01b03168152600190910190602001808311613376575b5050505050815260200160048201805480602002602001604051908101604052809291908181526020016000905b8282101561340d576000848152602090819020604080518082019091526002850290910180546001600160a01b039081168352600191820154168284015290835290920191016133c2565b50505050815260200160058201805480602002602001604051908101604052809291908181526020016000905b8282101561348357600084815260209081902060408051808201909152908401546001600160a01b0381168252600160a01b900460ff168183015282526001909201910161343a565b505050908252506006820154602082015260078201546040820152600882015460ff16606082015260098201546080820152600a82015460a0820152600b82015460c0820152600c82015460e0820152600d820154610100820152600e9091015461012090910152613ab3565b6003018054600181018255600091825260209091200180546001600160a01b0319166001600160a01b0385161790555b60018201546001600160a01b031661359e5780546001830180546001600160a01b039283166001600160a01b0319909116811790915560028401546040805192835290831660208301529185168183015290517f8efa008f8ae98ae30d3219078a298c85bc25a62f50c57ed9a3ec838b7eed9f479181900360600190a15b60d554610100900460ff1660005b8160ff168160ff1610156136e35760028401546001600160a01b0316156136e35760028401546001600160a01b03908116600090815260da602090815260409182902082518084019093529288168252919450600585019181016136118460016140bc565b60ff90811690915282546001818101855560009485526020948590208451920180549590940151909216600160a01b0274ffffffffffffffffffffffffffffffffffffffffff199094166001600160a01b03918216179390931790915584547f85db3f10b88ea7fc653f3f818097a3fc3c543196ed60cad2251df922bcc9ad7f92169087906136a19085906140bc565b604080516001600160a01b03948516815293909216602084015260ff169082015260600160405180910390a182935080806136db90614036565b9150506135ac565b505050505050565b600054610100900460ff166137565760405162461bcd60e51b815260206004820152602b60248201527f496e697469616c697a61626c653a20636f6e7472616374206973206e6f74206960448201526a6e697469616c697a696e6760a81b6064820152608401610788565b610bdf33612712565b61376881612bfa565b6040516001600160a01b038216907fbc7cd75a20ee27fd9adebab32041f755214dbc6bffa90cc0225b39da2e5c2d3b90600090a250565b60606001600160a01b0383163b61381e5760405162461bcd60e51b815260206004820152602660248201527f416464726573733a2064656c65676174652063616c6c20746f206e6f6e2d636f60448201527f6e747261637400000000000000000000000000000000000000000000000000006064820152608401610788565b600080846001600160a01b031684604051613839919061413f565b600060405180830381855af49150503d8060008114613874576040519150601f19603f3d011682016040523d82523d6000602084013e613879565b606091505b50915091506138a182826040518060600160405280602781526020016141a560279139613b3c565b95945050505050565b600060d65482606001515111806138c7575060d654826060015151145b15612cf757506001919050565b81546002820180546001600160a01b0319166001600160a01b0392831617905582548254604080519284168352921660208201527fec49a3c8c4ae06c18160fe86119c381c9d213ac3e052ff35b594da8687b193c7910160405180910390a15050565b60ca805461394790600190614068565b815481106139575761395761400a565b9060005260206000200160009054906101000a90046001600160a01b031660ca82600e01548154811061398c5761398c61400a565b9060005260206000200160006101000a8154816001600160a01b0302191690836001600160a01b0316021790555060ca8054806139cb576139cb61415b565b6000828152602090819020600019908301810180546001600160a01b031916905590910190915581546040516001600160a01b0390911681527f644b85583ba83e73113ffc0c122b165819ca11db493cd4cc38f5ba29138ffa1b9101610ded565b6000804244613a3c600143614068565b60408051602081019490945283019190915240606082015260800160408051601f19818403018152919052805160209091012060ca54909150600090613a8290836140d5565b905060ca8181548110613a9757613a9761400a565b6000918252602090912001546001600160a01b03169392505050565b60ca80546101c0830181905282516001820183556000929092527f42d72674974f694b5f5159593243114d38a5c39c89d6b62fee061ff523240ee10180546001600160a01b0319166001600160a01b039283161790558151604051911681527f06baf10092c7ea144c4fb56fb8cf641e1f00e291a535b5d54b547eadb29485a790602001610ded565b60608315613b4b575081613b55565b613b558383613b5c565b9392505050565b815115613b6c5781518083602001fd5b8060405162461bcd60e51b81526004016107889190614171565b80356001600160a01b0381168114612cf757600080fd5b600060208284031215613baf57600080fd5b611da182613b86565b634e487b7160e01b600052604160045260246000fd5b60008060408385031215613be157600080fd5b613bea83613b86565b9150602083013567ffffffffffffffff80821115613c0757600080fd5b818501915085601f830112613c1b57600080fd5b813581811115613c2d57613c2d613bb8565b604051601f8201601f19908116603f01168101908382118183101715613c5557613c55613bb8565b81604052828152886020848701011115613c6e57600080fd5b8260208601602083013760006020848301015280955050505050509250929050565b60408082528351828201819052600091906020906060850190828801855b82811015613cde57613cce848351805160ff168252602090810151910152565b9285019290840190600101613cae565b50505060ff95909516930192909252509092915050565b600060208284031215613d0757600080fd5b813560ff81168114613b5557600080fd5b815160ff1681526020808301519082015260408101611da4565b60008060208385031215613d4557600080fd5b823567ffffffffffffffff80821115613d5d57600080fd5b818501915085601f830112613d7157600080fd5b813581811115613d8057600080fd5b8660208260051b8501011115613d9557600080fd5b60209290920196919550909350505050565b600081518084526020808501945080840160005b83811015613de05781516001600160a01b031687529582019590820190600101613dbb565b509495945050505050565b600081518084526020808501945080840160005b83811015613de057815180516001600160a01b03908116895290840151168388015260409096019590820190600101613dff565b600081518084526020808501945080840160005b83811015613de057815180516001600160a01b0316885283015160ff168388015260409096019590820190600101613e47565b6001600160a01b038816815260e060208201526000613e9c60e0830189613da7565b8760408401528281036060840152613eb48188613deb565b905085608084015282810360a0840152613ece8186613e33565b9150508260c083015298975050505050505050565b60208152613efd6020820183516001600160a01b03169052565b60006020830151613f1960408401826001600160a01b03169052565b5060408301516001600160a01b03811660608401525060608301516101e0806080850152613f4b610200850183613da7565b91506080850151601f19808685030160a0870152613f698483613deb565b935060a08701519150808685030160c087015250613f878382613e33565b92505060c085015160e085015260e0850151610100818187015280870151915050610120613fb98187018360ff169052565b8601516101408681019190915286015161016080870191909152860151610180808701919091528601516101a0808701919091528601516101c0808701919091529095015193019290925250919050565b634e487b7160e01b600052603260045260246000fd5b634e487b7160e01b600052601160045260246000fd5b600060ff821660ff810361404c5761404c614020565b60010192915050565b80820180821115611da457611da4614020565b81810381811115611da457611da4614020565b8082028115828204841417611da457611da4614020565b634e487b7160e01b600052601260045260246000fd5b6000826140b7576140b7614092565b500490565b60ff8181168382160190811115611da457611da4614020565b6000826140e4576140e4614092565b500690565b6000602082840312156140fb57600080fd5b5051919050565b60006001820161411457614114614020565b5060010190565b60005b8381101561413657818101518382015260200161411e565b50506000910152565b6000825161415181846020870161411b565b9190910192915050565b634e487b7160e01b600052603160045260246000fd5b602081526000825180602084015261419081604085016020870161411b565b601f01601f1916919091016040019291505056fe416464726573733a206c6f772d6c6576656c2064656c65676174652063616c6c206661696c6564a26469706673582212208788280ff0dac2376311838fe7aeb4481f6fe9ada0d49685adb64825ea8d9f6c64736f6c63430008120033",
  "linkReferences": {},
  "deployedLinkReferences": {}
}