{
  "_format": "hh-sol-artifact-1",
  "contractName": "CashXProtocolReferral",
  "sourceName": "contracts/CashXProtocolReferral.sol",
  "abi": [
    {
      "anonymous": false,
      "inputs": [
        {
          "indexed": false,
          "internalType": "address",
          "name": "user",
          "type": "address"
        }
      ],
      "name": "AddedToRandomList",
      "type": "event"
    },
    {
      "anonymous": false,
      "inputs": [
        {
          "indexed": false,
          "internalType": "address",
          "name": "previousAdmin",
          "type": "address"
        },
        {
          "indexed": false,
          "internalType": "address",
          "name": "newAdmin",
          "type": "address"
        }
      ],
      "name": "AdminChanged",
      "type": "event"
    },
    {
      "anonymous": false,
      "inputs": [
        {
          "indexed": true,
          "internalType": "address",
          "name": "beacon",
          "type": "address"
        }
      ],
      "name": "BeaconUpgraded",
      "type": "event"
    },
    {
      "anonymous": false,
      "inputs": [
        {
          "indexed": false,
          "internalType": "uint8",
          "name": "version",
          "type": "uint8"
        }
      ],
      "name": "Initialized",
      "type": "event"
    },
    {
      "anonymous": false,
      "inputs": [
        {
          "indexed": true,
          "internalType": "address",
          "name": "previousOwner",
          "type": "address"
        },
        {
          "indexed": true,
          "internalType": "address",
          "name": "newOwner",
          "type": "address"
        }
      ],
      "name": "OwnershipTransferred",
      "type": "event"
    },
    {
      "anonymous": false,
      "inputs": [
        {
          "indexed": false,
          "internalType": "address",
          "name": "by",
          "type": "address"
        },
        {
          "indexed": false,
          "internalType": "address",
          "name": "to",
          "type": "address"
        },
        {
          "indexed": false,
          "internalType": "address",
          "name": "user",
          "type": "address"
        }
      ],
      "name": "ParentAdded",
      "type": "event"
    },
    {
      "anonymous": false,
      "inputs": [
        {
          "indexed": false,
          "internalType": "address",
          "name": "to",
          "type": "address"
        },
        {
          "indexed": false,
          "internalType": "address",
          "name": "user",
          "type": "address"
        },
        {
          "indexed": false,
          "internalType": "uint256",
          "name": "valueInWei",
          "type": "uint256"
        },
        {
          "indexed": false,
          "internalType": "uint32",
          "name": "level",
          "type": "uint32"
        }
      ],
      "name": "ReferralRewardsPaid",
      "type": "event"
    },
    {
      "anonymous": false,
      "inputs": [
        {
          "indexed": false,
          "internalType": "address",
          "name": "by",
          "type": "address"
        },
        {
          "indexed": false,
          "internalType": "address",
          "name": "user",
          "type": "address"
        }
      ],
      "name": "ReferrerAdded",
      "type": "event"
    },
    {
      "anonymous": false,
      "inputs": [
        {
          "indexed": false,
          "internalType": "string",
          "name": "reason",
          "type": "string"
        }
      ],
      "name": "ReferrerNoAdded",
      "type": "event"
    },
    {
      "anonymous": false,
      "inputs": [
        {
          "indexed": false,
          "internalType": "address",
          "name": "by",
          "type": "address"
        },
        {
          "indexed": false,
          "internalType": "address",
          "name": "to",
          "type": "address"
        },
        {
          "indexed": false,
          "internalType": "address",
          "name": "user",
          "type": "address"
        },
        {
          "indexed": false,
          "internalType": "uint256",
          "name": "valueInWei",
          "type": "uint256"
        }
      ],
      "name": "Registration",
      "type": "event"
    },
    {
      "anonymous": false,
      "inputs": [
        {
          "indexed": false,
          "internalType": "address",
          "name": "by",
          "type": "address"
        },
        {
          "indexed": false,
          "internalType": "address",
          "name": "to",
          "type": "address"
        },
        {
          "indexed": false,
          "internalType": "address",
          "name": "user",
          "type": "address"
        }
      ],
      "name": "RegistrationAssigned",
      "type": "event"
    },
    {
      "anonymous": false,
      "inputs": [
        {
          "indexed": false,
          "internalType": "address",
          "name": "user",
          "type": "address"
        }
      ],
      "name": "RemovedFromRandomList",
      "type": "event"
    },
    {
      "anonymous": false,
      "inputs": [
        {
          "indexed": false,
          "internalType": "address",
          "name": "to",
          "type": "address"
        },
        {
          "indexed": false,
          "internalType": "address",
          "name": "user",
          "type": "address"
        },
        {
          "indexed": false,
          "internalType": "uint32",
          "name": "level",
          "type": "uint32"
        }
      ],
      "name": "TeamAddressAdded",
      "type": "event"
    },
    {
      "anonymous": false,
      "inputs": [
        {
          "indexed": false,
          "internalType": "address",
          "name": "to",
          "type": "address"
        },
        {
          "indexed": false,
          "internalType": "uint256",
          "name": "valueInWei",
          "type": "uint256"
        }
      ],
      "name": "TeamWalletRewardPaid",
      "type": "event"
    },
    {
      "anonymous": false,
      "inputs": [
        {
          "indexed": false,
          "internalType": "string",
          "name": "reason",
          "type": "string"
        }
      ],
      "name": "UpgradeRewardNotPaid",
      "type": "event"
    },
    {
      "anonymous": false,
      "inputs": [
        {
          "indexed": false,
          "internalType": "address",
          "name": "to",
          "type": "address"
        },
        {
          "indexed": false,
          "internalType": "address",
          "name": "by",
          "type": "address"
        },
        {
          "indexed": false,
          "internalType": "uint256",
          "name": "valueInWei",
          "type": "uint256"
        }
      ],
      "name": "UpgradeRewardPaid",
      "type": "event"
    },
    {
      "anonymous": false,
      "inputs": [
        {
          "indexed": true,
          "internalType": "address",
          "name": "implementation",
          "type": "address"
        }
      ],
      "name": "Upgraded",
      "type": "event"
    },
    {
      "anonymous": false,
      "inputs": [
        {
          "indexed": false,
          "internalType": "string",
          "name": "reason",
          "type": "string"
        }
      ],
      "name": "WeeklyRewardNotPaid",
      "type": "event"
    },
    {
      "anonymous": false,
      "inputs": [
        {
          "indexed": false,
          "internalType": "address",
          "name": "to",
          "type": "address"
        },
        {
          "indexed": false,
          "internalType": "uint256",
          "name": "valueInWei",
          "type": "uint256"
        }
      ],
      "name": "WeeklyRewardPaid",
      "type": "event"
    },
    {
      "inputs": [
        {
          "internalType": "address",
          "name": "_chainLinkOracleAddress",
          "type": "address"
        }
      ],
      "name": "checkIfChainLinkOracleAddressSupporeted",
      "outputs": [
        {
          "internalType": "bool",
          "name": "",
          "type": "bool"
        }
      ],
      "stateMutability": "view",
      "type": "function"
    },
    {
      "inputs": [
        {
          "internalType": "address",
          "name": "_chainLinkOracleAddress",
          "type": "address"
        }
      ],
      "name": "distributeWeeklyReward",
      "outputs": [],
      "stateMutability": "nonpayable",
      "type": "function"
    },
    {
      "inputs": [],
      "name": "getAllUsers",
      "outputs": [
        {
          "internalType": "address[]",
          "name": "",
          "type": "address[]"
        }
      ],
      "stateMutability": "view",
      "type": "function"
    },
    {
      "inputs": [],
      "name": "getContractDefaults",
      "outputs": [
        {
          "internalType": "address",
          "name": "teamWallet",
          "type": "address"
        },
        {
          "internalType": "uint256",
          "name": "teamWalletRate",
          "type": "uint256"
        },
        {
          "internalType": "address",
          "name": "liquidityWallet",
          "type": "address"
        },
        {
          "internalType": "uint256",
          "name": "liquidityCreationrate",
          "type": "uint256"
        },
        {
          "internalType": "address",
          "name": "defaultReferrer",
          "type": "address"
        },
        {
          "internalType": "uint256",
          "name": "registrationValueInUSD",
          "type": "uint256"
        }
      ],
      "stateMutability": "view",
      "type": "function"
    },
    {
      "inputs": [
        {
          "internalType": "address",
          "name": "_chainLinkOracleAddress",
          "type": "address"
        }
      ],
      "name": "getNativePriceInUSD",
      "outputs": [
        {
          "internalType": "uint256",
          "name": "",
          "type": "uint256"
        }
      ],
      "stateMutability": "view",
      "type": "function"
    },
    {
      "inputs": [],
      "name": "getRandomUserList",
      "outputs": [
        {
          "internalType": "address[]",
          "name": "",
          "type": "address[]"
        }
      ],
      "stateMutability": "view",
      "type": "function"
    },
    {
      "inputs": [],
      "name": "getRegistrationsStats",
      "outputs": [
        {
          "internalType": "uint32",
          "name": "totalUser",
          "type": "uint32"
        },
        {
          "internalType": "uint256",
          "name": "totalRegistrationValueInUSD",
          "type": "uint256"
        },
        {
          "internalType": "uint256",
          "name": "totalReferralPaidInUSD",
          "type": "uint256"
        },
        {
          "internalType": "uint256",
          "name": "totalWeeklyRewardsPaidInUSD",
          "type": "uint256"
        }
      ],
      "stateMutability": "view",
      "type": "function"
    },
    {
      "inputs": [],
      "name": "getSupportedChainLinkOracleAddress",
      "outputs": [
        {
          "internalType": "address[]",
          "name": "",
          "type": "address[]"
        }
      ],
      "stateMutability": "view",
      "type": "function"
    },
    {
      "inputs": [],
      "name": "getUpgradePlans",
      "outputs": [
        {
          "components": [
            {
              "internalType": "uint8",
              "name": "id",
              "type": "uint8"
            },
            {
              "internalType": "uint256",
              "name": "valueToUpgradeInUSD",
              "type": "uint256"
            }
          ],
          "internalType": "struct UpgradeStruct[]",
          "name": "upgradePlans",
          "type": "tuple[]"
        },
        {
          "internalType": "uint8",
          "name": "upgradePlansCount",
          "type": "uint8"
        }
      ],
      "stateMutability": "view",
      "type": "function"
    },
    {
      "inputs": [
        {
          "internalType": "uint8",
          "name": "_id",
          "type": "uint8"
        }
      ],
      "name": "getUpgradePlansById",
      "outputs": [
        {
          "components": [
            {
              "internalType": "uint8",
              "name": "id",
              "type": "uint8"
            },
            {
              "internalType": "uint256",
              "name": "valueToUpgradeInUSD",
              "type": "uint256"
            }
          ],
          "internalType": "struct UpgradeStruct",
          "name": "",
          "type": "tuple"
        }
      ],
      "stateMutability": "view",
      "type": "function"
    },
    {
      "inputs": [
        {
          "internalType": "address",
          "name": "_userAddress",
          "type": "address"
        }
      ],
      "name": "getUserAccount",
      "outputs": [
        {
          "components": [
            {
              "internalType": "address",
              "name": "self",
              "type": "address"
            },
            {
              "internalType": "address",
              "name": "parent",
              "type": "address"
            },
            {
              "internalType": "address",
              "name": "referrer",
              "type": "address"
            },
            {
              "internalType": "address[]",
              "name": "referee",
              "type": "address[]"
            },
            {
              "components": [
                {
                  "internalType": "address",
                  "name": "referee",
                  "type": "address"
                },
                {
                  "internalType": "address",
                  "name": "assignedTo",
                  "type": "address"
                }
              ],
              "internalType": "struct RefereeStruct[]",
              "name": "refereeAssigned",
              "type": "tuple[]"
            },
            {
              "components": [
                {
                  "internalType": "address",
                  "name": "teamMember",
                  "type": "address"
                },
                {
                  "internalType": "uint8",
                  "name": "level",
                  "type": "uint8"
                }
              ],
              "internalType": "struct TeamStruct[]",
              "name": "team",
              "type": "tuple[]"
            },
            {
              "internalType": "uint256",
              "name": "selfBusinessInUSD",
              "type": "uint256"
            },
            {
              "internalType": "uint256",
              "name": "upgradedValueInUSD",
              "type": "uint256"
            },
            {
              "internalType": "uint8",
              "name": "upgradeId",
              "type": "uint8"
            },
            {
              "internalType": "uint256",
              "name": "directBusinessInUSD",
              "type": "uint256"
            },
            {
              "internalType": "uint256",
              "name": "teamBusinessInUSD",
              "type": "uint256"
            },
            {
              "internalType": "uint256",
              "name": "referralRewardsInUSD",
              "type": "uint256"
            },
            {
              "internalType": "uint256",
              "name": "weeklyRewardsInUSD",
              "type": "uint256"
            },
            {
              "internalType": "uint256",
              "name": "upgradeRewardsInUSD",
              "type": "uint256"
            },
            {
              "internalType": "uint256",
              "name": "userRandomIndex",
              "type": "uint256"
            }
          ],
          "internalType": "struct AccountStruct",
          "name": "",
          "type": "tuple"
        }
      ],
      "stateMutability": "view",
      "type": "function"
    },
    {
      "inputs": [
        {
          "internalType": "address",
          "name": "_userAddress",
          "type": "address"
        }
      ],
      "name": "getUserBusiness",
      "outputs": [
        {
          "internalType": "uint256",
          "name": "selfBusinessInUSD",
          "type": "uint256"
        },
        {
          "internalType": "uint256",
          "name": "directBusinessInUSD",
          "type": "uint256"
        },
        {
          "internalType": "uint256",
          "name": "teamBusinessInUSD",
          "type": "uint256"
        },
        {
          "internalType": "uint256",
          "name": "totalBusinessInUSD",
          "type": "uint256"
        }
      ],
      "stateMutability": "view",
      "type": "function"
    },
    {
      "inputs": [
        {
          "internalType": "address",
          "name": "_userAddress",
          "type": "address"
        }
      ],
      "name": "getUserCurrentUpgradeLevel",
      "outputs": [
        {
          "internalType": "uint8",
          "name": "level",
          "type": "uint8"
        },
        {
          "internalType": "uint256",
          "name": "totalUpgradeValueInUSD",
          "type": "uint256"
        }
      ],
      "stateMutability": "view",
      "type": "function"
    },
    {
      "inputs": [
        {
          "internalType": "address",
          "name": "_userAddress",
          "type": "address"
        }
      ],
      "name": "getUserRewards",
      "outputs": [
        {
          "internalType": "uint256",
          "name": "referralRewardInUSD",
          "type": "uint256"
        },
        {
          "internalType": "uint256",
          "name": "weeklyRewardInUSD",
          "type": "uint256"
        },
        {
          "internalType": "uint256",
          "name": "upgradeRewardsInUSD",
          "type": "uint256"
        },
        {
          "internalType": "uint256",
          "name": "totalRewards",
          "type": "uint256"
        }
      ],
      "stateMutability": "view",
      "type": "function"
    },
    {
      "inputs": [
        {
          "internalType": "address",
          "name": "_userAddress",
          "type": "address"
        }
      ],
      "name": "getUserTeam",
      "outputs": [
        {
          "internalType": "address",
          "name": "referrer",
          "type": "address"
        },
        {
          "internalType": "address[]",
          "name": "referees",
          "type": "address[]"
        },
        {
          "internalType": "uint256",
          "name": "refereeCount",
          "type": "uint256"
        },
        {
          "components": [
            {
              "internalType": "address",
              "name": "referee",
              "type": "address"
            },
            {
              "internalType": "address",
              "name": "assignedTo",
              "type": "address"
            }
          ],
          "internalType": "struct RefereeStruct[]",
          "name": "refereeAssigned",
          "type": "tuple[]"
        },
        {
          "internalType": "uint256",
          "name": "refereeAssignedCount",
          "type": "uint256"
        },
        {
          "components": [
            {
              "internalType": "address",
              "name": "teamMember",
              "type": "address"
            },
            {
              "internalType": "uint8",
              "name": "level",
              "type": "uint8"
            }
          ],
          "internalType": "struct TeamStruct[]",
          "name": "team",
          "type": "tuple[]"
        },
        {
          "internalType": "uint256",
          "name": "teamCount",
          "type": "uint256"
        }
      ],
      "stateMutability": "view",
      "type": "function"
    },
    {
      "inputs": [],
      "name": "getWeeklyRewardToBeDistributed",
      "outputs": [
        {
          "internalType": "uint256",
          "name": "_rewardValue",
          "type": "uint256"
        },
        {
          "internalType": "uint256",
          "name": "_remianingTime",
          "type": "uint256"
        },
        {
          "internalType": "uint256",
          "name": "_endTime",
          "type": "uint256"
        }
      ],
      "stateMutability": "view",
      "type": "function"
    },
    {
      "inputs": [],
      "name": "initialize",
      "outputs": [],
      "stateMutability": "nonpayable",
      "type": "function"
    },
    {
      "inputs": [
        {
          "internalType": "address",
          "name": "_chainLinkOracleAddress",
          "type": "address"
        }
      ],
      "name": "needNativeToRegister",
      "outputs": [
        {
          "internalType": "uint256",
          "name": "",
          "type": "uint256"
        }
      ],
      "stateMutability": "view",
      "type": "function"
    },
    {
      "inputs": [],
      "name": "owner",
      "outputs": [
        {
          "internalType": "address",
          "name": "",
          "type": "address"
        }
      ],
      "stateMutability": "view",
      "type": "function"
    },
    {
      "inputs": [],
      "name": "proxiableUUID",
      "outputs": [
        {
          "internalType": "bytes32",
          "name": "",
          "type": "bytes32"
        }
      ],
      "stateMutability": "view",
      "type": "function"
    },
    {
      "inputs": [
        {
          "internalType": "address",
          "name": "_referrer",
          "type": "address"
        },
        {
          "internalType": "address",
          "name": "_chainLinkOracleAddress",
          "type": "address"
        }
      ],
      "name": "registrationNative",
      "outputs": [],
      "stateMutability": "payable",
      "type": "function"
    },
    {
      "inputs": [],
      "name": "renounceOwnership",
      "outputs": [],
      "stateMutability": "nonpayable",
      "type": "function"
    },
    {
      "inputs": [
        {
          "internalType": "address",
          "name": "_chainLinkOracleAddress",
          "type": "address"
        },
        {
          "internalType": "bool",
          "name": "_status",
          "type": "bool"
        }
      ],
      "name": "setChainLinkOracleAddress",
      "outputs": [],
      "stateMutability": "nonpayable",
      "type": "function"
    },
    {
      "inputs": [],
      "name": "setDefaults",
      "outputs": [],
      "stateMutability": "nonpayable",
      "type": "function"
    },
    {
      "inputs": [
        {
          "internalType": "address",
          "name": "newOwner",
          "type": "address"
        }
      ],
      "name": "transferOwnership",
      "outputs": [],
      "stateMutability": "nonpayable",
      "type": "function"
    },
    {
      "inputs": [
        {
          "internalType": "uint256[]",
          "name": "_valueToUpgradeInDecimals",
          "type": "uint256[]"
        }
      ],
      "name": "updateUpgradePlans",
      "outputs": [],
      "stateMutability": "nonpayable",
      "type": "function"
    },
    {
      "inputs": [
        {
          "internalType": "address",
          "name": "_chainLinkOracleAddress",
          "type": "address"
        }
      ],
      "name": "upgradeAccountNative",
      "outputs": [],
      "stateMutability": "payable",
      "type": "function"
    },
    {
      "inputs": [
        {
          "internalType": "address",
          "name": "newImplementation",
          "type": "address"
        }
      ],
      "name": "upgradeTo",
      "outputs": [],
      "stateMutability": "nonpayable",
      "type": "function"
    },
    {
      "inputs": [
        {
          "internalType": "address",
          "name": "newImplementation",
          "type": "address"
        },
        {
          "internalType": "bytes",
          "name": "data",
          "type": "bytes"
        }
      ],
      "name": "upgradeToAndCall",
      "outputs": [],
      "stateMutability": "payable",
      "type": "function"
    },
    {
      "stateMutability": "payable",
      "type": "receive"
    }
  ],
  "bytecode": "0x60a06040523060805234801561001457600080fd5b5060805161502d61004c600039600081816109d801528181610a5d01528181610b5301528181610bd80152610cc2015261502d6000f3fe6080604052600436106101c65760003560e01c80638129fc1c116100f7578063d277b8a911610095578063f87127b411610064578063f87127b4146105b6578063f9250171146105d6578063faeda7e51461060f578063fb47e0161461064257600080fd5b8063d277b8a914610541578063e2842d7914610561578063e35422e714610576578063f2fde38b1461059657600080fd5b8063a0db38e5116100d1578063a0db38e51461049b578063a7be6a72146104ae578063a9df9fae146104c3578063c53b219e1461052e57600080fd5b80638129fc1c1461042e578063846688f7146104435780638da5cb5b1461047357600080fd5b80634f1ef286116101645780635eda81ce1161013e5780635eda81ce146103c45780636a746311146103e4578063715018a6146104045780637ec37e031461041957600080fd5b80634f1ef2861461037957806352d1902d1461038c57806359a04544146103a157600080fd5b806308e922ba116101a057806308e922ba1461028557806311f4d576146102a75780631a746344146102f05780633659cfe61461035757600080fd5b80630690c6a8146101d2578063078b0fb71461021757806307c560d11461025757600080fd5b366101cd57005b600080fd5b3480156101de57600080fd5b5060c95460cb5460cc5460ce546040805163ffffffff909516855260208501939093529183015260608201526080015b60405180910390f35b34801561022357600080fd5b50610237610232366004614818565b61066f565b60408051948552602085019390935291830152606082015260800161020e565b34801561026357600080fd5b50610277610272366004614818565b6108a6565b60405190815260200161020e565b34801561029157600080fd5b5061029a61096c565b60405161020e9190614877565b3480156102b357600080fd5b506102e06102c2366004614818565b6001600160a01b0316600090815260dd602052604090205460ff1690565b604051901515815260200161020e565b3480156102fc57600080fd5b5060cf5460d95460d15460d75460d854604080516001600160a01b03808816825260ff600160a01b909804881660208301529586169181019190915294909216606085015291909116608083015260a082015260c00161020e565b34801561036357600080fd5b50610377610372366004614818565b6109ce565b005b6103776103873660046148a0565b610b49565b34801561039857600080fd5b50610277610cb5565b3480156103ad57600080fd5b506103b6610d7a565b60405161020e929190614962565b3480156103d057600080fd5b506103776103df3660046149c7565b610e68565b3480156103f057600080fd5b506102776103ff366004614818565b6110b1565b34801561041057600080fd5b506103776110bc565b34801561042557600080fd5b5061029a6110d0565b34801561043a57600080fd5b50610377611130565b34801561044f57600080fd5b50610458611318565b6040805193845260208401929092529082015260600161020e565b34801561047f57600080fd5b506033546040516001600160a01b03909116815260200161020e565b6103776104a9366004614818565b61134e565b3480156104ba57600080fd5b506103776113dd565b3480156104cf57600080fd5b506105216104de366004614a12565b6040805180820182526000808252602091820181905260ff938416815260dc82528290208251808401909352805490931682526001909201549181019190915290565b60405161020e9190614a2f565b61037761053c366004614a49565b61154e565b34801561054d57600080fd5b5061037761055c366004614818565b61168d565b34801561056d57600080fd5b5061029a611a21565b34801561058257600080fd5b50610377610591366004614a7c565b611a81565b3480156105a257600080fd5b506103776105b1366004614818565b611b29565b3480156105c257600080fd5b506102376105d1366004614818565b611bb6565b3480156105e257600080fd5b506105f66105f1366004614818565b611dd8565b6040805160ff909316835260208301919091520161020e565b34801561061b57600080fd5b5061062f61062a366004614818565b611ffc565b60405161020e9796959493929190614b80565b34801561064e57600080fd5b5061066261065d366004614818565b612243565b60405161020e9190614be9565b6001600160a01b03808216600090815260db6020908152604080832081516101e08101835281548616815260018201548616818501526002820154909516858301526003810180548351818602810186019094528084529495869586958695869593946060860193919290919083018282801561071557602002820191906000526020600020905b81546001600160a01b031681526001909101906020018083116106f7575b5050505050815260200160048201805480602002602001604051908101604052809291908181526020016000905b8282101561078e576000848152602090819020604080518082019091526002850290910180546001600160a01b03908116835260019182015416828401529083529092019101610743565b50505050815260200160058201805480602002602001604051908101604052809291908181526020016000905b8282101561080457600084815260209081902060408051808201909152908401546001600160a01b0381168252600160a01b900460ff16818301528252600190920191016107bb565b505050908252506006820154602082015260078201546040820152600882015460ff16606082015260098201546080820152600a82015460a0820152600b82015460c0820152600c82015460e0820152600d820154610100820152600e90910154610120909101526101608101516101808201516101a0830151919750955093509050826108928587614d26565b61089c9190614d26565b9150509193509193565b6001600160a01b038116600090815260dd602052604081205460ff16151560011461093e5760405162461bcd60e51b815260206004820152603860248201527f506c6561736520636865636b2074686520636861696e4c696e6b4f7261636c6560448201527f41646472657373206f72206e6f7420737570706f72746564000000000000000060648201526084015b60405180910390fd5b610947826124d2565b60d85461095c90670de0b6b3a7640000614d39565b6109669190614d66565b92915050565b606060da8054806020026020016040519081016040528092919081815260200182805480156109c457602002820191906000526020600020905b81546001600160a01b031681526001909101906020018083116109a6575b5050505050905090565b6001600160a01b037f0000000000000000000000000000000000000000000000000000000000000000163003610a5b5760405162461bcd60e51b815260206004820152602c60248201527f46756e6374696f6e206d7573742062652063616c6c6564207468726f7567682060448201526b19195b1959d85d1958d85b1b60a21b6064820152608401610935565b7f00000000000000000000000000000000000000000000000000000000000000006001600160a01b0316610ab67f360894a13ba1a3210667c828492db98dca3e2076cc3735a920a3ca505d382bbc546001600160a01b031690565b6001600160a01b031614610b215760405162461bcd60e51b815260206004820152602c60248201527f46756e6374696f6e206d7573742062652063616c6c6564207468726f7567682060448201526b6163746976652070726f787960a01b6064820152608401610935565b610b2a816125b0565b60408051600080825260208201909252610b46918391906125b8565b50565b6001600160a01b037f0000000000000000000000000000000000000000000000000000000000000000163003610bd65760405162461bcd60e51b815260206004820152602c60248201527f46756e6374696f6e206d7573742062652063616c6c6564207468726f7567682060448201526b19195b1959d85d1958d85b1b60a21b6064820152608401610935565b7f00000000000000000000000000000000000000000000000000000000000000006001600160a01b0316610c317f360894a13ba1a3210667c828492db98dca3e2076cc3735a920a3ca505d382bbc546001600160a01b031690565b6001600160a01b031614610c9c5760405162461bcd60e51b815260206004820152602c60248201527f46756e6374696f6e206d7573742062652063616c6c6564207468726f7567682060448201526b6163746976652070726f787960a01b6064820152608401610935565b610ca5826125b0565b610cb1828260016125b8565b5050565b6000306001600160a01b037f00000000000000000000000000000000000000000000000000000000000000001614610d555760405162461bcd60e51b815260206004820152603860248201527f555550535570677261646561626c653a206d757374206e6f742062652063616c60448201527f6c6564207468726f7567682064656c656761746563616c6c00000000000000006064820152608401610935565b507f360894a13ba1a3210667c828492db98dca3e2076cc3735a920a3ca505d382bbc90565b60606000610d86612758565b905060008160ff1667ffffffffffffffff811115610da657610da661488a565b604051908082528060200260200182016040528015610deb57816020015b6040805180820190915260008082526020820152815260200190600190039081610dc45790505b50905060005b8260ff168160ff161015610e615760ff808216600081815260dc60209081526040918290208251808401909352805490941682526001909301549281019290925283518491908110610e4557610e45614d7a565b602002602001018190525080610e5a90614d90565b9050610df1565b5092909150565b610e706127a6565b6001600160a01b038216600090815260dd602052604090205460ff1681151581151503610edf5760405162461bcd60e51b815260206004820152601260248201527f53746174757320616c72656164792073657400000000000000000000000000006044820152606401610935565b6001600160a01b038316600090815260dd60205260409020805460ff1916831515908117909155600103610f5f5760da80546001810182556000919091527fb3d6e86317c38844915b053a0c35ff2fc103b684e96cef2918ab06844eb51aaf0180546001600160a01b0385166001600160a01b0319909116179055505050565b600060da805480602002602001604051908101604052809291908181526020018280548015610fb757602002820191906000526020600020905b81546001600160a01b03168152600190910190602001808311610f99575b505083519394506000925050505b818110156110a857856001600160a01b0316838281518110610fe957610fe9614d7a565b60200260200101516001600160a01b031603611098578261100b600184614daf565b8151811061101b5761101b614d7a565b602002602001015160da828154811061103657611036614d7a565b9060005260206000200160006101000a8154816001600160a01b0302191690836001600160a01b0316021790555060da80548061107557611075614dc2565b600082815260209020810160001990810180546001600160a01b03191690550190555b6110a181614dd8565b9050610fc5565b5050505b505050565b6000610966826124d2565b6110c46127a6565b6110ce6000612800565b565b606060ca8054806020026020016040519081016040528092919081815260200182805480156109c4576020028201919060005260206000209081546001600160a01b031681526001909101906020018083116109a6575050505050905090565b600054610100900460ff16158080156111505750600054600160ff909116105b8061116a5750303b15801561116a575060005460ff166001145b6111dc5760405162461bcd60e51b815260206004820152602e60248201527f496e697469616c697a61626c653a20636f6e747261637420697320616c72656160448201527f647920696e697469616c697a65640000000000000000000000000000000000006064820152608401610935565b6000805460ff1916600117905580156111ff576000805461ff0019166101001790555b60d7805473eb1100091ce830ba58a04834c35d29b75b53eb746001600160a01b03199182161790915568015af1d78b58c4000060d85560d5805461ffff191661083c179055600260d65560cf805474ffffffffffffffffffffffffffffffffffffffffff1916741476b7c991c3ef93b6771fac97a984a2cb37962fbc17905560d18054601060ff199182161790915560d3805490911660041790554260d45560d9805473efa6077f510b10a6c1b2f8da24a89fc561ac944592169190911790556112c7612852565b6112cf6128c5565b8015610b46576000805461ff0019169055604051600181527f7f26b83ff96e1f2b6a682f133852f6798a09c465da95921460cefb3847402498906020015b60405180910390a150565b60d25460d45460009081906113309062093a80614d26565b90504280821115611348576113458183614daf565b92505b50909192565b6001600160a01b038116600090815260dd602052604090205460ff1615156001146113bb5760405162461bcd60e51b815260206004820152601660248201527f43757272656e6379206e6f7420737570706f72746564000000000000000000006044820152606401610935565b3460006113d0826113cb856124d2565b612930565b90506110ac82823361294f565b6113e56127a6565b60d780546001600160a01b03908116600081815260db60209081526040822080546001600160a01b0319908116909417815585546001828101805487169288169290921790915569152d02c7e14af6800000600690920191909155945460ca80548088019091557f42d72674974f694b5f5159593243114d38a5c39c89d6b62fee061ff523240ee10180548516919095161790935560da805480860182557fb3d6e86317c38844915b053a0c35ff2fc103b684e96cef2918ab06844eb51aaf90810180548516730567f2323251f0aab15c8dfb1967e4e8a7d42aee1790558154808701909255018054909216739c85f470f9ba23dfc4fe9531933c2ce2c1739c3990811790925560dd9092527f24857c067b5bf6f722cf08bb2f122c0d209943adbf232b134dbc20e92ceb6302805460ff19908116851790915591527f104bf10f5154d0643a3dd424c451ce4851c3ba6f6d1398592580574e3e1a420480549091169091179055565b6001600160a01b0382166115ca5760405162461bcd60e51b815260206004820152602360248201527f5a65726f20416464726573732063616e6e6f742062652074686520726566657260448201527f72657200000000000000000000000000000000000000000000000000000000006064820152608401610935565b6001600160a01b038116600090815260dd602052604090205460ff16151560011461165d5760405162461bcd60e51b815260206004820152602360248201527f43757272656e637920596f752073656c6563746564206e6f7420737570706f7260448201527f74656400000000000000000000000000000000000000000000000000000000006064820152608401610935565b346000611669836124d2565b905060006116778383612930565b90506116868533838686612d21565b5050505050565b6001600160a01b038116600090815260dd602052604090205460ff1615156001146116fa5760405162461bcd60e51b815260206004820152601660248201527f43757272656e6379206e6f7420737570706f72746564000000000000000000006044820152606401610935565b60d254600061170c826113cb856124d2565b9050600060d45462093a806117219190614d26565b905042818110156117745760405162461bcd60e51b815260206004820152601c60248201527f5765656b6c792074696d65206973206e6f74206f766572207965742e000000006044820152606401610935565b600060d254116117c65760405162461bcd60e51b815260206004820152601860248201527f4e6f207265776172647320746f206469737472696275746500000000000000006044820152606401610935565b600060c980548060200260200160405190810160405280929190818152602001828054801561181e57602002820191906000526020600020905b81546001600160a01b03168152600190910190602001808311611800575b50505050509050600042446001436118369190614daf565b6040805160208101949094528301919091524060608201526080016040516020818303038152906040528051906020012060001c9050600082518261187b9190614df1565b9050600083828151811061189157611891614d7a565b6020026020010151905060006001600160a01b0316816001600160a01b031614611988576001600160a01b038116600090815260db60205260408120600c8101805491928a926118e2908490614d26565b90915550506040516001600160a01b038316908a156108fc02908b906000818181858888f1935050505015801561191d573d6000803e3d6000fd5b50600060d28190554260d45560ce80548a929061193b908490614d26565b9091555050604080516001600160a01b0384168152602081018a90527f6dbdd944bdf6514aca26947d204530e2ecbea365677ef05fee7a56d54a145697910160405180910390a150611a16565b7f974c744afa915921dddb0f53fdbfdd97fef12a94db2457dcf878aa94ad687274604051611a0d9060208082526031908201527f52616e646f6d206164647265737320776173207a65726f20616464726573732e60408201527f20506c656173652074727920616761696e000000000000000000000000000000606082015260800190565b60405180910390a15b505050505050505050565b606060c98054806020026020016040519081016040528092919081815260200182805480156109c4576020028201919060005260206000209081546001600160a01b031681526001909101906020018083116109a6575050505050905090565b611a896127a6565b60005b60ff81168211156110ac576040518060400160405280826001611aaf9190614e05565b60ff16815260200184848460ff16818110611acc57611acc614d7a565b90506020020135670de0b6b3a7640000611ae69190614d39565b905260ff828116600090815260dc602090815260409091208351815460ff191693169290921782559190910151600190910155611b2281614d90565b9050611a8c565b611b316127a6565b6001600160a01b038116611bad5760405162461bcd60e51b815260206004820152602660248201527f4f776e61626c653a206e6577206f776e657220697320746865207a65726f206160448201527f64647265737300000000000000000000000000000000000000000000000000006064820152608401610935565b610b4681612800565b6001600160a01b03808216600090815260db6020908152604080832081516101e081018352815486168152600182015486168185015260028201549095168583015260038101805483518186028101860190945280845294958695869586958695939460608601939192909190830182828015611c5c57602002820191906000526020600020905b81546001600160a01b03168152600190910190602001808311611c3e575b5050505050815260200160048201805480602002602001604051908101604052809291908181526020016000905b82821015611cd5576000848152602090819020604080518082019091526002850290910180546001600160a01b03908116835260019182015416828401529083529092019101611c8a565b50505050815260200160058201805480602002602001604051908101604052809291908181526020016000905b82821015611d4b57600084815260209081902060408051808201909152908401546001600160a01b0381168252600160a01b900460ff1681830152825260019092019101611d02565b505050908252506006820154602082015260078201546040820152600882015460ff16606082015260098201546080820152600a82015460a0820152600b82015460c080830191909152600c83015460e0830152600d830154610100830152600e9092015461012091820152908201519082015161014083015191975095509350905061089c8584614d26565b6001600160a01b03808216600090815260db6020908152604080832081516101e0810183528154861681526001820154861681850152600282015490951685830152600381018054835181860281018601909452808452949586958695919460608601939092909190830182828015611e7a57602002820191906000526020600020905b81546001600160a01b03168152600190910190602001808311611e5c575b5050505050815260200160048201805480602002602001604051908101604052809291908181526020016000905b82821015611ef3576000848152602090819020604080518082019091526002850290910180546001600160a01b03908116835260019182015416828401529083529092019101611ea8565b50505050815260200160058201805480602002602001604051908101604052809291908181526020016000905b82821015611f6957600084815260209081902060408051808201909152908401546001600160a01b0381168252600160a01b900460ff1681830152825260019092019101611f20565b505050908252506006820154602082015260078201546040820152600882015460ff908116606083015260098301546080830152600a83015460a0830152600b83015460c0830152600c83015460e0830152600d83015461010080840191909152600e9093015461012090920191909152908201519192501615611ff05780610100015192505b60e00151919391925050565b6001600160a01b03808216600090815260db6020908152604080832081516101e081018352815486168152600182015486168185015260028201549095168583015260038101805483518186028101860190945280845294956060958795879587958795879586959094929385890193909291908301828280156120a957602002820191906000526020600020905b81546001600160a01b0316815260019091019060200180831161208b575b5050505050815260200160048201805480602002602001604051908101604052809291908181526020016000905b82821015612122576000848152602090819020604080518082019091526002850290910180546001600160a01b039081168352600191820154168284015290835290920191016120d7565b50505050815260200160058201805480602002602001604051908101604052809291908181526020016000905b8282101561219857600084815260209081902060408051808201909152908401546001600160a01b0381168252600160a01b900460ff168183015282526001909201910161214f565b50505090825250600682015460208201526007820154604080830191909152600883015460ff166060808401919091526009840154608080850191909152600a85015460a080860191909152600b86015460c0860152600c86015460e0860152600d860154610100860152600e90950154610120909401939093529084015190840151805192850151805195909401518051929f919e50929c50929a50929850965090945092505050565b6122da604051806101e0016040528060006001600160a01b0316815260200160006001600160a01b0316815260200160006001600160a01b031681526020016060815260200160608152602001606081526020016000815260200160008152602001600060ff1681526020016000815260200160008152602001600081526020016000815260200160008152602001600081525090565b6001600160a01b03808316600090815260db602090815260409182902082516101e08101845281548516815260018201548516818401526002820154909416848401526003810180548451818502810185019095528085529193606086019390929083018282801561237557602002820191906000526020600020905b81546001600160a01b03168152600190910190602001808311612357575b5050505050815260200160048201805480602002602001604051908101604052809291908181526020016000905b828210156123ee576000848152602090819020604080518082019091526002850290910180546001600160a01b039081168352600191820154168284015290835290920191016123a3565b50505050815260200160058201805480602002602001604051908101604052809291908181526020016000905b8282101561246457600084815260209081902060408051808201909152908401546001600160a01b0381168252600160a01b900460ff168183015282526001909201910161241b565b505050908252506006820154602082015260078201546040820152600882015460ff16606082015260098201546080820152600a82015460a0820152600b82015460c0820152600c82015460e0820152600d820154610100820152600e909101546101209091015292915050565b6000808290506125a9816001600160a01b03166350d25bcd6040518163ffffffff1660e01b8152600401602060405180830381865afa158015612519573d6000803e3d6000fd5b505050506040513d601f19601f8201168201806040525081019061253d9190614e1e565b826001600160a01b031663313ce5676040518163ffffffff1660e01b8152600401602060405180830381865afa15801561257b573d6000803e3d6000fd5b505050506040513d601f19601f8201168201806040525081019061259f9190614e37565b60ff166012613a12565b9392505050565b610b466127a6565b7f4910fdfa16fed3260ed0e7147f7cc6da11a60208b5b9406d12a635614ffd91435460ff16156125eb576110ac83613a46565b826001600160a01b03166352d1902d6040518163ffffffff1660e01b8152600401602060405180830381865afa925050508015612645575060408051601f3d908101601f1916820190925261264291810190614e1e565b60015b6126b75760405162461bcd60e51b815260206004820152602e60248201527f45524331393637557067726164653a206e657720696d706c656d656e7461746960448201527f6f6e206973206e6f7420555550530000000000000000000000000000000000006064820152608401610935565b7f360894a13ba1a3210667c828492db98dca3e2076cc3735a920a3ca505d382bbc811461274c5760405162461bcd60e51b815260206004820152602960248201527f45524331393637557067726164653a20756e737570706f727465642070726f7860448201527f6961626c655555494400000000000000000000000000000000000000000000006064820152608401610935565b506110ac838383613b04565b6000805b60328160ff1610156127a25760ff808216600090815260dc602052604090205416156127a2578161278c81614d90565b925050808061279a90614d90565b91505061275c565b5090565b6033546001600160a01b031633146110ce5760405162461bcd60e51b815260206004820181905260248201527f4f776e61626c653a2063616c6c6572206973206e6f7420746865206f776e65726044820152606401610935565b603380546001600160a01b038381166001600160a01b0319831681179093556040519116919082907f8be0079c531659141344cd1fd0a4f28419497f9722a3daafe3b4186f6b6457e090600090a35050565b600054610100900460ff166128bd5760405162461bcd60e51b815260206004820152602b60248201527f496e697469616c697a61626c653a20636f6e7472616374206973206e6f74206960448201526a6e697469616c697a696e6760a81b6064820152608401610935565b6110ce613b2f565b600054610100900460ff166110ce5760405162461bcd60e51b815260206004820152602b60248201527f496e697469616c697a61626c653a20636f6e7472616374206973206e6f74206960448201526a6e697469616c697a696e6760a81b6064820152608401610935565b6000670de0b6b3a76400006129458385614d39565b6125a99190614d66565b6001600160a01b038116600090815260db60209081526040808320600881015460ff908116855260dc845293829020825180840190935280549094168252600190930154918101829052906129e65760405162461bcd60e51b815260206004820152601d60248201527f596f75206861766520757067726164656420616c6c206c6576656c732e0000006044820152606401610935565b60648160200151605f6129f99190614d39565b612a039190614d66565b841180612a2b5750606481602001516069612a1e9190614d39565b612a289190614d66565b84105b612a9d5760405162461bcd60e51b815260206004820152602660248201527f56616c75652073686f756c6420626520657175616c20746f207570677261646560448201527f2076616c756500000000000000000000000000000000000000000000000000006064820152608401610935565b83826007016000828254612ab19190614d26565b9091555050805160088301805460ff191660ff909216918217905560005b8160ff168111612d185760028401546001600160a01b0316600090815260db60205260409020612b00600184614e54565b60ff168203612d0657600881015460ff80851691161180612b2a5750600881015460ff8481169116145b8015612b3f575080546001600160a01b031615155b15612be9578681600d016000828254612b589190614d26565b909155505080546040516001600160a01b039091169089156108fc02908a906000818181858888f19350505050158015612b96573d6000803e3d6000fd5b508054604080516001600160a01b039283168152918816602083015281018990527fb37800f632235e56e1626c9e9df3de1e167e9298f0d25f59fd74ec65e31116529060600160405180910390a1612d00565b7f6696b78fc1713892e6e2bb3df5cdc986ab67a0c675898c7ef535bd2201ca9451604051612c6e906020808252603f908201527f55706c696e6520686173206e6f742075706772616465642e20416d6f756e742060408201527f7472616e73666572656420746f206c69717569646974792077616c6c65742e00606082015260800190565b60405180910390a160d9546040516001600160a01b039091169081908a156108fc02908b906000818181858888f19350505050158015612cb2573d6000803e3d6000fd5b50604080516001600160a01b038084168252891660208201529081018a90527fb37800f632235e56e1626c9e9df3de1e167e9298f0d25f59fd74ec65e31116529060600160405180910390a1505b50612d18565b9350612d1181614dd8565b9050612acf565b50505050505050565b60d8546064612d3182605f614d39565b612d3b9190614d66565b841015612db05760405162461bcd60e51b815260206004820152602660248201527f56616c7565206973206c657373207468656e20726567697374726174696f6e2060448201527f76616c75652e00000000000000000000000000000000000000000000000000006064820152608401610935565b60d5546001600160a01b03808716600090815260db6020526040808220928a1682528120600683015460ff8086169561010090041693919015612e355760405162461bcd60e51b815260206004820152601760248201527f5573657220616c726561647920726567697374657265640000000000000000006044820152606401610935565b6000816006015411612e895760405162461bcd60e51b815260206004820152601360248201527f5265666572726572204e6f7420416374697665000000000000000000000000006044820152606401610935565b81546001600160a01b0316612eb25781546001600160a01b0319166001600160a01b038b161782555b80546001600160a01b0316612edb5780546001600160a01b0319166001600160a01b038c161781555b81600601546000036133105760c98054600180820183556000929092527f66be4f155c5ef2ebd3772b228f2f00681e4ed5826cdb3b1943cc11ad15ad1d280180546001600160a01b0319166001600160a01b038d811691909117909155604080516101e08101825285548316815292850154821660208085019190915260028601549092168382015260038501805482518185028101850190935280835261311e94938793606086019390929091830182828015612fc257602002820191906000526020600020905b81546001600160a01b03168152600190910190602001808311612fa4575b5050505050815260200160048201805480602002602001604051908101604052809291908181526020016000905b8282101561303b576000848152602090819020604080518082019091526002850290910180546001600160a01b03908116835260019182015416828401529083529092019101612ff0565b50505050815260200160058201805480602002602001604051908101604052809291908181526020016000905b828210156130b157600084815260209081902060408051808201909152908401546001600160a01b0381168252600160a01b900460ff1681830152825260019092019101613068565b505050908252506006820154602082015260078201546040820152600882015460ff16606082015260098201546080820152600a82015460a0820152600b82015460c0820152600c82015460e0820152600d820154610100820152600e9091015461012090910152613ba3565b61331057604080516101e08101825283546001600160a01b0390811682526001850154811660208084019190915260028601549091168284015260038501805484518184028101840190955280855261331094879360608601939192908301828280156131b457602002820191906000526020600020905b81546001600160a01b03168152600190910190602001808311613196575b5050505050815260200160048201805480602002602001604051908101604052809291908181526020016000905b8282101561322d576000848152602090819020604080518082019091526002850290910180546001600160a01b039081168352600191820154168284015290835290920191016131e2565b50505050815260200160058201805480602002602001604051908101604052809291908181526020016000905b828210156132a357600084815260209081902060408051808201909152908401546001600160a01b0381168252600160a01b900460ff168183015282526001909201910161325a565b505050908252506006820154602082015260078201546040820152600882015460ff16606082015260098201546080820152600a82015460a0820152600b82015460c0820152600c82015460e0820152600d820154610100820152600e9091015461012090910152613bce565b888260060160008282546133249190614d26565b9091555050604080516101e08101825283546001600160a01b0390811682526001850154811660208084019190915260028601549091168284015260038501805484518184028101840190955280855261351794879360608601939192908301828280156133bb57602002820191906000526020600020905b81546001600160a01b0316815260019091019060200180831161339d575b5050505050815260200160048201805480602002602001604051908101604052809291908181526020016000905b82821015613434576000848152602090819020604080518082019091526002850290910180546001600160a01b039081168352600191820154168284015290835290920191016133e9565b50505050815260200160058201805480602002602001604051908101604052809291908181526020016000905b828210156134aa57600084815260209081902060408051808201909152908401546001600160a01b0381168252600160a01b900460ff1681830152825260019092019101613461565b505050908252506006820154602082015260078201546040820152600882015460ff16606082015260098201546080820152600a82015460a0820152600b82015460c0820152600c82015460e0820152600d820154610100820152600e9091015461012090910152613c57565b61352a576135258b8b613c75565b613592565b7f1f4fff38c5e64af9e759d590409f022ea913658008bb1d0cd35e028244f01ecf604051613589906020808252601f908201527f5573657220416c72656164792068617665207265666572726572207365742e00604082015260600190565b60405180910390a15b600182015460028301548354604080516001600160a01b0394851681529284166020840152921681830152606081018b905290517f0411c58b3c1e8a39d91c901e5c807bff1401650beedc45aba65112756bb929b49181900360800190a16000606461360160ff88168b614d39565b61360b9190614d66565b90506000613619828a612930565b60018501546001600160a01b03908116600090815260db6020526040902080549293509116156137065780546040516001600160a01b039091169084156108fc029085906000818181858888f1935050505015801561367c573d6000803e3d6000fd5b508054604080516001600160a01b039283168152918f1660208301528101849052600160608201527f153f77382d7e07de734977ae352e9b1f5f8ad4b1c0033c883a9a33456a87836f9060800160405180910390a18181600b0160008282546136e59190614d26565b925050819055508b8160090160008282546137009190614d26565b90915550505b6137108287614d26565b955060005b8760ff168160ff16101561388057604080516101e08101825287546001600160a01b0390811682526001890154811660208084019190915260028a01549091168284015260038901805484518184028101840190955280855261382b948b9360608601939192908301828280156133bb576020028201919060005260206000209081546001600160a01b0316815260019091019060200180831161339d5750505050508152602001600482018054806020026020016040519081016040528092919081815260200160009082821015613434576000848152602090819020604080518082019091526002850290910180546001600160a01b039081168352600191820154168284015290835290920191016133e9565b156138805760028601546001600160a01b0316600090815260db60205260408120600a810180549197508f929091613864908490614d26565b909155509495508594508061387881614d90565b915050613715565b5060cf5460009060649061389e90600160a01b900460ff168e614d39565b6138a89190614d66565b60cf546040519192506001600160a01b03169082156108fc029083906000818181858888f193505050501580156138e3573d6000803e3d6000fd5b5060cf54604080516001600160a01b039092168252602082018390527f5aa75bdb3269082e844d731608afae2a07cbf194f251e3f857b870af86b754fb910160405180910390a18660cc600082825461393c9190614d26565b925050819055508c60cb60008282546139559190614d26565b909155505060d1546000906064906139709060ff168f614d39565b61397a9190614d66565b60d9546040519192506001600160a01b03169082156108fc029083906000818181858888f193505050501580156139b5573d6000803e3d6000fd5b508060d060008282546139c89190614d26565b909155505060d3546064906139e09060ff168f614d39565b6139ea9190614d66565b60d260008282546139fb9190614d26565b909155505050505050505050505050505050505050565b6000613a1f83600a614f51565b613a2a83600a614f51565b613a349086614d39565b613a3e9190614d66565b949350505050565b6001600160a01b0381163b613ac35760405162461bcd60e51b815260206004820152602d60248201527f455243313936373a206e657720696d706c656d656e746174696f6e206973206e60448201527f6f74206120636f6e7472616374000000000000000000000000000000000000006064820152608401610935565b7f360894a13ba1a3210667c828492db98dca3e2076cc3735a920a3ca505d382bbc80546001600160a01b0319166001600160a01b0392909216919091179055565b613b0d83614499565b600082511180613b1a5750805b156110ac57613b2983836144d9565b50505050565b600054610100900460ff16613b9a5760405162461bcd60e51b815260206004820152602b60248201527f496e697469616c697a61626c653a20636f6e7472616374206973206e6f74206960448201526a6e697469616c697a696e6760a81b6064820152608401610935565b6110ce33612800565b600060d6548260600151511180613bc0575060d654826060015151145b15613bc9575060015b919050565b60ca80546101c0830181905282516001820183556000929092527f42d72674974f694b5f5159593243114d38a5c39c89d6b62fee061ff523240ee10180546001600160a01b0319166001600160a01b039283161790558151604051911681527f06baf10092c7ea144c4fb56fb8cf641e1f00e291a535b5d54b547eadb29485a79060200161130d565b60408101516000906001600160a01b031615613bc957506001919050565b6001600160a01b03808216600081815260db6020526040902091841603613cde5760405162461bcd60e51b815260206004820152601a60248201527f596f752063616e6e6f7420726566657220796f757273656c662e0000000000006044820152606401610935565b60006001600160a01b038416613d0e575060d7546001600160a01b0316600090815260db60205260409020613d28565b506001600160a01b038316600090815260db602052604090205b604080516101e08101825282546001600160a01b03908116825260018401548116602080840191909152600285015490911682840152600384018054845181840281018401909552808552613e309486936060860193919290830182828015612fc2576020028201919060005260206000209081546001600160a01b03168152600190910190602001808311612fa4575050505050815260200160048201805480602002602001604051908101604052809291908181526020016000908282101561303b576000848152602090819020604080518082019091526002850290910180546001600160a01b03908116835260019182015416828401529083529092019101612ff0565b613f8157613e3e81836145e4565b60038101805460018082018355600083815260209081902090920180546001600160a01b0319166001600160a01b0388811691909117909155604080516101e081018252865483168152928601548216838501526002860154909116828201528354815181850281018501909252808252613f6e94929386936060860193929091830182828015612fc2576020028201919060005260206000209081546001600160a01b03168152600190910190602001808311612fa4575050505050815260200160048201805480602002602001604051908101604052809291908181526020016000908282101561303b576000848152602090819020604080518082019091526002850290910180546001600160a01b03908116835260019182015416828401529083529092019101612ff0565b15613f7c57613f7c81614647565b6142d6565b613f8a81614647565b600060db6000613f9861473c565b6001600160a01b03166001600160a01b031681526020019081526020016000209050613fc481846145e4565b604080516101e08101825282546001600160a01b039081168252600184015481166020808401919091526002850154909116828401526003840180548451818402810184019095528085526140cc9486936060860193919290830182828015612fc2576020028201919060005260206000209081546001600160a01b03168152600190910190602001808311612fa4575050505050815260200160048201805480602002602001604051908101604052809291908181526020016000908282101561303b576000848152602090819020604080518082019091526002850290910180546001600160a01b03908116835260019182015416828401529083529092019101612ff0565b156140da576140da81614647565b81548154604080516001600160a01b03938416815291831660208301529186168183015290517fa1b30426557565c4fa85ce5f9c88513d7d3f49d21eb30569c249b07b037831ef9181900360600190a1604080518082019091526001600160a01b0380861682528254811660208084019182526004860180546001818101835560009283529282209551600290910290950180549585166001600160a01b031996871617815592519290910180549290931691909316179055600684015490036142a657604080516101e08101825284546001600160a01b039081168252600186015481166020808401919091526002870154909116828401526003860180548451818402810184019095528085526142a694889360608601939192908301828280156131b4576020028201919060005260206000209081546001600160a01b03168152600190910190602001808311613196575050505050815260200160048201805480602002602001604051908101604052809291908181526020016000908282101561322d576000848152602090819020604080518082019091526002850290910180546001600160a01b039081168352600191820154168284015290835290920191016131e2565b6003018054600181018255600091825260209091200180546001600160a01b0319166001600160a01b0385161790555b60018201546001600160a01b03166143545780546001830180546001600160a01b039283166001600160a01b0319909116811790915560028401546040805192835290831660208301529185168183015290517f8efa008f8ae98ae30d3219078a298c85bc25a62f50c57ed9a3ec838b7eed9f479181900360600190a15b60d554610100900460ff1660005b8160ff168160ff1610156110a85760028401546001600160a01b0316156110a85760028401546001600160a01b03908116600090815260db602090815260409182902082518084019093529288168252919450600585019181016143c7846001614e05565b60ff90811690915282546001818101855560009485526020948590208451920180549590940151909216600160a01b0274ffffffffffffffffffffffffffffffffffffffffff199094166001600160a01b03918216179390931790915584547f85db3f10b88ea7fc653f3f818097a3fc3c543196ed60cad2251df922bcc9ad7f9216908790614457908590614e05565b604080516001600160a01b03948516815293909216602084015260ff169082015260600160405180910390a1829350808061449190614d90565b915050614362565b6144a281613a46565b6040516001600160a01b038216907fbc7cd75a20ee27fd9adebab32041f755214dbc6bffa90cc0225b39da2e5c2d3b90600090a250565b60606001600160a01b0383163b6145585760405162461bcd60e51b815260206004820152602660248201527f416464726573733a2064656c65676174652063616c6c20746f206e6f6e2d636f60448201527f6e747261637400000000000000000000000000000000000000000000000000006064820152608401610935565b600080846001600160a01b0316846040516145739190614f81565b600060405180830381855af49150503d80600081146145ae576040519150601f19603f3d011682016040523d82523d6000602084013e6145b3565b606091505b50915091506145db8282604051806060016040528060278152602001614fd1602791396147c3565b95945050505050565b81546002820180546001600160a01b0319166001600160a01b0392831617905582548254604080519284168352921660208201527fec49a3c8c4ae06c18160fe86119c381c9d213ac3e052ff35b594da8687b193c7910160405180910390a15050565b60ca805461465790600190614daf565b8154811061466757614667614d7a565b9060005260206000200160009054906101000a90046001600160a01b031660ca82600e01548154811061469c5761469c614d7a565b9060005260206000200160006101000a8154816001600160a01b0302191690836001600160a01b0316021790555060ca8054806146db576146db614dc2565b6000828152602090819020600019908301810180546001600160a01b031916905590910190915581546040516001600160a01b0390911681527f644b85583ba83e73113ffc0c122b165819ca11db493cd4cc38f5ba29138ffa1b910161130d565b600080424461474c600143614daf565b60408051602081019490945283019190915240606082015260800160408051601f19818403018152919052805160209091012060ca549091506000906147929083614df1565b905060ca81815481106147a7576147a7614d7a565b6000918252602090912001546001600160a01b03169392505050565b606083156147d25750816125a9565b6125a983838151156147e75781518083602001fd5b8060405162461bcd60e51b81526004016109359190614f9d565b80356001600160a01b0381168114613bc957600080fd5b60006020828403121561482a57600080fd5b6125a982614801565b600081518084526020808501945080840160005b8381101561486c5781516001600160a01b031687529582019590820190600101614847565b509495945050505050565b6020815260006125a96020830184614833565b634e487b7160e01b600052604160045260246000fd5b600080604083850312156148b357600080fd5b6148bc83614801565b9150602083013567ffffffffffffffff808211156148d957600080fd5b818501915085601f8301126148ed57600080fd5b8135818111156148ff576148ff61488a565b604051601f8201601f19908116603f011681019083821181831017156149275761492761488a565b8160405282815288602084870101111561494057600080fd5b8260208601602083013760006020848301015280955050505050509250929050565b60408082528351828201819052600091906020906060850190828801855b828110156149b0576149a0848351805160ff168252602090810151910152565b9285019290840190600101614980565b50505060ff95909516930192909252509092915050565b600080604083850312156149da57600080fd5b6149e383614801565b9150602083013580151581146149f857600080fd5b809150509250929050565b60ff81168114610b4657600080fd5b600060208284031215614a2457600080fd5b81356125a981614a03565b815160ff1681526020808301519082015260408101610966565b60008060408385031215614a5c57600080fd5b614a6583614801565b9150614a7360208401614801565b90509250929050565b60008060208385031215614a8f57600080fd5b823567ffffffffffffffff80821115614aa757600080fd5b818501915085601f830112614abb57600080fd5b813581811115614aca57600080fd5b8660208260051b8501011115614adf57600080fd5b60209290920196919550909350505050565b600081518084526020808501945080840160005b8381101561486c57815180516001600160a01b03908116895290840151168388015260409096019590820190600101614b05565b600081518084526020808501945080840160005b8381101561486c57815180516001600160a01b0316885283015160ff168388015260409096019590820190600101614b4d565b6001600160a01b038816815260e060208201526000614ba260e0830189614833565b8760408401528281036060840152614bba8188614af1565b905085608084015282810360a0840152614bd48186614b39565b9150508260c083015298975050505050505050565b60208152614c036020820183516001600160a01b03169052565b60006020830151614c1f60408401826001600160a01b03169052565b5060408301516001600160a01b03811660608401525060608301516101e0806080850152614c51610200850183614833565b91506080850151601f19808685030160a0870152614c6f8483614af1565b935060a08701519150808685030160c087015250614c8d8382614b39565b92505060c085015160e085015260e0850151610100818187015280870151915050610120614cbf8187018360ff169052565b8601516101408681019190915286015161016080870191909152860151610180808701919091528601516101a0808701919091528601516101c0808701919091529095015193019290925250919050565b634e487b7160e01b600052601160045260246000fd5b8082018082111561096657610966614d10565b808202811582820484141761096657610966614d10565b634e487b7160e01b600052601260045260246000fd5b600082614d7557614d75614d50565b500490565b634e487b7160e01b600052603260045260246000fd5b600060ff821660ff8103614da657614da6614d10565b60010192915050565b8181038181111561096657610966614d10565b634e487b7160e01b600052603160045260246000fd5b600060018201614dea57614dea614d10565b5060010190565b600082614e0057614e00614d50565b500690565b60ff818116838216019081111561096657610966614d10565b600060208284031215614e3057600080fd5b5051919050565b600060208284031215614e4957600080fd5b81516125a981614a03565b60ff828116828216039081111561096657610966614d10565b600181815b80851115614ea8578160001904821115614e8e57614e8e614d10565b80851615614e9b57918102915b93841c9390800290614e72565b509250929050565b600082614ebf57506001610966565b81614ecc57506000610966565b8160018114614ee25760028114614eec57614f08565b6001915050610966565b60ff841115614efd57614efd614d10565b50506001821b610966565b5060208310610133831016604e8410600b8410161715614f2b575081810a610966565b614f358383614e6d565b8060001904821115614f4957614f49614d10565b029392505050565b60006125a98383614eb0565b60005b83811015614f78578181015183820152602001614f60565b50506000910152565b60008251614f93818460208701614f5d565b9190910192915050565b6020815260008251806020840152614fbc816040850160208701614f5d565b601f01601f1916919091016040019291505056fe416464726573733a206c6f772d6c6576656c2064656c65676174652063616c6c206661696c6564a2646970667358221220174277122523e510a6ebd35d0587f0e59454a87559d02b7bf17fd83b085b842564736f6c63430008120033",
  "linkReferences": {},
  "deployedLinkReferences": {}
}