{"contracts/CashXProtocolReferral.sol":{"CashXProtocolReferral":{"abi":[{"anonymous":false,"inputs":[{"indexed":false,"internalType":"address","name":"user","type":"address"}],"name":"AddedToRandomList","type":"event"},{"anonymous":false,"inputs":[{"indexed":false,"internalType":"address","name":"previousAdmin","type":"address"},{"indexed":false,"internalType":"address","name":"newAdmin","type":"address"}],"name":"AdminChanged","type":"event"},{"anonymous":false,"inputs":[{"indexed":true,"internalType":"address","name":"beacon","type":"address"}],"name":"BeaconUpgraded","type":"event"},{"anonymous":false,"inputs":[{"indexed":false,"internalType":"uint8","name":"version","type":"uint8"}],"name":"Initialized","type":"event"},{"anonymous":false,"inputs":[{"indexed":true,"internalType":"address","name":"previousOwner","type":"address"},{"indexed":true,"internalType":"address","name":"newOwner","type":"address"}],"name":"OwnershipTransferred","type":"event"},{"anonymous":false,"inputs":[{"indexed":false,"internalType":"address","name":"by","type":"address"},{"indexed":false,"internalType":"address","name":"to","type":"address"},{"indexed":false,"internalType":"address","name":"user","type":"address"}],"name":"ParentAdded","type":"event"},{"anonymous":false,"inputs":[{"indexed":false,"internalType":"address","name":"to","type":"address"},{"indexed":false,"internalType":"address","name":"user","type":"address"},{"indexed":false,"internalType":"uint256","name":"valueInWei","type":"uint256"},{"indexed":false,"internalType":"uint32","name":"level","type":"uint32"}],"name":"ReferralRewardsPaid","type":"event"},{"anonymous":false,"inputs":[{"indexed":false,"internalType":"address","name":"by","type":"address"},{"indexed":false,"internalType":"address","name":"user","type":"address"}],"name":"ReferrerAdded","type":"event"},{"anonymous":false,"inputs":[{"indexed":false,"internalType":"string","name":"reason","type":"string"}],"name":"ReferrerNoAdded","type":"event"},{"anonymous":false,"inputs":[{"indexed":false,"internalType":"address","name":"by","type":"address"},{"indexed":false,"internalType":"address","name":"to","type":"address"},{"indexed":false,"internalType":"address","name":"user","type":"address"},{"indexed":false,"internalType":"uint256","name":"valueInWei","type":"uint256"}],"name":"Registration","type":"event"},{"anonymous":false,"inputs":[{"indexed":false,"internalType":"address","name":"by","type":"address"},{"indexed":false,"internalType":"address","name":"to","type":"address"},{"indexed":false,"internalType":"address","name":"user","type":"address"}],"name":"RegistrationAssigned","type":"event"},{"anonymous":false,"inputs":[{"indexed":false,"internalType":"address","name":"user","type":"address"}],"name":"RemovedFromRandomList","type":"event"},{"anonymous":false,"inputs":[{"indexed":false,"internalType":"address","name":"to","type":"address"},{"indexed":false,"internalType":"address","name":"user","type":"address"},{"indexed":false,"internalType":"uint32","name":"level","type":"uint32"}],"name":"TeamAddressAdded","type":"event"},{"anonymous":false,"inputs":[{"indexed":false,"internalType":"address","name":"to","type":"address"},{"indexed":false,"internalType":"uint256","name":"valueInWei","type":"uint256"}],"name":"TeamWalletRewardPaid","type":"event"},{"anonymous":false,"inputs":[{"indexed":false,"internalType":"string","name":"reason","type":"string"}],"name":"UpgradeRewardNotPaid","type":"event"},{"anonymous":false,"inputs":[{"indexed":false,"internalType":"address","name":"to","type":"address"},{"indexed":false,"internalType":"address","name":"by","type":"address"},{"indexed":false,"internalType":"uint256","name":"valueInWei","type":"uint256"}],"name":"UpgradeRewardPaid","type":"event"},{"anonymous":false,"inputs":[{"indexed":true,"internalType":"address","name":"implementation","type":"address"}],"name":"Upgraded","type":"event"},{"anonymous":false,"inputs":[{"indexed":false,"internalType":"address","name":"to","type":"address"},{"indexed":false,"internalType":"uint256","name":"valueInWei","type":"uint256"}],"name":"WeeklyRewardsPaid","type":"event"},{"inputs":[],"name":"distributeWeeklyReward","outputs":[],"stateMutability":"nonpayable","type":"function"},{"inputs":[],"name":"getRegistrationsStats","outputs":[{"internalType":"uint32","name":"totalUser","type":"uint32"},{"internalType":"uint256","name":"totalRegistrationValue","type":"uint256"},{"internalType":"uint256","name":"totalReferralPaid","type":"uint256"},{"internalType":"uint256","name":"totalWeeklyRewardsPaid","type":"uint256"}],"stateMutability":"view","type":"function"},{"inputs":[{"internalType":"address","name":"_userAddress","type":"address"}],"name":"getUserAccount","outputs":[{"components":[{"internalType":"address","name":"self","type":"address"},{"internalType":"address","name":"parent","type":"address"},{"internalType":"address","name":"referrer","type":"address"},{"internalType":"address[]","name":"referee","type":"address[]"},{"components":[{"internalType":"address","name":"referee","type":"address"},{"internalType":"address","name":"assignedTo","type":"address"}],"internalType":"struct RefereeStruct[]","name":"refereeAssigned","type":"tuple[]"},{"components":[{"internalType":"address","name":"teamMember","type":"address"},{"internalType":"uint8","name":"level","type":"uint8"}],"internalType":"struct TeamStruct[]","name":"team","type":"tuple[]"},{"internalType":"uint256","name":"selfBusiness","type":"uint256"},{"internalType":"uint256","name":"upgradedValue","type":"uint256"},{"internalType":"uint8","name":"upgradeId","type":"uint8"},{"internalType":"uint256","name":"directBusiness","type":"uint256"},{"internalType":"uint256","name":"teamBusiness","type":"uint256"},{"internalType":"uint256","name":"referralRewards","type":"uint256"},{"internalType":"uint256","name":"weeklyRewards","type":"uint256"},{"internalType":"uint256","name":"upgradeRewards","type":"uint256"},{"internalType":"uint256","name":"userRandomIndex","type":"uint256"}],"internalType":"struct AccountStruct","name":"","type":"tuple"}],"stateMutability":"view","type":"function"},{"inputs":[{"internalType":"address","name":"_userAddress","type":"address"}],"name":"getUserBusiness","outputs":[{"internalType":"uint256","name":"selfBusiness","type":"uint256"},{"internalType":"uint256","name":"directBusiness","type":"uint256"},{"internalType":"uint256","name":"teamBusiness","type":"uint256"},{"internalType":"uint256","name":"totalBusiness","type":"uint256"}],"stateMutability":"view","type":"function"},{"inputs":[{"internalType":"address","name":"_userAddress","type":"address"}],"name":"getUserCurrentUpgradeLevel","outputs":[{"internalType":"uint8","name":"currentUpgradeId","type":"uint8"},{"internalType":"uint256","name":"upgradedValue","type":"uint256"}],"stateMutability":"view","type":"function"},{"inputs":[{"internalType":"address","name":"_userAddress","type":"address"}],"name":"getUserRewards","outputs":[{"internalType":"uint256","name":"referralReward","type":"uint256"},{"internalType":"uint256","name":"weeklyReward","type":"uint256"},{"internalType":"uint256","name":"upgradeRewards","type":"uint256"}],"stateMutability":"view","type":"function"},{"inputs":[{"internalType":"address","name":"_userAddress","type":"address"}],"name":"getUserTeam","outputs":[{"internalType":"address","name":"referrer","type":"address"},{"internalType":"address[]","name":"referees","type":"address[]"},{"internalType":"uint256","name":"refereeCount","type":"uint256"},{"components":[{"internalType":"address","name":"referee","type":"address"},{"internalType":"address","name":"assignedTo","type":"address"}],"internalType":"struct RefereeStruct[]","name":"refereeAssigned","type":"tuple[]"},{"internalType":"uint256","name":"refereeAssignedCount","type":"uint256"},{"components":[{"internalType":"address","name":"teamMember","type":"address"},{"internalType":"uint8","name":"level","type":"uint8"}],"internalType":"struct TeamStruct[]","name":"team","type":"tuple[]"},{"internalType":"uint256","name":"teamCount","type":"uint256"}],"stateMutability":"view","type":"function"},{"inputs":[],"name":"getWeeklyRewardToBeDistributed","outputs":[{"internalType":"uint256","name":"_rewardValue","type":"uint256"},{"internalType":"uint256","name":"_remianingTime","type":"uint256"},{"internalType":"uint256","name":"_endTime","type":"uint256"}],"stateMutability":"view","type":"function"},{"inputs":[],"name":"initialize","outputs":[],"stateMutability":"nonpayable","type":"function"},{"inputs":[],"name":"owner","outputs":[{"internalType":"address","name":"","type":"address"}],"stateMutability":"view","type":"function"},{"inputs":[],"name":"proxiableUUID","outputs":[{"internalType":"bytes32","name":"","type":"bytes32"}],"stateMutability":"view","type":"function"},{"inputs":[{"internalType":"address","name":"_referrer","type":"address"}],"name":"registrationNative","outputs":[],"stateMutability":"payable","type":"function"},{"inputs":[],"name":"renounceOwnership","outputs":[],"stateMutability":"nonpayable","type":"function"},{"inputs":[],"name":"setDefaults","outputs":[],"stateMutability":"nonpayable","type":"function"},{"inputs":[{"internalType":"address","name":"newOwner","type":"address"}],"name":"transferOwnership","outputs":[],"stateMutability":"nonpayable","type":"function"},{"inputs":[{"internalType":"address","name":"newImplementation","type":"address"}],"name":"upgradeTo","outputs":[],"stateMutability":"nonpayable","type":"function"},{"inputs":[{"internalType":"address","name":"newImplementation","type":"address"},{"internalType":"bytes","name":"data","type":"bytes"}],"name":"upgradeToAndCall","outputs":[],"stateMutability":"payable","type":"function"},{"stateMutability":"payable","type":"receive"}],"evm":{"bytecode":{"linkReferences":{},"object":"60a06040523060805234801561001457600080fd5b50608051613df561004c600039600081816105b70152818161064101528181610742015281816107c701526108b10152613df56000f3fe6080604052600436106101125760003560e01c8063846688f7116100a5578063f2fde38b11610074578063f925017111610059578063f9250171146102fa578063faeda7e514610333578063fb47e0161461036657600080fd5b8063f2fde38b1461029a578063f87127b4146102ba57600080fd5b8063846688f7146102335780638da5cb5b14610248578063a7be6a7214610270578063ebd0f48f1461028557600080fd5b80634f1ef286116100e15780634f1ef286146101d357806352d1902d146101e6578063715018a6146102095780638129fc1c1461021e57600080fd5b80630690c6a81461011e578063078b0fb7146101635780633659cfe61461019e578063438c2f55146101c057600080fd5b3661011957005b600080fd5b34801561012a57600080fd5b5060c95460cb5460cc5460ce546040805163ffffffff909516855260208501939093529183015260608201526080015b60405180910390f35b34801561016f57600080fd5b5061018361017e36600461388e565b610393565b6040805193845260208401929092529082015260600161015a565b3480156101aa57600080fd5b506101be6101b936600461388e565b6105ad565b005b6101be6101ce36600461388e565b61072d565b6101be6101e13660046138bf565b610738565b3480156101f257600080fd5b506101fb6108a4565b60405190815260200161015a565b34801561021557600080fd5b506101be610969565b34801561022a57600080fd5b506101be61097d565b34801561023f57600080fd5b50610183610b82565b34801561025457600080fd5b506033546040516001600160a01b03909116815260200161015a565b34801561027c57600080fd5b506101be610bb8565b34801561029157600080fd5b506101be610c4f565b3480156102a657600080fd5b506101be6102b536600461388e565b610ec0565b3480156102c657600080fd5b506102da6102d536600461388e565b610f4d565b60408051948552602085019390935291830152606082015260800161015a565b34801561030657600080fd5b5061031a61031536600461388e565b611179565b6040805160ff909316835260208301919091520161015a565b34801561033f57600080fd5b5061035361034e36600461388e565b61138f565b60405161015a9796959493929190613a1d565b34801561037257600080fd5b5061038661038136600461388e565b6115d6565b60405161015a9190613af0565b6001600160a01b03808216600090815260dc6020908152604080832081516101e08101835281548616815260018201548616818501526002820154909516858301526003810180548351818602810186019094528084529495869586958695929493606086019392909183018282801561043657602002820191906000526020600020905b81546001600160a01b03168152600190910190602001808311610418575b5050505050815260200160048201805480602002602001604051908101604052809291908181526020016000905b828210156104af576000848152602090819020604080518082019091526002850290910180546001600160a01b03908116835260019182015416828401529083529092019101610464565b50505050815260200160058201805480602002602001604051908101604052809291908181526020016000905b8282101561052557600084815260209081902060408051808201909152908401546001600160a01b0381168252600160a01b900460ff16818301528252600190920191016104dc565b505050908252506006820154602082015260078201546040820152600882015460ff16606082015260098201546080820152600a82015460a0820152600b82015460c0820152600c82015460e0820152600d820154610100820152600e90910154610120909101526101608101516101808201516101a0909201519097919650945092505050565b6001600160a01b037f000000000000000000000000000000000000000000000000000000000000000016300361063f5760405162461bcd60e51b815260206004820152602c60248201527f46756e6374696f6e206d7573742062652063616c6c6564207468726f7567682060448201526b19195b1959d85d1958d85b1b60a21b60648201526084015b60405180910390fd5b7f00000000000000000000000000000000000000000000000000000000000000006001600160a01b031661069a7f360894a13ba1a3210667c828492db98dca3e2076cc3735a920a3ca505d382bbc546001600160a01b031690565b6001600160a01b0316146107055760405162461bcd60e51b815260206004820152602c60248201527f46756e6374696f6e206d7573742062652063616c6c6564207468726f7567682060448201526b6163746976652070726f787960a01b6064820152608401610636565b61070e81611865565b6040805160008082526020820190925261072a9183919061186d565b50565b61072a813334611a12565b6001600160a01b037f00000000000000000000000000000000000000000000000000000000000000001630036107c55760405162461bcd60e51b815260206004820152602c60248201527f46756e6374696f6e206d7573742062652063616c6c6564207468726f7567682060448201526b19195b1959d85d1958d85b1b60a21b6064820152608401610636565b7f00000000000000000000000000000000000000000000000000000000000000006001600160a01b03166108207f360894a13ba1a3210667c828492db98dca3e2076cc3735a920a3ca505d382bbc546001600160a01b031690565b6001600160a01b03161461088b5760405162461bcd60e51b815260206004820152602c60248201527f46756e6374696f6e206d7573742062652063616c6c6564207468726f7567682060448201526b6163746976652070726f787960a01b6064820152608401610636565b61089482611865565b6108a08282600161186d565b5050565b6000306001600160a01b037f000000000000000000000000000000000000000000000000000000000000000016146109445760405162461bcd60e51b815260206004820152603860248201527f555550535570677261646561626c653a206d757374206e6f742062652063616c60448201527f6c6564207468726f7567682064656c656761746563616c6c00000000000000006064820152608401610636565b507f360894a13ba1a3210667c828492db98dca3e2076cc3735a920a3ca505d382bbc90565b61097161222d565b61097b6000612287565b565b600054610100900460ff161580801561099d5750600054600160ff909116105b806109b75750303b1580156109b7575060005460ff166001145b610a295760405162461bcd60e51b815260206004820152602e60248201527f496e697469616c697a61626c653a20636f6e747261637420697320616c72656160448201527f647920696e697469616c697a65640000000000000000000000000000000000006064820152608401610636565b6000805460ff191660011790558015610a4c576000805461ff0019166101001790555b60d980546001600160a01b03191673eb1100091ce830ba58a04834c35d29b75b53eb7417905567016345785d8a000060da556040805160208101909152603c8152610a9b9060d69060016137bc565b5060d7805460ff19908116600a17909155600260d85560d08054741476b7c991c3ef93b6771fac97a984a2cb37962fbc74ffffffffffffffffffffffffffffffffffffffffff1990911617905560d280548216601017905560d4805490911660041790554260d55560db80546001600160a01b03191673efa6077f510b10a6c1b2f8da24a89fc561ac9445179055610b316122d9565b610b3961234c565b801561072a576000805461ff0019169055604051600181527f7f26b83ff96e1f2b6a682f133852f6798a09c465da95921460cefb3847402498906020015b60405180910390a150565b60d35460d5546000908190610b9a9062093a80613c2d565b90504280821115610bb257610baf8183613c40565b92505b50909192565b610bc061222d565b60d980546001600160a01b03908116600081815260dc602052604080822080546001600160a01b0319908116909417905584548416808352908220600101805490931617909155915460ca8054919092169290610c1f57610c1f613c53565b9060005260206000200160006101000a8154816001600160a01b0302191690836001600160a01b03160217905550565b60d35460d554600090610c659062093a80613c2d565b90504281811015610cb85760405162461bcd60e51b815260206004820152601c60248201527f5765656b6c792074696d65206973206e6f74206f766572207965742e000000006044820152606401610636565b60008311610d085760405162461bcd60e51b815260206004820152601860248201527f4e6f207265776172647320746f206469737472696275746500000000000000006044820152606401610636565b600060c9805480602002602001604051908101604052809291908181526020018280548015610d6057602002820191906000526020600020905b81546001600160a01b03168152600190910190602001808311610d42575b5050505050905060004244600143610d789190613c40565b6040805160208101949094528301919091524060608201526080016040516020818303038152906040528051906020012060001c90506000825182610dbd9190613c7f565b90506000838281518110610dd357610dd3613c53565b6020908102919091018101516001600160a01b038116600090815260dc90925260409091209091508715610eb6578781600c016000828254610e159190613c2d565b90915550506040516001600160a01b0383169089156108fc02908a906000818181858888f19350505050158015610e50573d6000803e3d6000fd5b50600060d38190554260d55560ce80548a9290610e6e908490613c2d565b9091555050604080516001600160a01b0384168152602081018a90527ffff6edc60fd30afefcc47525cdf85502200830b22550391f79f9e383df03afad910160405180910390a15b5050505050505050565b610ec861222d565b6001600160a01b038116610f445760405162461bcd60e51b815260206004820152602660248201527f4f776e61626c653a206e6577206f776e657220697320746865207a65726f206160448201527f64647265737300000000000000000000000000000000000000000000000000006064820152608401610636565b61072a81612287565b6001600160a01b03808216600090815260dc6020908152604080832081516101e081018352815486168152600182015486168185015260028201549095168583015260038101805483518186028101860190945280845294958695869586958695939460608601939192909190830182828015610ff357602002820191906000526020600020905b81546001600160a01b03168152600190910190602001808311610fd5575b5050505050815260200160048201805480602002602001604051908101604052809291908181526020016000905b8282101561106c576000848152602090819020604080518082019091526002850290910180546001600160a01b03908116835260019182015416828401529083529092019101611021565b50505050815260200160058201805480602002602001604051908101604052809291908181526020016000905b828210156110e257600084815260209081902060408051808201909152908401546001600160a01b0381168252600160a01b900460ff1681830152825260019092019101611099565b505050908252506006820154602082015260078201546040820152600882015460ff16606082015260098201546080820152600a82015460a0820152600b82015460c080830191909152600c83015460e0830152600d830154610100830152600e9092015461012091820152908201519082015161014083015191975095509350905061116f8584613c2d565b9150509193509193565b6001600160a01b03808216600090815260dc6020908152604080832081516101e081018352815486168152600182015486168185015260028201549095168583015260038101805483518186028101860190945280845294958695869591946060860193909290919083018282801561121b57602002820191906000526020600020905b81546001600160a01b031681526001909101906020018083116111fd575b5050505050815260200160048201805480602002602001604051908101604052809291908181526020016000905b82821015611294576000848152602090819020604080518082019091526002850290910180546001600160a01b03908116835260019182015416828401529083529092019101611249565b50505050815260200160058201805480602002602001604051908101604052809291908181526020016000905b8282101561130a57600084815260209081902060408051808201909152908401546001600160a01b0381168252600160a01b900460ff16818301528252600190920191016112c1565b505050908252506006820154602082015260078201546040820152600882015460ff16606082015260098201546080820152600a82015460a0820152600b82015460c0820152600c82015460e080830191909152600d83015461010080840191909152600e909301546101209092019190915290820151910151909590945092505050565b6001600160a01b03808216600090815260dc6020908152604080832081516101e0810183528154861681526001820154861681850152600282015490951685830152600381018054835181860281018601909452808452949560609587958795879587958795869590949293858901939092919083018282801561143c57602002820191906000526020600020905b81546001600160a01b0316815260019091019060200180831161141e575b5050505050815260200160048201805480602002602001604051908101604052809291908181526020016000905b828210156114b5576000848152602090819020604080518082019091526002850290910180546001600160a01b0390811683526001918201541682840152908352909201910161146a565b50505050815260200160058201805480602002602001604051908101604052809291908181526020016000905b8282101561152b57600084815260209081902060408051808201909152908401546001600160a01b0381168252600160a01b900460ff16818301528252600190920191016114e2565b50505090825250600682015460208201526007820154604080830191909152600883015460ff166060808401919091526009840154608080850191909152600a85015460a080860191909152600b86015460c0860152600c86015460e0860152600d860154610100860152600e90950154610120909401939093529084015190840151805192850151805195909401518051929f919e50929c50929a50929850965090945092505050565b61166d604051806101e0016040528060006001600160a01b0316815260200160006001600160a01b0316815260200160006001600160a01b031681526020016060815260200160608152602001606081526020016000815260200160008152602001600060ff1681526020016000815260200160008152602001600081526020016000815260200160008152602001600081525090565b6001600160a01b03808316600090815260dc602090815260409182902082516101e08101845281548516815260018201548516818401526002820154909416848401526003810180548451818502810185019095528085529193606086019390929083018282801561170857602002820191906000526020600020905b81546001600160a01b031681526001909101906020018083116116ea575b5050505050815260200160048201805480602002602001604051908101604052809291908181526020016000905b82821015611781576000848152602090819020604080518082019091526002850290910180546001600160a01b03908116835260019182015416828401529083529092019101611736565b50505050815260200160058201805480602002602001604051908101604052809291908181526020016000905b828210156117f757600084815260209081902060408051808201909152908401546001600160a01b0381168252600160a01b900460ff16818301528252600190920191016117ae565b505050908252506006820154602082015260078201546040820152600882015460ff16606082015260098201546080820152600a82015460a0820152600b82015460c0820152600c82015460e0820152600d820154610100820152600e909101546101209091015292915050565b61072a61222d565b7f4910fdfa16fed3260ed0e7147f7cc6da11a60208b5b9406d12a635614ffd91435460ff16156118a5576118a0836123b7565b505050565b826001600160a01b03166352d1902d6040518163ffffffff1660e01b8152600401602060405180830381865afa9250505080156118ff575060408051601f3d908101601f191682019092526118fc91810190613c93565b60015b6119715760405162461bcd60e51b815260206004820152602e60248201527f45524331393637557067726164653a206e657720696d706c656d656e7461746960448201527f6f6e206973206e6f7420555550530000000000000000000000000000000000006064820152608401610636565b7f360894a13ba1a3210667c828492db98dca3e2076cc3735a920a3ca505d382bbc8114611a065760405162461bcd60e51b815260206004820152602960248201527f45524331393637557067726164653a20756e737570706f727465642070726f7860448201527f6961626c655555494400000000000000000000000000000000000000000000006064820152608401610636565b506118a0838383612475565b60da5480821015611a8b5760405162461bcd60e51b815260206004820152602660248201527f56616c7565206973206c657373207468656e20726567697374726174696f6e2060448201527f76616c75652e00000000000000000000000000000000000000000000000000006064820152608401610636565b600060d6805480602002602001604051908101604052809291908181526020018280548015611af757602002820191906000526020600020906000905b825461010083900a900460ff16815260206001928301818104948501949093039092029101808411611ac85790505b505060d7546001600160a01b03808a16600090815260dc60205260408082208d84168352908220805498995060ff90941697919650945091925016611b505780546001600160a01b0319166001600160a01b038a161781555b81546001600160a01b0316611b795781546001600160a01b0319166001600160a01b0389161782555b8160060154600003611bd757815460c980546001810182556000919091527f66be4f155c5ef2ebd3772b228f2f00681e4ed5826cdb3b1943cc11ad15ad1d280180546001600160a01b0319166001600160a01b039092169190911790555b6006820180549088906000611bec8385613c2d565b90915550611bfc90508a8a6124a0565b600183015460028401548454604080516001600160a01b0394851681529284166020840152921681830152606081018a905290517f0411c58b3c1e8a39d91c901e5c807bff1401650beedc45aba65112756bb929b49181900360800190a16000606487600081518110611c7157611c71613c53565b602002602001015160ff168a611c879190613cac565b611c919190613cc3565b905081600003611d715760018401546001600160a01b03908116600090815260dc60205260409020805490911615611d6b5780546040516001600160a01b039091169083156108fc029084906000818181858888f19350505050158015611cfc573d6000803e3d6000fd5b508054604080516001600160a01b039283168152918d1660208301528101839052600160608201527f153f77382d7e07de734977ae352e9b1f5f8ad4b1c0033c883a9a33456a87836f9060800160405180910390a18181600b016000828254611d659190613c2d565b90915550505b50611e1c565b82546040516001600160a01b039091169082156108fc029083906000818181858888f19350505050158015611daa573d6000803e3d6000fd5b506002840154604080516001600160a01b039283168152918c1660208301528101829052600160608201527f153f77382d7e07de734977ae352e9b1f5f8ad4b1c0033c883a9a33456a87836f9060800160405180910390a18083600b016000828254611e169190613c2d565b90915550505b611e268186613c2d565b945060005b8660ff168160ff16101561209e57604080516101e08101825286546001600160a01b03908116825260018801548116602080840191909152600289015490911682840152600388018054845181840281018401909552808552612027948a936060860193919290830182828015611ecb57602002820191906000526020600020905b81546001600160a01b03168152600190910190602001808311611ead575b5050505050815260200160048201805480602002602001604051908101604052809291908181526020016000905b82821015611f44576000848152602090819020604080518082019091526002850290910180546001600160a01b03908116835260019182015416828401529083529092019101611ef9565b50505050815260200160058201805480602002602001604051908101604052809291908181526020016000905b82821015611fba57600084815260209081902060408051808201909152908401546001600160a01b0381168252600160a01b900460ff1681830152825260019092019101611f71565b505050908252506006820154602082015260078201546040820152600882015460ff16606082015260098201546080820152600a82015460a0820152600b82015460c0820152600c82015460e0820152600d820154610100820152600e90910154610120909101526132d8565b1561209e5760028501546001600160a01b0316600090815260dc60205260408120945060ff8216900361206e57898460090160008282546120689190613c2d565b90915550505b8984600a0160008282546120829190613c2d565b909155509394508493508061209681613cd7565b915050611e2b565b5060d0546000906064906120bc90600160a01b900460ff168c613cac565b6120c69190613cc3565b60d0546040519192506001600160a01b03169082156108fc029083906000818181858888f19350505050158015612101573d6000803e3d6000fd5b5060d054604080516001600160a01b039092168252602082018390527f5aa75bdb3269082e844d731608afae2a07cbf194f251e3f857b870af86b754fb910160405180910390a18560cc600082825461215a9190613c2d565b925050819055508960cb60008282546121739190613c2d565b909155505060d25460009060649061218e9060ff168d613cac565b6121989190613cc3565b60db546040519192506001600160a01b03169082156108fc029083906000818181858888f193505050501580156121d3573d6000803e3d6000fd5b508060d160008282546121e69190613c2d565b909155505060d4546064906121fe9060ff168d613cac565b6122089190613cc3565b60d360008282546122199190613c2d565b909155505050505050505050505050505050565b6033546001600160a01b0316331461097b5760405162461bcd60e51b815260206004820181905260248201527f4f776e61626c653a2063616c6c6572206973206e6f7420746865206f776e65726044820152606401610636565b603380546001600160a01b038381166001600160a01b0319831681179093556040519116919082907f8be0079c531659141344cd1fd0a4f28419497f9722a3daafe3b4186f6b6457e090600090a35050565b600054610100900460ff166123445760405162461bcd60e51b815260206004820152602b60248201527f496e697469616c697a61626c653a20636f6e7472616374206973206e6f74206960448201526a6e697469616c697a696e6760a81b6064820152608401610636565b61097b6132f7565b600054610100900460ff1661097b5760405162461bcd60e51b815260206004820152602b60248201527f496e697469616c697a61626c653a20636f6e7472616374206973206e6f74206960448201526a6e697469616c697a696e6760a81b6064820152608401610636565b6001600160a01b0381163b6124345760405162461bcd60e51b815260206004820152602d60248201527f455243313936373a206e657720696d706c656d656e746174696f6e206973206e60448201527f6f74206120636f6e7472616374000000000000000000000000000000000000006064820152608401610636565b7f360894a13ba1a3210667c828492db98dca3e2076cc3735a920a3ca505d382bbc80546001600160a01b0319166001600160a01b0392909216919091179055565b61247e8361336b565b60008251118061248b5750805b156118a05761249a83836133ab565b50505050565b6001600160a01b03808216600081815260dc60205260409020918416036125095760405162461bcd60e51b815260206004820152601a60248201527f596f752063616e6e6f7420726566657220796f757273656c662e0000000000006044820152606401610636565b604080516101e08101825282546001600160a01b039081168252600184015481166020808401919091526002850154909116828401526003840180548451818402810184019095528085526126119486936060860193919290830182828015611ecb576020028201919060005260206000209081546001600160a01b03168152600190910190602001808311611ead5750505050508152602001600482018054806020026020016040519081016040528092919081815260200160009082821015611f44576000848152602090819020604080518082019091526002850290910180546001600160a01b03908116835260019182015416828401529083529092019101611ef9565b61326c5760006001600160a01b038416612645575060d9546001600160a01b0316600090815260dc6020526040902061265f565b506001600160a01b038316600090815260dc602052604090205b604080516101e08101825282546001600160a01b0390811682526001840154811660208084019190915260028501549091168284015260038401805484518184028101840190955280855261284d94869360608601939192908301828280156126f157602002820191906000526020600020905b81546001600160a01b031681526001909101906020018083116126d3575b5050505050815260200160048201805480602002602001604051908101604052809291908181526020016000905b8282101561276a576000848152602090819020604080518082019091526002850290910180546001600160a01b0390811683526001918201541682840152908352909201910161271f565b50505050815260200160058201805480602002602001604051908101604052809291908181526020016000905b828210156127e057600084815260209081902060408051808201909152908401546001600160a01b0381168252600160a01b900460ff1681830152825260019092019101612797565b505050908252506006820154602082015260078201546040820152600882015460ff16606082015260098201546080820152600a82015460a0820152600b82015460c0820152600c82015460e0820152600d820154610100820152600e90910154610120909101526134b8565b612b835761285b81836134d0565b60038101805460018082018355600083815260209081902090920180546001600160a01b0319166001600160a01b0388811691909117909155604080516101e08101825286548316815292860154821683850152600286015490911682820152835481518185028101850190925280825261298b949293869360608601939290918301828280156126f1576020028201919060005260206000209081546001600160a01b031681526001909101906020018083116126d3575050505050815260200160048201805480602002602001604051908101604052809291908181526020016000908282101561276a576000848152602090819020604080518082019091526002850290910180546001600160a01b0390811683526001918201541682840152908352909201910161271f565b15612b7e57604080516101e08101825282546001600160a01b03908116825260018401548116602080840191909152600285015490911682840152600384018054845181840281018401909552808552612b7e9486936060860193919290830182828015612a2257602002820191906000526020600020905b81546001600160a01b03168152600190910190602001808311612a04575b5050505050815260200160048201805480602002602001604051908101604052809291908181526020016000905b82821015612a9b576000848152602090819020604080518082019091526002850290910180546001600160a01b03908116835260019182015416828401529083529092019101612a50565b50505050815260200160058201805480602002602001604051908101604052809291908181526020016000905b82821015612b1157600084815260209081902060408051808201909152908401546001600160a01b0381168252600160a01b900460ff1681830152825260019092019101612ac8565b505050908252506006820154602082015260078201546040820152600882015460ff16606082015260098201546080820152600a82015460a0820152600b82015460c0820152600c82015460e0820152600d820154610100820152600e909101546101209091015261356c565b612eac565b600060dc6000612b91613662565b6001600160a01b03166001600160a01b031681526020019081526020016000209050612bbd81846134d0565b604080516101e08101825282546001600160a01b03908116825260018401548116602080840191909152600285015490911682840152600384018054845181840281018401909552808552612cc594869360608601939192908301828280156126f1576020028201919060005260206000209081546001600160a01b031681526001909101906020018083116126d3575050505050815260200160048201805480602002602001604051908101604052809291908181526020016000908282101561276a576000848152602090819020604080518082019091526002850290910180546001600160a01b0390811683526001918201541682840152908352909201910161271f565b15612dd257604080516101e08101825282546001600160a01b03908116825260018401548116602080840191909152600285015490911682840152600384018054845181840281018401909552808552612dd29486936060860193919290830182828015612a22576020028201919060005260206000209081546001600160a01b03168152600190910190602001808311612a045750505050508152602001600482018054806020026020016040519081016040528092919081815260200160009082821015612a9b576000848152602090819020604080518082019091526002850290910180546001600160a01b03908116835260019182015416828401529083529092019101612a50565b81548154604080516001600160a01b03938416815291831660208301529186168183015290517fa1b30426557565c4fa85ce5f9c88513d7d3f49d21eb30569c249b07b037831ef9181900360600190a1604080518082019091526001600160a01b038086168083528354821660208085019182526004870180546001818101835560009283528383209751600290920290970180549187166001600160a01b031992831617815593519387018054949096169381169390931790945560039095018054948501815583529390912090910180549092161790555b81600e01546000036130a657604080516101e08101825283546001600160a01b039081168252600185015481166020808401919091526002860154909116828401526003850180548451818402810184019095528085526130a69487936060860193919290830182828015612f4a57602002820191906000526020600020905b81546001600160a01b03168152600190910190602001808311612f2c575b5050505050815260200160048201805480602002602001604051908101604052809291908181526020016000905b82821015612fc3576000848152602090819020604080518082019091526002850290910180546001600160a01b03908116835260019182015416828401529083529092019101612f78565b50505050815260200160058201805480602002602001604051908101604052809291908181526020016000905b8282101561303957600084815260209081902060408051808201909152908401546001600160a01b0381168252600160a01b900460ff1681830152825260019092019101612ff0565b505050908252506006820154602082015260078201546040820152600882015460ff16606082015260098201546080820152600a82015460a0820152600b82015460c0820152600c82015460e0820152600d820154610100820152600e90910154610120909101526136e9565b60018201546001600160a01b03166131245780546001830180546001600160a01b039283166001600160a01b0319909116811790915560028401546040805192835290831660208301529185168183015290517f8efa008f8ae98ae30d3219078a298c85bc25a62f50c57ed9a3ec838b7eed9f479181900360600190a15b60d75460ff1660005b8160ff168160ff1610156132645760028401546001600160a01b0316156132645760028401546001600160a01b03908116600090815260dc60209081526040918290208251808401909352928816825291945060058501918101613192846001613cf6565b60ff90811690915282546001818101855560009485526020948590208451920180549590940151909216600160a01b0274ffffffffffffffffffffffffffffffffffffffffff199094166001600160a01b03918216179390931790915584547f85db3f10b88ea7fc653f3f818097a3fc3c543196ed60cad2251df922bcc9ad7f9216908790613222908590613cf6565b604080516001600160a01b03948516815293909216602084015260ff169082015260600160405180910390a1829350808061325c90613cd7565b91505061312d565b505050505050565b7f1f4fff38c5e64af9e759d590409f022ea913658008bb1d0cd35e028244f01ecf6040516132cb906020808252601f908201527f5573657220416c72656164792068617665207265666572726572207365742e00604082015260600190565b60405180910390a1505050565b60408101516000906001600160a01b0316156132f2575060015b919050565b600054610100900460ff166133625760405162461bcd60e51b815260206004820152602b60248201527f496e697469616c697a61626c653a20636f6e7472616374206973206e6f74206960448201526a6e697469616c697a696e6760a81b6064820152608401610636565b61097b33612287565b613374816123b7565b6040516001600160a01b038216907fbc7cd75a20ee27fd9adebab32041f755214dbc6bffa90cc0225b39da2e5c2d3b90600090a250565b60606001600160a01b0383163b61342a5760405162461bcd60e51b815260206004820152602660248201527f416464726573733a2064656c65676174652063616c6c20746f206e6f6e2d636f60448201527f6e747261637400000000000000000000000000000000000000000000000000006064820152608401610636565b600080846001600160a01b0316846040516134459190613d33565b600060405180830381855af49150503d8060008114613480576040519150601f19603f3d011682016040523d82523d6000602084013e613485565b606091505b50915091506134ad8282604051806060016040528060278152602001613d9960279139613772565b925050505b92915050565b600060d854826060015151106132f257506001919050565b60018101546001600160a01b03166135095760018083015490820180546001600160a01b0319166001600160a01b039092169190911790555b81546002820180546001600160a01b0319166001600160a01b0392831617905582548254604080519284168352921660208201527fec49a3c8c4ae06c18160fe86119c381c9d213ac3e052ff35b594da8687b193c7910160405180910390a15050565b60ca805461357c90600190613c40565b8154811061358c5761358c613c53565b9060005260206000200160009054906101000a90046001600160a01b031660ca826101c00151815481106135c2576135c2613c53565b9060005260206000200160006101000a8154816001600160a01b0302191690836001600160a01b0316021790555060ca80548061360157613601613d4f565b600082815260209020810160001990810180546001600160a01b031916905501905580516040517f644b85583ba83e73113ffc0c122b165819ca11db493cd4cc38f5ba29138ffa1b91610b77916001600160a01b0391909116815260200190565b6000804244613672600143613c40565b60408051602081019490945283019190915240606082015260800160408051601f19818403018152919052805160209091012060ca549091506000906136b89083613c7f565b905060ca81815481106136cd576136cd613c53565b6000918252602090912001546001600160a01b03169392505050565b60ca80546101c0830181905282516001820183556000929092527f42d72674974f694b5f5159593243114d38a5c39c89d6b62fee061ff523240ee10180546001600160a01b0319166001600160a01b039283161790558151604051911681527f06baf10092c7ea144c4fb56fb8cf641e1f00e291a535b5d54b547eadb29485a790602001610b77565b6060831561378157508161378b565b61378b8383613792565b9392505050565b8151156137a25781518083602001fd5b8060405162461bcd60e51b81526004016106369190613d65565b82805482825590600052602060002090601f016020900481019282156138525791602002820160005b8382111561382357835183826101000a81548160ff021916908360ff16021790555092602001926001016020816000010492830192600103026137e5565b80156138505782816101000a81549060ff0219169055600101602081600001049283019260010302613823565b505b5061385e929150613862565b5090565b5b8082111561385e5760008155600101613863565b80356001600160a01b03811681146132f257600080fd5b6000602082840312156138a057600080fd5b61378b82613877565b634e487b7160e01b600052604160045260246000fd5b600080604083850312156138d257600080fd5b6138db83613877565b9150602083013567ffffffffffffffff808211156138f857600080fd5b818501915085601f83011261390c57600080fd5b81358181111561391e5761391e6138a9565b604051601f8201601f19908116603f01168101908382118183101715613946576139466138a9565b8160405282815288602084870101111561395f57600080fd5b8260208601602083013760006020848301015280955050505050509250929050565b600081518084526020808501945080840160005b838110156139cb57815180516001600160a01b039081168952602091820151169088015260408701965090820190600101613995565b509495945050505050565b600081518084526020808501945080840160005b838110156139cb57815180516001600160a01b0316885283015160ff1683880152604090960195908201906001016139ea565b600060e082016001600160a01b03808b168452602060e081860152828b5180855261010087019150828d01945060005b81811015613a6b578551851683529483019491830191600101613a4d565b50508a60408701528581036060870152613a85818b613981565b935050505085608084015282810360a0840152613aa281866139d6565b9150508260c083015298975050505050505050565b600081518084526020808501945080840160005b838110156139cb5781516001600160a01b031687529582019590820190600101613acb565b60208152613b0a6020820183516001600160a01b03169052565b60006020830151613b2660408401826001600160a01b03169052565b5060408301516001600160a01b03811660608401525060608301516101e0806080850152613b58610200850183613ab7565b91506080850151601f19808685030160a0870152613b768483613981565b935060a08701519150808685030160c087015250613b9483826139d6565b92505060c085015160e085015260e0850151610100818187015280870151915050610120613bc68187018360ff169052565b8601516101408681019190915286015161016080870191909152860151610180808701919091528601516101a0808701919091528601516101c0808701919091529095015193019290925250919050565b634e487b7160e01b600052601160045260246000fd5b808201808211156134b2576134b2613c17565b818103818111156134b2576134b2613c17565b634e487b7160e01b600052603260045260246000fd5b634e487b7160e01b600052601260045260246000fd5b600082613c8e57613c8e613c69565b500690565b600060208284031215613ca557600080fd5b5051919050565b80820281158282048414176134b2576134b2613c17565b600082613cd257613cd2613c69565b500490565b600060ff821660ff8103613ced57613ced613c17565b60010192915050565b60ff81811683821601908111156134b2576134b2613c17565b60005b83811015613d2a578181015183820152602001613d12565b50506000910152565b60008251613d45818460208701613d0f565b9190910192915050565b634e487b7160e01b600052603160045260246000fd5b6020815260008251806020840152613d84816040850160208701613d0f565b601f01601f1916919091016040019291505056fe416464726573733a206c6f772d6c6576656c2064656c65676174652063616c6c206661696c6564a264697066735822122079723689b01a1563a87d3f650847647766f06e7a7910e28b352b266f9fb61be364736f6c63430008120033","opcodes":"PUSH1 0xA0 PUSH1 0x40 MSTORE ADDRESS PUSH1 0x80 MSTORE CALLVALUE DUP1 ISZERO PUSH2 0x14 JUMPI PUSH1 0x0 DUP1 REVERT JUMPDEST POP PUSH1 0x80 MLOAD PUSH2 0x3DF5 PUSH2 0x4C PUSH1 0x0 CODECOPY PUSH1 0x0 DUP2 DUP2 PUSH2 0x5B7 ADD MSTORE DUP2 DUP2 PUSH2 0x641 ADD MSTORE DUP2 DUP2 PUSH2 0x742 ADD MSTORE DUP2 DUP2 PUSH2 0x7C7 ADD MSTORE PUSH2 0x8B1 ADD MSTORE PUSH2 0x3DF5 PUSH1 0x0 RETURN INVALID PUSH1 0x80 PUSH1 0x40 MSTORE PUSH1 0x4 CALLDATASIZE LT PUSH2 0x112 JUMPI PUSH1 0x0 CALLDATALOAD PUSH1 0xE0 SHR DUP1 PUSH4 0x846688F7 GT PUSH2 0xA5 JUMPI DUP1 PUSH4 0xF2FDE38B GT PUSH2 0x74 JUMPI DUP1 PUSH4 0xF9250171 GT PUSH2 0x59 JUMPI DUP1 PUSH4 0xF9250171 EQ PUSH2 0x2FA JUMPI DUP1 PUSH4 0xFAEDA7E5 EQ PUSH2 0x333 JUMPI DUP1 PUSH4 0xFB47E016 EQ PUSH2 0x366 JUMPI PUSH1 0x0 DUP1 REVERT JUMPDEST DUP1 PUSH4 0xF2FDE38B EQ PUSH2 0x29A JUMPI DUP1 PUSH4 0xF87127B4 EQ PUSH2 0x2BA JUMPI PUSH1 0x0 DUP1 REVERT JUMPDEST DUP1 PUSH4 0x846688F7 EQ PUSH2 0x233 JUMPI DUP1 PUSH4 0x8DA5CB5B EQ PUSH2 0x248 JUMPI DUP1 PUSH4 0xA7BE6A72 EQ PUSH2 0x270 JUMPI DUP1 PUSH4 0xEBD0F48F EQ PUSH2 0x285 JUMPI PUSH1 0x0 DUP1 REVERT JUMPDEST DUP1 PUSH4 0x4F1EF286 GT PUSH2 0xE1 JUMPI DUP1 PUSH4 0x4F1EF286 EQ PUSH2 0x1D3 JUMPI DUP1 PUSH4 0x52D1902D EQ PUSH2 0x1E6 JUMPI DUP1 PUSH4 0x715018A6 EQ PUSH2 0x209 JUMPI DUP1 PUSH4 0x8129FC1C EQ PUSH2 0x21E JUMPI PUSH1 0x0 DUP1 REVERT JUMPDEST DUP1 PUSH4 0x690C6A8 EQ PUSH2 0x11E JUMPI DUP1 PUSH4 0x78B0FB7 EQ PUSH2 0x163 JUMPI DUP1 PUSH4 0x3659CFE6 EQ PUSH2 0x19E JUMPI DUP1 PUSH4 0x438C2F55 EQ PUSH2 0x1C0 JUMPI PUSH1 0x0 DUP1 REVERT JUMPDEST CALLDATASIZE PUSH2 0x119 JUMPI STOP JUMPDEST PUSH1 0x0 DUP1 REVERT JUMPDEST CALLVALUE DUP1 ISZERO PUSH2 0x12A JUMPI PUSH1 0x0 DUP1 REVERT JUMPDEST POP PUSH1 0xC9 SLOAD PUSH1 0xCB SLOAD PUSH1 0xCC SLOAD PUSH1 0xCE SLOAD PUSH1 0x40 DUP1 MLOAD PUSH4 0xFFFFFFFF SWAP1 SWAP6 AND DUP6 MSTORE PUSH1 0x20 DUP6 ADD SWAP4 SWAP1 SWAP4 MSTORE SWAP2 DUP4 ADD MSTORE PUSH1 0x60 DUP3 ADD MSTORE PUSH1 0x80 ADD JUMPDEST PUSH1 0x40 MLOAD DUP1 SWAP2 SUB SWAP1 RETURN JUMPDEST CALLVALUE DUP1 ISZERO PUSH2 0x16F JUMPI PUSH1 0x0 DUP1 REVERT JUMPDEST POP PUSH2 0x183 PUSH2 0x17E CALLDATASIZE PUSH1 0x4 PUSH2 0x388E JUMP JUMPDEST PUSH2 0x393 JUMP JUMPDEST PUSH1 0x40 DUP1 MLOAD SWAP4 DUP5 MSTORE PUSH1 0x20 DUP5 ADD SWAP3 SWAP1 SWAP3 MSTORE SWAP1 DUP3 ADD MSTORE PUSH1 0x60 ADD PUSH2 0x15A JUMP JUMPDEST CALLVALUE DUP1 ISZERO PUSH2 0x1AA JUMPI PUSH1 0x0 DUP1 REVERT JUMPDEST POP PUSH2 0x1BE PUSH2 0x1B9 CALLDATASIZE PUSH1 0x4 PUSH2 0x388E JUMP JUMPDEST PUSH2 0x5AD JUMP JUMPDEST STOP JUMPDEST PUSH2 0x1BE PUSH2 0x1CE CALLDATASIZE PUSH1 0x4 PUSH2 0x388E JUMP JUMPDEST PUSH2 0x72D JUMP JUMPDEST PUSH2 0x1BE PUSH2 0x1E1 CALLDATASIZE PUSH1 0x4 PUSH2 0x38BF JUMP JUMPDEST PUSH2 0x738 JUMP JUMPDEST CALLVALUE DUP1 ISZERO PUSH2 0x1F2 JUMPI PUSH1 0x0 DUP1 REVERT JUMPDEST POP PUSH2 0x1FB PUSH2 0x8A4 JUMP JUMPDEST PUSH1 0x40 MLOAD SWAP1 DUP2 MSTORE PUSH1 0x20 ADD PUSH2 0x15A JUMP JUMPDEST CALLVALUE DUP1 ISZERO PUSH2 0x215 JUMPI PUSH1 0x0 DUP1 REVERT JUMPDEST POP PUSH2 0x1BE PUSH2 0x969 JUMP JUMPDEST CALLVALUE DUP1 ISZERO PUSH2 0x22A JUMPI PUSH1 0x0 DUP1 REVERT JUMPDEST POP PUSH2 0x1BE PUSH2 0x97D JUMP JUMPDEST CALLVALUE DUP1 ISZERO PUSH2 0x23F JUMPI PUSH1 0x0 DUP1 REVERT JUMPDEST POP PUSH2 0x183 PUSH2 0xB82 JUMP JUMPDEST CALLVALUE DUP1 ISZERO PUSH2 0x254 JUMPI PUSH1 0x0 DUP1 REVERT JUMPDEST POP PUSH1 0x33 SLOAD PUSH1 0x40 MLOAD PUSH1 0x1 PUSH1 0x1 PUSH1 0xA0 SHL SUB SWAP1 SWAP2 AND DUP2 MSTORE PUSH1 0x20 ADD PUSH2 0x15A JUMP JUMPDEST CALLVALUE DUP1 ISZERO PUSH2 0x27C JUMPI PUSH1 0x0 DUP1 REVERT JUMPDEST POP PUSH2 0x1BE PUSH2 0xBB8 JUMP JUMPDEST CALLVALUE DUP1 ISZERO PUSH2 0x291 JUMPI PUSH1 0x0 DUP1 REVERT JUMPDEST POP PUSH2 0x1BE PUSH2 0xC4F JUMP JUMPDEST CALLVALUE DUP1 ISZERO PUSH2 0x2A6 JUMPI PUSH1 0x0 DUP1 REVERT JUMPDEST POP PUSH2 0x1BE PUSH2 0x2B5 CALLDATASIZE PUSH1 0x4 PUSH2 0x388E JUMP JUMPDEST PUSH2 0xEC0 JUMP JUMPDEST CALLVALUE DUP1 ISZERO PUSH2 0x2C6 JUMPI PUSH1 0x0 DUP1 REVERT JUMPDEST POP PUSH2 0x2DA PUSH2 0x2D5 CALLDATASIZE PUSH1 0x4 PUSH2 0x388E JUMP JUMPDEST PUSH2 0xF4D JUMP JUMPDEST PUSH1 0x40 DUP1 MLOAD SWAP5 DUP6 MSTORE PUSH1 0x20 DUP6 ADD SWAP4 SWAP1 SWAP4 MSTORE SWAP2 DUP4 ADD MSTORE PUSH1 0x60 DUP3 ADD MSTORE PUSH1 0x80 ADD PUSH2 0x15A JUMP JUMPDEST CALLVALUE DUP1 ISZERO PUSH2 0x306 JUMPI PUSH1 0x0 DUP1 REVERT JUMPDEST POP PUSH2 0x31A PUSH2 0x315 CALLDATASIZE PUSH1 0x4 PUSH2 0x388E JUMP JUMPDEST PUSH2 0x1179 JUMP JUMPDEST PUSH1 0x40 DUP1 MLOAD PUSH1 0xFF SWAP1 SWAP4 AND DUP4 MSTORE PUSH1 0x20 DUP4 ADD SWAP2 SWAP1 SWAP2 MSTORE ADD PUSH2 0x15A JUMP JUMPDEST CALLVALUE DUP1 ISZERO PUSH2 0x33F JUMPI PUSH1 0x0 DUP1 REVERT JUMPDEST POP PUSH2 0x353 PUSH2 0x34E CALLDATASIZE PUSH1 0x4 PUSH2 0x388E JUMP JUMPDEST PUSH2 0x138F JUMP JUMPDEST PUSH1 0x40 MLOAD PUSH2 0x15A SWAP8 SWAP7 SWAP6 SWAP5 SWAP4 SWAP3 SWAP2 SWAP1 PUSH2 0x3A1D JUMP JUMPDEST CALLVALUE DUP1 ISZERO PUSH2 0x372 JUMPI PUSH1 0x0 DUP1 REVERT JUMPDEST POP PUSH2 0x386 PUSH2 0x381 CALLDATASIZE PUSH1 0x4 PUSH2 0x388E JUMP JUMPDEST PUSH2 0x15D6 JUMP JUMPDEST PUSH1 0x40 MLOAD PUSH2 0x15A SWAP2 SWAP1 PUSH2 0x3AF0 JUMP JUMPDEST PUSH1 0x1 PUSH1 0x1 PUSH1 0xA0 SHL SUB DUP1 DUP3 AND PUSH1 0x0 SWAP1 DUP2 MSTORE PUSH1 0xDC PUSH1 0x20 SWAP1 DUP2 MSTORE PUSH1 0x40 DUP1 DUP4 KECCAK256 DUP2 MLOAD PUSH2 0x1E0 DUP2 ADD DUP4 MSTORE DUP2 SLOAD DUP7 AND DUP2 MSTORE PUSH1 0x1 DUP3 ADD SLOAD DUP7 AND DUP2 DUP6 ADD MSTORE PUSH1 0x2 DUP3 ADD SLOAD SWAP1 SWAP6 AND DUP6 DUP4 ADD MSTORE PUSH1 0x3 DUP2 ADD DUP1 SLOAD DUP4 MLOAD DUP2 DUP7 MUL DUP2 ADD DUP7 ADD SWAP1 SWAP5 MSTORE DUP1 DUP5 MSTORE SWAP5 SWAP6 DUP7 SWAP6 DUP7 SWAP6 DUP7 SWAP6 SWAP3 SWAP5 SWAP4 PUSH1 0x60 DUP7 ADD SWAP4 SWAP3 SWAP1 SWAP2 DUP4 ADD DUP3 DUP3 DUP1 ISZERO PUSH2 0x436 JUMPI PUSH1 0x20 MUL DUP3 ADD SWAP2 SWAP1 PUSH1 0x0 MSTORE PUSH1 0x20 PUSH1 0x0 KECCAK256 SWAP1 JUMPDEST DUP2 SLOAD PUSH1 0x1 PUSH1 0x1 PUSH1 0xA0 SHL SUB AND DUP2 MSTORE PUSH1 0x1 SWAP1 SWAP2 ADD SWAP1 PUSH1 0x20 ADD DUP1 DUP4 GT PUSH2 0x418 JUMPI JUMPDEST POP POP POP POP POP DUP2 MSTORE PUSH1 0x20 ADD PUSH1 0x4 DUP3 ADD DUP1 SLOAD DUP1 PUSH1 0x20 MUL PUSH1 0x20 ADD PUSH1 0x40 MLOAD SWAP1 DUP2 ADD PUSH1 0x40 MSTORE DUP1 SWAP3 SWAP2 SWAP1 DUP2 DUP2 MSTORE PUSH1 0x20 ADD PUSH1 0x0 SWAP1 JUMPDEST DUP3 DUP3 LT ISZERO PUSH2 0x4AF JUMPI PUSH1 0x0 DUP5 DUP2 MSTORE PUSH1 0x20 SWAP1 DUP2 SWAP1 KECCAK256 PUSH1 0x40 DUP1 MLOAD DUP1 DUP3 ADD SWAP1 SWAP2 MSTORE PUSH1 0x2 DUP6 MUL SWAP1 SWAP2 ADD DUP1 SLOAD PUSH1 0x1 PUSH1 0x1 PUSH1 0xA0 SHL SUB SWAP1 DUP2 AND DUP4 MSTORE PUSH1 0x1 SWAP2 DUP3 ADD SLOAD AND DUP3 DUP5 ADD MSTORE SWAP1 DUP4 MSTORE SWAP1 SWAP3 ADD SWAP2 ADD PUSH2 0x464 JUMP JUMPDEST POP POP POP POP DUP2 MSTORE PUSH1 0x20 ADD PUSH1 0x5 DUP3 ADD DUP1 SLOAD DUP1 PUSH1 0x20 MUL PUSH1 0x20 ADD PUSH1 0x40 MLOAD SWAP1 DUP2 ADD PUSH1 0x40 MSTORE DUP1 SWAP3 SWAP2 SWAP1 DUP2 DUP2 MSTORE PUSH1 0x20 ADD PUSH1 0x0 SWAP1 JUMPDEST DUP3 DUP3 LT ISZERO PUSH2 0x525 JUMPI PUSH1 0x0 DUP5 DUP2 MSTORE PUSH1 0x20 SWAP1 DUP2 SWAP1 KECCAK256 PUSH1 0x40 DUP1 MLOAD DUP1 DUP3 ADD SWAP1 SWAP2 MSTORE SWAP1 DUP5 ADD SLOAD PUSH1 0x1 PUSH1 0x1 PUSH1 0xA0 SHL SUB DUP2 AND DUP3 MSTORE PUSH1 0x1 PUSH1 0xA0 SHL SWAP1 DIV PUSH1 0xFF AND DUP2 DUP4 ADD MSTORE DUP3 MSTORE PUSH1 0x1 SWAP1 SWAP3 ADD SWAP2 ADD PUSH2 0x4DC JUMP JUMPDEST POP POP POP SWAP1 DUP3 MSTORE POP PUSH1 0x6 DUP3 ADD SLOAD PUSH1 0x20 DUP3 ADD MSTORE PUSH1 0x7 DUP3 ADD SLOAD PUSH1 0x40 DUP3 ADD MSTORE PUSH1 0x8 DUP3 ADD SLOAD PUSH1 0xFF AND PUSH1 0x60 DUP3 ADD MSTORE PUSH1 0x9 DUP3 ADD SLOAD PUSH1 0x80 DUP3 ADD MSTORE PUSH1 0xA DUP3 ADD SLOAD PUSH1 0xA0 DUP3 ADD MSTORE PUSH1 0xB DUP3 ADD SLOAD PUSH1 0xC0 DUP3 ADD MSTORE PUSH1 0xC DUP3 ADD SLOAD PUSH1 0xE0 DUP3 ADD MSTORE PUSH1 0xD DUP3 ADD SLOAD PUSH2 0x100 DUP3 ADD MSTORE PUSH1 0xE SWAP1 SWAP2 ADD SLOAD PUSH2 0x120 SWAP1 SWAP2 ADD MSTORE PUSH2 0x160 DUP2 ADD MLOAD PUSH2 0x180 DUP3 ADD MLOAD PUSH2 0x1A0 SWAP1 SWAP3 ADD MLOAD SWAP1 SWAP8 SWAP2 SWAP7 POP SWAP5 POP SWAP3 POP POP POP JUMP JUMPDEST PUSH1 0x1 PUSH1 0x1 PUSH1 0xA0 SHL SUB PUSH32 0x0 AND ADDRESS SUB PUSH2 0x63F JUMPI PUSH1 0x40 MLOAD PUSH3 0x461BCD PUSH1 0xE5 SHL DUP2 MSTORE PUSH1 0x20 PUSH1 0x4 DUP3 ADD MSTORE PUSH1 0x2C PUSH1 0x24 DUP3 ADD MSTORE PUSH32 0x46756E6374696F6E206D7573742062652063616C6C6564207468726F75676820 PUSH1 0x44 DUP3 ADD MSTORE PUSH12 0x19195B1959D85D1958D85B1B PUSH1 0xA2 SHL PUSH1 0x64 DUP3 ADD MSTORE PUSH1 0x84 ADD JUMPDEST PUSH1 0x40 MLOAD DUP1 SWAP2 SUB SWAP1 REVERT JUMPDEST PUSH32 0x0 PUSH1 0x1 PUSH1 0x1 PUSH1 0xA0 SHL SUB AND PUSH2 0x69A PUSH32 0x360894A13BA1A3210667C828492DB98DCA3E2076CC3735A920A3CA505D382BBC SLOAD PUSH1 0x1 PUSH1 0x1 PUSH1 0xA0 SHL SUB AND SWAP1 JUMP JUMPDEST PUSH1 0x1 PUSH1 0x1 PUSH1 0xA0 SHL SUB AND EQ PUSH2 0x705 JUMPI PUSH1 0x40 MLOAD PUSH3 0x461BCD PUSH1 0xE5 SHL DUP2 MSTORE PUSH1 0x20 PUSH1 0x4 DUP3 ADD MSTORE PUSH1 0x2C PUSH1 0x24 DUP3 ADD MSTORE PUSH32 0x46756E6374696F6E206D7573742062652063616C6C6564207468726F75676820 PUSH1 0x44 DUP3 ADD MSTORE PUSH12 0x6163746976652070726F7879 PUSH1 0xA0 SHL PUSH1 0x64 DUP3 ADD MSTORE PUSH1 0x84 ADD PUSH2 0x636 JUMP JUMPDEST PUSH2 0x70E DUP2 PUSH2 0x1865 JUMP JUMPDEST PUSH1 0x40 DUP1 MLOAD PUSH1 0x0 DUP1 DUP3 MSTORE PUSH1 0x20 DUP3 ADD SWAP1 SWAP3 MSTORE PUSH2 0x72A SWAP2 DUP4 SWAP2 SWAP1 PUSH2 0x186D JUMP JUMPDEST POP JUMP JUMPDEST PUSH2 0x72A DUP2 CALLER CALLVALUE PUSH2 0x1A12 JUMP JUMPDEST PUSH1 0x1 PUSH1 0x1 PUSH1 0xA0 SHL SUB PUSH32 0x0 AND ADDRESS SUB PUSH2 0x7C5 JUMPI PUSH1 0x40 MLOAD PUSH3 0x461BCD PUSH1 0xE5 SHL DUP2 MSTORE PUSH1 0x20 PUSH1 0x4 DUP3 ADD MSTORE PUSH1 0x2C PUSH1 0x24 DUP3 ADD MSTORE PUSH32 0x46756E6374696F6E206D7573742062652063616C6C6564207468726F75676820 PUSH1 0x44 DUP3 ADD MSTORE PUSH12 0x19195B1959D85D1958D85B1B PUSH1 0xA2 SHL PUSH1 0x64 DUP3 ADD MSTORE PUSH1 0x84 ADD PUSH2 0x636 JUMP JUMPDEST PUSH32 0x0 PUSH1 0x1 PUSH1 0x1 PUSH1 0xA0 SHL SUB AND PUSH2 0x820 PUSH32 0x360894A13BA1A3210667C828492DB98DCA3E2076CC3735A920A3CA505D382BBC SLOAD PUSH1 0x1 PUSH1 0x1 PUSH1 0xA0 SHL SUB AND SWAP1 JUMP JUMPDEST PUSH1 0x1 PUSH1 0x1 PUSH1 0xA0 SHL SUB AND EQ PUSH2 0x88B JUMPI PUSH1 0x40 MLOAD PUSH3 0x461BCD PUSH1 0xE5 SHL DUP2 MSTORE PUSH1 0x20 PUSH1 0x4 DUP3 ADD MSTORE PUSH1 0x2C PUSH1 0x24 DUP3 ADD MSTORE PUSH32 0x46756E6374696F6E206D7573742062652063616C6C6564207468726F75676820 PUSH1 0x44 DUP3 ADD MSTORE PUSH12 0x6163746976652070726F7879 PUSH1 0xA0 SHL PUSH1 0x64 DUP3 ADD MSTORE PUSH1 0x84 ADD PUSH2 0x636 JUMP JUMPDEST PUSH2 0x894 DUP3 PUSH2 0x1865 JUMP JUMPDEST PUSH2 0x8A0 DUP3 DUP3 PUSH1 0x1 PUSH2 0x186D JUMP JUMPDEST POP POP JUMP JUMPDEST PUSH1 0x0 ADDRESS PUSH1 0x1 PUSH1 0x1 PUSH1 0xA0 SHL SUB PUSH32 0x0 AND EQ PUSH2 0x944 JUMPI PUSH1 0x40 MLOAD PUSH3 0x461BCD PUSH1 0xE5 SHL DUP2 MSTORE PUSH1 0x20 PUSH1 0x4 DUP3 ADD MSTORE PUSH1 0x38 PUSH1 0x24 DUP3 ADD MSTORE PUSH32 0x555550535570677261646561626C653A206D757374206E6F742062652063616C PUSH1 0x44 DUP3 ADD MSTORE PUSH32 0x6C6564207468726F7567682064656C656761746563616C6C0000000000000000 PUSH1 0x64 DUP3 ADD MSTORE PUSH1 0x84 ADD PUSH2 0x636 JUMP JUMPDEST POP PUSH32 0x360894A13BA1A3210667C828492DB98DCA3E2076CC3735A920A3CA505D382BBC SWAP1 JUMP JUMPDEST PUSH2 0x971 PUSH2 0x222D JUMP JUMPDEST PUSH2 0x97B PUSH1 0x0 PUSH2 0x2287 JUMP JUMPDEST JUMP JUMPDEST PUSH1 0x0 SLOAD PUSH2 0x100 SWAP1 DIV PUSH1 0xFF AND ISZERO DUP1 DUP1 ISZERO PUSH2 0x99D JUMPI POP PUSH1 0x0 SLOAD PUSH1 0x1 PUSH1 0xFF SWAP1 SWAP2 AND LT JUMPDEST DUP1 PUSH2 0x9B7 JUMPI POP ADDRESS EXTCODESIZE ISZERO DUP1 ISZERO PUSH2 0x9B7 JUMPI POP PUSH1 0x0 SLOAD PUSH1 0xFF AND PUSH1 0x1 EQ JUMPDEST PUSH2 0xA29 JUMPI PUSH1 0x40 MLOAD PUSH3 0x461BCD PUSH1 0xE5 SHL DUP2 MSTORE PUSH1 0x20 PUSH1 0x4 DUP3 ADD MSTORE PUSH1 0x2E PUSH1 0x24 DUP3 ADD MSTORE PUSH32 0x496E697469616C697A61626C653A20636F6E747261637420697320616C726561 PUSH1 0x44 DUP3 ADD MSTORE PUSH32 0x647920696E697469616C697A6564000000000000000000000000000000000000 PUSH1 0x64 DUP3 ADD MSTORE PUSH1 0x84 ADD PUSH2 0x636 JUMP JUMPDEST PUSH1 0x0 DUP1 SLOAD PUSH1 0xFF NOT AND PUSH1 0x1 OR SWAP1 SSTORE DUP1 ISZERO PUSH2 0xA4C JUMPI PUSH1 0x0 DUP1 SLOAD PUSH2 0xFF00 NOT AND PUSH2 0x100 OR SWAP1 SSTORE JUMPDEST PUSH1 0xD9 DUP1 SLOAD PUSH1 0x1 PUSH1 0x1 PUSH1 0xA0 SHL SUB NOT AND PUSH20 0xEB1100091CE830BA58A04834C35D29B75B53EB74 OR SWAP1 SSTORE PUSH8 0x16345785D8A0000 PUSH1 0xDA SSTORE PUSH1 0x40 DUP1 MLOAD PUSH1 0x20 DUP2 ADD SWAP1 SWAP2 MSTORE PUSH1 0x3C DUP2 MSTORE PUSH2 0xA9B SWAP1 PUSH1 0xD6 SWAP1 PUSH1 0x1 PUSH2 0x37BC JUMP JUMPDEST POP PUSH1 0xD7 DUP1 SLOAD PUSH1 0xFF NOT SWAP1 DUP2 AND PUSH1 0xA OR SWAP1 SWAP2 SSTORE PUSH1 0x2 PUSH1 0xD8 SSTORE PUSH1 0xD0 DUP1 SLOAD PUSH21 0x1476B7C991C3EF93B6771FAC97A984A2CB37962FBC PUSH21 0xFFFFFFFFFFFFFFFFFFFFFFFFFFFFFFFFFFFFFFFFFF NOT SWAP1 SWAP2 AND OR SWAP1 SSTORE PUSH1 0xD2 DUP1 SLOAD DUP3 AND PUSH1 0x10 OR SWAP1 SSTORE PUSH1 0xD4 DUP1 SLOAD SWAP1 SWAP2 AND PUSH1 0x4 OR SWAP1 SSTORE TIMESTAMP PUSH1 0xD5 SSTORE PUSH1 0xDB DUP1 SLOAD PUSH1 0x1 PUSH1 0x1 PUSH1 0xA0 SHL SUB NOT AND PUSH20 0xEFA6077F510B10A6C1B2F8DA24A89FC561AC9445 OR SWAP1 SSTORE PUSH2 0xB31 PUSH2 0x22D9 JUMP JUMPDEST PUSH2 0xB39 PUSH2 0x234C JUMP JUMPDEST DUP1 ISZERO PUSH2 0x72A JUMPI PUSH1 0x0 DUP1 SLOAD PUSH2 0xFF00 NOT AND SWAP1 SSTORE PUSH1 0x40 MLOAD PUSH1 0x1 DUP2 MSTORE PUSH32 0x7F26B83FF96E1F2B6A682F133852F6798A09C465DA95921460CEFB3847402498 SWAP1 PUSH1 0x20 ADD JUMPDEST PUSH1 0x40 MLOAD DUP1 SWAP2 SUB SWAP1 LOG1 POP JUMP JUMPDEST PUSH1 0xD3 SLOAD PUSH1 0xD5 SLOAD PUSH1 0x0 SWAP1 DUP2 SWAP1 PUSH2 0xB9A SWAP1 PUSH3 0x93A80 PUSH2 0x3C2D JUMP JUMPDEST SWAP1 POP TIMESTAMP DUP1 DUP3 GT ISZERO PUSH2 0xBB2 JUMPI PUSH2 0xBAF DUP2 DUP4 PUSH2 0x3C40 JUMP JUMPDEST SWAP3 POP JUMPDEST POP SWAP1 SWAP2 SWAP3 JUMP JUMPDEST PUSH2 0xBC0 PUSH2 0x222D JUMP JUMPDEST PUSH1 0xD9 DUP1 SLOAD PUSH1 0x1 PUSH1 0x1 PUSH1 0xA0 SHL SUB SWAP1 DUP2 AND PUSH1 0x0 DUP2 DUP2 MSTORE PUSH1 0xDC PUSH1 0x20 MSTORE PUSH1 0x40 DUP1 DUP3 KECCAK256 DUP1 SLOAD PUSH1 0x1 PUSH1 0x1 PUSH1 0xA0 SHL SUB NOT SWAP1 DUP2 AND SWAP1 SWAP5 OR SWAP1 SSTORE DUP5 SLOAD DUP5 AND DUP1 DUP4 MSTORE SWAP1 DUP3 KECCAK256 PUSH1 0x1 ADD DUP1 SLOAD SWAP1 SWAP4 AND OR SWAP1 SWAP2 SSTORE SWAP2 SLOAD PUSH1 0xCA DUP1 SLOAD SWAP2 SWAP1 SWAP3 AND SWAP3 SWAP1 PUSH2 0xC1F JUMPI PUSH2 0xC1F PUSH2 0x3C53 JUMP JUMPDEST SWAP1 PUSH1 0x0 MSTORE PUSH1 0x20 PUSH1 0x0 KECCAK256 ADD PUSH1 0x0 PUSH2 0x100 EXP DUP2 SLOAD DUP2 PUSH1 0x1 PUSH1 0x1 PUSH1 0xA0 SHL SUB MUL NOT AND SWAP1 DUP4 PUSH1 0x1 PUSH1 0x1 PUSH1 0xA0 SHL SUB AND MUL OR SWAP1 SSTORE POP JUMP JUMPDEST PUSH1 0xD3 SLOAD PUSH1 0xD5 SLOAD PUSH1 0x0 SWAP1 PUSH2 0xC65 SWAP1 PUSH3 0x93A80 PUSH2 0x3C2D JUMP JUMPDEST SWAP1 POP TIMESTAMP DUP2 DUP2 LT ISZERO PUSH2 0xCB8 JUMPI PUSH1 0x40 MLOAD PUSH3 0x461BCD PUSH1 0xE5 SHL DUP2 MSTORE PUSH1 0x20 PUSH1 0x4 DUP3 ADD MSTORE PUSH1 0x1C PUSH1 0x24 DUP3 ADD MSTORE PUSH32 0x5765656B6C792074696D65206973206E6F74206F766572207965742E00000000 PUSH1 0x44 DUP3 ADD MSTORE PUSH1 0x64 ADD PUSH2 0x636 JUMP JUMPDEST PUSH1 0x0 DUP4 GT PUSH2 0xD08 JUMPI PUSH1 0x40 MLOAD PUSH3 0x461BCD PUSH1 0xE5 SHL DUP2 MSTORE PUSH1 0x20 PUSH1 0x4 DUP3 ADD MSTORE PUSH1 0x18 PUSH1 0x24 DUP3 ADD MSTORE PUSH32 0x4E6F207265776172647320746F20646973747269627574650000000000000000 PUSH1 0x44 DUP3 ADD MSTORE PUSH1 0x64 ADD PUSH2 0x636 JUMP JUMPDEST PUSH1 0x0 PUSH1 0xC9 DUP1 SLOAD DUP1 PUSH1 0x20 MUL PUSH1 0x20 ADD PUSH1 0x40 MLOAD SWAP1 DUP2 ADD PUSH1 0x40 MSTORE DUP1 SWAP3 SWAP2 SWAP1 DUP2 DUP2 MSTORE PUSH1 0x20 ADD DUP3 DUP1 SLOAD DUP1 ISZERO PUSH2 0xD60 JUMPI PUSH1 0x20 MUL DUP3 ADD SWAP2 SWAP1 PUSH1 0x0 MSTORE PUSH1 0x20 PUSH1 0x0 KECCAK256 SWAP1 JUMPDEST DUP2 SLOAD PUSH1 0x1 PUSH1 0x1 PUSH1 0xA0 SHL SUB AND DUP2 MSTORE PUSH1 0x1 SWAP1 SWAP2 ADD SWAP1 PUSH1 0x20 ADD DUP1 DUP4 GT PUSH2 0xD42 JUMPI JUMPDEST POP POP POP POP POP SWAP1 POP PUSH1 0x0 TIMESTAMP PREVRANDAO PUSH1 0x1 NUMBER PUSH2 0xD78 SWAP2 SWAP1 PUSH2 0x3C40 JUMP JUMPDEST PUSH1 0x40 DUP1 MLOAD PUSH1 0x20 DUP2 ADD SWAP5 SWAP1 SWAP5 MSTORE DUP4 ADD SWAP2 SWAP1 SWAP2 MSTORE BLOCKHASH PUSH1 0x60 DUP3 ADD MSTORE PUSH1 0x80 ADD PUSH1 0x40 MLOAD PUSH1 0x20 DUP2 DUP4 SUB SUB DUP2 MSTORE SWAP1 PUSH1 0x40 MSTORE DUP1 MLOAD SWAP1 PUSH1 0x20 ADD KECCAK256 PUSH1 0x0 SHR SWAP1 POP PUSH1 0x0 DUP3 MLOAD DUP3 PUSH2 0xDBD SWAP2 SWAP1 PUSH2 0x3C7F JUMP JUMPDEST SWAP1 POP PUSH1 0x0 DUP4 DUP3 DUP2 MLOAD DUP2 LT PUSH2 0xDD3 JUMPI PUSH2 0xDD3 PUSH2 0x3C53 JUMP JUMPDEST PUSH1 0x20 SWAP1 DUP2 MUL SWAP2 SWAP1 SWAP2 ADD DUP2 ADD MLOAD PUSH1 0x1 PUSH1 0x1 PUSH1 0xA0 SHL SUB DUP2 AND PUSH1 0x0 SWAP1 DUP2 MSTORE PUSH1 0xDC SWAP1 SWAP3 MSTORE PUSH1 0x40 SWAP1 SWAP2 KECCAK256 SWAP1 SWAP2 POP DUP8 ISZERO PUSH2 0xEB6 JUMPI DUP8 DUP2 PUSH1 0xC ADD PUSH1 0x0 DUP3 DUP3 SLOAD PUSH2 0xE15 SWAP2 SWAP1 PUSH2 0x3C2D JUMP JUMPDEST SWAP1 SWAP2 SSTORE POP POP PUSH1 0x40 MLOAD PUSH1 0x1 PUSH1 0x1 PUSH1 0xA0 SHL SUB DUP4 AND SWAP1 DUP10 ISZERO PUSH2 0x8FC MUL SWAP1 DUP11 SWAP1 PUSH1 0x0 DUP2 DUP2 DUP2 DUP6 DUP9 DUP9 CALL SWAP4 POP POP POP POP ISZERO DUP1 ISZERO PUSH2 0xE50 JUMPI RETURNDATASIZE PUSH1 0x0 DUP1 RETURNDATACOPY RETURNDATASIZE PUSH1 0x0 REVERT JUMPDEST POP PUSH1 0x0 PUSH1 0xD3 DUP2 SWAP1 SSTORE TIMESTAMP PUSH1 0xD5 SSTORE PUSH1 0xCE DUP1 SLOAD DUP11 SWAP3 SWAP1 PUSH2 0xE6E SWAP1 DUP5 SWAP1 PUSH2 0x3C2D JUMP JUMPDEST SWAP1 SWAP2 SSTORE POP POP PUSH1 0x40 DUP1 MLOAD PUSH1 0x1 PUSH1 0x1 PUSH1 0xA0 SHL SUB DUP5 AND DUP2 MSTORE PUSH1 0x20 DUP2 ADD DUP11 SWAP1 MSTORE PUSH32 0xFFF6EDC60FD30AFEFCC47525CDF85502200830B22550391F79F9E383DF03AFAD SWAP2 ADD PUSH1 0x40 MLOAD DUP1 SWAP2 SUB SWAP1 LOG1 JUMPDEST POP POP POP POP POP POP POP POP JUMP JUMPDEST PUSH2 0xEC8 PUSH2 0x222D JUMP JUMPDEST PUSH1 0x1 PUSH1 0x1 PUSH1 0xA0 SHL SUB DUP2 AND PUSH2 0xF44 JUMPI PUSH1 0x40 MLOAD PUSH3 0x461BCD PUSH1 0xE5 SHL DUP2 MSTORE PUSH1 0x20 PUSH1 0x4 DUP3 ADD MSTORE PUSH1 0x26 PUSH1 0x24 DUP3 ADD MSTORE PUSH32 0x4F776E61626C653A206E6577206F776E657220697320746865207A65726F2061 PUSH1 0x44 DUP3 ADD MSTORE PUSH32 0x6464726573730000000000000000000000000000000000000000000000000000 PUSH1 0x64 DUP3 ADD MSTORE PUSH1 0x84 ADD PUSH2 0x636 JUMP JUMPDEST PUSH2 0x72A DUP2 PUSH2 0x2287 JUMP JUMPDEST PUSH1 0x1 PUSH1 0x1 PUSH1 0xA0 SHL SUB DUP1 DUP3 AND PUSH1 0x0 SWAP1 DUP2 MSTORE PUSH1 0xDC PUSH1 0x20 SWAP1 DUP2 MSTORE PUSH1 0x40 DUP1 DUP4 KECCAK256 DUP2 MLOAD PUSH2 0x1E0 DUP2 ADD DUP4 MSTORE DUP2 SLOAD DUP7 AND DUP2 MSTORE PUSH1 0x1 DUP3 ADD SLOAD DUP7 AND DUP2 DUP6 ADD MSTORE PUSH1 0x2 DUP3 ADD SLOAD SWAP1 SWAP6 AND DUP6 DUP4 ADD MSTORE PUSH1 0x3 DUP2 ADD DUP1 SLOAD DUP4 MLOAD DUP2 DUP7 MUL DUP2 ADD DUP7 ADD SWAP1 SWAP5 MSTORE DUP1 DUP5 MSTORE SWAP5 SWAP6 DUP7 SWAP6 DUP7 SWAP6 DUP7 SWAP6 DUP7 SWAP6 SWAP4 SWAP5 PUSH1 0x60 DUP7 ADD SWAP4 SWAP2 SWAP3 SWAP1 SWAP2 SWAP1 DUP4 ADD DUP3 DUP3 DUP1 ISZERO PUSH2 0xFF3 JUMPI PUSH1 0x20 MUL DUP3 ADD SWAP2 SWAP1 PUSH1 0x0 MSTORE PUSH1 0x20 PUSH1 0x0 KECCAK256 SWAP1 JUMPDEST DUP2 SLOAD PUSH1 0x1 PUSH1 0x1 PUSH1 0xA0 SHL SUB AND DUP2 MSTORE PUSH1 0x1 SWAP1 SWAP2 ADD SWAP1 PUSH1 0x20 ADD DUP1 DUP4 GT PUSH2 0xFD5 JUMPI JUMPDEST POP POP POP POP POP DUP2 MSTORE PUSH1 0x20 ADD PUSH1 0x4 DUP3 ADD DUP1 SLOAD DUP1 PUSH1 0x20 MUL PUSH1 0x20 ADD PUSH1 0x40 MLOAD SWAP1 DUP2 ADD PUSH1 0x40 MSTORE DUP1 SWAP3 SWAP2 SWAP1 DUP2 DUP2 MSTORE PUSH1 0x20 ADD PUSH1 0x0 SWAP1 JUMPDEST DUP3 DUP3 LT ISZERO PUSH2 0x106C JUMPI PUSH1 0x0 DUP5 DUP2 MSTORE PUSH1 0x20 SWAP1 DUP2 SWAP1 KECCAK256 PUSH1 0x40 DUP1 MLOAD DUP1 DUP3 ADD SWAP1 SWAP2 MSTORE PUSH1 0x2 DUP6 MUL SWAP1 SWAP2 ADD DUP1 SLOAD PUSH1 0x1 PUSH1 0x1 PUSH1 0xA0 SHL SUB SWAP1 DUP2 AND DUP4 MSTORE PUSH1 0x1 SWAP2 DUP3 ADD SLOAD AND DUP3 DUP5 ADD MSTORE SWAP1 DUP4 MSTORE SWAP1 SWAP3 ADD SWAP2 ADD PUSH2 0x1021 JUMP JUMPDEST POP POP POP POP DUP2 MSTORE PUSH1 0x20 ADD PUSH1 0x5 DUP3 ADD DUP1 SLOAD DUP1 PUSH1 0x20 MUL PUSH1 0x20 ADD PUSH1 0x40 MLOAD SWAP1 DUP2 ADD PUSH1 0x40 MSTORE DUP1 SWAP3 SWAP2 SWAP1 DUP2 DUP2 MSTORE PUSH1 0x20 ADD PUSH1 0x0 SWAP1 JUMPDEST DUP3 DUP3 LT ISZERO PUSH2 0x10E2 JUMPI PUSH1 0x0 DUP5 DUP2 MSTORE PUSH1 0x20 SWAP1 DUP2 SWAP1 KECCAK256 PUSH1 0x40 DUP1 MLOAD DUP1 DUP3 ADD SWAP1 SWAP2 MSTORE SWAP1 DUP5 ADD SLOAD PUSH1 0x1 PUSH1 0x1 PUSH1 0xA0 SHL SUB DUP2 AND DUP3 MSTORE PUSH1 0x1 PUSH1 0xA0 SHL SWAP1 DIV PUSH1 0xFF AND DUP2 DUP4 ADD MSTORE DUP3 MSTORE PUSH1 0x1 SWAP1 SWAP3 ADD SWAP2 ADD PUSH2 0x1099 JUMP JUMPDEST POP POP POP SWAP1 DUP3 MSTORE POP PUSH1 0x6 DUP3 ADD SLOAD PUSH1 0x20 DUP3 ADD MSTORE PUSH1 0x7 DUP3 ADD SLOAD PUSH1 0x40 DUP3 ADD MSTORE PUSH1 0x8 DUP3 ADD SLOAD PUSH1 0xFF AND PUSH1 0x60 DUP3 ADD MSTORE PUSH1 0x9 DUP3 ADD SLOAD PUSH1 0x80 DUP3 ADD MSTORE PUSH1 0xA DUP3 ADD SLOAD PUSH1 0xA0 DUP3 ADD MSTORE PUSH1 0xB DUP3 ADD SLOAD PUSH1 0xC0 DUP1 DUP4 ADD SWAP2 SWAP1 SWAP2 MSTORE PUSH1 0xC DUP4 ADD SLOAD PUSH1 0xE0 DUP4 ADD MSTORE PUSH1 0xD DUP4 ADD SLOAD PUSH2 0x100 DUP4 ADD MSTORE PUSH1 0xE SWAP1 SWAP3 ADD SLOAD PUSH2 0x120 SWAP2 DUP3 ADD MSTORE SWAP1 DUP3 ADD MLOAD SWAP1 DUP3 ADD MLOAD PUSH2 0x140 DUP4 ADD MLOAD SWAP2 SWAP8 POP SWAP6 POP SWAP4 POP SWAP1 POP PUSH2 0x116F DUP6 DUP5 PUSH2 0x3C2D JUMP JUMPDEST SWAP2 POP POP SWAP2 SWAP4 POP SWAP2 SWAP4 JUMP JUMPDEST PUSH1 0x1 PUSH1 0x1 PUSH1 0xA0 SHL SUB DUP1 DUP3 AND PUSH1 0x0 SWAP1 DUP2 MSTORE PUSH1 0xDC PUSH1 0x20 SWAP1 DUP2 MSTORE PUSH1 0x40 DUP1 DUP4 KECCAK256 DUP2 MLOAD PUSH2 0x1E0 DUP2 ADD DUP4 MSTORE DUP2 SLOAD DUP7 AND DUP2 MSTORE PUSH1 0x1 DUP3 ADD SLOAD DUP7 AND DUP2 DUP6 ADD MSTORE PUSH1 0x2 DUP3 ADD SLOAD SWAP1 SWAP6 AND DUP6 DUP4 ADD MSTORE PUSH1 0x3 DUP2 ADD DUP1 SLOAD DUP4 MLOAD DUP2 DUP7 MUL DUP2 ADD DUP7 ADD SWAP1 SWAP5 MSTORE DUP1 DUP5 MSTORE SWAP5 SWAP6 DUP7 SWAP6 DUP7 SWAP6 SWAP2 SWAP5 PUSH1 0x60 DUP7 ADD SWAP4 SWAP1 SWAP3 SWAP1 SWAP2 SWAP1 DUP4 ADD DUP3 DUP3 DUP1 ISZERO PUSH2 0x121B JUMPI PUSH1 0x20 MUL DUP3 ADD SWAP2 SWAP1 PUSH1 0x0 MSTORE PUSH1 0x20 PUSH1 0x0 KECCAK256 SWAP1 JUMPDEST DUP2 SLOAD PUSH1 0x1 PUSH1 0x1 PUSH1 0xA0 SHL SUB AND DUP2 MSTORE PUSH1 0x1 SWAP1 SWAP2 ADD SWAP1 PUSH1 0x20 ADD DUP1 DUP4 GT PUSH2 0x11FD JUMPI JUMPDEST POP POP POP POP POP DUP2 MSTORE PUSH1 0x20 ADD PUSH1 0x4 DUP3 ADD DUP1 SLOAD DUP1 PUSH1 0x20 MUL PUSH1 0x20 ADD PUSH1 0x40 MLOAD SWAP1 DUP2 ADD PUSH1 0x40 MSTORE DUP1 SWAP3 SWAP2 SWAP1 DUP2 DUP2 MSTORE PUSH1 0x20 ADD PUSH1 0x0 SWAP1 JUMPDEST DUP3 DUP3 LT ISZERO PUSH2 0x1294 JUMPI PUSH1 0x0 DUP5 DUP2 MSTORE PUSH1 0x20 SWAP1 DUP2 SWAP1 KECCAK256 PUSH1 0x40 DUP1 MLOAD DUP1 DUP3 ADD SWAP1 SWAP2 MSTORE PUSH1 0x2 DUP6 MUL SWAP1 SWAP2 ADD DUP1 SLOAD PUSH1 0x1 PUSH1 0x1 PUSH1 0xA0 SHL SUB SWAP1 DUP2 AND DUP4 MSTORE PUSH1 0x1 SWAP2 DUP3 ADD SLOAD AND DUP3 DUP5 ADD MSTORE SWAP1 DUP4 MSTORE SWAP1 SWAP3 ADD SWAP2 ADD PUSH2 0x1249 JUMP JUMPDEST POP POP POP POP DUP2 MSTORE PUSH1 0x20 ADD PUSH1 0x5 DUP3 ADD DUP1 SLOAD DUP1 PUSH1 0x20 MUL PUSH1 0x20 ADD PUSH1 0x40 MLOAD SWAP1 DUP2 ADD PUSH1 0x40 MSTORE DUP1 SWAP3 SWAP2 SWAP1 DUP2 DUP2 MSTORE PUSH1 0x20 ADD PUSH1 0x0 SWAP1 JUMPDEST DUP3 DUP3 LT ISZERO PUSH2 0x130A JUMPI PUSH1 0x0 DUP5 DUP2 MSTORE PUSH1 0x20 SWAP1 DUP2 SWAP1 KECCAK256 PUSH1 0x40 DUP1 MLOAD DUP1 DUP3 ADD SWAP1 SWAP2 MSTORE SWAP1 DUP5 ADD SLOAD PUSH1 0x1 PUSH1 0x1 PUSH1 0xA0 SHL SUB DUP2 AND DUP3 MSTORE PUSH1 0x1 PUSH1 0xA0 SHL SWAP1 DIV PUSH1 0xFF AND DUP2 DUP4 ADD MSTORE DUP3 MSTORE PUSH1 0x1 SWAP1 SWAP3 ADD SWAP2 ADD PUSH2 0x12C1 JUMP JUMPDEST POP POP POP SWAP1 DUP3 MSTORE POP PUSH1 0x6 DUP3 ADD SLOAD PUSH1 0x20 DUP3 ADD MSTORE PUSH1 0x7 DUP3 ADD SLOAD PUSH1 0x40 DUP3 ADD MSTORE PUSH1 0x8 DUP3 ADD SLOAD PUSH1 0xFF AND PUSH1 0x60 DUP3 ADD MSTORE PUSH1 0x9 DUP3 ADD SLOAD PUSH1 0x80 DUP3 ADD MSTORE PUSH1 0xA DUP3 ADD SLOAD PUSH1 0xA0 DUP3 ADD MSTORE PUSH1 0xB DUP3 ADD SLOAD PUSH1 0xC0 DUP3 ADD MSTORE PUSH1 0xC DUP3 ADD SLOAD PUSH1 0xE0 DUP1 DUP4 ADD SWAP2 SWAP1 SWAP2 MSTORE PUSH1 0xD DUP4 ADD SLOAD PUSH2 0x100 DUP1 DUP5 ADD SWAP2 SWAP1 SWAP2 MSTORE PUSH1 0xE SWAP1 SWAP4 ADD SLOAD PUSH2 0x120 SWAP1 SWAP3 ADD SWAP2 SWAP1 SWAP2 MSTORE SWAP1 DUP3 ADD MLOAD SWAP2 ADD MLOAD SWAP1 SWAP6 SWAP1 SWAP5 POP SWAP3 POP POP POP JUMP JUMPDEST PUSH1 0x1 PUSH1 0x1 PUSH1 0xA0 SHL SUB DUP1 DUP3 AND PUSH1 0x0 SWAP1 DUP2 MSTORE PUSH1 0xDC PUSH1 0x20 SWAP1 DUP2 MSTORE PUSH1 0x40 DUP1 DUP4 KECCAK256 DUP2 MLOAD PUSH2 0x1E0 DUP2 ADD DUP4 MSTORE DUP2 SLOAD DUP7 AND DUP2 MSTORE PUSH1 0x1 DUP3 ADD SLOAD DUP7 AND DUP2 DUP6 ADD MSTORE PUSH1 0x2 DUP3 ADD SLOAD SWAP1 SWAP6 AND DUP6 DUP4 ADD MSTORE PUSH1 0x3 DUP2 ADD DUP1 SLOAD DUP4 MLOAD DUP2 DUP7 MUL DUP2 ADD DUP7 ADD SWAP1 SWAP5 MSTORE DUP1 DUP5 MSTORE SWAP5 SWAP6 PUSH1 0x60 SWAP6 DUP8 SWAP6 DUP8 SWAP6 DUP8 SWAP6 DUP8 SWAP6 DUP8 SWAP6 DUP7 SWAP6 SWAP1 SWAP5 SWAP3 SWAP4 DUP6 DUP10 ADD SWAP4 SWAP1 SWAP3 SWAP2 SWAP1 DUP4 ADD DUP3 DUP3 DUP1 ISZERO PUSH2 0x143C JUMPI PUSH1 0x20 MUL DUP3 ADD SWAP2 SWAP1 PUSH1 0x0 MSTORE PUSH1 0x20 PUSH1 0x0 KECCAK256 SWAP1 JUMPDEST DUP2 SLOAD PUSH1 0x1 PUSH1 0x1 PUSH1 0xA0 SHL SUB AND DUP2 MSTORE PUSH1 0x1 SWAP1 SWAP2 ADD SWAP1 PUSH1 0x20 ADD DUP1 DUP4 GT PUSH2 0x141E JUMPI JUMPDEST POP POP POP POP POP DUP2 MSTORE PUSH1 0x20 ADD PUSH1 0x4 DUP3 ADD DUP1 SLOAD DUP1 PUSH1 0x20 MUL PUSH1 0x20 ADD PUSH1 0x40 MLOAD SWAP1 DUP2 ADD PUSH1 0x40 MSTORE DUP1 SWAP3 SWAP2 SWAP1 DUP2 DUP2 MSTORE PUSH1 0x20 ADD PUSH1 0x0 SWAP1 JUMPDEST DUP3 DUP3 LT ISZERO PUSH2 0x14B5 JUMPI PUSH1 0x0 DUP5 DUP2 MSTORE PUSH1 0x20 SWAP1 DUP2 SWAP1 KECCAK256 PUSH1 0x40 DUP1 MLOAD DUP1 DUP3 ADD SWAP1 SWAP2 MSTORE PUSH1 0x2 DUP6 MUL SWAP1 SWAP2 ADD DUP1 SLOAD PUSH1 0x1 PUSH1 0x1 PUSH1 0xA0 SHL SUB SWAP1 DUP2 AND DUP4 MSTORE PUSH1 0x1 SWAP2 DUP3 ADD SLOAD AND DUP3 DUP5 ADD MSTORE SWAP1 DUP4 MSTORE SWAP1 SWAP3 ADD SWAP2 ADD PUSH2 0x146A JUMP JUMPDEST POP POP POP POP DUP2 MSTORE PUSH1 0x20 ADD PUSH1 0x5 DUP3 ADD DUP1 SLOAD DUP1 PUSH1 0x20 MUL PUSH1 0x20 ADD PUSH1 0x40 MLOAD SWAP1 DUP2 ADD PUSH1 0x40 MSTORE DUP1 SWAP3 SWAP2 SWAP1 DUP2 DUP2 MSTORE PUSH1 0x20 ADD PUSH1 0x0 SWAP1 JUMPDEST DUP3 DUP3 LT ISZERO PUSH2 0x152B JUMPI PUSH1 0x0 DUP5 DUP2 MSTORE PUSH1 0x20 SWAP1 DUP2 SWAP1 KECCAK256 PUSH1 0x40 DUP1 MLOAD DUP1 DUP3 ADD SWAP1 SWAP2 MSTORE SWAP1 DUP5 ADD SLOAD PUSH1 0x1 PUSH1 0x1 PUSH1 0xA0 SHL SUB DUP2 AND DUP3 MSTORE PUSH1 0x1 PUSH1 0xA0 SHL SWAP1 DIV PUSH1 0xFF AND DUP2 DUP4 ADD MSTORE DUP3 MSTORE PUSH1 0x1 SWAP1 SWAP3 ADD SWAP2 ADD PUSH2 0x14E2 JUMP JUMPDEST POP POP POP SWAP1 DUP3 MSTORE POP PUSH1 0x6 DUP3 ADD SLOAD PUSH1 0x20 DUP3 ADD MSTORE PUSH1 0x7 DUP3 ADD SLOAD PUSH1 0x40 DUP1 DUP4 ADD SWAP2 SWAP1 SWAP2 MSTORE PUSH1 0x8 DUP4 ADD SLOAD PUSH1 0xFF AND PUSH1 0x60 DUP1 DUP5 ADD SWAP2 SWAP1 SWAP2 MSTORE PUSH1 0x9 DUP5 ADD SLOAD PUSH1 0x80 DUP1 DUP6 ADD SWAP2 SWAP1 SWAP2 MSTORE PUSH1 0xA DUP6 ADD SLOAD PUSH1 0xA0 DUP1 DUP7 ADD SWAP2 SWAP1 SWAP2 MSTORE PUSH1 0xB DUP7 ADD SLOAD PUSH1 0xC0 DUP7 ADD MSTORE PUSH1 0xC DUP7 ADD SLOAD PUSH1 0xE0 DUP7 ADD MSTORE PUSH1 0xD DUP7 ADD SLOAD PUSH2 0x100 DUP7 ADD MSTORE PUSH1 0xE SWAP1 SWAP6 ADD SLOAD PUSH2 0x120 SWAP1 SWAP5 ADD SWAP4 SWAP1 SWAP4 MSTORE SWAP1 DUP5 ADD MLOAD SWAP1 DUP5 ADD MLOAD DUP1 MLOAD SWAP3 DUP6 ADD MLOAD DUP1 MLOAD SWAP6 SWAP1 SWAP5 ADD MLOAD DUP1 MLOAD SWAP3 SWAP16 SWAP2 SWAP15 POP SWAP3 SWAP13 POP SWAP3 SWAP11 POP SWAP3 SWAP9 POP SWAP7 POP SWAP1 SWAP5 POP SWAP3 POP POP POP JUMP JUMPDEST PUSH2 0x166D PUSH1 0x40 MLOAD DUP1 PUSH2 0x1E0 ADD PUSH1 0x40 MSTORE DUP1 PUSH1 0x0 PUSH1 0x1 PUSH1 0x1 PUSH1 0xA0 SHL SUB AND DUP2 MSTORE PUSH1 0x20 ADD PUSH1 0x0 PUSH1 0x1 PUSH1 0x1 PUSH1 0xA0 SHL SUB AND DUP2 MSTORE PUSH1 0x20 ADD PUSH1 0x0 PUSH1 0x1 PUSH1 0x1 PUSH1 0xA0 SHL SUB AND DUP2 MSTORE PUSH1 0x20 ADD PUSH1 0x60 DUP2 MSTORE PUSH1 0x20 ADD PUSH1 0x60 DUP2 MSTORE PUSH1 0x20 ADD PUSH1 0x60 DUP2 MSTORE PUSH1 0x20 ADD PUSH1 0x0 DUP2 MSTORE PUSH1 0x20 ADD PUSH1 0x0 DUP2 MSTORE PUSH1 0x20 ADD PUSH1 0x0 PUSH1 0xFF AND DUP2 MSTORE PUSH1 0x20 ADD PUSH1 0x0 DUP2 MSTORE PUSH1 0x20 ADD PUSH1 0x0 DUP2 MSTORE PUSH1 0x20 ADD PUSH1 0x0 DUP2 MSTORE PUSH1 0x20 ADD PUSH1 0x0 DUP2 MSTORE PUSH1 0x20 ADD PUSH1 0x0 DUP2 MSTORE PUSH1 0x20 ADD PUSH1 0x0 DUP2 MSTORE POP SWAP1 JUMP JUMPDEST PUSH1 0x1 PUSH1 0x1 PUSH1 0xA0 SHL SUB DUP1 DUP4 AND PUSH1 0x0 SWAP1 DUP2 MSTORE PUSH1 0xDC PUSH1 0x20 SWAP1 DUP2 MSTORE PUSH1 0x40 SWAP2 DUP3 SWAP1 KECCAK256 DUP3 MLOAD PUSH2 0x1E0 DUP2 ADD DUP5 MSTORE DUP2 SLOAD DUP6 AND DUP2 MSTORE PUSH1 0x1 DUP3 ADD SLOAD DUP6 AND DUP2 DUP5 ADD MSTORE PUSH1 0x2 DUP3 ADD SLOAD SWAP1 SWAP5 AND DUP5 DUP5 ADD MSTORE PUSH1 0x3 DUP2 ADD DUP1 SLOAD DUP5 MLOAD DUP2 DUP6 MUL DUP2 ADD DUP6 ADD SWAP1 SWAP6 MSTORE DUP1 DUP6 MSTORE SWAP2 SWAP4 PUSH1 0x60 DUP7 ADD SWAP4 SWAP1 SWAP3 SWAP1 DUP4 ADD DUP3 DUP3 DUP1 ISZERO PUSH2 0x1708 JUMPI PUSH1 0x20 MUL DUP3 ADD SWAP2 SWAP1 PUSH1 0x0 MSTORE PUSH1 0x20 PUSH1 0x0 KECCAK256 SWAP1 JUMPDEST DUP2 SLOAD PUSH1 0x1 PUSH1 0x1 PUSH1 0xA0 SHL SUB AND DUP2 MSTORE PUSH1 0x1 SWAP1 SWAP2 ADD SWAP1 PUSH1 0x20 ADD DUP1 DUP4 GT PUSH2 0x16EA JUMPI JUMPDEST POP POP POP POP POP DUP2 MSTORE PUSH1 0x20 ADD PUSH1 0x4 DUP3 ADD DUP1 SLOAD DUP1 PUSH1 0x20 MUL PUSH1 0x20 ADD PUSH1 0x40 MLOAD SWAP1 DUP2 ADD PUSH1 0x40 MSTORE DUP1 SWAP3 SWAP2 SWAP1 DUP2 DUP2 MSTORE PUSH1 0x20 ADD PUSH1 0x0 SWAP1 JUMPDEST DUP3 DUP3 LT ISZERO PUSH2 0x1781 JUMPI PUSH1 0x0 DUP5 DUP2 MSTORE PUSH1 0x20 SWAP1 DUP2 SWAP1 KECCAK256 PUSH1 0x40 DUP1 MLOAD DUP1 DUP3 ADD SWAP1 SWAP2 MSTORE PUSH1 0x2 DUP6 MUL SWAP1 SWAP2 ADD DUP1 SLOAD PUSH1 0x1 PUSH1 0x1 PUSH1 0xA0 SHL SUB SWAP1 DUP2 AND DUP4 MSTORE PUSH1 0x1 SWAP2 DUP3 ADD SLOAD AND DUP3 DUP5 ADD MSTORE SWAP1 DUP4 MSTORE SWAP1 SWAP3 ADD SWAP2 ADD PUSH2 0x1736 JUMP JUMPDEST POP POP POP POP DUP2 MSTORE PUSH1 0x20 ADD PUSH1 0x5 DUP3 ADD DUP1 SLOAD DUP1 PUSH1 0x20 MUL PUSH1 0x20 ADD PUSH1 0x40 MLOAD SWAP1 DUP2 ADD PUSH1 0x40 MSTORE DUP1 SWAP3 SWAP2 SWAP1 DUP2 DUP2 MSTORE PUSH1 0x20 ADD PUSH1 0x0 SWAP1 JUMPDEST DUP3 DUP3 LT ISZERO PUSH2 0x17F7 JUMPI PUSH1 0x0 DUP5 DUP2 MSTORE PUSH1 0x20 SWAP1 DUP2 SWAP1 KECCAK256 PUSH1 0x40 DUP1 MLOAD DUP1 DUP3 ADD SWAP1 SWAP2 MSTORE SWAP1 DUP5 ADD SLOAD PUSH1 0x1 PUSH1 0x1 PUSH1 0xA0 SHL SUB DUP2 AND DUP3 MSTORE PUSH1 0x1 PUSH1 0xA0 SHL SWAP1 DIV PUSH1 0xFF AND DUP2 DUP4 ADD MSTORE DUP3 MSTORE PUSH1 0x1 SWAP1 SWAP3 ADD SWAP2 ADD PUSH2 0x17AE JUMP JUMPDEST POP POP POP SWAP1 DUP3 MSTORE POP PUSH1 0x6 DUP3 ADD SLOAD PUSH1 0x20 DUP3 ADD MSTORE PUSH1 0x7 DUP3 ADD SLOAD PUSH1 0x40 DUP3 ADD MSTORE PUSH1 0x8 DUP3 ADD SLOAD PUSH1 0xFF AND PUSH1 0x60 DUP3 ADD MSTORE PUSH1 0x9 DUP3 ADD SLOAD PUSH1 0x80 DUP3 ADD MSTORE PUSH1 0xA DUP3 ADD SLOAD PUSH1 0xA0 DUP3 ADD MSTORE PUSH1 0xB DUP3 ADD SLOAD PUSH1 0xC0 DUP3 ADD MSTORE PUSH1 0xC DUP3 ADD SLOAD PUSH1 0xE0 DUP3 ADD MSTORE PUSH1 0xD DUP3 ADD SLOAD PUSH2 0x100 DUP3 ADD MSTORE PUSH1 0xE SWAP1 SWAP2 ADD SLOAD PUSH2 0x120 SWAP1 SWAP2 ADD MSTORE SWAP3 SWAP2 POP POP JUMP JUMPDEST PUSH2 0x72A PUSH2 0x222D JUMP JUMPDEST PUSH32 0x4910FDFA16FED3260ED0E7147F7CC6DA11A60208B5B9406D12A635614FFD9143 SLOAD PUSH1 0xFF AND ISZERO PUSH2 0x18A5 JUMPI PUSH2 0x18A0 DUP4 PUSH2 0x23B7 JUMP JUMPDEST POP POP POP JUMP JUMPDEST DUP3 PUSH1 0x1 PUSH1 0x1 PUSH1 0xA0 SHL SUB AND PUSH4 0x52D1902D PUSH1 0x40 MLOAD DUP2 PUSH4 0xFFFFFFFF AND PUSH1 0xE0 SHL DUP2 MSTORE PUSH1 0x4 ADD PUSH1 0x20 PUSH1 0x40 MLOAD DUP1 DUP4 SUB DUP2 DUP7 GAS STATICCALL SWAP3 POP POP POP DUP1 ISZERO PUSH2 0x18FF JUMPI POP PUSH1 0x40 DUP1 MLOAD PUSH1 0x1F RETURNDATASIZE SWAP1 DUP2 ADD PUSH1 0x1F NOT AND DUP3 ADD SWAP1 SWAP3 MSTORE PUSH2 0x18FC SWAP2 DUP2 ADD SWAP1 PUSH2 0x3C93 JUMP JUMPDEST PUSH1 0x1 JUMPDEST PUSH2 0x1971 JUMPI PUSH1 0x40 MLOAD PUSH3 0x461BCD PUSH1 0xE5 SHL DUP2 MSTORE PUSH1 0x20 PUSH1 0x4 DUP3 ADD MSTORE PUSH1 0x2E PUSH1 0x24 DUP3 ADD MSTORE PUSH32 0x45524331393637557067726164653A206E657720696D706C656D656E74617469 PUSH1 0x44 DUP3 ADD MSTORE PUSH32 0x6F6E206973206E6F742055555053000000000000000000000000000000000000 PUSH1 0x64 DUP3 ADD MSTORE PUSH1 0x84 ADD PUSH2 0x636 JUMP JUMPDEST PUSH32 0x360894A13BA1A3210667C828492DB98DCA3E2076CC3735A920A3CA505D382BBC DUP2 EQ PUSH2 0x1A06 JUMPI PUSH1 0x40 MLOAD PUSH3 0x461BCD PUSH1 0xE5 SHL DUP2 MSTORE PUSH1 0x20 PUSH1 0x4 DUP3 ADD MSTORE PUSH1 0x29 PUSH1 0x24 DUP3 ADD MSTORE PUSH32 0x45524331393637557067726164653A20756E737570706F727465642070726F78 PUSH1 0x44 DUP3 ADD MSTORE PUSH32 0x6961626C65555549440000000000000000000000000000000000000000000000 PUSH1 0x64 DUP3 ADD MSTORE PUSH1 0x84 ADD PUSH2 0x636 JUMP JUMPDEST POP PUSH2 0x18A0 DUP4 DUP4 DUP4 PUSH2 0x2475 JUMP JUMPDEST PUSH1 0xDA SLOAD DUP1 DUP3 LT ISZERO PUSH2 0x1A8B JUMPI PUSH1 0x40 MLOAD PUSH3 0x461BCD PUSH1 0xE5 SHL DUP2 MSTORE PUSH1 0x20 PUSH1 0x4 DUP3 ADD MSTORE PUSH1 0x26 PUSH1 0x24 DUP3 ADD MSTORE PUSH32 0x56616C7565206973206C657373207468656E20726567697374726174696F6E20 PUSH1 0x44 DUP3 ADD MSTORE PUSH32 0x76616C75652E0000000000000000000000000000000000000000000000000000 PUSH1 0x64 DUP3 ADD MSTORE PUSH1 0x84 ADD PUSH2 0x636 JUMP JUMPDEST PUSH1 0x0 PUSH1 0xD6 DUP1 SLOAD DUP1 PUSH1 0x20 MUL PUSH1 0x20 ADD PUSH1 0x40 MLOAD SWAP1 DUP2 ADD PUSH1 0x40 MSTORE DUP1 SWAP3 SWAP2 SWAP1 DUP2 DUP2 MSTORE PUSH1 0x20 ADD DUP3 DUP1 SLOAD DUP1 ISZERO PUSH2 0x1AF7 JUMPI PUSH1 0x20 MUL DUP3 ADD SWAP2 SWAP1 PUSH1 0x0 MSTORE PUSH1 0x20 PUSH1 0x0 KECCAK256 SWAP1 PUSH1 0x0 SWAP1 JUMPDEST DUP3 SLOAD PUSH2 0x100 DUP4 SWAP1 EXP SWAP1 DIV PUSH1 0xFF AND DUP2 MSTORE PUSH1 0x20 PUSH1 0x1 SWAP3 DUP4 ADD DUP2 DUP2 DIV SWAP5 DUP6 ADD SWAP5 SWAP1 SWAP4 SUB SWAP1 SWAP3 MUL SWAP2 ADD DUP1 DUP5 GT PUSH2 0x1AC8 JUMPI SWAP1 POP JUMPDEST POP POP PUSH1 0xD7 SLOAD PUSH1 0x1 PUSH1 0x1 PUSH1 0xA0 SHL SUB DUP1 DUP11 AND PUSH1 0x0 SWAP1 DUP2 MSTORE PUSH1 0xDC PUSH1 0x20 MSTORE PUSH1 0x40 DUP1 DUP3 KECCAK256 DUP14 DUP5 AND DUP4 MSTORE SWAP1 DUP3 KECCAK256 DUP1 SLOAD SWAP9 SWAP10 POP PUSH1 0xFF SWAP1 SWAP5 AND SWAP8 SWAP2 SWAP7 POP SWAP5 POP SWAP2 SWAP3 POP AND PUSH2 0x1B50 JUMPI DUP1 SLOAD PUSH1 0x1 PUSH1 0x1 PUSH1 0xA0 SHL SUB NOT AND PUSH1 0x1 PUSH1 0x1 PUSH1 0xA0 SHL SUB DUP11 AND OR DUP2 SSTORE JUMPDEST DUP2 SLOAD PUSH1 0x1 PUSH1 0x1 PUSH1 0xA0 SHL SUB AND PUSH2 0x1B79 JUMPI DUP2 SLOAD PUSH1 0x1 PUSH1 0x1 PUSH1 0xA0 SHL SUB NOT AND PUSH1 0x1 PUSH1 0x1 PUSH1 0xA0 SHL SUB DUP10 AND OR DUP3 SSTORE JUMPDEST DUP2 PUSH1 0x6 ADD SLOAD PUSH1 0x0 SUB PUSH2 0x1BD7 JUMPI DUP2 SLOAD PUSH1 0xC9 DUP1 SLOAD PUSH1 0x1 DUP2 ADD DUP3 SSTORE PUSH1 0x0 SWAP2 SWAP1 SWAP2 MSTORE PUSH32 0x66BE4F155C5EF2EBD3772B228F2F00681E4ED5826CDB3B1943CC11AD15AD1D28 ADD DUP1 SLOAD PUSH1 0x1 PUSH1 0x1 PUSH1 0xA0 SHL SUB NOT AND PUSH1 0x1 PUSH1 0x1 PUSH1 0xA0 SHL SUB SWAP1 SWAP3 AND SWAP2 SWAP1 SWAP2 OR SWAP1 SSTORE JUMPDEST PUSH1 0x6 DUP3 ADD DUP1 SLOAD SWAP1 DUP9 SWAP1 PUSH1 0x0 PUSH2 0x1BEC DUP4 DUP6 PUSH2 0x3C2D JUMP JUMPDEST SWAP1 SWAP2 SSTORE POP PUSH2 0x1BFC SWAP1 POP DUP11 DUP11 PUSH2 0x24A0 JUMP JUMPDEST PUSH1 0x1 DUP4 ADD SLOAD PUSH1 0x2 DUP5 ADD SLOAD DUP5 SLOAD PUSH1 0x40 DUP1 MLOAD PUSH1 0x1 PUSH1 0x1 PUSH1 0xA0 SHL SUB SWAP5 DUP6 AND DUP2 MSTORE SWAP3 DUP5 AND PUSH1 0x20 DUP5 ADD MSTORE SWAP3 AND DUP2 DUP4 ADD MSTORE PUSH1 0x60 DUP2 ADD DUP11 SWAP1 MSTORE SWAP1 MLOAD PUSH32 0x411C58B3C1E8A39D91C901E5C807BFF1401650BEEDC45ABA65112756BB929B4 SWAP2 DUP2 SWAP1 SUB PUSH1 0x80 ADD SWAP1 LOG1 PUSH1 0x0 PUSH1 0x64 DUP8 PUSH1 0x0 DUP2 MLOAD DUP2 LT PUSH2 0x1C71 JUMPI PUSH2 0x1C71 PUSH2 0x3C53 JUMP JUMPDEST PUSH1 0x20 MUL PUSH1 0x20 ADD ADD MLOAD PUSH1 0xFF AND DUP11 PUSH2 0x1C87 SWAP2 SWAP1 PUSH2 0x3CAC JUMP JUMPDEST PUSH2 0x1C91 SWAP2 SWAP1 PUSH2 0x3CC3 JUMP JUMPDEST SWAP1 POP DUP2 PUSH1 0x0 SUB PUSH2 0x1D71 JUMPI PUSH1 0x1 DUP5 ADD SLOAD PUSH1 0x1 PUSH1 0x1 PUSH1 0xA0 SHL SUB SWAP1 DUP2 AND PUSH1 0x0 SWAP1 DUP2 MSTORE PUSH1 0xDC PUSH1 0x20 MSTORE PUSH1 0x40 SWAP1 KECCAK256 DUP1 SLOAD SWAP1 SWAP2 AND ISZERO PUSH2 0x1D6B JUMPI DUP1 SLOAD PUSH1 0x40 MLOAD PUSH1 0x1 PUSH1 0x1 PUSH1 0xA0 SHL SUB SWAP1 SWAP2 AND SWAP1 DUP4 ISZERO PUSH2 0x8FC MUL SWAP1 DUP5 SWAP1 PUSH1 0x0 DUP2 DUP2 DUP2 DUP6 DUP9 DUP9 CALL SWAP4 POP POP POP POP ISZERO DUP1 ISZERO PUSH2 0x1CFC JUMPI RETURNDATASIZE PUSH1 0x0 DUP1 RETURNDATACOPY RETURNDATASIZE PUSH1 0x0 REVERT JUMPDEST POP DUP1 SLOAD PUSH1 0x40 DUP1 MLOAD PUSH1 0x1 PUSH1 0x1 PUSH1 0xA0 SHL SUB SWAP3 DUP4 AND DUP2 MSTORE SWAP2 DUP14 AND PUSH1 0x20 DUP4 ADD MSTORE DUP2 ADD DUP4 SWAP1 MSTORE PUSH1 0x1 PUSH1 0x60 DUP3 ADD MSTORE PUSH32 0x153F77382D7E07DE734977AE352E9B1F5F8AD4B1C0033C883A9A33456A87836F SWAP1 PUSH1 0x80 ADD PUSH1 0x40 MLOAD DUP1 SWAP2 SUB SWAP1 LOG1 DUP2 DUP2 PUSH1 0xB ADD PUSH1 0x0 DUP3 DUP3 SLOAD PUSH2 0x1D65 SWAP2 SWAP1 PUSH2 0x3C2D JUMP JUMPDEST SWAP1 SWAP2 SSTORE POP POP JUMPDEST POP PUSH2 0x1E1C JUMP JUMPDEST DUP3 SLOAD PUSH1 0x40 MLOAD PUSH1 0x1 PUSH1 0x1 PUSH1 0xA0 SHL SUB SWAP1 SWAP2 AND SWAP1 DUP3 ISZERO PUSH2 0x8FC MUL SWAP1 DUP4 SWAP1 PUSH1 0x0 DUP2 DUP2 DUP2 DUP6 DUP9 DUP9 CALL SWAP4 POP POP POP POP ISZERO DUP1 ISZERO PUSH2 0x1DAA JUMPI RETURNDATASIZE PUSH1 0x0 DUP1 RETURNDATACOPY RETURNDATASIZE PUSH1 0x0 REVERT JUMPDEST POP PUSH1 0x2 DUP5 ADD SLOAD PUSH1 0x40 DUP1 MLOAD PUSH1 0x1 PUSH1 0x1 PUSH1 0xA0 SHL SUB SWAP3 DUP4 AND DUP2 MSTORE SWAP2 DUP13 AND PUSH1 0x20 DUP4 ADD MSTORE DUP2 ADD DUP3 SWAP1 MSTORE PUSH1 0x1 PUSH1 0x60 DUP3 ADD MSTORE PUSH32 0x153F77382D7E07DE734977AE352E9B1F5F8AD4B1C0033C883A9A33456A87836F SWAP1 PUSH1 0x80 ADD PUSH1 0x40 MLOAD DUP1 SWAP2 SUB SWAP1 LOG1 DUP1 DUP4 PUSH1 0xB ADD PUSH1 0x0 DUP3 DUP3 SLOAD PUSH2 0x1E16 SWAP2 SWAP1 PUSH2 0x3C2D JUMP JUMPDEST SWAP1 SWAP2 SSTORE POP POP JUMPDEST PUSH2 0x1E26 DUP2 DUP7 PUSH2 0x3C2D JUMP JUMPDEST SWAP5 POP PUSH1 0x0 JUMPDEST DUP7 PUSH1 0xFF AND DUP2 PUSH1 0xFF AND LT ISZERO PUSH2 0x209E JUMPI PUSH1 0x40 DUP1 MLOAD PUSH2 0x1E0 DUP2 ADD DUP3 MSTORE DUP7 SLOAD PUSH1 0x1 PUSH1 0x1 PUSH1 0xA0 SHL SUB SWAP1 DUP2 AND DUP3 MSTORE PUSH1 0x1 DUP9 ADD SLOAD DUP2 AND PUSH1 0x20 DUP1 DUP5 ADD SWAP2 SWAP1 SWAP2 MSTORE PUSH1 0x2 DUP10 ADD SLOAD SWAP1 SWAP2 AND DUP3 DUP5 ADD MSTORE PUSH1 0x3 DUP9 ADD DUP1 SLOAD DUP5 MLOAD DUP2 DUP5 MUL DUP2 ADD DUP5 ADD SWAP1 SWAP6 MSTORE DUP1 DUP6 MSTORE PUSH2 0x2027 SWAP5 DUP11 SWAP4 PUSH1 0x60 DUP7 ADD SWAP4 SWAP2 SWAP3 SWAP1 DUP4 ADD DUP3 DUP3 DUP1 ISZERO PUSH2 0x1ECB JUMPI PUSH1 0x20 MUL DUP3 ADD SWAP2 SWAP1 PUSH1 0x0 MSTORE PUSH1 0x20 PUSH1 0x0 KECCAK256 SWAP1 JUMPDEST DUP2 SLOAD PUSH1 0x1 PUSH1 0x1 PUSH1 0xA0 SHL SUB AND DUP2 MSTORE PUSH1 0x1 SWAP1 SWAP2 ADD SWAP1 PUSH1 0x20 ADD DUP1 DUP4 GT PUSH2 0x1EAD JUMPI JUMPDEST POP POP POP POP POP DUP2 MSTORE PUSH1 0x20 ADD PUSH1 0x4 DUP3 ADD DUP1 SLOAD DUP1 PUSH1 0x20 MUL PUSH1 0x20 ADD PUSH1 0x40 MLOAD SWAP1 DUP2 ADD PUSH1 0x40 MSTORE DUP1 SWAP3 SWAP2 SWAP1 DUP2 DUP2 MSTORE PUSH1 0x20 ADD PUSH1 0x0 SWAP1 JUMPDEST DUP3 DUP3 LT ISZERO PUSH2 0x1F44 JUMPI PUSH1 0x0 DUP5 DUP2 MSTORE PUSH1 0x20 SWAP1 DUP2 SWAP1 KECCAK256 PUSH1 0x40 DUP1 MLOAD DUP1 DUP3 ADD SWAP1 SWAP2 MSTORE PUSH1 0x2 DUP6 MUL SWAP1 SWAP2 ADD DUP1 SLOAD PUSH1 0x1 PUSH1 0x1 PUSH1 0xA0 SHL SUB SWAP1 DUP2 AND DUP4 MSTORE PUSH1 0x1 SWAP2 DUP3 ADD SLOAD AND DUP3 DUP5 ADD MSTORE SWAP1 DUP4 MSTORE SWAP1 SWAP3 ADD SWAP2 ADD PUSH2 0x1EF9 JUMP JUMPDEST POP POP POP POP DUP2 MSTORE PUSH1 0x20 ADD PUSH1 0x5 DUP3 ADD DUP1 SLOAD DUP1 PUSH1 0x20 MUL PUSH1 0x20 ADD PUSH1 0x40 MLOAD SWAP1 DUP2 ADD PUSH1 0x40 MSTORE DUP1 SWAP3 SWAP2 SWAP1 DUP2 DUP2 MSTORE PUSH1 0x20 ADD PUSH1 0x0 SWAP1 JUMPDEST DUP3 DUP3 LT ISZERO PUSH2 0x1FBA JUMPI PUSH1 0x0 DUP5 DUP2 MSTORE PUSH1 0x20 SWAP1 DUP2 SWAP1 KECCAK256 PUSH1 0x40 DUP1 MLOAD DUP1 DUP3 ADD SWAP1 SWAP2 MSTORE SWAP1 DUP5 ADD SLOAD PUSH1 0x1 PUSH1 0x1 PUSH1 0xA0 SHL SUB DUP2 AND DUP3 MSTORE PUSH1 0x1 PUSH1 0xA0 SHL SWAP1 DIV PUSH1 0xFF AND DUP2 DUP4 ADD MSTORE DUP3 MSTORE PUSH1 0x1 SWAP1 SWAP3 ADD SWAP2 ADD PUSH2 0x1F71 JUMP JUMPDEST POP POP POP SWAP1 DUP3 MSTORE POP PUSH1 0x6 DUP3 ADD SLOAD PUSH1 0x20 DUP3 ADD MSTORE PUSH1 0x7 DUP3 ADD SLOAD PUSH1 0x40 DUP3 ADD MSTORE PUSH1 0x8 DUP3 ADD SLOAD PUSH1 0xFF AND PUSH1 0x60 DUP3 ADD MSTORE PUSH1 0x9 DUP3 ADD SLOAD PUSH1 0x80 DUP3 ADD MSTORE PUSH1 0xA DUP3 ADD SLOAD PUSH1 0xA0 DUP3 ADD MSTORE PUSH1 0xB DUP3 ADD SLOAD PUSH1 0xC0 DUP3 ADD MSTORE PUSH1 0xC DUP3 ADD SLOAD PUSH1 0xE0 DUP3 ADD MSTORE PUSH1 0xD DUP3 ADD SLOAD PUSH2 0x100 DUP3 ADD MSTORE PUSH1 0xE SWAP1 SWAP2 ADD SLOAD PUSH2 0x120 SWAP1 SWAP2 ADD MSTORE PUSH2 0x32D8 JUMP JUMPDEST ISZERO PUSH2 0x209E JUMPI PUSH1 0x2 DUP6 ADD SLOAD PUSH1 0x1 PUSH1 0x1 PUSH1 0xA0 SHL SUB AND PUSH1 0x0 SWAP1 DUP2 MSTORE PUSH1 0xDC PUSH1 0x20 MSTORE PUSH1 0x40 DUP2 KECCAK256 SWAP5 POP PUSH1 0xFF DUP3 AND SWAP1 SUB PUSH2 0x206E JUMPI DUP10 DUP5 PUSH1 0x9 ADD PUSH1 0x0 DUP3 DUP3 SLOAD PUSH2 0x2068 SWAP2 SWAP1 PUSH2 0x3C2D JUMP JUMPDEST SWAP1 SWAP2 SSTORE POP POP JUMPDEST DUP10 DUP5 PUSH1 0xA ADD PUSH1 0x0 DUP3 DUP3 SLOAD PUSH2 0x2082 SWAP2 SWAP1 PUSH2 0x3C2D JUMP JUMPDEST SWAP1 SWAP2 SSTORE POP SWAP4 SWAP5 POP DUP5 SWAP4 POP DUP1 PUSH2 0x2096 DUP2 PUSH2 0x3CD7 JUMP JUMPDEST SWAP2 POP POP PUSH2 0x1E2B JUMP JUMPDEST POP PUSH1 0xD0 SLOAD PUSH1 0x0 SWAP1 PUSH1 0x64 SWAP1 PUSH2 0x20BC SWAP1 PUSH1 0x1 PUSH1 0xA0 SHL SWAP1 DIV PUSH1 0xFF AND DUP13 PUSH2 0x3CAC JUMP JUMPDEST PUSH2 0x20C6 SWAP2 SWAP1 PUSH2 0x3CC3 JUMP JUMPDEST PUSH1 0xD0 SLOAD PUSH1 0x40 MLOAD SWAP2 SWAP3 POP PUSH1 0x1 PUSH1 0x1 PUSH1 0xA0 SHL SUB AND SWAP1 DUP3 ISZERO PUSH2 0x8FC MUL SWAP1 DUP4 SWAP1 PUSH1 0x0 DUP2 DUP2 DUP2 DUP6 DUP9 DUP9 CALL SWAP4 POP POP POP POP ISZERO DUP1 ISZERO PUSH2 0x2101 JUMPI RETURNDATASIZE PUSH1 0x0 DUP1 RETURNDATACOPY RETURNDATASIZE PUSH1 0x0 REVERT JUMPDEST POP PUSH1 0xD0 SLOAD PUSH1 0x40 DUP1 MLOAD PUSH1 0x1 PUSH1 0x1 PUSH1 0xA0 SHL SUB SWAP1 SWAP3 AND DUP3 MSTORE PUSH1 0x20 DUP3 ADD DUP4 SWAP1 MSTORE PUSH32 0x5AA75BDB3269082E844D731608AFAE2A07CBF194F251E3F857B870AF86B754FB SWAP2 ADD PUSH1 0x40 MLOAD DUP1 SWAP2 SUB SWAP1 LOG1 DUP6 PUSH1 0xCC PUSH1 0x0 DUP3 DUP3 SLOAD PUSH2 0x215A SWAP2 SWAP1 PUSH2 0x3C2D JUMP JUMPDEST SWAP3 POP POP DUP2 SWAP1 SSTORE POP DUP10 PUSH1 0xCB PUSH1 0x0 DUP3 DUP3 SLOAD PUSH2 0x2173 SWAP2 SWAP1 PUSH2 0x3C2D JUMP JUMPDEST SWAP1 SWAP2 SSTORE POP POP PUSH1 0xD2 SLOAD PUSH1 0x0 SWAP1 PUSH1 0x64 SWAP1 PUSH2 0x218E SWAP1 PUSH1 0xFF AND DUP14 PUSH2 0x3CAC JUMP JUMPDEST PUSH2 0x2198 SWAP2 SWAP1 PUSH2 0x3CC3 JUMP JUMPDEST PUSH1 0xDB SLOAD PUSH1 0x40 MLOAD SWAP2 SWAP3 POP PUSH1 0x1 PUSH1 0x1 PUSH1 0xA0 SHL SUB AND SWAP1 DUP3 ISZERO PUSH2 0x8FC MUL SWAP1 DUP4 SWAP1 PUSH1 0x0 DUP2 DUP2 DUP2 DUP6 DUP9 DUP9 CALL SWAP4 POP POP POP POP ISZERO DUP1 ISZERO PUSH2 0x21D3 JUMPI RETURNDATASIZE PUSH1 0x0 DUP1 RETURNDATACOPY RETURNDATASIZE PUSH1 0x0 REVERT JUMPDEST POP DUP1 PUSH1 0xD1 PUSH1 0x0 DUP3 DUP3 SLOAD PUSH2 0x21E6 SWAP2 SWAP1 PUSH2 0x3C2D JUMP JUMPDEST SWAP1 SWAP2 SSTORE POP POP PUSH1 0xD4 SLOAD PUSH1 0x64 SWAP1 PUSH2 0x21FE SWAP1 PUSH1 0xFF AND DUP14 PUSH2 0x3CAC JUMP JUMPDEST PUSH2 0x2208 SWAP2 SWAP1 PUSH2 0x3CC3 JUMP JUMPDEST PUSH1 0xD3 PUSH1 0x0 DUP3 DUP3 SLOAD PUSH2 0x2219 SWAP2 SWAP1 PUSH2 0x3C2D JUMP JUMPDEST SWAP1 SWAP2 SSTORE POP POP POP POP POP POP POP POP POP POP POP POP POP POP POP JUMP JUMPDEST PUSH1 0x33 SLOAD PUSH1 0x1 PUSH1 0x1 PUSH1 0xA0 SHL SUB AND CALLER EQ PUSH2 0x97B JUMPI PUSH1 0x40 MLOAD PUSH3 0x461BCD PUSH1 0xE5 SHL DUP2 MSTORE PUSH1 0x20 PUSH1 0x4 DUP3 ADD DUP2 SWAP1 MSTORE PUSH1 0x24 DUP3 ADD MSTORE PUSH32 0x4F776E61626C653A2063616C6C6572206973206E6F7420746865206F776E6572 PUSH1 0x44 DUP3 ADD MSTORE PUSH1 0x64 ADD PUSH2 0x636 JUMP JUMPDEST PUSH1 0x33 DUP1 SLOAD PUSH1 0x1 PUSH1 0x1 PUSH1 0xA0 SHL SUB DUP4 DUP2 AND PUSH1 0x1 PUSH1 0x1 PUSH1 0xA0 SHL SUB NOT DUP4 AND DUP2 OR SWAP1 SWAP4 SSTORE PUSH1 0x40 MLOAD SWAP2 AND SWAP2 SWAP1 DUP3 SWAP1 PUSH32 0x8BE0079C531659141344CD1FD0A4F28419497F9722A3DAAFE3B4186F6B6457E0 SWAP1 PUSH1 0x0 SWAP1 LOG3 POP POP JUMP JUMPDEST PUSH1 0x0 SLOAD PUSH2 0x100 SWAP1 DIV PUSH1 0xFF AND PUSH2 0x2344 JUMPI PUSH1 0x40 MLOAD PUSH3 0x461BCD PUSH1 0xE5 SHL DUP2 MSTORE PUSH1 0x20 PUSH1 0x4 DUP3 ADD MSTORE PUSH1 0x2B PUSH1 0x24 DUP3 ADD MSTORE PUSH32 0x496E697469616C697A61626C653A20636F6E7472616374206973206E6F742069 PUSH1 0x44 DUP3 ADD MSTORE PUSH11 0x6E697469616C697A696E67 PUSH1 0xA8 SHL PUSH1 0x64 DUP3 ADD MSTORE PUSH1 0x84 ADD PUSH2 0x636 JUMP JUMPDEST PUSH2 0x97B PUSH2 0x32F7 JUMP JUMPDEST PUSH1 0x0 SLOAD PUSH2 0x100 SWAP1 DIV PUSH1 0xFF AND PUSH2 0x97B JUMPI PUSH1 0x40 MLOAD PUSH3 0x461BCD PUSH1 0xE5 SHL DUP2 MSTORE PUSH1 0x20 PUSH1 0x4 DUP3 ADD MSTORE PUSH1 0x2B PUSH1 0x24 DUP3 ADD MSTORE PUSH32 0x496E697469616C697A61626C653A20636F6E7472616374206973206E6F742069 PUSH1 0x44 DUP3 ADD MSTORE PUSH11 0x6E697469616C697A696E67 PUSH1 0xA8 SHL PUSH1 0x64 DUP3 ADD MSTORE PUSH1 0x84 ADD PUSH2 0x636 JUMP JUMPDEST PUSH1 0x1 PUSH1 0x1 PUSH1 0xA0 SHL SUB DUP2 AND EXTCODESIZE PUSH2 0x2434 JUMPI PUSH1 0x40 MLOAD PUSH3 0x461BCD PUSH1 0xE5 SHL DUP2 MSTORE PUSH1 0x20 PUSH1 0x4 DUP3 ADD MSTORE PUSH1 0x2D PUSH1 0x24 DUP3 ADD MSTORE PUSH32 0x455243313936373A206E657720696D706C656D656E746174696F6E206973206E PUSH1 0x44 DUP3 ADD MSTORE PUSH32 0x6F74206120636F6E747261637400000000000000000000000000000000000000 PUSH1 0x64 DUP3 ADD MSTORE PUSH1 0x84 ADD PUSH2 0x636 JUMP JUMPDEST PUSH32 0x360894A13BA1A3210667C828492DB98DCA3E2076CC3735A920A3CA505D382BBC DUP1 SLOAD PUSH1 0x1 PUSH1 0x1 PUSH1 0xA0 SHL SUB NOT AND PUSH1 0x1 PUSH1 0x1 PUSH1 0xA0 SHL SUB SWAP3 SWAP1 SWAP3 AND SWAP2 SWAP1 SWAP2 OR SWAP1 SSTORE JUMP JUMPDEST PUSH2 0x247E DUP4 PUSH2 0x336B JUMP JUMPDEST PUSH1 0x0 DUP3 MLOAD GT DUP1 PUSH2 0x248B JUMPI POP DUP1 JUMPDEST ISZERO PUSH2 0x18A0 JUMPI PUSH2 0x249A DUP4 DUP4 PUSH2 0x33AB JUMP JUMPDEST POP POP POP POP JUMP JUMPDEST PUSH1 0x1 PUSH1 0x1 PUSH1 0xA0 SHL SUB DUP1 DUP3 AND PUSH1 0x0 DUP2 DUP2 MSTORE PUSH1 0xDC PUSH1 0x20 MSTORE PUSH1 0x40 SWAP1 KECCAK256 SWAP2 DUP5 AND SUB PUSH2 0x2509 JUMPI PUSH1 0x40 MLOAD PUSH3 0x461BCD PUSH1 0xE5 SHL DUP2 MSTORE PUSH1 0x20 PUSH1 0x4 DUP3 ADD MSTORE PUSH1 0x1A PUSH1 0x24 DUP3 ADD MSTORE PUSH32 0x596F752063616E6E6F7420726566657220796F757273656C662E000000000000 PUSH1 0x44 DUP3 ADD MSTORE PUSH1 0x64 ADD PUSH2 0x636 JUMP JUMPDEST PUSH1 0x40 DUP1 MLOAD PUSH2 0x1E0 DUP2 ADD DUP3 MSTORE DUP3 SLOAD PUSH1 0x1 PUSH1 0x1 PUSH1 0xA0 SHL SUB SWAP1 DUP2 AND DUP3 MSTORE PUSH1 0x1 DUP5 ADD SLOAD DUP2 AND PUSH1 0x20 DUP1 DUP5 ADD SWAP2 SWAP1 SWAP2 MSTORE PUSH1 0x2 DUP6 ADD SLOAD SWAP1 SWAP2 AND DUP3 DUP5 ADD MSTORE PUSH1 0x3 DUP5 ADD DUP1 SLOAD DUP5 MLOAD DUP2 DUP5 MUL DUP2 ADD DUP5 ADD SWAP1 SWAP6 MSTORE DUP1 DUP6 MSTORE PUSH2 0x2611 SWAP5 DUP7 SWAP4 PUSH1 0x60 DUP7 ADD SWAP4 SWAP2 SWAP3 SWAP1 DUP4 ADD DUP3 DUP3 DUP1 ISZERO PUSH2 0x1ECB JUMPI PUSH1 0x20 MUL DUP3 ADD SWAP2 SWAP1 PUSH1 0x0 MSTORE PUSH1 0x20 PUSH1 0x0 KECCAK256 SWAP1 DUP2 SLOAD PUSH1 0x1 PUSH1 0x1 PUSH1 0xA0 SHL SUB AND DUP2 MSTORE PUSH1 0x1 SWAP1 SWAP2 ADD SWAP1 PUSH1 0x20 ADD DUP1 DUP4 GT PUSH2 0x1EAD JUMPI POP POP POP POP POP DUP2 MSTORE PUSH1 0x20 ADD PUSH1 0x4 DUP3 ADD DUP1 SLOAD DUP1 PUSH1 0x20 MUL PUSH1 0x20 ADD PUSH1 0x40 MLOAD SWAP1 DUP2 ADD PUSH1 0x40 MSTORE DUP1 SWAP3 SWAP2 SWAP1 DUP2 DUP2 MSTORE PUSH1 0x20 ADD PUSH1 0x0 SWAP1 DUP3 DUP3 LT ISZERO PUSH2 0x1F44 JUMPI PUSH1 0x0 DUP5 DUP2 MSTORE PUSH1 0x20 SWAP1 DUP2 SWAP1 KECCAK256 PUSH1 0x40 DUP1 MLOAD DUP1 DUP3 ADD SWAP1 SWAP2 MSTORE PUSH1 0x2 DUP6 MUL SWAP1 SWAP2 ADD DUP1 SLOAD PUSH1 0x1 PUSH1 0x1 PUSH1 0xA0 SHL SUB SWAP1 DUP2 AND DUP4 MSTORE PUSH1 0x1 SWAP2 DUP3 ADD SLOAD AND DUP3 DUP5 ADD MSTORE SWAP1 DUP4 MSTORE SWAP1 SWAP3 ADD SWAP2 ADD PUSH2 0x1EF9 JUMP JUMPDEST PUSH2 0x326C JUMPI PUSH1 0x0 PUSH1 0x1 PUSH1 0x1 PUSH1 0xA0 SHL SUB DUP5 AND PUSH2 0x2645 JUMPI POP PUSH1 0xD9 SLOAD PUSH1 0x1 PUSH1 0x1 PUSH1 0xA0 SHL SUB AND PUSH1 0x0 SWAP1 DUP2 MSTORE PUSH1 0xDC PUSH1 0x20 MSTORE PUSH1 0x40 SWAP1 KECCAK256 PUSH2 0x265F JUMP JUMPDEST POP PUSH1 0x1 PUSH1 0x1 PUSH1 0xA0 SHL SUB DUP4 AND PUSH1 0x0 SWAP1 DUP2 MSTORE PUSH1 0xDC PUSH1 0x20 MSTORE PUSH1 0x40 SWAP1 KECCAK256 JUMPDEST PUSH1 0x40 DUP1 MLOAD PUSH2 0x1E0 DUP2 ADD DUP3 MSTORE DUP3 SLOAD PUSH1 0x1 PUSH1 0x1 PUSH1 0xA0 SHL SUB SWAP1 DUP2 AND DUP3 MSTORE PUSH1 0x1 DUP5 ADD SLOAD DUP2 AND PUSH1 0x20 DUP1 DUP5 ADD SWAP2 SWAP1 SWAP2 MSTORE PUSH1 0x2 DUP6 ADD SLOAD SWAP1 SWAP2 AND DUP3 DUP5 ADD MSTORE PUSH1 0x3 DUP5 ADD DUP1 SLOAD DUP5 MLOAD DUP2 DUP5 MUL DUP2 ADD DUP5 ADD SWAP1 SWAP6 MSTORE DUP1 DUP6 MSTORE PUSH2 0x284D SWAP5 DUP7 SWAP4 PUSH1 0x60 DUP7 ADD SWAP4 SWAP2 SWAP3 SWAP1 DUP4 ADD DUP3 DUP3 DUP1 ISZERO PUSH2 0x26F1 JUMPI PUSH1 0x20 MUL DUP3 ADD SWAP2 SWAP1 PUSH1 0x0 MSTORE PUSH1 0x20 PUSH1 0x0 KECCAK256 SWAP1 JUMPDEST DUP2 SLOAD PUSH1 0x1 PUSH1 0x1 PUSH1 0xA0 SHL SUB AND DUP2 MSTORE PUSH1 0x1 SWAP1 SWAP2 ADD SWAP1 PUSH1 0x20 ADD DUP1 DUP4 GT PUSH2 0x26D3 JUMPI JUMPDEST POP POP POP POP POP DUP2 MSTORE PUSH1 0x20 ADD PUSH1 0x4 DUP3 ADD DUP1 SLOAD DUP1 PUSH1 0x20 MUL PUSH1 0x20 ADD PUSH1 0x40 MLOAD SWAP1 DUP2 ADD PUSH1 0x40 MSTORE DUP1 SWAP3 SWAP2 SWAP1 DUP2 DUP2 MSTORE PUSH1 0x20 ADD PUSH1 0x0 SWAP1 JUMPDEST DUP3 DUP3 LT ISZERO PUSH2 0x276A JUMPI PUSH1 0x0 DUP5 DUP2 MSTORE PUSH1 0x20 SWAP1 DUP2 SWAP1 KECCAK256 PUSH1 0x40 DUP1 MLOAD DUP1 DUP3 ADD SWAP1 SWAP2 MSTORE PUSH1 0x2 DUP6 MUL SWAP1 SWAP2 ADD DUP1 SLOAD PUSH1 0x1 PUSH1 0x1 PUSH1 0xA0 SHL SUB SWAP1 DUP2 AND DUP4 MSTORE PUSH1 0x1 SWAP2 DUP3 ADD SLOAD AND DUP3 DUP5 ADD MSTORE SWAP1 DUP4 MSTORE SWAP1 SWAP3 ADD SWAP2 ADD PUSH2 0x271F JUMP JUMPDEST POP POP POP POP DUP2 MSTORE PUSH1 0x20 ADD PUSH1 0x5 DUP3 ADD DUP1 SLOAD DUP1 PUSH1 0x20 MUL PUSH1 0x20 ADD PUSH1 0x40 MLOAD SWAP1 DUP2 ADD PUSH1 0x40 MSTORE DUP1 SWAP3 SWAP2 SWAP1 DUP2 DUP2 MSTORE PUSH1 0x20 ADD PUSH1 0x0 SWAP1 JUMPDEST DUP3 DUP3 LT ISZERO PUSH2 0x27E0 JUMPI PUSH1 0x0 DUP5 DUP2 MSTORE PUSH1 0x20 SWAP1 DUP2 SWAP1 KECCAK256 PUSH1 0x40 DUP1 MLOAD DUP1 DUP3 ADD SWAP1 SWAP2 MSTORE SWAP1 DUP5 ADD SLOAD PUSH1 0x1 PUSH1 0x1 PUSH1 0xA0 SHL SUB DUP2 AND DUP3 MSTORE PUSH1 0x1 PUSH1 0xA0 SHL SWAP1 DIV PUSH1 0xFF AND DUP2 DUP4 ADD MSTORE DUP3 MSTORE PUSH1 0x1 SWAP1 SWAP3 ADD SWAP2 ADD PUSH2 0x2797 JUMP JUMPDEST POP POP POP SWAP1 DUP3 MSTORE POP PUSH1 0x6 DUP3 ADD SLOAD PUSH1 0x20 DUP3 ADD MSTORE PUSH1 0x7 DUP3 ADD SLOAD PUSH1 0x40 DUP3 ADD MSTORE PUSH1 0x8 DUP3 ADD SLOAD PUSH1 0xFF AND PUSH1 0x60 DUP3 ADD MSTORE PUSH1 0x9 DUP3 ADD SLOAD PUSH1 0x80 DUP3 ADD MSTORE PUSH1 0xA DUP3 ADD SLOAD PUSH1 0xA0 DUP3 ADD MSTORE PUSH1 0xB DUP3 ADD SLOAD PUSH1 0xC0 DUP3 ADD MSTORE PUSH1 0xC DUP3 ADD SLOAD PUSH1 0xE0 DUP3 ADD MSTORE PUSH1 0xD DUP3 ADD SLOAD PUSH2 0x100 DUP3 ADD MSTORE PUSH1 0xE SWAP1 SWAP2 ADD SLOAD PUSH2 0x120 SWAP1 SWAP2 ADD MSTORE PUSH2 0x34B8 JUMP JUMPDEST PUSH2 0x2B83 JUMPI PUSH2 0x285B DUP2 DUP4 PUSH2 0x34D0 JUMP JUMPDEST PUSH1 0x3 DUP2 ADD DUP1 SLOAD PUSH1 0x1 DUP1 DUP3 ADD DUP4 SSTORE PUSH1 0x0 DUP4 DUP2 MSTORE PUSH1 0x20 SWAP1 DUP2 SWAP1 KECCAK256 SWAP1 SWAP3 ADD DUP1 SLOAD PUSH1 0x1 PUSH1 0x1 PUSH1 0xA0 SHL SUB NOT AND PUSH1 0x1 PUSH1 0x1 PUSH1 0xA0 SHL SUB DUP9 DUP2 AND SWAP2 SWAP1 SWAP2 OR SWAP1 SWAP2 SSTORE PUSH1 0x40 DUP1 MLOAD PUSH2 0x1E0 DUP2 ADD DUP3 MSTORE DUP7 SLOAD DUP4 AND DUP2 MSTORE SWAP3 DUP7 ADD SLOAD DUP3 AND DUP4 DUP6 ADD MSTORE PUSH1 0x2 DUP7 ADD SLOAD SWAP1 SWAP2 AND DUP3 DUP3 ADD MSTORE DUP4 SLOAD DUP2 MLOAD DUP2 DUP6 MUL DUP2 ADD DUP6 ADD SWAP1 SWAP3 MSTORE DUP1 DUP3 MSTORE PUSH2 0x298B SWAP5 SWAP3 SWAP4 DUP7 SWAP4 PUSH1 0x60 DUP7 ADD SWAP4 SWAP3 SWAP1 SWAP2 DUP4 ADD DUP3 DUP3 DUP1 ISZERO PUSH2 0x26F1 JUMPI PUSH1 0x20 MUL DUP3 ADD SWAP2 SWAP1 PUSH1 0x0 MSTORE PUSH1 0x20 PUSH1 0x0 KECCAK256 SWAP1 DUP2 SLOAD PUSH1 0x1 PUSH1 0x1 PUSH1 0xA0 SHL SUB AND DUP2 MSTORE PUSH1 0x1 SWAP1 SWAP2 ADD SWAP1 PUSH1 0x20 ADD DUP1 DUP4 GT PUSH2 0x26D3 JUMPI POP POP POP POP POP DUP2 MSTORE PUSH1 0x20 ADD PUSH1 0x4 DUP3 ADD DUP1 SLOAD DUP1 PUSH1 0x20 MUL PUSH1 0x20 ADD PUSH1 0x40 MLOAD SWAP1 DUP2 ADD PUSH1 0x40 MSTORE DUP1 SWAP3 SWAP2 SWAP1 DUP2 DUP2 MSTORE PUSH1 0x20 ADD PUSH1 0x0 SWAP1 DUP3 DUP3 LT ISZERO PUSH2 0x276A JUMPI PUSH1 0x0 DUP5 DUP2 MSTORE PUSH1 0x20 SWAP1 DUP2 SWAP1 KECCAK256 PUSH1 0x40 DUP1 MLOAD DUP1 DUP3 ADD SWAP1 SWAP2 MSTORE PUSH1 0x2 DUP6 MUL SWAP1 SWAP2 ADD DUP1 SLOAD PUSH1 0x1 PUSH1 0x1 PUSH1 0xA0 SHL SUB SWAP1 DUP2 AND DUP4 MSTORE PUSH1 0x1 SWAP2 DUP3 ADD SLOAD AND DUP3 DUP5 ADD MSTORE SWAP1 DUP4 MSTORE SWAP1 SWAP3 ADD SWAP2 ADD PUSH2 0x271F JUMP JUMPDEST ISZERO PUSH2 0x2B7E JUMPI PUSH1 0x40 DUP1 MLOAD PUSH2 0x1E0 DUP2 ADD DUP3 MSTORE DUP3 SLOAD PUSH1 0x1 PUSH1 0x1 PUSH1 0xA0 SHL SUB SWAP1 DUP2 AND DUP3 MSTORE PUSH1 0x1 DUP5 ADD SLOAD DUP2 AND PUSH1 0x20 DUP1 DUP5 ADD SWAP2 SWAP1 SWAP2 MSTORE PUSH1 0x2 DUP6 ADD SLOAD SWAP1 SWAP2 AND DUP3 DUP5 ADD MSTORE PUSH1 0x3 DUP5 ADD DUP1 SLOAD DUP5 MLOAD DUP2 DUP5 MUL DUP2 ADD DUP5 ADD SWAP1 SWAP6 MSTORE DUP1 DUP6 MSTORE PUSH2 0x2B7E SWAP5 DUP7 SWAP4 PUSH1 0x60 DUP7 ADD SWAP4 SWAP2 SWAP3 SWAP1 DUP4 ADD DUP3 DUP3 DUP1 ISZERO PUSH2 0x2A22 JUMPI PUSH1 0x20 MUL DUP3 ADD SWAP2 SWAP1 PUSH1 0x0 MSTORE PUSH1 0x20 PUSH1 0x0 KECCAK256 SWAP1 JUMPDEST DUP2 SLOAD PUSH1 0x1 PUSH1 0x1 PUSH1 0xA0 SHL SUB AND DUP2 MSTORE PUSH1 0x1 SWAP1 SWAP2 ADD SWAP1 PUSH1 0x20 ADD DUP1 DUP4 GT PUSH2 0x2A04 JUMPI JUMPDEST POP POP POP POP POP DUP2 MSTORE PUSH1 0x20 ADD PUSH1 0x4 DUP3 ADD DUP1 SLOAD DUP1 PUSH1 0x20 MUL PUSH1 0x20 ADD PUSH1 0x40 MLOAD SWAP1 DUP2 ADD PUSH1 0x40 MSTORE DUP1 SWAP3 SWAP2 SWAP1 DUP2 DUP2 MSTORE PUSH1 0x20 ADD PUSH1 0x0 SWAP1 JUMPDEST DUP3 DUP3 LT ISZERO PUSH2 0x2A9B JUMPI PUSH1 0x0 DUP5 DUP2 MSTORE PUSH1 0x20 SWAP1 DUP2 SWAP1 KECCAK256 PUSH1 0x40 DUP1 MLOAD DUP1 DUP3 ADD SWAP1 SWAP2 MSTORE PUSH1 0x2 DUP6 MUL SWAP1 SWAP2 ADD DUP1 SLOAD PUSH1 0x1 PUSH1 0x1 PUSH1 0xA0 SHL SUB SWAP1 DUP2 AND DUP4 MSTORE PUSH1 0x1 SWAP2 DUP3 ADD SLOAD AND DUP3 DUP5 ADD MSTORE SWAP1 DUP4 MSTORE SWAP1 SWAP3 ADD SWAP2 ADD PUSH2 0x2A50 JUMP JUMPDEST POP POP POP POP DUP2 MSTORE PUSH1 0x20 ADD PUSH1 0x5 DUP3 ADD DUP1 SLOAD DUP1 PUSH1 0x20 MUL PUSH1 0x20 ADD PUSH1 0x40 MLOAD SWAP1 DUP2 ADD PUSH1 0x40 MSTORE DUP1 SWAP3 SWAP2 SWAP1 DUP2 DUP2 MSTORE PUSH1 0x20 ADD PUSH1 0x0 SWAP1 JUMPDEST DUP3 DUP3 LT ISZERO PUSH2 0x2B11 JUMPI PUSH1 0x0 DUP5 DUP2 MSTORE PUSH1 0x20 SWAP1 DUP2 SWAP1 KECCAK256 PUSH1 0x40 DUP1 MLOAD DUP1 DUP3 ADD SWAP1 SWAP2 MSTORE SWAP1 DUP5 ADD SLOAD PUSH1 0x1 PUSH1 0x1 PUSH1 0xA0 SHL SUB DUP2 AND DUP3 MSTORE PUSH1 0x1 PUSH1 0xA0 SHL SWAP1 DIV PUSH1 0xFF AND DUP2 DUP4 ADD MSTORE DUP3 MSTORE PUSH1 0x1 SWAP1 SWAP3 ADD SWAP2 ADD PUSH2 0x2AC8 JUMP JUMPDEST POP POP POP SWAP1 DUP3 MSTORE POP PUSH1 0x6 DUP3 ADD SLOAD PUSH1 0x20 DUP3 ADD MSTORE PUSH1 0x7 DUP3 ADD SLOAD PUSH1 0x40 DUP3 ADD MSTORE PUSH1 0x8 DUP3 ADD SLOAD PUSH1 0xFF AND PUSH1 0x60 DUP3 ADD MSTORE PUSH1 0x9 DUP3 ADD SLOAD PUSH1 0x80 DUP3 ADD MSTORE PUSH1 0xA DUP3 ADD SLOAD PUSH1 0xA0 DUP3 ADD MSTORE PUSH1 0xB DUP3 ADD SLOAD PUSH1 0xC0 DUP3 ADD MSTORE PUSH1 0xC DUP3 ADD SLOAD PUSH1 0xE0 DUP3 ADD MSTORE PUSH1 0xD DUP3 ADD SLOAD PUSH2 0x100 DUP3 ADD MSTORE PUSH1 0xE SWAP1 SWAP2 ADD SLOAD PUSH2 0x120 SWAP1 SWAP2 ADD MSTORE PUSH2 0x356C JUMP JUMPDEST PUSH2 0x2EAC JUMP JUMPDEST PUSH1 0x0 PUSH1 0xDC PUSH1 0x0 PUSH2 0x2B91 PUSH2 0x3662 JUMP JUMPDEST PUSH1 0x1 PUSH1 0x1 PUSH1 0xA0 SHL SUB AND PUSH1 0x1 PUSH1 0x1 PUSH1 0xA0 SHL SUB AND DUP2 MSTORE PUSH1 0x20 ADD SWAP1 DUP2 MSTORE PUSH1 0x20 ADD PUSH1 0x0 KECCAK256 SWAP1 POP PUSH2 0x2BBD DUP2 DUP5 PUSH2 0x34D0 JUMP JUMPDEST PUSH1 0x40 DUP1 MLOAD PUSH2 0x1E0 DUP2 ADD DUP3 MSTORE DUP3 SLOAD PUSH1 0x1 PUSH1 0x1 PUSH1 0xA0 SHL SUB SWAP1 DUP2 AND DUP3 MSTORE PUSH1 0x1 DUP5 ADD SLOAD DUP2 AND PUSH1 0x20 DUP1 DUP5 ADD SWAP2 SWAP1 SWAP2 MSTORE PUSH1 0x2 DUP6 ADD SLOAD SWAP1 SWAP2 AND DUP3 DUP5 ADD MSTORE PUSH1 0x3 DUP5 ADD DUP1 SLOAD DUP5 MLOAD DUP2 DUP5 MUL DUP2 ADD DUP5 ADD SWAP1 SWAP6 MSTORE DUP1 DUP6 MSTORE PUSH2 0x2CC5 SWAP5 DUP7 SWAP4 PUSH1 0x60 DUP7 ADD SWAP4 SWAP2 SWAP3 SWAP1 DUP4 ADD DUP3 DUP3 DUP1 ISZERO PUSH2 0x26F1 JUMPI PUSH1 0x20 MUL DUP3 ADD SWAP2 SWAP1 PUSH1 0x0 MSTORE PUSH1 0x20 PUSH1 0x0 KECCAK256 SWAP1 DUP2 SLOAD PUSH1 0x1 PUSH1 0x1 PUSH1 0xA0 SHL SUB AND DUP2 MSTORE PUSH1 0x1 SWAP1 SWAP2 ADD SWAP1 PUSH1 0x20 ADD DUP1 DUP4 GT PUSH2 0x26D3 JUMPI POP POP POP POP POP DUP2 MSTORE PUSH1 0x20 ADD PUSH1 0x4 DUP3 ADD DUP1 SLOAD DUP1 PUSH1 0x20 MUL PUSH1 0x20 ADD PUSH1 0x40 MLOAD SWAP1 DUP2 ADD PUSH1 0x40 MSTORE DUP1 SWAP3 SWAP2 SWAP1 DUP2 DUP2 MSTORE PUSH1 0x20 ADD PUSH1 0x0 SWAP1 DUP3 DUP3 LT ISZERO PUSH2 0x276A JUMPI PUSH1 0x0 DUP5 DUP2 MSTORE PUSH1 0x20 SWAP1 DUP2 SWAP1 KECCAK256 PUSH1 0x40 DUP1 MLOAD DUP1 DUP3 ADD SWAP1 SWAP2 MSTORE PUSH1 0x2 DUP6 MUL SWAP1 SWAP2 ADD DUP1 SLOAD PUSH1 0x1 PUSH1 0x1 PUSH1 0xA0 SHL SUB SWAP1 DUP2 AND DUP4 MSTORE PUSH1 0x1 SWAP2 DUP3 ADD SLOAD AND DUP3 DUP5 ADD MSTORE SWAP1 DUP4 MSTORE SWAP1 SWAP3 ADD SWAP2 ADD PUSH2 0x271F JUMP JUMPDEST ISZERO PUSH2 0x2DD2 JUMPI PUSH1 0x40 DUP1 MLOAD PUSH2 0x1E0 DUP2 ADD DUP3 MSTORE DUP3 SLOAD PUSH1 0x1 PUSH1 0x1 PUSH1 0xA0 SHL SUB SWAP1 DUP2 AND DUP3 MSTORE PUSH1 0x1 DUP5 ADD SLOAD DUP2 AND PUSH1 0x20 DUP1 DUP5 ADD SWAP2 SWAP1 SWAP2 MSTORE PUSH1 0x2 DUP6 ADD SLOAD SWAP1 SWAP2 AND DUP3 DUP5 ADD MSTORE PUSH1 0x3 DUP5 ADD DUP1 SLOAD DUP5 MLOAD DUP2 DUP5 MUL DUP2 ADD DUP5 ADD SWAP1 SWAP6 MSTORE DUP1 DUP6 MSTORE PUSH2 0x2DD2 SWAP5 DUP7 SWAP4 PUSH1 0x60 DUP7 ADD SWAP4 SWAP2 SWAP3 SWAP1 DUP4 ADD DUP3 DUP3 DUP1 ISZERO PUSH2 0x2A22 JUMPI PUSH1 0x20 MUL DUP3 ADD SWAP2 SWAP1 PUSH1 0x0 MSTORE PUSH1 0x20 PUSH1 0x0 KECCAK256 SWAP1 DUP2 SLOAD PUSH1 0x1 PUSH1 0x1 PUSH1 0xA0 SHL SUB AND DUP2 MSTORE PUSH1 0x1 SWAP1 SWAP2 ADD SWAP1 PUSH1 0x20 ADD DUP1 DUP4 GT PUSH2 0x2A04 JUMPI POP POP POP POP POP DUP2 MSTORE PUSH1 0x20 ADD PUSH1 0x4 DUP3 ADD DUP1 SLOAD DUP1 PUSH1 0x20 MUL PUSH1 0x20 ADD PUSH1 0x40 MLOAD SWAP1 DUP2 ADD PUSH1 0x40 MSTORE DUP1 SWAP3 SWAP2 SWAP1 DUP2 DUP2 MSTORE PUSH1 0x20 ADD PUSH1 0x0 SWAP1 DUP3 DUP3 LT ISZERO PUSH2 0x2A9B JUMPI PUSH1 0x0 DUP5 DUP2 MSTORE PUSH1 0x20 SWAP1 DUP2 SWAP1 KECCAK256 PUSH1 0x40 DUP1 MLOAD DUP1 DUP3 ADD SWAP1 SWAP2 MSTORE PUSH1 0x2 DUP6 MUL SWAP1 SWAP2 ADD DUP1 SLOAD PUSH1 0x1 PUSH1 0x1 PUSH1 0xA0 SHL SUB SWAP1 DUP2 AND DUP4 MSTORE PUSH1 0x1 SWAP2 DUP3 ADD SLOAD AND DUP3 DUP5 ADD MSTORE SWAP1 DUP4 MSTORE SWAP1 SWAP3 ADD SWAP2 ADD PUSH2 0x2A50 JUMP JUMPDEST DUP2 SLOAD DUP2 SLOAD PUSH1 0x40 DUP1 MLOAD PUSH1 0x1 PUSH1 0x1 PUSH1 0xA0 SHL SUB SWAP4 DUP5 AND DUP2 MSTORE SWAP2 DUP4 AND PUSH1 0x20 DUP4 ADD MSTORE SWAP2 DUP7 AND DUP2 DUP4 ADD MSTORE SWAP1 MLOAD PUSH32 0xA1B30426557565C4FA85CE5F9C88513D7D3F49D21EB30569C249B07B037831EF SWAP2 DUP2 SWAP1 SUB PUSH1 0x60 ADD SWAP1 LOG1 PUSH1 0x40 DUP1 MLOAD DUP1 DUP3 ADD SWAP1 SWAP2 MSTORE PUSH1 0x1 PUSH1 0x1 PUSH1 0xA0 SHL SUB DUP1 DUP7 AND DUP1 DUP4 MSTORE DUP4 SLOAD DUP3 AND PUSH1 0x20 DUP1 DUP6 ADD SWAP2 DUP3 MSTORE PUSH1 0x4 DUP8 ADD DUP1 SLOAD PUSH1 0x1 DUP2 DUP2 ADD DUP4 SSTORE PUSH1 0x0 SWAP3 DUP4 MSTORE DUP4 DUP4 KECCAK256 SWAP8 MLOAD PUSH1 0x2 SWAP1 SWAP3 MUL SWAP1 SWAP8 ADD DUP1 SLOAD SWAP2 DUP8 AND PUSH1 0x1 PUSH1 0x1 PUSH1 0xA0 SHL SUB NOT SWAP3 DUP4 AND OR DUP2 SSTORE SWAP4 MLOAD SWAP4 DUP8 ADD DUP1 SLOAD SWAP5 SWAP1 SWAP7 AND SWAP4 DUP2 AND SWAP4 SWAP1 SWAP4 OR SWAP1 SWAP5 SSTORE PUSH1 0x3 SWAP1 SWAP6 ADD DUP1 SLOAD SWAP5 DUP6 ADD DUP2 SSTORE DUP4 MSTORE SWAP4 SWAP1 SWAP2 KECCAK256 SWAP1 SWAP2 ADD DUP1 SLOAD SWAP1 SWAP3 AND OR SWAP1 SSTORE JUMPDEST DUP2 PUSH1 0xE ADD SLOAD PUSH1 0x0 SUB PUSH2 0x30A6 JUMPI PUSH1 0x40 DUP1 MLOAD PUSH2 0x1E0 DUP2 ADD DUP3 MSTORE DUP4 SLOAD PUSH1 0x1 PUSH1 0x1 PUSH1 0xA0 SHL SUB SWAP1 DUP2 AND DUP3 MSTORE PUSH1 0x1 DUP6 ADD SLOAD DUP2 AND PUSH1 0x20 DUP1 DUP5 ADD SWAP2 SWAP1 SWAP2 MSTORE PUSH1 0x2 DUP7 ADD SLOAD SWAP1 SWAP2 AND DUP3 DUP5 ADD MSTORE PUSH1 0x3 DUP6 ADD DUP1 SLOAD DUP5 MLOAD DUP2 DUP5 MUL DUP2 ADD DUP5 ADD SWAP1 SWAP6 MSTORE DUP1 DUP6 MSTORE PUSH2 0x30A6 SWAP5 DUP8 SWAP4 PUSH1 0x60 DUP7 ADD SWAP4 SWAP2 SWAP3 SWAP1 DUP4 ADD DUP3 DUP3 DUP1 ISZERO PUSH2 0x2F4A JUMPI PUSH1 0x20 MUL DUP3 ADD SWAP2 SWAP1 PUSH1 0x0 MSTORE PUSH1 0x20 PUSH1 0x0 KECCAK256 SWAP1 JUMPDEST DUP2 SLOAD PUSH1 0x1 PUSH1 0x1 PUSH1 0xA0 SHL SUB AND DUP2 MSTORE PUSH1 0x1 SWAP1 SWAP2 ADD SWAP1 PUSH1 0x20 ADD DUP1 DUP4 GT PUSH2 0x2F2C JUMPI JUMPDEST POP POP POP POP POP DUP2 MSTORE PUSH1 0x20 ADD PUSH1 0x4 DUP3 ADD DUP1 SLOAD DUP1 PUSH1 0x20 MUL PUSH1 0x20 ADD PUSH1 0x40 MLOAD SWAP1 DUP2 ADD PUSH1 0x40 MSTORE DUP1 SWAP3 SWAP2 SWAP1 DUP2 DUP2 MSTORE PUSH1 0x20 ADD PUSH1 0x0 SWAP1 JUMPDEST DUP3 DUP3 LT ISZERO PUSH2 0x2FC3 JUMPI PUSH1 0x0 DUP5 DUP2 MSTORE PUSH1 0x20 SWAP1 DUP2 SWAP1 KECCAK256 PUSH1 0x40 DUP1 MLOAD DUP1 DUP3 ADD SWAP1 SWAP2 MSTORE PUSH1 0x2 DUP6 MUL SWAP1 SWAP2 ADD DUP1 SLOAD PUSH1 0x1 PUSH1 0x1 PUSH1 0xA0 SHL SUB SWAP1 DUP2 AND DUP4 MSTORE PUSH1 0x1 SWAP2 DUP3 ADD SLOAD AND DUP3 DUP5 ADD MSTORE SWAP1 DUP4 MSTORE SWAP1 SWAP3 ADD SWAP2 ADD PUSH2 0x2F78 JUMP JUMPDEST POP POP POP POP DUP2 MSTORE PUSH1 0x20 ADD PUSH1 0x5 DUP3 ADD DUP1 SLOAD DUP1 PUSH1 0x20 MUL PUSH1 0x20 ADD PUSH1 0x40 MLOAD SWAP1 DUP2 ADD PUSH1 0x40 MSTORE DUP1 SWAP3 SWAP2 SWAP1 DUP2 DUP2 MSTORE PUSH1 0x20 ADD PUSH1 0x0 SWAP1 JUMPDEST DUP3 DUP3 LT ISZERO PUSH2 0x3039 JUMPI PUSH1 0x0 DUP5 DUP2 MSTORE PUSH1 0x20 SWAP1 DUP2 SWAP1 KECCAK256 PUSH1 0x40 DUP1 MLOAD DUP1 DUP3 ADD SWAP1 SWAP2 MSTORE SWAP1 DUP5 ADD SLOAD PUSH1 0x1 PUSH1 0x1 PUSH1 0xA0 SHL SUB DUP2 AND DUP3 MSTORE PUSH1 0x1 PUSH1 0xA0 SHL SWAP1 DIV PUSH1 0xFF AND DUP2 DUP4 ADD MSTORE DUP3 MSTORE PUSH1 0x1 SWAP1 SWAP3 ADD SWAP2 ADD PUSH2 0x2FF0 JUMP JUMPDEST POP POP POP SWAP1 DUP3 MSTORE POP PUSH1 0x6 DUP3 ADD SLOAD PUSH1 0x20 DUP3 ADD MSTORE PUSH1 0x7 DUP3 ADD SLOAD PUSH1 0x40 DUP3 ADD MSTORE PUSH1 0x8 DUP3 ADD SLOAD PUSH1 0xFF AND PUSH1 0x60 DUP3 ADD MSTORE PUSH1 0x9 DUP3 ADD SLOAD PUSH1 0x80 DUP3 ADD MSTORE PUSH1 0xA DUP3 ADD SLOAD PUSH1 0xA0 DUP3 ADD MSTORE PUSH1 0xB DUP3 ADD SLOAD PUSH1 0xC0 DUP3 ADD MSTORE PUSH1 0xC DUP3 ADD SLOAD PUSH1 0xE0 DUP3 ADD MSTORE PUSH1 0xD DUP3 ADD SLOAD PUSH2 0x100 DUP3 ADD MSTORE PUSH1 0xE SWAP1 SWAP2 ADD SLOAD PUSH2 0x120 SWAP1 SWAP2 ADD MSTORE PUSH2 0x36E9 JUMP JUMPDEST PUSH1 0x1 DUP3 ADD SLOAD PUSH1 0x1 PUSH1 0x1 PUSH1 0xA0 SHL SUB AND PUSH2 0x3124 JUMPI DUP1 SLOAD PUSH1 0x1 DUP4 ADD DUP1 SLOAD PUSH1 0x1 PUSH1 0x1 PUSH1 0xA0 SHL SUB SWAP3 DUP4 AND PUSH1 0x1 PUSH1 0x1 PUSH1 0xA0 SHL SUB NOT SWAP1 SWAP2 AND DUP2 OR SWAP1 SWAP2 SSTORE PUSH1 0x2 DUP5 ADD SLOAD PUSH1 0x40 DUP1 MLOAD SWAP3 DUP4 MSTORE SWAP1 DUP4 AND PUSH1 0x20 DUP4 ADD MSTORE SWAP2 DUP6 AND DUP2 DUP4 ADD MSTORE SWAP1 MLOAD PUSH32 0x8EFA008F8AE98AE30D3219078A298C85BC25A62F50C57ED9A3EC838B7EED9F47 SWAP2 DUP2 SWAP1 SUB PUSH1 0x60 ADD SWAP1 LOG1 JUMPDEST PUSH1 0xD7 SLOAD PUSH1 0xFF AND PUSH1 0x0 JUMPDEST DUP2 PUSH1 0xFF AND DUP2 PUSH1 0xFF AND LT ISZERO PUSH2 0x3264 JUMPI PUSH1 0x2 DUP5 ADD SLOAD PUSH1 0x1 PUSH1 0x1 PUSH1 0xA0 SHL SUB AND ISZERO PUSH2 0x3264 JUMPI PUSH1 0x2 DUP5 ADD SLOAD PUSH1 0x1 PUSH1 0x1 PUSH1 0xA0 SHL SUB SWAP1 DUP2 AND PUSH1 0x0 SWAP1 DUP2 MSTORE PUSH1 0xDC PUSH1 0x20 SWAP1 DUP2 MSTORE PUSH1 0x40 SWAP2 DUP3 SWAP1 KECCAK256 DUP3 MLOAD DUP1 DUP5 ADD SWAP1 SWAP4 MSTORE SWAP3 DUP9 AND DUP3 MSTORE SWAP2 SWAP5 POP PUSH1 0x5 DUP6 ADD SWAP2 DUP2 ADD PUSH2 0x3192 DUP5 PUSH1 0x1 PUSH2 0x3CF6 JUMP JUMPDEST PUSH1 0xFF SWAP1 DUP2 AND SWAP1 SWAP2 MSTORE DUP3 SLOAD PUSH1 0x1 DUP2 DUP2 ADD DUP6 SSTORE PUSH1 0x0 SWAP5 DUP6 MSTORE PUSH1 0x20 SWAP5 DUP6 SWAP1 KECCAK256 DUP5 MLOAD SWAP3 ADD DUP1 SLOAD SWAP6 SWAP1 SWAP5 ADD MLOAD SWAP1 SWAP3 AND PUSH1 0x1 PUSH1 0xA0 SHL MUL PUSH21 0xFFFFFFFFFFFFFFFFFFFFFFFFFFFFFFFFFFFFFFFFFF NOT SWAP1 SWAP5 AND PUSH1 0x1 PUSH1 0x1 PUSH1 0xA0 SHL SUB SWAP2 DUP3 AND OR SWAP4 SWAP1 SWAP4 OR SWAP1 SWAP2 SSTORE DUP5 SLOAD PUSH32 0x85DB3F10B88EA7FC653F3F818097A3FC3C543196ED60CAD2251DF922BCC9AD7F SWAP3 AND SWAP1 DUP8 SWAP1 PUSH2 0x3222 SWAP1 DUP6 SWAP1 PUSH2 0x3CF6 JUMP JUMPDEST PUSH1 0x40 DUP1 MLOAD PUSH1 0x1 PUSH1 0x1 PUSH1 0xA0 SHL SUB SWAP5 DUP6 AND DUP2 MSTORE SWAP4 SWAP1 SWAP3 AND PUSH1 0x20 DUP5 ADD MSTORE PUSH1 0xFF AND SWAP1 DUP3 ADD MSTORE PUSH1 0x60 ADD PUSH1 0x40 MLOAD DUP1 SWAP2 SUB SWAP1 LOG1 DUP3 SWAP4 POP DUP1 DUP1 PUSH2 0x325C SWAP1 PUSH2 0x3CD7 JUMP JUMPDEST SWAP2 POP POP PUSH2 0x312D JUMP JUMPDEST POP POP POP POP POP POP JUMP JUMPDEST PUSH32 0x1F4FFF38C5E64AF9E759D590409F022EA913658008BB1D0CD35E028244F01ECF PUSH1 0x40 MLOAD PUSH2 0x32CB SWAP1 PUSH1 0x20 DUP1 DUP3 MSTORE PUSH1 0x1F SWAP1 DUP3 ADD MSTORE PUSH32 0x5573657220416C72656164792068617665207265666572726572207365742E00 PUSH1 0x40 DUP3 ADD MSTORE PUSH1 0x60 ADD SWAP1 JUMP JUMPDEST PUSH1 0x40 MLOAD DUP1 SWAP2 SUB SWAP1 LOG1 POP POP POP JUMP JUMPDEST PUSH1 0x40 DUP2 ADD MLOAD PUSH1 0x0 SWAP1 PUSH1 0x1 PUSH1 0x1 PUSH1 0xA0 SHL SUB AND ISZERO PUSH2 0x32F2 JUMPI POP PUSH1 0x1 JUMPDEST SWAP2 SWAP1 POP JUMP JUMPDEST PUSH1 0x0 SLOAD PUSH2 0x100 SWAP1 DIV PUSH1 0xFF AND PUSH2 0x3362 JUMPI PUSH1 0x40 MLOAD PUSH3 0x461BCD PUSH1 0xE5 SHL DUP2 MSTORE PUSH1 0x20 PUSH1 0x4 DUP3 ADD MSTORE PUSH1 0x2B PUSH1 0x24 DUP3 ADD MSTORE PUSH32 0x496E697469616C697A61626C653A20636F6E7472616374206973206E6F742069 PUSH1 0x44 DUP3 ADD MSTORE PUSH11 0x6E697469616C697A696E67 PUSH1 0xA8 SHL PUSH1 0x64 DUP3 ADD MSTORE PUSH1 0x84 ADD PUSH2 0x636 JUMP JUMPDEST PUSH2 0x97B CALLER PUSH2 0x2287 JUMP JUMPDEST PUSH2 0x3374 DUP2 PUSH2 0x23B7 JUMP JUMPDEST PUSH1 0x40 MLOAD PUSH1 0x1 PUSH1 0x1 PUSH1 0xA0 SHL SUB DUP3 AND SWAP1 PUSH32 0xBC7CD75A20EE27FD9ADEBAB32041F755214DBC6BFFA90CC0225B39DA2E5C2D3B SWAP1 PUSH1 0x0 SWAP1 LOG2 POP JUMP JUMPDEST PUSH1 0x60 PUSH1 0x1 PUSH1 0x1 PUSH1 0xA0 SHL SUB DUP4 AND EXTCODESIZE PUSH2 0x342A JUMPI PUSH1 0x40 MLOAD PUSH3 0x461BCD PUSH1 0xE5 SHL DUP2 MSTORE PUSH1 0x20 PUSH1 0x4 DUP3 ADD MSTORE PUSH1 0x26 PUSH1 0x24 DUP3 ADD MSTORE PUSH32 0x416464726573733A2064656C65676174652063616C6C20746F206E6F6E2D636F PUSH1 0x44 DUP3 ADD MSTORE PUSH32 0x6E74726163740000000000000000000000000000000000000000000000000000 PUSH1 0x64 DUP3 ADD MSTORE PUSH1 0x84 ADD PUSH2 0x636 JUMP JUMPDEST PUSH1 0x0 DUP1 DUP5 PUSH1 0x1 PUSH1 0x1 PUSH1 0xA0 SHL SUB AND DUP5 PUSH1 0x40 MLOAD PUSH2 0x3445 SWAP2 SWAP1 PUSH2 0x3D33 JUMP JUMPDEST PUSH1 0x0 PUSH1 0x40 MLOAD DUP1 DUP4 SUB DUP2 DUP6 GAS DELEGATECALL SWAP2 POP POP RETURNDATASIZE DUP1 PUSH1 0x0 DUP2 EQ PUSH2 0x3480 JUMPI PUSH1 0x40 MLOAD SWAP2 POP PUSH1 0x1F NOT PUSH1 0x3F RETURNDATASIZE ADD AND DUP3 ADD PUSH1 0x40 MSTORE RETURNDATASIZE DUP3 MSTORE RETURNDATASIZE PUSH1 0x0 PUSH1 0x20 DUP5 ADD RETURNDATACOPY PUSH2 0x3485 JUMP JUMPDEST PUSH1 0x60 SWAP2 POP JUMPDEST POP SWAP2 POP SWAP2 POP PUSH2 0x34AD DUP3 DUP3 PUSH1 0x40 MLOAD DUP1 PUSH1 0x60 ADD PUSH1 0x40 MSTORE DUP1 PUSH1 0x27 DUP2 MSTORE PUSH1 0x20 ADD PUSH2 0x3D99 PUSH1 0x27 SWAP2 CODECOPY PUSH2 0x3772 JUMP JUMPDEST SWAP3 POP POP POP JUMPDEST SWAP3 SWAP2 POP POP JUMP JUMPDEST PUSH1 0x0 PUSH1 0xD8 SLOAD DUP3 PUSH1 0x60 ADD MLOAD MLOAD LT PUSH2 0x32F2 JUMPI POP PUSH1 0x1 SWAP2 SWAP1 POP JUMP JUMPDEST PUSH1 0x1 DUP2 ADD SLOAD PUSH1 0x1 PUSH1 0x1 PUSH1 0xA0 SHL SUB AND PUSH2 0x3509 JUMPI PUSH1 0x1 DUP1 DUP4 ADD SLOAD SWAP1 DUP3 ADD DUP1 SLOAD PUSH1 0x1 PUSH1 0x1 PUSH1 0xA0 SHL SUB NOT AND PUSH1 0x1 PUSH1 0x1 PUSH1 0xA0 SHL SUB SWAP1 SWAP3 AND SWAP2 SWAP1 SWAP2 OR SWAP1 SSTORE JUMPDEST DUP2 SLOAD PUSH1 0x2 DUP3 ADD DUP1 SLOAD PUSH1 0x1 PUSH1 0x1 PUSH1 0xA0 SHL SUB NOT AND PUSH1 0x1 PUSH1 0x1 PUSH1 0xA0 SHL SUB SWAP3 DUP4 AND OR SWAP1 SSTORE DUP3 SLOAD DUP3 SLOAD PUSH1 0x40 DUP1 MLOAD SWAP3 DUP5 AND DUP4 MSTORE SWAP3 AND PUSH1 0x20 DUP3 ADD MSTORE PUSH32 0xEC49A3C8C4AE06C18160FE86119C381C9D213AC3E052FF35B594DA8687B193C7 SWAP2 ADD PUSH1 0x40 MLOAD DUP1 SWAP2 SUB SWAP1 LOG1 POP POP JUMP JUMPDEST PUSH1 0xCA DUP1 SLOAD PUSH2 0x357C SWAP1 PUSH1 0x1 SWAP1 PUSH2 0x3C40 JUMP JUMPDEST DUP2 SLOAD DUP2 LT PUSH2 0x358C JUMPI PUSH2 0x358C PUSH2 0x3C53 JUMP JUMPDEST SWAP1 PUSH1 0x0 MSTORE PUSH1 0x20 PUSH1 0x0 KECCAK256 ADD PUSH1 0x0 SWAP1 SLOAD SWAP1 PUSH2 0x100 EXP SWAP1 DIV PUSH1 0x1 PUSH1 0x1 PUSH1 0xA0 SHL SUB AND PUSH1 0xCA DUP3 PUSH2 0x1C0 ADD MLOAD DUP2 SLOAD DUP2 LT PUSH2 0x35C2 JUMPI PUSH2 0x35C2 PUSH2 0x3C53 JUMP JUMPDEST SWAP1 PUSH1 0x0 MSTORE PUSH1 0x20 PUSH1 0x0 KECCAK256 ADD PUSH1 0x0 PUSH2 0x100 EXP DUP2 SLOAD DUP2 PUSH1 0x1 PUSH1 0x1 PUSH1 0xA0 SHL SUB MUL NOT AND SWAP1 DUP4 PUSH1 0x1 PUSH1 0x1 PUSH1 0xA0 SHL SUB AND MUL OR SWAP1 SSTORE POP PUSH1 0xCA DUP1 SLOAD DUP1 PUSH2 0x3601 JUMPI PUSH2 0x3601 PUSH2 0x3D4F JUMP JUMPDEST PUSH1 0x0 DUP3 DUP2 MSTORE PUSH1 0x20 SWAP1 KECCAK256 DUP2 ADD PUSH1 0x0 NOT SWAP1 DUP2 ADD DUP1 SLOAD PUSH1 0x1 PUSH1 0x1 PUSH1 0xA0 SHL SUB NOT AND SWAP1 SSTORE ADD SWAP1 SSTORE DUP1 MLOAD PUSH1 0x40 MLOAD PUSH32 0x644B85583BA83E73113FFC0C122B165819CA11DB493CD4CC38F5BA29138FFA1B SWAP2 PUSH2 0xB77 SWAP2 PUSH1 0x1 PUSH1 0x1 PUSH1 0xA0 SHL SUB SWAP2 SWAP1 SWAP2 AND DUP2 MSTORE PUSH1 0x20 ADD SWAP1 JUMP JUMPDEST PUSH1 0x0 DUP1 TIMESTAMP PREVRANDAO PUSH2 0x3672 PUSH1 0x1 NUMBER PUSH2 0x3C40 JUMP JUMPDEST PUSH1 0x40 DUP1 MLOAD PUSH1 0x20 DUP2 ADD SWAP5 SWAP1 SWAP5 MSTORE DUP4 ADD SWAP2 SWAP1 SWAP2 MSTORE BLOCKHASH PUSH1 0x60 DUP3 ADD MSTORE PUSH1 0x80 ADD PUSH1 0x40 DUP1 MLOAD PUSH1 0x1F NOT DUP2 DUP5 SUB ADD DUP2 MSTORE SWAP2 SWAP1 MSTORE DUP1 MLOAD PUSH1 0x20 SWAP1 SWAP2 ADD KECCAK256 PUSH1 0xCA SLOAD SWAP1 SWAP2 POP PUSH1 0x0 SWAP1 PUSH2 0x36B8 SWAP1 DUP4 PUSH2 0x3C7F JUMP JUMPDEST SWAP1 POP PUSH1 0xCA DUP2 DUP2 SLOAD DUP2 LT PUSH2 0x36CD JUMPI PUSH2 0x36CD PUSH2 0x3C53 JUMP JUMPDEST PUSH1 0x0 SWAP2 DUP3 MSTORE PUSH1 0x20 SWAP1 SWAP2 KECCAK256 ADD SLOAD PUSH1 0x1 PUSH1 0x1 PUSH1 0xA0 SHL SUB AND SWAP4 SWAP3 POP POP POP JUMP JUMPDEST PUSH1 0xCA DUP1 SLOAD PUSH2 0x1C0 DUP4 ADD DUP2 SWAP1 MSTORE DUP3 MLOAD PUSH1 0x1 DUP3 ADD DUP4 SSTORE PUSH1 0x0 SWAP3 SWAP1 SWAP3 MSTORE PUSH32 0x42D72674974F694B5F5159593243114D38A5C39C89D6B62FEE061FF523240EE1 ADD DUP1 SLOAD PUSH1 0x1 PUSH1 0x1 PUSH1 0xA0 SHL SUB NOT AND PUSH1 0x1 PUSH1 0x1 PUSH1 0xA0 SHL SUB SWAP3 DUP4 AND OR SWAP1 SSTORE DUP2 MLOAD PUSH1 0x40 MLOAD SWAP2 AND DUP2 MSTORE PUSH32 0x6BAF10092C7EA144C4FB56FB8CF641E1F00E291A535B5D54B547EADB29485A7 SWAP1 PUSH1 0x20 ADD PUSH2 0xB77 JUMP JUMPDEST PUSH1 0x60 DUP4 ISZERO PUSH2 0x3781 JUMPI POP DUP2 PUSH2 0x378B JUMP JUMPDEST PUSH2 0x378B DUP4 DUP4 PUSH2 0x3792 JUMP JUMPDEST SWAP4 SWAP3 POP POP POP JUMP JUMPDEST DUP2 MLOAD ISZERO PUSH2 0x37A2 JUMPI DUP2 MLOAD DUP1 DUP4 PUSH1 0x20 ADD REVERT JUMPDEST DUP1 PUSH1 0x40 MLOAD PUSH3 0x461BCD PUSH1 0xE5 SHL DUP2 MSTORE PUSH1 0x4 ADD PUSH2 0x636 SWAP2 SWAP1 PUSH2 0x3D65 JUMP JUMPDEST DUP3 DUP1 SLOAD DUP3 DUP3 SSTORE SWAP1 PUSH1 0x0 MSTORE PUSH1 0x20 PUSH1 0x0 KECCAK256 SWAP1 PUSH1 0x1F ADD PUSH1 0x20 SWAP1 DIV DUP2 ADD SWAP3 DUP3 ISZERO PUSH2 0x3852 JUMPI SWAP2 PUSH1 0x20 MUL DUP3 ADD PUSH1 0x0 JUMPDEST DUP4 DUP3 GT ISZERO PUSH2 0x3823 JUMPI DUP4 MLOAD DUP4 DUP3 PUSH2 0x100 EXP DUP2 SLOAD DUP2 PUSH1 0xFF MUL NOT AND SWAP1 DUP4 PUSH1 0xFF AND MUL OR SWAP1 SSTORE POP SWAP3 PUSH1 0x20 ADD SWAP3 PUSH1 0x1 ADD PUSH1 0x20 DUP2 PUSH1 0x0 ADD DIV SWAP3 DUP4 ADD SWAP3 PUSH1 0x1 SUB MUL PUSH2 0x37E5 JUMP JUMPDEST DUP1 ISZERO PUSH2 0x3850 JUMPI DUP3 DUP2 PUSH2 0x100 EXP DUP2 SLOAD SWAP1 PUSH1 0xFF MUL NOT AND SWAP1 SSTORE PUSH1 0x1 ADD PUSH1 0x20 DUP2 PUSH1 0x0 ADD DIV SWAP3 DUP4 ADD SWAP3 PUSH1 0x1 SUB MUL PUSH2 0x3823 JUMP JUMPDEST POP JUMPDEST POP PUSH2 0x385E SWAP3 SWAP2 POP PUSH2 0x3862 JUMP JUMPDEST POP SWAP1 JUMP JUMPDEST JUMPDEST DUP1 DUP3 GT ISZERO PUSH2 0x385E JUMPI PUSH1 0x0 DUP2 SSTORE PUSH1 0x1 ADD PUSH2 0x3863 JUMP JUMPDEST DUP1 CALLDATALOAD PUSH1 0x1 PUSH1 0x1 PUSH1 0xA0 SHL SUB DUP2 AND DUP2 EQ PUSH2 0x32F2 JUMPI PUSH1 0x0 DUP1 REVERT JUMPDEST PUSH1 0x0 PUSH1 0x20 DUP3 DUP5 SUB SLT ISZERO PUSH2 0x38A0 JUMPI PUSH1 0x0 DUP1 REVERT JUMPDEST PUSH2 0x378B DUP3 PUSH2 0x3877 JUMP JUMPDEST PUSH4 0x4E487B71 PUSH1 0xE0 SHL PUSH1 0x0 MSTORE PUSH1 0x41 PUSH1 0x4 MSTORE PUSH1 0x24 PUSH1 0x0 REVERT JUMPDEST PUSH1 0x0 DUP1 PUSH1 0x40 DUP4 DUP6 SUB SLT ISZERO PUSH2 0x38D2 JUMPI PUSH1 0x0 DUP1 REVERT JUMPDEST PUSH2 0x38DB DUP4 PUSH2 0x3877 JUMP JUMPDEST SWAP2 POP PUSH1 0x20 DUP4 ADD CALLDATALOAD PUSH8 0xFFFFFFFFFFFFFFFF DUP1 DUP3 GT ISZERO PUSH2 0x38F8 JUMPI PUSH1 0x0 DUP1 REVERT JUMPDEST DUP2 DUP6 ADD SWAP2 POP DUP6 PUSH1 0x1F DUP4 ADD SLT PUSH2 0x390C JUMPI PUSH1 0x0 DUP1 REVERT JUMPDEST DUP2 CALLDATALOAD DUP2 DUP2 GT ISZERO PUSH2 0x391E JUMPI PUSH2 0x391E PUSH2 0x38A9 JUMP JUMPDEST PUSH1 0x40 MLOAD PUSH1 0x1F DUP3 ADD PUSH1 0x1F NOT SWAP1 DUP2 AND PUSH1 0x3F ADD AND DUP2 ADD SWAP1 DUP4 DUP3 GT DUP2 DUP4 LT OR ISZERO PUSH2 0x3946 JUMPI PUSH2 0x3946 PUSH2 0x38A9 JUMP JUMPDEST DUP2 PUSH1 0x40 MSTORE DUP3 DUP2 MSTORE DUP9 PUSH1 0x20 DUP5 DUP8 ADD ADD GT ISZERO PUSH2 0x395F JUMPI PUSH1 0x0 DUP1 REVERT JUMPDEST DUP3 PUSH1 0x20 DUP7 ADD PUSH1 0x20 DUP4 ADD CALLDATACOPY PUSH1 0x0 PUSH1 0x20 DUP5 DUP4 ADD ADD MSTORE DUP1 SWAP6 POP POP POP POP POP POP SWAP3 POP SWAP3 SWAP1 POP JUMP JUMPDEST PUSH1 0x0 DUP2 MLOAD DUP1 DUP5 MSTORE PUSH1 0x20 DUP1 DUP6 ADD SWAP5 POP DUP1 DUP5 ADD PUSH1 0x0 JUMPDEST DUP4 DUP2 LT ISZERO PUSH2 0x39CB JUMPI DUP2 MLOAD DUP1 MLOAD PUSH1 0x1 PUSH1 0x1 PUSH1 0xA0 SHL SUB SWAP1 DUP2 AND DUP10 MSTORE PUSH1 0x20 SWAP2 DUP3 ADD MLOAD AND SWAP1 DUP9 ADD MSTORE PUSH1 0x40 DUP8 ADD SWAP7 POP SWAP1 DUP3 ADD SWAP1 PUSH1 0x1 ADD PUSH2 0x3995 JUMP JUMPDEST POP SWAP5 SWAP6 SWAP5 POP POP POP POP POP JUMP JUMPDEST PUSH1 0x0 DUP2 MLOAD DUP1 DUP5 MSTORE PUSH1 0x20 DUP1 DUP6 ADD SWAP5 POP DUP1 DUP5 ADD PUSH1 0x0 JUMPDEST DUP4 DUP2 LT ISZERO PUSH2 0x39CB JUMPI DUP2 MLOAD DUP1 MLOAD PUSH1 0x1 PUSH1 0x1 PUSH1 0xA0 SHL SUB AND DUP9 MSTORE DUP4 ADD MLOAD PUSH1 0xFF AND DUP4 DUP9 ADD MSTORE PUSH1 0x40 SWAP1 SWAP7 ADD SWAP6 SWAP1 DUP3 ADD SWAP1 PUSH1 0x1 ADD PUSH2 0x39EA JUMP JUMPDEST PUSH1 0x0 PUSH1 0xE0 DUP3 ADD PUSH1 0x1 PUSH1 0x1 PUSH1 0xA0 SHL SUB DUP1 DUP12 AND DUP5 MSTORE PUSH1 0x20 PUSH1 0xE0 DUP2 DUP7 ADD MSTORE DUP3 DUP12 MLOAD DUP1 DUP6 MSTORE PUSH2 0x100 DUP8 ADD SWAP2 POP DUP3 DUP14 ADD SWAP5 POP PUSH1 0x0 JUMPDEST DUP2 DUP2 LT ISZERO PUSH2 0x3A6B JUMPI DUP6 MLOAD DUP6 AND DUP4 MSTORE SWAP5 DUP4 ADD SWAP5 SWAP2 DUP4 ADD SWAP2 PUSH1 0x1 ADD PUSH2 0x3A4D JUMP JUMPDEST POP POP DUP11 PUSH1 0x40 DUP8 ADD MSTORE DUP6 DUP2 SUB PUSH1 0x60 DUP8 ADD MSTORE PUSH2 0x3A85 DUP2 DUP12 PUSH2 0x3981 JUMP JUMPDEST SWAP4 POP POP POP POP DUP6 PUSH1 0x80 DUP5 ADD MSTORE DUP3 DUP2 SUB PUSH1 0xA0 DUP5 ADD MSTORE PUSH2 0x3AA2 DUP2 DUP7 PUSH2 0x39D6 JUMP JUMPDEST SWAP2 POP POP DUP3 PUSH1 0xC0 DUP4 ADD MSTORE SWAP9 SWAP8 POP POP POP POP POP POP POP POP JUMP JUMPDEST PUSH1 0x0 DUP2 MLOAD DUP1 DUP5 MSTORE PUSH1 0x20 DUP1 DUP6 ADD SWAP5 POP DUP1 DUP5 ADD PUSH1 0x0 JUMPDEST DUP4 DUP2 LT ISZERO PUSH2 0x39CB JUMPI DUP2 MLOAD PUSH1 0x1 PUSH1 0x1 PUSH1 0xA0 SHL SUB AND DUP8 MSTORE SWAP6 DUP3 ADD SWAP6 SWAP1 DUP3 ADD SWAP1 PUSH1 0x1 ADD PUSH2 0x3ACB JUMP JUMPDEST PUSH1 0x20 DUP2 MSTORE PUSH2 0x3B0A PUSH1 0x20 DUP3 ADD DUP4 MLOAD PUSH1 0x1 PUSH1 0x1 PUSH1 0xA0 SHL SUB AND SWAP1 MSTORE JUMP JUMPDEST PUSH1 0x0 PUSH1 0x20 DUP4 ADD MLOAD PUSH2 0x3B26 PUSH1 0x40 DUP5 ADD DUP3 PUSH1 0x1 PUSH1 0x1 PUSH1 0xA0 SHL SUB AND SWAP1 MSTORE JUMP JUMPDEST POP PUSH1 0x40 DUP4 ADD MLOAD PUSH1 0x1 PUSH1 0x1 PUSH1 0xA0 SHL SUB DUP2 AND PUSH1 0x60 DUP5 ADD MSTORE POP PUSH1 0x60 DUP4 ADD MLOAD PUSH2 0x1E0 DUP1 PUSH1 0x80 DUP6 ADD MSTORE PUSH2 0x3B58 PUSH2 0x200 DUP6 ADD DUP4 PUSH2 0x3AB7 JUMP JUMPDEST SWAP2 POP PUSH1 0x80 DUP6 ADD MLOAD PUSH1 0x1F NOT DUP1 DUP7 DUP6 SUB ADD PUSH1 0xA0 DUP8 ADD MSTORE PUSH2 0x3B76 DUP5 DUP4 PUSH2 0x3981 JUMP JUMPDEST SWAP4 POP PUSH1 0xA0 DUP8 ADD MLOAD SWAP2 POP DUP1 DUP7 DUP6 SUB ADD PUSH1 0xC0 DUP8 ADD MSTORE POP PUSH2 0x3B94 DUP4 DUP3 PUSH2 0x39D6 JUMP JUMPDEST SWAP3 POP POP PUSH1 0xC0 DUP6 ADD MLOAD PUSH1 0xE0 DUP6 ADD MSTORE PUSH1 0xE0 DUP6 ADD MLOAD PUSH2 0x100 DUP2 DUP2 DUP8 ADD MSTORE DUP1 DUP8 ADD MLOAD SWAP2 POP POP PUSH2 0x120 PUSH2 0x3BC6 DUP2 DUP8 ADD DUP4 PUSH1 0xFF AND SWAP1 MSTORE JUMP JUMPDEST DUP7 ADD MLOAD PUSH2 0x140 DUP7 DUP2 ADD SWAP2 SWAP1 SWAP2 MSTORE DUP7 ADD MLOAD PUSH2 0x160 DUP1 DUP8 ADD SWAP2 SWAP1 SWAP2 MSTORE DUP7 ADD MLOAD PUSH2 0x180 DUP1 DUP8 ADD SWAP2 SWAP1 SWAP2 MSTORE DUP7 ADD MLOAD PUSH2 0x1A0 DUP1 DUP8 ADD SWAP2 SWAP1 SWAP2 MSTORE DUP7 ADD MLOAD PUSH2 0x1C0 DUP1 DUP8 ADD SWAP2 SWAP1 SWAP2 MSTORE SWAP1 SWAP6 ADD MLOAD SWAP4 ADD SWAP3 SWAP1 SWAP3 MSTORE POP SWAP2 SWAP1 POP JUMP JUMPDEST PUSH4 0x4E487B71 PUSH1 0xE0 SHL PUSH1 0x0 MSTORE PUSH1 0x11 PUSH1 0x4 MSTORE PUSH1 0x24 PUSH1 0x0 REVERT JUMPDEST DUP1 DUP3 ADD DUP1 DUP3 GT ISZERO PUSH2 0x34B2 JUMPI PUSH2 0x34B2 PUSH2 0x3C17 JUMP JUMPDEST DUP2 DUP2 SUB DUP2 DUP2 GT ISZERO PUSH2 0x34B2 JUMPI PUSH2 0x34B2 PUSH2 0x3C17 JUMP JUMPDEST PUSH4 0x4E487B71 PUSH1 0xE0 SHL PUSH1 0x0 MSTORE PUSH1 0x32 PUSH1 0x4 MSTORE PUSH1 0x24 PUSH1 0x0 REVERT JUMPDEST PUSH4 0x4E487B71 PUSH1 0xE0 SHL PUSH1 0x0 MSTORE PUSH1 0x12 PUSH1 0x4 MSTORE PUSH1 0x24 PUSH1 0x0 REVERT JUMPDEST PUSH1 0x0 DUP3 PUSH2 0x3C8E JUMPI PUSH2 0x3C8E PUSH2 0x3C69 JUMP JUMPDEST POP MOD SWAP1 JUMP JUMPDEST PUSH1 0x0 PUSH1 0x20 DUP3 DUP5 SUB SLT ISZERO PUSH2 0x3CA5 JUMPI PUSH1 0x0 DUP1 REVERT JUMPDEST POP MLOAD SWAP2 SWAP1 POP JUMP JUMPDEST DUP1 DUP3 MUL DUP2 ISZERO DUP3 DUP3 DIV DUP5 EQ OR PUSH2 0x34B2 JUMPI PUSH2 0x34B2 PUSH2 0x3C17 JUMP JUMPDEST PUSH1 0x0 DUP3 PUSH2 0x3CD2 JUMPI PUSH2 0x3CD2 PUSH2 0x3C69 JUMP JUMPDEST POP DIV SWAP1 JUMP JUMPDEST PUSH1 0x0 PUSH1 0xFF DUP3 AND PUSH1 0xFF DUP2 SUB PUSH2 0x3CED JUMPI PUSH2 0x3CED PUSH2 0x3C17 JUMP JUMPDEST PUSH1 0x1 ADD SWAP3 SWAP2 POP POP JUMP JUMPDEST PUSH1 0xFF DUP2 DUP2 AND DUP4 DUP3 AND ADD SWAP1 DUP2 GT ISZERO PUSH2 0x34B2 JUMPI PUSH2 0x34B2 PUSH2 0x3C17 JUMP JUMPDEST PUSH1 0x0 JUMPDEST DUP4 DUP2 LT ISZERO PUSH2 0x3D2A JUMPI DUP2 DUP2 ADD MLOAD DUP4 DUP3 ADD MSTORE PUSH1 0x20 ADD PUSH2 0x3D12 JUMP JUMPDEST POP POP PUSH1 0x0 SWAP2 ADD MSTORE JUMP JUMPDEST PUSH1 0x0 DUP3 MLOAD PUSH2 0x3D45 DUP2 DUP5 PUSH1 0x20 DUP8 ADD PUSH2 0x3D0F JUMP JUMPDEST SWAP2 SWAP1 SWAP2 ADD SWAP3 SWAP2 POP POP JUMP JUMPDEST PUSH4 0x4E487B71 PUSH1 0xE0 SHL PUSH1 0x0 MSTORE PUSH1 0x31 PUSH1 0x4 MSTORE PUSH1 0x24 PUSH1 0x0 REVERT JUMPDEST PUSH1 0x20 DUP2 MSTORE PUSH1 0x0 DUP3 MLOAD DUP1 PUSH1 0x20 DUP5 ADD MSTORE PUSH2 0x3D84 DUP2 PUSH1 0x40 DUP6 ADD PUSH1 0x20 DUP8 ADD PUSH2 0x3D0F JUMP JUMPDEST PUSH1 0x1F ADD PUSH1 0x1F NOT AND SWAP2 SWAP1 SWAP2 ADD PUSH1 0x40 ADD SWAP3 SWAP2 POP POP JUMP INVALID COINBASE PUSH5 0x6472657373 GASPRICE KECCAK256 PUSH13 0x6F772D6C6576656C2064656C65 PUSH8 0x6174652063616C6C KECCAK256 PUSH7 0x61696C6564A264 PUSH10 0x70667358221220797236 DUP10 0xB0 BYTE ISZERO PUSH4 0xA87D3F65 ADDMOD SELFBALANCE PUSH5 0x7766F06E7A PUSH26 0x10E28B352B266F9FB61BE364736F6C6343000812003300000000 "},"methodIdentifiers":{"distributeWeeklyReward()":"ebd0f48f","getRegistrationsStats()":"0690c6a8","getUserAccount(address)":"fb47e016","getUserBusiness(address)":"f87127b4","getUserCurrentUpgradeLevel(address)":"f9250171","getUserRewards(address)":"078b0fb7","getUserTeam(address)":"faeda7e5","getWeeklyRewardToBeDistributed()":"846688f7","initialize()":"8129fc1c","owner()":"8da5cb5b","proxiableUUID()":"52d1902d","registrationNative(address)":"438c2f55","renounceOwnership()":"715018a6","setDefaults()":"a7be6a72","transferOwnership(address)":"f2fde38b","upgradeTo(address)":"3659cfe6","upgradeToAndCall(address,bytes)":"4f1ef286"}},"storageLayout":{"storage":[{"astId":527,"contract":"contracts/CashXProtocolReferral.sol:CashXProtocolReferral","label":"_initialized","offset":0,"slot":"0","type":"t_uint8"},{"astId":530,"contract":"contracts/CashXProtocolReferral.sol:CashXProtocolReferral","label":"_initializing","offset":1,"slot":"0","type":"t_bool"},{"astId":1228,"contract":"contracts/CashXProtocolReferral.sol:CashXProtocolReferral","label":"__gap","offset":0,"slot":"1","type":"t_array(t_uint256)50_storage"},{"astId":10,"contract":"contracts/CashXProtocolReferral.sol:CashXProtocolReferral","label":"_owner","offset":0,"slot":"51","type":"t_address"},{"astId":130,"contract":"contracts/CashXProtocolReferral.sol:CashXProtocolReferral","label":"__gap","offset":0,"slot":"52","type":"t_array(t_uint256)49_storage"},{"astId":509,"contract":"contracts/CashXProtocolReferral.sol:CashXProtocolReferral","label":"__gap","offset":0,"slot":"101","type":"t_array(t_uint256)50_storage"},{"astId":824,"contract":"contracts/CashXProtocolReferral.sol:CashXProtocolReferral","label":"__gap","offset":0,"slot":"151","type":"t_array(t_uint256)50_storage"},{"astId":1381,"contract":"contracts/CashXProtocolReferral.sol:CashXProtocolReferral","label":"_users","offset":0,"slot":"201","type":"t_array(t_address)dyn_storage"},{"astId":1384,"contract":"contracts/CashXProtocolReferral.sol:CashXProtocolReferral","label":"_randomUserList","offset":0,"slot":"202","type":"t_array(t_address)dyn_storage"},{"astId":1386,"contract":"contracts/CashXProtocolReferral.sol:CashXProtocolReferral","label":"_registrationValueTotal","offset":0,"slot":"203","type":"t_uint256"},{"astId":1388,"contract":"contracts/CashXProtocolReferral.sol:CashXProtocolReferral","label":"_referralPaid","offset":0,"slot":"204","type":"t_uint256"},{"astId":1390,"contract":"contracts/CashXProtocolReferral.sol:CashXProtocolReferral","label":"_randomRewardsPaid","offset":0,"slot":"205","type":"t_uint256"},{"astId":1392,"contract":"contracts/CashXProtocolReferral.sol:CashXProtocolReferral","label":"_weeklyRewardsPaid","offset":0,"slot":"206","type":"t_uint256"},{"astId":1394,"contract":"contracts/CashXProtocolReferral.sol:CashXProtocolReferral","label":"_valueLiquidityCreated","offset":0,"slot":"207","type":"t_uint256"},{"astId":1396,"contract":"contracts/CashXProtocolReferral.sol:CashXProtocolReferral","label":"_teamWallet","offset":0,"slot":"208","type":"t_address"},{"astId":1398,"contract":"contracts/CashXProtocolReferral.sol:CashXProtocolReferral","label":"_teamWalletRate","offset":20,"slot":"208","type":"t_uint8"},{"astId":1400,"contract":"contracts/CashXProtocolReferral.sol:CashXProtocolReferral","label":"_valueToCreateLiquidity","offset":0,"slot":"209","type":"t_uint256"},{"astId":1402,"contract":"contracts/CashXProtocolReferral.sol:CashXProtocolReferral","label":"_liquidityCreateRate","offset":0,"slot":"210","type":"t_uint8"},{"astId":1404,"contract":"contracts/CashXProtocolReferral.sol:CashXProtocolReferral","label":"_weeklyRewardValue","offset":0,"slot":"211","type":"t_uint256"},{"astId":1406,"contract":"contracts/CashXProtocolReferral.sol:CashXProtocolReferral","label":"_weeklyRewardRate","offset":0,"slot":"212","type":"t_uint8"},{"astId":1408,"contract":"contracts/CashXProtocolReferral.sol:CashXProtocolReferral","label":"_weeklyRewardTimestamp","offset":0,"slot":"213","type":"t_uint256"},{"astId":1411,"contract":"contracts/CashXProtocolReferral.sol:CashXProtocolReferral","label":"_levelRates","offset":0,"slot":"214","type":"t_array(t_uint8)dyn_storage"},{"astId":1413,"contract":"contracts/CashXProtocolReferral.sol:CashXProtocolReferral","label":"_levelsToCount","offset":0,"slot":"215","type":"t_uint8"},{"astId":1415,"contract":"contracts/CashXProtocolReferral.sol:CashXProtocolReferral","label":"_refereeLimit","offset":0,"slot":"216","type":"t_uint256"},{"astId":1417,"contract":"contracts/CashXProtocolReferral.sol:CashXProtocolReferral","label":"_defaultReferrer","offset":0,"slot":"217","type":"t_address"},{"astId":1419,"contract":"contracts/CashXProtocolReferral.sol:CashXProtocolReferral","label":"_registrationValue","offset":0,"slot":"218","type":"t_uint256"},{"astId":1421,"contract":"contracts/CashXProtocolReferral.sol:CashXProtocolReferral","label":"_liquidityWallet","offset":0,"slot":"219","type":"t_address"},{"astId":1426,"contract":"contracts/CashXProtocolReferral.sol:CashXProtocolReferral","label":"mappingAccounts","offset":0,"slot":"220","type":"t_mapping(t_address,t_struct(AccountStruct)1372_storage)"},{"astId":1431,"contract":"contracts/CashXProtocolReferral.sol:CashXProtocolReferral","label":"_mappingUpgrade","offset":0,"slot":"221","type":"t_mapping(t_uint8,t_struct(UpgradeStruct)1326_storage)"}],"types":{"t_address":{"encoding":"inplace","label":"address","numberOfBytes":"20"},"t_array(t_address)dyn_storage":{"base":"t_address","encoding":"dynamic_array","label":"address[]","numberOfBytes":"32"},"t_array(t_struct(RefereeStruct)1331_storage)dyn_storage":{"base":"t_struct(RefereeStruct)1331_storage","encoding":"dynamic_array","label":"struct RefereeStruct[]","numberOfBytes":"32"},"t_array(t_struct(TeamStruct)1336_storage)dyn_storage":{"base":"t_struct(TeamStruct)1336_storage","encoding":"dynamic_array","label":"struct TeamStruct[]","numberOfBytes":"32"},"t_array(t_uint256)49_storage":{"base":"t_uint256","encoding":"inplace","label":"uint256[49]","numberOfBytes":"1568"},"t_array(t_uint256)50_storage":{"base":"t_uint256","encoding":"inplace","label":"uint256[50]","numberOfBytes":"1600"},"t_array(t_uint8)dyn_storage":{"base":"t_uint8","encoding":"dynamic_array","label":"uint8[]","numberOfBytes":"32"},"t_bool":{"encoding":"inplace","label":"bool","numberOfBytes":"1"},"t_mapping(t_address,t_struct(AccountStruct)1372_storage)":{"encoding":"mapping","key":"t_address","label":"mapping(address => struct AccountStruct)","numberOfBytes":"32","value":"t_struct(AccountStruct)1372_storage"},"t_mapping(t_uint8,t_struct(UpgradeStruct)1326_storage)":{"encoding":"mapping","key":"t_uint8","label":"mapping(uint8 => struct UpgradeStruct)","numberOfBytes":"32","value":"t_struct(UpgradeStruct)1326_storage"},"t_struct(AccountStruct)1372_storage":{"encoding":"inplace","label":"struct AccountStruct","members":[{"astId":1338,"contract":"contracts/CashXProtocolReferral.sol:CashXProtocolReferral","label":"self","offset":0,"slot":"0","type":"t_address"},{"astId":1340,"contract":"contracts/CashXProtocolReferral.sol:CashXProtocolReferral","label":"parent","offset":0,"slot":"1","type":"t_address"},{"astId":1342,"contract":"contracts/CashXProtocolReferral.sol:CashXProtocolReferral","label":"referrer","offset":0,"slot":"2","type":"t_address"},{"astId":1345,"contract":"contracts/CashXProtocolReferral.sol:CashXProtocolReferral","label":"referee","offset":0,"slot":"3","type":"t_array(t_address)dyn_storage"},{"astId":1349,"contract":"contracts/CashXProtocolReferral.sol:CashXProtocolReferral","label":"refereeAssigned","offset":0,"slot":"4","type":"t_array(t_struct(RefereeStruct)1331_storage)dyn_storage"},{"astId":1353,"contract":"contracts/CashXProtocolReferral.sol:CashXProtocolReferral","label":"team","offset":0,"slot":"5","type":"t_array(t_struct(TeamStruct)1336_storage)dyn_storage"},{"astId":1355,"contract":"contracts/CashXProtocolReferral.sol:CashXProtocolReferral","label":"selfBusiness","offset":0,"slot":"6","type":"t_uint256"},{"astId":1357,"contract":"contracts/CashXProtocolReferral.sol:CashXProtocolReferral","label":"upgradedValue","offset":0,"slot":"7","type":"t_uint256"},{"astId":1359,"contract":"contracts/CashXProtocolReferral.sol:CashXProtocolReferral","label":"upgradeId","offset":0,"slot":"8","type":"t_uint8"},{"astId":1361,"contract":"contracts/CashXProtocolReferral.sol:CashXProtocolReferral","label":"directBusiness","offset":0,"slot":"9","type":"t_uint256"},{"astId":1363,"contract":"contracts/CashXProtocolReferral.sol:CashXProtocolReferral","label":"teamBusiness","offset":0,"slot":"10","type":"t_uint256"},{"astId":1365,"contract":"contracts/CashXProtocolReferral.sol:CashXProtocolReferral","label":"referralRewards","offset":0,"slot":"11","type":"t_uint256"},{"astId":1367,"contract":"contracts/CashXProtocolReferral.sol:CashXProtocolReferral","label":"weeklyRewards","offset":0,"slot":"12","type":"t_uint256"},{"astId":1369,"contract":"contracts/CashXProtocolReferral.sol:CashXProtocolReferral","label":"upgradeRewards","offset":0,"slot":"13","type":"t_uint256"},{"astId":1371,"contract":"contracts/CashXProtocolReferral.sol:CashXProtocolReferral","label":"userRandomIndex","offset":0,"slot":"14","type":"t_uint256"}],"numberOfBytes":"480"},"t_struct(RefereeStruct)1331_storage":{"encoding":"inplace","label":"struct RefereeStruct","members":[{"astId":1328,"contract":"contracts/CashXProtocolReferral.sol:CashXProtocolReferral","label":"referee","offset":0,"slot":"0","type":"t_address"},{"astId":1330,"contract":"contracts/CashXProtocolReferral.sol:CashXProtocolReferral","label":"assignedTo","offset":0,"slot":"1","type":"t_address"}],"numberOfBytes":"64"},"t_struct(TeamStruct)1336_storage":{"encoding":"inplace","label":"struct TeamStruct","members":[{"astId":1333,"contract":"contracts/CashXProtocolReferral.sol:CashXProtocolReferral","label":"teamMember","offset":0,"slot":"0","type":"t_address"},{"astId":1335,"contract":"contracts/CashXProtocolReferral.sol:CashXProtocolReferral","label":"level","offset":20,"slot":"0","type":"t_uint8"}],"numberOfBytes":"32"},"t_struct(UpgradeStruct)1326_storage":{"encoding":"inplace","label":"struct UpgradeStruct","members":[{"astId":1323,"contract":"contracts/CashXProtocolReferral.sol:CashXProtocolReferral","label":"id","offset":0,"slot":"0","type":"t_uint8"},{"astId":1325,"contract":"contracts/CashXProtocolReferral.sol:CashXProtocolReferral","label":"valueToUpgrade","offset":0,"slot":"1","type":"t_uint256"}],"numberOfBytes":"64"},"t_uint256":{"encoding":"inplace","label":"uint256","numberOfBytes":"32"},"t_uint8":{"encoding":"inplace","label":"uint8","numberOfBytes":"1"}}}}}}