{"contracts/CashXProtocolReferral.sol":{"CashXProtocolReferral":{"abi":[{"anonymous":false,"inputs":[{"indexed":false,"internalType":"address","name":"user","type":"address"}],"name":"AddedToRandomList","type":"event"},{"anonymous":false,"inputs":[{"indexed":false,"internalType":"address","name":"previousAdmin","type":"address"},{"indexed":false,"internalType":"address","name":"newAdmin","type":"address"}],"name":"AdminChanged","type":"event"},{"anonymous":false,"inputs":[{"indexed":true,"internalType":"address","name":"beacon","type":"address"}],"name":"BeaconUpgraded","type":"event"},{"anonymous":false,"inputs":[{"indexed":false,"internalType":"uint8","name":"version","type":"uint8"}],"name":"Initialized","type":"event"},{"anonymous":false,"inputs":[{"indexed":true,"internalType":"address","name":"previousOwner","type":"address"},{"indexed":true,"internalType":"address","name":"newOwner","type":"address"}],"name":"OwnershipTransferred","type":"event"},{"anonymous":false,"inputs":[{"indexed":false,"internalType":"address","name":"by","type":"address"},{"indexed":false,"internalType":"address","name":"to","type":"address"},{"indexed":false,"internalType":"address","name":"user","type":"address"}],"name":"ParentAdded","type":"event"},{"anonymous":false,"inputs":[{"indexed":false,"internalType":"address","name":"to","type":"address"},{"indexed":false,"internalType":"address","name":"user","type":"address"},{"indexed":false,"internalType":"uint256","name":"valueInWei","type":"uint256"},{"indexed":false,"internalType":"uint32","name":"level","type":"uint32"}],"name":"ReferralRewardsPaid","type":"event"},{"anonymous":false,"inputs":[{"indexed":false,"internalType":"address","name":"by","type":"address"},{"indexed":false,"internalType":"address","name":"user","type":"address"}],"name":"ReferrerAdded","type":"event"},{"anonymous":false,"inputs":[{"indexed":false,"internalType":"string","name":"reason","type":"string"}],"name":"ReferrerNoAdded","type":"event"},{"anonymous":false,"inputs":[{"indexed":false,"internalType":"address","name":"by","type":"address"},{"indexed":false,"internalType":"address","name":"to","type":"address"},{"indexed":false,"internalType":"address","name":"user","type":"address"},{"indexed":false,"internalType":"uint256","name":"valueInWei","type":"uint256"}],"name":"Registration","type":"event"},{"anonymous":false,"inputs":[{"indexed":false,"internalType":"address","name":"by","type":"address"},{"indexed":false,"internalType":"address","name":"to","type":"address"},{"indexed":false,"internalType":"address","name":"user","type":"address"}],"name":"RegistrationAssigned","type":"event"},{"anonymous":false,"inputs":[{"indexed":false,"internalType":"address","name":"user","type":"address"}],"name":"RemovedFromRandomList","type":"event"},{"anonymous":false,"inputs":[{"indexed":false,"internalType":"address","name":"to","type":"address"},{"indexed":false,"internalType":"address","name":"user","type":"address"},{"indexed":false,"internalType":"uint32","name":"level","type":"uint32"}],"name":"TeamAddressAdded","type":"event"},{"anonymous":false,"inputs":[{"indexed":false,"internalType":"address","name":"to","type":"address"},{"indexed":false,"internalType":"uint256","name":"valueInWei","type":"uint256"}],"name":"TeamWalletRewardPaid","type":"event"},{"anonymous":false,"inputs":[{"indexed":false,"internalType":"string","name":"reason","type":"string"}],"name":"UpgradeRewardNotPaid","type":"event"},{"anonymous":false,"inputs":[{"indexed":false,"internalType":"address","name":"to","type":"address"},{"indexed":false,"internalType":"address","name":"by","type":"address"},{"indexed":false,"internalType":"uint256","name":"valueInWei","type":"uint256"}],"name":"UpgradeRewardPaid","type":"event"},{"anonymous":false,"inputs":[{"indexed":true,"internalType":"address","name":"implementation","type":"address"}],"name":"Upgraded","type":"event"},{"anonymous":false,"inputs":[{"indexed":false,"internalType":"address","name":"to","type":"address"},{"indexed":false,"internalType":"uint256","name":"valueInWei","type":"uint256"}],"name":"WeeklyRewardsPaid","type":"event"},{"inputs":[],"name":"distributeWeeklyReward","outputs":[],"stateMutability":"nonpayable","type":"function"},{"inputs":[],"name":"getContractDefaults","outputs":[{"internalType":"address","name":"teamWallet","type":"address"},{"internalType":"uint256","name":"teamWalletRate","type":"uint256"},{"internalType":"address","name":"liquidityWallet","type":"address"},{"internalType":"uint256","name":"liquidityCreationrate","type":"uint256"},{"internalType":"address","name":"defaultReferrer","type":"address"},{"internalType":"uint256","name":"registrationValueInUSD","type":"uint256"}],"stateMutability":"view","type":"function"},{"inputs":[],"name":"getNativePriceInUSD","outputs":[{"internalType":"uint256","name":"","type":"uint256"}],"stateMutability":"view","type":"function"},{"inputs":[],"name":"getRegistrationsStats","outputs":[{"internalType":"uint32","name":"totalUser","type":"uint32"},{"internalType":"uint256","name":"totalRegistrationValueInUSD","type":"uint256"},{"internalType":"uint256","name":"totalReferralPaidInUSD","type":"uint256"},{"internalType":"uint256","name":"totalWeeklyRewardsPaidInUSD","type":"uint256"}],"stateMutability":"view","type":"function"},{"inputs":[],"name":"getUpgradePlans","outputs":[{"components":[{"internalType":"uint8","name":"id","type":"uint8"},{"internalType":"uint256","name":"valueToUpgradeInUSD","type":"uint256"}],"internalType":"struct UpgradeStruct[]","name":"upgradePlans","type":"tuple[]"},{"internalType":"uint8","name":"upgradePlansCount","type":"uint8"}],"stateMutability":"view","type":"function"},{"inputs":[{"internalType":"uint8","name":"_id","type":"uint8"}],"name":"getUpgradePlansById","outputs":[{"components":[{"internalType":"uint8","name":"id","type":"uint8"},{"internalType":"uint256","name":"valueToUpgradeInUSD","type":"uint256"}],"internalType":"struct UpgradeStruct","name":"","type":"tuple"}],"stateMutability":"view","type":"function"},{"inputs":[{"internalType":"address","name":"_userAddress","type":"address"}],"name":"getUserAccount","outputs":[{"components":[{"internalType":"address","name":"self","type":"address"},{"internalType":"address","name":"parent","type":"address"},{"internalType":"address","name":"referrer","type":"address"},{"internalType":"address[]","name":"referee","type":"address[]"},{"components":[{"internalType":"address","name":"referee","type":"address"},{"internalType":"address","name":"assignedTo","type":"address"}],"internalType":"struct RefereeStruct[]","name":"refereeAssigned","type":"tuple[]"},{"components":[{"internalType":"address","name":"teamMember","type":"address"},{"internalType":"uint8","name":"level","type":"uint8"}],"internalType":"struct TeamStruct[]","name":"team","type":"tuple[]"},{"internalType":"uint256","name":"selfBusinessInUSD","type":"uint256"},{"internalType":"uint256","name":"upgradedValueInUSD","type":"uint256"},{"internalType":"uint8","name":"upgradeId","type":"uint8"},{"internalType":"uint256","name":"directBusinessInUSD","type":"uint256"},{"internalType":"uint256","name":"teamBusinessInUSD","type":"uint256"},{"internalType":"uint256","name":"referralRewardsInUSD","type":"uint256"},{"internalType":"uint256","name":"weeklyRewardsInUSD","type":"uint256"},{"internalType":"uint256","name":"upgradeRewardsInUSD","type":"uint256"},{"internalType":"uint256","name":"userRandomIndex","type":"uint256"}],"internalType":"struct AccountStruct","name":"","type":"tuple"}],"stateMutability":"view","type":"function"},{"inputs":[{"internalType":"address","name":"_userAddress","type":"address"}],"name":"getUserBusiness","outputs":[{"internalType":"uint256","name":"selfBusinessInUSD","type":"uint256"},{"internalType":"uint256","name":"directBusinessInUSD","type":"uint256"},{"internalType":"uint256","name":"teamBusinessInUSD","type":"uint256"},{"internalType":"uint256","name":"totalBusinessInUSD","type":"uint256"}],"stateMutability":"view","type":"function"},{"inputs":[{"internalType":"address","name":"_userAddress","type":"address"}],"name":"getUserCurrentUpgradeLevel","outputs":[{"internalType":"uint8","name":"level","type":"uint8"},{"internalType":"uint256","name":"totalUpgradeValueInUSD","type":"uint256"}],"stateMutability":"view","type":"function"},{"inputs":[{"internalType":"address","name":"_userAddress","type":"address"}],"name":"getUserRewards","outputs":[{"internalType":"uint256","name":"referralRewardInUSD","type":"uint256"},{"internalType":"uint256","name":"weeklyRewardInUSD","type":"uint256"},{"internalType":"uint256","name":"upgradeRewardsInUSD","type":"uint256"},{"internalType":"uint256","name":"totalRewards","type":"uint256"}],"stateMutability":"view","type":"function"},{"inputs":[{"internalType":"address","name":"_userAddress","type":"address"}],"name":"getUserTeam","outputs":[{"internalType":"address","name":"referrer","type":"address"},{"internalType":"address[]","name":"referees","type":"address[]"},{"internalType":"uint256","name":"refereeCount","type":"uint256"},{"components":[{"internalType":"address","name":"referee","type":"address"},{"internalType":"address","name":"assignedTo","type":"address"}],"internalType":"struct RefereeStruct[]","name":"refereeAssigned","type":"tuple[]"},{"internalType":"uint256","name":"refereeAssignedCount","type":"uint256"},{"components":[{"internalType":"address","name":"teamMember","type":"address"},{"internalType":"uint8","name":"level","type":"uint8"}],"internalType":"struct TeamStruct[]","name":"team","type":"tuple[]"},{"internalType":"uint256","name":"teamCount","type":"uint256"}],"stateMutability":"view","type":"function"},{"inputs":[],"name":"getWeeklyRewardToBeDistributed","outputs":[{"internalType":"uint256","name":"_rewardValue","type":"uint256"},{"internalType":"uint256","name":"_remianingTime","type":"uint256"},{"internalType":"uint256","name":"_endTime","type":"uint256"}],"stateMutability":"view","type":"function"},{"inputs":[],"name":"initialize","outputs":[],"stateMutability":"nonpayable","type":"function"},{"inputs":[],"name":"needNativeToRegister","outputs":[{"internalType":"uint256","name":"","type":"uint256"}],"stateMutability":"view","type":"function"},{"inputs":[],"name":"owner","outputs":[{"internalType":"address","name":"","type":"address"}],"stateMutability":"view","type":"function"},{"inputs":[],"name":"proxiableUUID","outputs":[{"internalType":"bytes32","name":"","type":"bytes32"}],"stateMutability":"view","type":"function"},{"inputs":[{"internalType":"address","name":"_referrer","type":"address"}],"name":"registrationNative","outputs":[],"stateMutability":"payable","type":"function"},{"inputs":[],"name":"renounceOwnership","outputs":[],"stateMutability":"nonpayable","type":"function"},{"inputs":[],"name":"setDefaults","outputs":[],"stateMutability":"nonpayable","type":"function"},{"inputs":[{"internalType":"address","name":"newOwner","type":"address"}],"name":"transferOwnership","outputs":[],"stateMutability":"nonpayable","type":"function"},{"inputs":[{"internalType":"uint256[]","name":"_valueToUpgradeInDecimals","type":"uint256[]"}],"name":"updateUpgradePlans","outputs":[],"stateMutability":"nonpayable","type":"function"},{"inputs":[],"name":"upgradeAccountNative","outputs":[],"stateMutability":"payable","type":"function"},{"inputs":[{"internalType":"address","name":"newImplementation","type":"address"}],"name":"upgradeTo","outputs":[],"stateMutability":"nonpayable","type":"function"},{"inputs":[{"internalType":"address","name":"newImplementation","type":"address"},{"internalType":"bytes","name":"data","type":"bytes"}],"name":"upgradeToAndCall","outputs":[],"stateMutability":"payable","type":"function"},{"stateMutability":"payable","type":"receive"}],"evm":{"bytecode":{"linkReferences":{},"object":"60a06040523060805234801561001457600080fd5b5060805161430261004c6000396000818161079801528181610822015281816109c301528181610a480152610b3201526143026000f3fe60806040526004361061018f5760003560e01c8063846688f7116100d6578063ebd0f48f1161007f578063f925017111610059578063f9250171146104be578063faeda7e5146104f7578063fb47e0161461052a57600080fd5b8063ebd0f48f14610469578063f2fde38b1461047e578063f87127b41461049e57600080fd5b8063a9df9fae116100b0578063a9df9fae146103c9578063ac21689a14610434578063e35422e71461044957600080fd5b8063846688f71461035c5780638da5cb5b1461038c578063a7be6a72146103b457600080fd5b806352d1902d11610138578063715018a611610112578063715018a61461032a578063770cc0dd1461033f5780638129fc1c1461034757600080fd5b806352d1902d146102cf57806359a04544146102f257806363a540421461031557600080fd5b80633659cfe6116101695780633659cfe614610287578063438c2f55146102a95780634f1ef286146102bc57600080fd5b80630690c6a81461019b578063078b0fb7146101e05780631a7463441461022057600080fd5b3661019657005b600080fd5b3480156101a757600080fd5b5060c95460cb5460cc5460ce546040805163ffffffff909516855260208501939093529183015260608201526080015b60405180910390f35b3480156101ec57600080fd5b506102006101fb366004613c9e565b610557565b6040805194855260208501939093529183015260608201526080016101d7565b34801561022c57600080fd5b5060cf5460d95460d15460d75460d854604080516001600160a01b03808816825260ff600160a01b909804881660208301529586169181019190915294909216606085015291909116608083015260a082015260c0016101d7565b34801561029357600080fd5b506102a76102a2366004613c9e565b61078e565b005b6102a76102b7366004613c9e565b61090e565b6102a76102ca366004613ccf565b6109b9565b3480156102db57600080fd5b506102e4610b25565b6040519081526020016101d7565b3480156102fe57600080fd5b50610307610bea565b6040516101d7929190613d91565b34801561032157600080fd5b5060dc546102e4565b34801561033657600080fd5b506102a7610cd8565b6102a7610cec565b34801561035357600080fd5b506102a7610d0e565b34801561036857600080fd5b50610371610f03565b604080519384526020840192909252908201526060016101d7565b34801561039857600080fd5b506033546040516001600160a01b0390911681526020016101d7565b3480156103c057600080fd5b506102a7610f39565b3480156103d557600080fd5b506104276103e4366004613df6565b6040805180820182526000808252602091820181905260ff938416815260db82528290208251808401909352805490931682526001909201549181019190915290565b6040516101d79190613e19565b34801561044057600080fd5b506102e4610fcd565b34801561045557600080fd5b506102a7610464366004613e33565b610ffc565b34801561047557600080fd5b506102a76110a9565b34801561048a57600080fd5b506102a7610499366004613c9e565b611332565b3480156104aa57600080fd5b506102006104b9366004613c9e565b6113bf565b3480156104ca57600080fd5b506104de6104d9366004613c9e565b6115e1565b6040805160ff90931683526020830191909152016101d7565b34801561050357600080fd5b50610517610512366004613c9e565b611805565b6040516101d79796959493929190613f7b565b34801561053657600080fd5b5061054a610545366004613c9e565b611a4c565b6040516101d79190613fe4565b6001600160a01b03808216600090815260da6020908152604080832081516101e0810183528154861681526001820154861681850152600282015490951685830152600381018054835181860281018601909452808452949586958695869586959394606086019391929091908301828280156105fd57602002820191906000526020600020905b81546001600160a01b031681526001909101906020018083116105df575b5050505050815260200160048201805480602002602001604051908101604052809291908181526020016000905b82821015610676576000848152602090819020604080518082019091526002850290910180546001600160a01b0390811683526001918201541682840152908352909201910161062b565b50505050815260200160058201805480602002602001604051908101604052809291908181526020016000905b828210156106ec57600084815260209081902060408051808201909152908401546001600160a01b0381168252600160a01b900460ff16818301528252600190920191016106a3565b505050908252506006820154602082015260078201546040820152600882015460ff16606082015260098201546080820152600a82015460a0820152600b82015460c0820152600c82015460e0820152600d820154610100820152600e90910154610120909101526101608101516101808201516101a08301519197509550935090508261077a8587614121565b6107849190614121565b9150509193509193565b6001600160a01b037f00000000000000000000000000000000000000000000000000000000000000001630036108205760405162461bcd60e51b815260206004820152602c60248201527f46756e6374696f6e206d7573742062652063616c6c6564207468726f7567682060448201526b19195b1959d85d1958d85b1b60a21b60648201526084015b60405180910390fd5b7f00000000000000000000000000000000000000000000000000000000000000006001600160a01b031661087b7f360894a13ba1a3210667c828492db98dca3e2076cc3735a920a3ca505d382bbc546001600160a01b031690565b6001600160a01b0316146108e65760405162461bcd60e51b815260206004820152602c60248201527f46756e6374696f6e206d7573742062652063616c6c6564207468726f7567682060448201526b6163746976652070726f787960a01b6064820152608401610817565b6108ef81611cdb565b6040805160008082526020820190925261090b91839190611ce3565b50565b6001600160a01b03811661098a5760405162461bcd60e51b815260206004820152602360248201527f5a65726f20416464726573732063616e6e6f742062652074686520726566657260448201527f72657200000000000000000000000000000000000000000000000000000000006064820152608401610817565b34600061099660dc5490565b905060006109a48383611e83565b90506109b38433838686611eab565b50505050565b6001600160a01b037f0000000000000000000000000000000000000000000000000000000000000000163003610a465760405162461bcd60e51b815260206004820152602c60248201527f46756e6374696f6e206d7573742062652063616c6c6564207468726f7567682060448201526b19195b1959d85d1958d85b1b60a21b6064820152608401610817565b7f00000000000000000000000000000000000000000000000000000000000000006001600160a01b0316610aa17f360894a13ba1a3210667c828492db98dca3e2076cc3735a920a3ca505d382bbc546001600160a01b031690565b6001600160a01b031614610b0c5760405162461bcd60e51b815260206004820152602c60248201527f46756e6374696f6e206d7573742062652063616c6c6564207468726f7567682060448201526b6163746976652070726f787960a01b6064820152608401610817565b610b1582611cdb565b610b2182826001611ce3565b5050565b6000306001600160a01b037f00000000000000000000000000000000000000000000000000000000000000001614610bc55760405162461bcd60e51b815260206004820152603860248201527f555550535570677261646561626c653a206d757374206e6f742062652063616c60448201527f6c6564207468726f7567682064656c656761746563616c6c00000000000000006064820152608401610817565b507f360894a13ba1a3210667c828492db98dca3e2076cc3735a920a3ca505d382bbc90565b60606000610bf661276b565b905060008160ff1667ffffffffffffffff811115610c1657610c16613cb9565b604051908082528060200260200182016040528015610c5b57816020015b6040805180820190915260008082526020820152815260200190600190039081610c345790505b50905060005b8260ff168160ff161015610cd15760ff808216600081815260db60209081526040918290208251808401909352805490941682526001909301549281019290925283518491908110610cb557610cb5614134565b602002602001018190525080610cca9061414a565b9050610c61565b5092909150565b610ce06127b9565b610cea6000612813565b565b346000610d0182610cfc60dc5490565b611e83565b9050610b21828233612865565b600054610100900460ff1615808015610d2e5750600054600160ff909116105b80610d485750303b158015610d48575060005460ff166001145b610dba5760405162461bcd60e51b815260206004820152602e60248201527f496e697469616c697a61626c653a20636f6e747261637420697320616c72656160448201527f647920696e697469616c697a65640000000000000000000000000000000000006064820152608401610817565b6000805460ff191660011790558015610ddd576000805461ff0019166101001790555b60d7805473eb1100091ce830ba58a04834c35d29b75b53eb746001600160a01b03199182161790915568015af1d78b58c4000060d85560d5805461ffff191661083c179055600260d65560cf805474ffffffffffffffffffffffffffffffffffffffffff1916741476b7c991c3ef93b6771fac97a984a2cb37962fbc17905560d18054601060ff199182161790915560d3805490911660041790554260d45560d9805473efa6077f510b10a6c1b2f8da24a89fc561ac94459216919091179055680d8d726b7177a8000060dc55610eb2612c1d565b610eba612c90565b801561090b576000805461ff0019169055604051600181527f7f26b83ff96e1f2b6a682f133852f6798a09c465da95921460cefb3847402498906020015b60405180910390a150565b60d25460d4546000908190610f1b9062093a80614121565b90504280821115610f3357610f308183614169565b92505b50909192565b610f416127b9565b60d780546001600160a01b03908116600081815260da602052604080822080546001600160a01b0319908116909417905584548416808352908220600190810180548516909217909155935460ca805495860181559091527f42d72674974f694b5f5159593243114d38a5c39c89d6b62fee061ff523240ee19093018054939092169216919091179055565b6000610fd860dc5490565b60d854610fed90670de0b6b3a764000061417c565b610ff791906141a9565b905090565b6110046127b9565b60005b60ff81168211156110a457604051806040016040528082600161102a91906141bd565b60ff16815260200184848460ff1681811061104757611047614134565b90506020020135670de0b6b3a7640000611061919061417c565b905260ff828116600090815260db602090815260409091208351815460ff19169316929092178255919091015160019091015561109d8161414a565b9050611007565b505050565b60d25460006110bb82610cfc60dc5490565b9050600060d45462093a806110d09190614121565b905042818110156111235760405162461bcd60e51b815260206004820152601c60248201527f5765656b6c792074696d65206973206e6f74206f766572207965742e000000006044820152606401610817565b600060d254116111755760405162461bcd60e51b815260206004820152601860248201527f4e6f207265776172647320746f206469737472696275746500000000000000006044820152606401610817565b600060c98054806020026020016040519081016040528092919081815260200182805480156111cd57602002820191906000526020600020905b81546001600160a01b031681526001909101906020018083116111af575b50505050509050600042446001436111e59190614169565b6040805160208101949094528301919091524060608201526080016040516020818303038152906040528051906020012060001c9050600082518261122a91906141d6565b9050600083828151811061124057611240614134565b60200260200101519050600060da6000836001600160a01b03166001600160a01b0316815260200190815260200160002090508781600c0160008282546112879190614121565b90915550506040516001600160a01b038316908a156108fc02908b906000818181858888f193505050501580156112c2573d6000803e3d6000fd5b50600060d28190554260d45560ce80548a92906112e0908490614121565b9091555050604080516001600160a01b0384168152602081018a90527ffff6edc60fd30afefcc47525cdf85502200830b22550391f79f9e383df03afad910160405180910390a1505050505050505050565b61133a6127b9565b6001600160a01b0381166113b65760405162461bcd60e51b815260206004820152602660248201527f4f776e61626c653a206e6577206f776e657220697320746865207a65726f206160448201527f64647265737300000000000000000000000000000000000000000000000000006064820152608401610817565b61090b81612813565b6001600160a01b03808216600090815260da6020908152604080832081516101e08101835281548616815260018201548616818501526002820154909516858301526003810180548351818602810186019094528084529495869586958695869593946060860193919290919083018282801561146557602002820191906000526020600020905b81546001600160a01b03168152600190910190602001808311611447575b5050505050815260200160048201805480602002602001604051908101604052809291908181526020016000905b828210156114de576000848152602090819020604080518082019091526002850290910180546001600160a01b03908116835260019182015416828401529083529092019101611493565b50505050815260200160058201805480602002602001604051908101604052809291908181526020016000905b8282101561155457600084815260209081902060408051808201909152908401546001600160a01b0381168252600160a01b900460ff168183015282526001909201910161150b565b505050908252506006820154602082015260078201546040820152600882015460ff16606082015260098201546080820152600a82015460a0820152600b82015460c080830191909152600c83015460e0830152600d830154610100830152600e909201546101209182015290820151908201516101408301519197509550935090506107848584614121565b6001600160a01b03808216600090815260da6020908152604080832081516101e081018352815486168152600182015486168185015260028201549095168583015260038101805483518186028101860190945280845294958695869591946060860193909290919083018282801561168357602002820191906000526020600020905b81546001600160a01b03168152600190910190602001808311611665575b5050505050815260200160048201805480602002602001604051908101604052809291908181526020016000905b828210156116fc576000848152602090819020604080518082019091526002850290910180546001600160a01b039081168352600191820154168284015290835290920191016116b1565b50505050815260200160058201805480602002602001604051908101604052809291908181526020016000905b8282101561177257600084815260209081902060408051808201909152908401546001600160a01b0381168252600160a01b900460ff1681830152825260019092019101611729565b505050908252506006820154602082015260078201546040820152600882015460ff908116606083015260098301546080830152600a83015460a0830152600b83015460c0830152600c83015460e0830152600d83015461010080840191909152600e90930154610120909201919091529082015191925016156117f95780610100015192505b60e00151919391925050565b6001600160a01b03808216600090815260da6020908152604080832081516101e081018352815486168152600182015486168185015260028201549095168583015260038101805483518186028101860190945280845294956060958795879587958795879586959094929385890193909291908301828280156118b257602002820191906000526020600020905b81546001600160a01b03168152600190910190602001808311611894575b5050505050815260200160048201805480602002602001604051908101604052809291908181526020016000905b8282101561192b576000848152602090819020604080518082019091526002850290910180546001600160a01b039081168352600191820154168284015290835290920191016118e0565b50505050815260200160058201805480602002602001604051908101604052809291908181526020016000905b828210156119a157600084815260209081902060408051808201909152908401546001600160a01b0381168252600160a01b900460ff1681830152825260019092019101611958565b50505090825250600682015460208201526007820154604080830191909152600883015460ff166060808401919091526009840154608080850191909152600a85015460a080860191909152600b86015460c0860152600c86015460e0860152600d860154610100860152600e90950154610120909401939093529084015190840151805192850151805195909401518051929f919e50929c50929a50929850965090945092505050565b611ae3604051806101e0016040528060006001600160a01b0316815260200160006001600160a01b0316815260200160006001600160a01b031681526020016060815260200160608152602001606081526020016000815260200160008152602001600060ff1681526020016000815260200160008152602001600081526020016000815260200160008152602001600081525090565b6001600160a01b03808316600090815260da602090815260409182902082516101e081018452815485168152600182015485168184015260028201549094168484015260038101805484518185028101850190955280855291936060860193909290830182828015611b7e57602002820191906000526020600020905b81546001600160a01b03168152600190910190602001808311611b60575b5050505050815260200160048201805480602002602001604051908101604052809291908181526020016000905b82821015611bf7576000848152602090819020604080518082019091526002850290910180546001600160a01b03908116835260019182015416828401529083529092019101611bac565b50505050815260200160058201805480602002602001604051908101604052809291908181526020016000905b82821015611c6d57600084815260209081902060408051808201909152908401546001600160a01b0381168252600160a01b900460ff1681830152825260019092019101611c24565b505050908252506006820154602082015260078201546040820152600882015460ff16606082015260098201546080820152600a82015460a0820152600b82015460c0820152600c82015460e0820152600d820154610100820152600e909101546101209091015292915050565b61090b6127b9565b7f4910fdfa16fed3260ed0e7147f7cc6da11a60208b5b9406d12a635614ffd91435460ff1615611d16576110a483612cfb565b826001600160a01b03166352d1902d6040518163ffffffff1660e01b8152600401602060405180830381865afa925050508015611d70575060408051601f3d908101601f19168201909252611d6d918101906141ea565b60015b611de25760405162461bcd60e51b815260206004820152602e60248201527f45524331393637557067726164653a206e657720696d706c656d656e7461746960448201527f6f6e206973206e6f7420555550530000000000000000000000000000000000006064820152608401610817565b7f360894a13ba1a3210667c828492db98dca3e2076cc3735a920a3ca505d382bbc8114611e775760405162461bcd60e51b815260206004820152602960248201527f45524331393637557067726164653a20756e737570706f727465642070726f7860448201527f6961626c655555494400000000000000000000000000000000000000000000006064820152608401610817565b506110a4838383612db9565b6000670de0b6b3a7640000611e98838561417c565b611ea291906141a9565b90505b92915050565b60d8546064611ebb82605f61417c565b611ec591906141a9565b841015611f3a5760405162461bcd60e51b815260206004820152602660248201527f56616c7565206973206c657373207468656e20726567697374726174696f6e2060448201527f76616c75652e00000000000000000000000000000000000000000000000000006064820152608401610817565b60d5546001600160a01b03808716600090815260da6020526040808220928a1682528120600683015460ff8086169561010090041693919015611fbf5760405162461bcd60e51b815260206004820152601760248201527f5573657220616c726561647920726567697374657265640000000000000000006044820152606401610817565b81546001600160a01b0316611fe85781546001600160a01b0319166001600160a01b038b161782555b80546001600160a01b03166120115780546001600160a01b0319166001600160a01b038c161781555b81600601546000036120695760c980546001810182556000919091527f66be4f155c5ef2ebd3772b228f2f00681e4ed5826cdb3b1943cc11ad15ad1d280180546001600160a01b0319166001600160a01b038c161790555b8882600601600082825461207d9190614121565b9091555050604080516101e08101825283546001600160a01b03908116825260018501548116602080840191909152600286015490911682840152600385018054845181840281018401909552808552612270948793606086019391929083018282801561211457602002820191906000526020600020905b81546001600160a01b031681526001909101906020018083116120f6575b5050505050815260200160048201805480602002602001604051908101604052809291908181526020016000905b8282101561218d576000848152602090819020604080518082019091526002850290910180546001600160a01b03908116835260019182015416828401529083529092019101612142565b50505050815260200160058201805480602002602001604051908101604052809291908181526020016000905b8282101561220357600084815260209081902060408051808201909152908401546001600160a01b0381168252600160a01b900460ff16818301528252600190920191016121ba565b505050908252506006820154602082015260078201546040820152600882015460ff16606082015260098201546080820152600a82015460a0820152600b82015460c0820152600c82015460e0820152600d820154610100820152600e9091015461012090910152612dde565b6122835761227e8b8b612dfd565b6122eb565b7f1f4fff38c5e64af9e759d590409f022ea913658008bb1d0cd35e028244f01ecf6040516122e2906020808252601f908201527f5573657220416c72656164792068617665207265666572726572207365742e00604082015260600190565b60405180910390a15b600182015460028301548354604080516001600160a01b0394851681529284166020840152921681830152606081018b905290517f0411c58b3c1e8a39d91c901e5c807bff1401650beedc45aba65112756bb929b49181900360800190a16000606461235a60ff88168b61417c565b61236491906141a9565b90506000612372828a611e83565b60018501546001600160a01b03908116600090815260da60205260409020805492935091161561245f5780546040516001600160a01b039091169084156108fc029085906000818181858888f193505050501580156123d5573d6000803e3d6000fd5b508054604080516001600160a01b039283168152918f1660208301528101849052600160608201527f153f77382d7e07de734977ae352e9b1f5f8ad4b1c0033c883a9a33456a87836f9060800160405180910390a18181600b01600082825461243e9190614121565b925050819055508b8160090160008282546124599190614121565b90915550505b6124698287614121565b955060005b8760ff168160ff1610156125d957604080516101e08101825287546001600160a01b0390811682526001890154811660208084019190915260028a015490911682840152600389018054845181840281018401909552808552612584948b936060860193919290830182828015612114576020028201919060005260206000209081546001600160a01b031681526001909101906020018083116120f6575050505050815260200160048201805480602002602001604051908101604052809291908181526020016000908282101561218d576000848152602090819020604080518082019091526002850290910180546001600160a01b03908116835260019182015416828401529083529092019101612142565b156125d95760028601546001600160a01b0316600090815260da60205260408120600a810180549197508f9290916125bd908490614121565b90915550949550859450806125d18161414a565b91505061246e565b5060cf546000906064906125f790600160a01b900460ff168e61417c565b61260191906141a9565b60cf546040519192506001600160a01b03169082156108fc029083906000818181858888f1935050505015801561263c573d6000803e3d6000fd5b5060cf54604080516001600160a01b039092168252602082018390527f5aa75bdb3269082e844d731608afae2a07cbf194f251e3f857b870af86b754fb910160405180910390a18660cc60008282546126959190614121565b925050819055508c60cb60008282546126ae9190614121565b909155505060d1546000906064906126c99060ff168f61417c565b6126d391906141a9565b60d9546040519192506001600160a01b03169082156108fc029083906000818181858888f1935050505015801561270e573d6000803e3d6000fd5b508060d060008282546127219190614121565b909155505060d3546064906127399060ff168f61417c565b61274391906141a9565b60d260008282546127549190614121565b909155505050505050505050505050505050505050565b6000805b60328160ff1610156127b55760ff808216600090815260db602052604090205416156127b5578161279f8161414a565b92505080806127ad9061414a565b91505061276f565b5090565b6033546001600160a01b03163314610cea5760405162461bcd60e51b815260206004820181905260248201527f4f776e61626c653a2063616c6c6572206973206e6f7420746865206f776e65726044820152606401610817565b603380546001600160a01b038381166001600160a01b0319831681179093556040519116919082907f8be0079c531659141344cd1fd0a4f28419497f9722a3daafe3b4186f6b6457e090600090a35050565b6001600160a01b038116600090815260da60209081526040808320600881015460ff90811680865260db855283862084518086019095528054909216845260019091015493830193909352926128b961276b565b905081602001518610156129355760405162461bcd60e51b815260206004820152602660248201527f56616c75652073686f756c6420626520657175616c20746f207570677261646560448201527f2076616c756500000000000000000000000000000000000000000000000000006064820152608401610817565b8060ff168360ff161061298a5760405162461bcd60e51b815260206004820152601f60248201527f5573657220636f6e73756d656420616c6c207570677261646520706c616e73006044820152606401610817565b8584600701600082825461299e9190614121565b90915550600090505b8360ff168111612be55760028501546001600160a01b031615612be55760028501546001600160a01b0316600090815260da6020526040902060ff85168203612bd357600881015460ff8087169116118015612a0c575080546001600160a01b031615155b15612ab6578781600d016000828254612a259190614121565b909155505080546040516001600160a01b03909116908a156108fc02908b906000818181858888f19350505050158015612a63573d6000803e3d6000fd5b508054604080516001600160a01b039283168152918916602083015281018a90527fb37800f632235e56e1626c9e9df3de1e167e9298f0d25f59fd74ec65e31116529060600160405180910390a1612bcd565b7f6696b78fc1713892e6e2bb3df5cdc986ab67a0c675898c7ef535bd2201ca9451604051612b3b906020808252603f908201527f55706c696e6520686173206e6f742075706772616465642e20416d6f756e742060408201527f7472616e73666572656420746f206c69717569646974792077616c6c65742e00606082015260800190565b60405180910390a160d9546040516001600160a01b039091169081908b156108fc02908c906000818181858888f19350505050158015612b7f573d6000803e3d6000fd5b50604080516001600160a01b0380841682528a1660208201529081018b90527fb37800f632235e56e1626c9e9df3de1e167e9298f0d25f59fd74ec65e31116529060600160405180910390a1505b50612be5565b9450612bde81614203565b90506129a7565b5060088401805460ff16906000612bfb8361414a565b91906101000a81548160ff021916908360ff1602179055505050505050505050565b600054610100900460ff16612c885760405162461bcd60e51b815260206004820152602b60248201527f496e697469616c697a61626c653a20636f6e7472616374206973206e6f74206960448201526a6e697469616c697a696e6760a81b6064820152608401610817565b610cea6137ec565b600054610100900460ff16610cea5760405162461bcd60e51b815260206004820152602b60248201527f496e697469616c697a61626c653a20636f6e7472616374206973206e6f74206960448201526a6e697469616c697a696e6760a81b6064820152608401610817565b6001600160a01b0381163b612d785760405162461bcd60e51b815260206004820152602d60248201527f455243313936373a206e657720696d706c656d656e746174696f6e206973206e60448201527f6f74206120636f6e7472616374000000000000000000000000000000000000006064820152608401610817565b7f360894a13ba1a3210667c828492db98dca3e2076cc3735a920a3ca505d382bbc80546001600160a01b0319166001600160a01b0392909216919091179055565b612dc283613860565b600082511180612dcf5750805b156110a4576109b383836138a0565b60408101516000906001600160a01b031615612df8575060015b919050565b6001600160a01b03808216600081815260da6020526040902091841603612e665760405162461bcd60e51b815260206004820152601a60248201527f596f752063616e6e6f7420726566657220796f757273656c662e0000000000006044820152606401610817565b60006001600160a01b038416612e96575060d7546001600160a01b0316600090815260da60205260409020612eb0565b506001600160a01b038316600090815260da602052604090205b604080516101e08101825282546001600160a01b0390811682526001840154811660208084019190915260028501549091168284015260038401805484518184028101840190955280855261309e9486936060860193919290830182828015612f4257602002820191906000526020600020905b81546001600160a01b03168152600190910190602001808311612f24575b5050505050815260200160048201805480602002602001604051908101604052809291908181526020016000905b82821015612fbb576000848152602090819020604080518082019091526002850290910180546001600160a01b03908116835260019182015416828401529083529092019101612f70565b50505050815260200160058201805480602002602001604051908101604052809291908181526020016000905b8282101561303157600084815260209081902060408051808201909152908401546001600160a01b0381168252600160a01b900460ff1681830152825260019092019101612fe8565b505050908252506006820154602082015260078201546040820152600882015460ff16606082015260098201546080820152600a82015460a0820152600b82015460c0820152600c82015460e0820152600d820154610100820152600e90910154610120909101526139ab565b6131ef576130ac81836139d5565b60038101805460018082018355600083815260209081902090920180546001600160a01b0319166001600160a01b0388811691909117909155604080516101e0810182528654831681529286015482168385015260028601549091168282015283548151818502810185019092528082526131dc94929386936060860193929091830182828015612f42576020028201919060005260206000209081546001600160a01b03168152600190910190602001808311612f245750505050508152602001600482018054806020026020016040519081016040528092919081815260200160009082821015612fbb576000848152602090819020604080518082019091526002850290910180546001600160a01b03908116835260019182015416828401529083529092019101612f70565b156131ea576131ea81613a38565b613621565b600060da60006131fd613b2d565b6001600160a01b03166001600160a01b03168152602001908152602001600020905061322981846139d5565b604080516101e08101825282546001600160a01b039081168252600184015481166020808401919091526002850154909116828401526003840180548451818402810184019095528085526133319486936060860193919290830182828015612f42576020028201919060005260206000209081546001600160a01b03168152600190910190602001808311612f245750505050508152602001600482018054806020026020016040519081016040528092919081815260200160009082821015612fbb576000848152602090819020604080518082019091526002850290910180546001600160a01b03908116835260019182015416828401529083529092019101612f70565b1561333f5761333f81613a38565b81548154604080516001600160a01b03938416815291831660208301529186168183015290517fa1b30426557565c4fa85ce5f9c88513d7d3f49d21eb30569c249b07b037831ef9181900360600190a1604080518082019091526001600160a01b0380861682528254811660208084019182526004860180546001818101835560009283529282209551600290910290950180549585166001600160a01b031996871617815592519290910180549290931691909316179055600684015490036135f157604080516101e08101825284546001600160a01b039081168252600186015481166020808401919091526002870154909116828401526003860180548451818402810184019095528085526135f1948893606086019391929083018282801561349557602002820191906000526020600020905b81546001600160a01b03168152600190910190602001808311613477575b5050505050815260200160048201805480602002602001604051908101604052809291908181526020016000905b8282101561350e576000848152602090819020604080518082019091526002850290910180546001600160a01b039081168352600191820154168284015290835290920191016134c3565b50505050815260200160058201805480602002602001604051908101604052809291908181526020016000905b8282101561358457600084815260209081902060408051808201909152908401546001600160a01b0381168252600160a01b900460ff168183015282526001909201910161353b565b505050908252506006820154602082015260078201546040820152600882015460ff16606082015260098201546080820152600a82015460a0820152600b82015460c0820152600c82015460e0820152600d820154610100820152600e9091015461012090910152613bb4565b6003018054600181018255600091825260209091200180546001600160a01b0319166001600160a01b0385161790555b60018201546001600160a01b031661369f5780546001830180546001600160a01b039283166001600160a01b0319909116811790915560028401546040805192835290831660208301529185168183015290517f8efa008f8ae98ae30d3219078a298c85bc25a62f50c57ed9a3ec838b7eed9f479181900360600190a15b60d554610100900460ff1660005b8160ff168160ff1610156137e45760028401546001600160a01b0316156137e45760028401546001600160a01b03908116600090815260da602090815260409182902082518084019093529288168252919450600585019181016137128460016141bd565b60ff90811690915282546001818101855560009485526020948590208451920180549590940151909216600160a01b0274ffffffffffffffffffffffffffffffffffffffffff199094166001600160a01b03918216179390931790915584547f85db3f10b88ea7fc653f3f818097a3fc3c543196ed60cad2251df922bcc9ad7f92169087906137a29085906141bd565b604080516001600160a01b03948516815293909216602084015260ff169082015260600160405180910390a182935080806137dc9061414a565b9150506136ad565b505050505050565b600054610100900460ff166138575760405162461bcd60e51b815260206004820152602b60248201527f496e697469616c697a61626c653a20636f6e7472616374206973206e6f74206960448201526a6e697469616c697a696e6760a81b6064820152608401610817565b610cea33612813565b61386981612cfb565b6040516001600160a01b038216907fbc7cd75a20ee27fd9adebab32041f755214dbc6bffa90cc0225b39da2e5c2d3b90600090a250565b60606001600160a01b0383163b61391f5760405162461bcd60e51b815260206004820152602660248201527f416464726573733a2064656c65676174652063616c6c20746f206e6f6e2d636f60448201527f6e747261637400000000000000000000000000000000000000000000000000006064820152608401610817565b600080846001600160a01b03168460405161393a9190614240565b600060405180830381855af49150503d8060008114613975576040519150601f19603f3d011682016040523d82523d6000602084013e61397a565b606091505b50915091506139a282826040518060600160405280602781526020016142a660279139613c3d565b95945050505050565b600060d65482606001515111806139c8575060d654826060015151145b15612df857506001919050565b81546002820180546001600160a01b0319166001600160a01b0392831617905582548254604080519284168352921660208201527fec49a3c8c4ae06c18160fe86119c381c9d213ac3e052ff35b594da8687b193c7910160405180910390a15050565b60ca8054613a4890600190614169565b81548110613a5857613a58614134565b9060005260206000200160009054906101000a90046001600160a01b031660ca82600e015481548110613a8d57613a8d614134565b9060005260206000200160006101000a8154816001600160a01b0302191690836001600160a01b0316021790555060ca805480613acc57613acc61425c565b6000828152602090819020600019908301810180546001600160a01b031916905590910190915581546040516001600160a01b0390911681527f644b85583ba83e73113ffc0c122b165819ca11db493cd4cc38f5ba29138ffa1b9101610ef8565b6000804244613b3d600143614169565b60408051602081019490945283019190915240606082015260800160408051601f19818403018152919052805160209091012060ca54909150600090613b8390836141d6565b905060ca8181548110613b9857613b98614134565b6000918252602090912001546001600160a01b03169392505050565b60ca80546101c0830181905282516001820183556000929092527f42d72674974f694b5f5159593243114d38a5c39c89d6b62fee061ff523240ee10180546001600160a01b0319166001600160a01b039283161790558151604051911681527f06baf10092c7ea144c4fb56fb8cf641e1f00e291a535b5d54b547eadb29485a790602001610ef8565b60608315613c4c575081613c56565b613c568383613c5d565b9392505050565b815115613c6d5781518083602001fd5b8060405162461bcd60e51b81526004016108179190614272565b80356001600160a01b0381168114612df857600080fd5b600060208284031215613cb057600080fd5b611ea282613c87565b634e487b7160e01b600052604160045260246000fd5b60008060408385031215613ce257600080fd5b613ceb83613c87565b9150602083013567ffffffffffffffff80821115613d0857600080fd5b818501915085601f830112613d1c57600080fd5b813581811115613d2e57613d2e613cb9565b604051601f8201601f19908116603f01168101908382118183101715613d5657613d56613cb9565b81604052828152886020848701011115613d6f57600080fd5b8260208601602083013760006020848301015280955050505050509250929050565b60408082528351828201819052600091906020906060850190828801855b82811015613ddf57613dcf848351805160ff168252602090810151910152565b9285019290840190600101613daf565b50505060ff95909516930192909252509092915050565b600060208284031215613e0857600080fd5b813560ff81168114613c5657600080fd5b815160ff1681526020808301519082015260408101611ea5565b60008060208385031215613e4657600080fd5b823567ffffffffffffffff80821115613e5e57600080fd5b818501915085601f830112613e7257600080fd5b813581811115613e8157600080fd5b8660208260051b8501011115613e9657600080fd5b60209290920196919550909350505050565b600081518084526020808501945080840160005b83811015613ee15781516001600160a01b031687529582019590820190600101613ebc565b509495945050505050565b600081518084526020808501945080840160005b83811015613ee157815180516001600160a01b03908116895290840151168388015260409096019590820190600101613f00565b600081518084526020808501945080840160005b83811015613ee157815180516001600160a01b0316885283015160ff168388015260409096019590820190600101613f48565b6001600160a01b038816815260e060208201526000613f9d60e0830189613ea8565b8760408401528281036060840152613fb58188613eec565b905085608084015282810360a0840152613fcf8186613f34565b9150508260c083015298975050505050505050565b60208152613ffe6020820183516001600160a01b03169052565b6000602083015161401a60408401826001600160a01b03169052565b5060408301516001600160a01b03811660608401525060608301516101e080608085015261404c610200850183613ea8565b91506080850151601f19808685030160a087015261406a8483613eec565b935060a08701519150808685030160c0870152506140888382613f34565b92505060c085015160e085015260e08501516101008181870152808701519150506101206140ba8187018360ff169052565b8601516101408681019190915286015161016080870191909152860151610180808701919091528601516101a0808701919091528601516101c0808701919091529095015193019290925250919050565b634e487b7160e01b600052601160045260246000fd5b80820180821115611ea557611ea561410b565b634e487b7160e01b600052603260045260246000fd5b600060ff821660ff81036141605761416061410b565b60010192915050565b81810381811115611ea557611ea561410b565b8082028115828204841417611ea557611ea561410b565b634e487b7160e01b600052601260045260246000fd5b6000826141b8576141b8614193565b500490565b60ff8181168382160190811115611ea557611ea561410b565b6000826141e5576141e5614193565b500690565b6000602082840312156141fc57600080fd5b5051919050565b6000600182016142155761421561410b565b5060010190565b60005b8381101561423757818101518382015260200161421f565b50506000910152565b6000825161425281846020870161421c565b9190910192915050565b634e487b7160e01b600052603160045260246000fd5b602081526000825180602084015261429181604085016020870161421c565b601f01601f1916919091016040019291505056fe416464726573733a206c6f772d6c6576656c2064656c65676174652063616c6c206661696c6564a264697066735822122084b6973a071970dcba05bb4b6541d0c31bb0093ffff693c8fcad1c4875d2221164736f6c63430008120033","opcodes":"PUSH1 0xA0 PUSH1 0x40 MSTORE ADDRESS PUSH1 0x80 MSTORE CALLVALUE DUP1 ISZERO PUSH2 0x14 JUMPI PUSH1 0x0 DUP1 REVERT JUMPDEST POP PUSH1 0x80 MLOAD PUSH2 0x4302 PUSH2 0x4C PUSH1 0x0 CODECOPY PUSH1 0x0 DUP2 DUP2 PUSH2 0x798 ADD MSTORE DUP2 DUP2 PUSH2 0x822 ADD MSTORE DUP2 DUP2 PUSH2 0x9C3 ADD MSTORE DUP2 DUP2 PUSH2 0xA48 ADD MSTORE PUSH2 0xB32 ADD MSTORE PUSH2 0x4302 PUSH1 0x0 RETURN INVALID PUSH1 0x80 PUSH1 0x40 MSTORE PUSH1 0x4 CALLDATASIZE LT PUSH2 0x18F JUMPI PUSH1 0x0 CALLDATALOAD PUSH1 0xE0 SHR DUP1 PUSH4 0x846688F7 GT PUSH2 0xD6 JUMPI DUP1 PUSH4 0xEBD0F48F GT PUSH2 0x7F JUMPI DUP1 PUSH4 0xF9250171 GT PUSH2 0x59 JUMPI DUP1 PUSH4 0xF9250171 EQ PUSH2 0x4BE JUMPI DUP1 PUSH4 0xFAEDA7E5 EQ PUSH2 0x4F7 JUMPI DUP1 PUSH4 0xFB47E016 EQ PUSH2 0x52A JUMPI PUSH1 0x0 DUP1 REVERT JUMPDEST DUP1 PUSH4 0xEBD0F48F EQ PUSH2 0x469 JUMPI DUP1 PUSH4 0xF2FDE38B EQ PUSH2 0x47E JUMPI DUP1 PUSH4 0xF87127B4 EQ PUSH2 0x49E JUMPI PUSH1 0x0 DUP1 REVERT JUMPDEST DUP1 PUSH4 0xA9DF9FAE GT PUSH2 0xB0 JUMPI DUP1 PUSH4 0xA9DF9FAE EQ PUSH2 0x3C9 JUMPI DUP1 PUSH4 0xAC21689A EQ PUSH2 0x434 JUMPI DUP1 PUSH4 0xE35422E7 EQ PUSH2 0x449 JUMPI PUSH1 0x0 DUP1 REVERT JUMPDEST DUP1 PUSH4 0x846688F7 EQ PUSH2 0x35C JUMPI DUP1 PUSH4 0x8DA5CB5B EQ PUSH2 0x38C JUMPI DUP1 PUSH4 0xA7BE6A72 EQ PUSH2 0x3B4 JUMPI PUSH1 0x0 DUP1 REVERT JUMPDEST DUP1 PUSH4 0x52D1902D GT PUSH2 0x138 JUMPI DUP1 PUSH4 0x715018A6 GT PUSH2 0x112 JUMPI DUP1 PUSH4 0x715018A6 EQ PUSH2 0x32A JUMPI DUP1 PUSH4 0x770CC0DD EQ PUSH2 0x33F JUMPI DUP1 PUSH4 0x8129FC1C EQ PUSH2 0x347 JUMPI PUSH1 0x0 DUP1 REVERT JUMPDEST DUP1 PUSH4 0x52D1902D EQ PUSH2 0x2CF JUMPI DUP1 PUSH4 0x59A04544 EQ PUSH2 0x2F2 JUMPI DUP1 PUSH4 0x63A54042 EQ PUSH2 0x315 JUMPI PUSH1 0x0 DUP1 REVERT JUMPDEST DUP1 PUSH4 0x3659CFE6 GT PUSH2 0x169 JUMPI DUP1 PUSH4 0x3659CFE6 EQ PUSH2 0x287 JUMPI DUP1 PUSH4 0x438C2F55 EQ PUSH2 0x2A9 JUMPI DUP1 PUSH4 0x4F1EF286 EQ PUSH2 0x2BC JUMPI PUSH1 0x0 DUP1 REVERT JUMPDEST DUP1 PUSH4 0x690C6A8 EQ PUSH2 0x19B JUMPI DUP1 PUSH4 0x78B0FB7 EQ PUSH2 0x1E0 JUMPI DUP1 PUSH4 0x1A746344 EQ PUSH2 0x220 JUMPI PUSH1 0x0 DUP1 REVERT JUMPDEST CALLDATASIZE PUSH2 0x196 JUMPI STOP JUMPDEST PUSH1 0x0 DUP1 REVERT JUMPDEST CALLVALUE DUP1 ISZERO PUSH2 0x1A7 JUMPI PUSH1 0x0 DUP1 REVERT JUMPDEST POP PUSH1 0xC9 SLOAD PUSH1 0xCB SLOAD PUSH1 0xCC SLOAD PUSH1 0xCE SLOAD PUSH1 0x40 DUP1 MLOAD PUSH4 0xFFFFFFFF SWAP1 SWAP6 AND DUP6 MSTORE PUSH1 0x20 DUP6 ADD SWAP4 SWAP1 SWAP4 MSTORE SWAP2 DUP4 ADD MSTORE PUSH1 0x60 DUP3 ADD MSTORE PUSH1 0x80 ADD JUMPDEST PUSH1 0x40 MLOAD DUP1 SWAP2 SUB SWAP1 RETURN JUMPDEST CALLVALUE DUP1 ISZERO PUSH2 0x1EC JUMPI PUSH1 0x0 DUP1 REVERT JUMPDEST POP PUSH2 0x200 PUSH2 0x1FB CALLDATASIZE PUSH1 0x4 PUSH2 0x3C9E JUMP JUMPDEST PUSH2 0x557 JUMP JUMPDEST PUSH1 0x40 DUP1 MLOAD SWAP5 DUP6 MSTORE PUSH1 0x20 DUP6 ADD SWAP4 SWAP1 SWAP4 MSTORE SWAP2 DUP4 ADD MSTORE PUSH1 0x60 DUP3 ADD MSTORE PUSH1 0x80 ADD PUSH2 0x1D7 JUMP JUMPDEST CALLVALUE DUP1 ISZERO PUSH2 0x22C JUMPI PUSH1 0x0 DUP1 REVERT JUMPDEST POP PUSH1 0xCF SLOAD PUSH1 0xD9 SLOAD PUSH1 0xD1 SLOAD PUSH1 0xD7 SLOAD PUSH1 0xD8 SLOAD PUSH1 0x40 DUP1 MLOAD PUSH1 0x1 PUSH1 0x1 PUSH1 0xA0 SHL SUB DUP1 DUP9 AND DUP3 MSTORE PUSH1 0xFF PUSH1 0x1 PUSH1 0xA0 SHL SWAP1 SWAP9 DIV DUP9 AND PUSH1 0x20 DUP4 ADD MSTORE SWAP6 DUP7 AND SWAP2 DUP2 ADD SWAP2 SWAP1 SWAP2 MSTORE SWAP5 SWAP1 SWAP3 AND PUSH1 0x60 DUP6 ADD MSTORE SWAP2 SWAP1 SWAP2 AND PUSH1 0x80 DUP4 ADD MSTORE PUSH1 0xA0 DUP3 ADD MSTORE PUSH1 0xC0 ADD PUSH2 0x1D7 JUMP JUMPDEST CALLVALUE DUP1 ISZERO PUSH2 0x293 JUMPI PUSH1 0x0 DUP1 REVERT JUMPDEST POP PUSH2 0x2A7 PUSH2 0x2A2 CALLDATASIZE PUSH1 0x4 PUSH2 0x3C9E JUMP JUMPDEST PUSH2 0x78E JUMP JUMPDEST STOP JUMPDEST PUSH2 0x2A7 PUSH2 0x2B7 CALLDATASIZE PUSH1 0x4 PUSH2 0x3C9E JUMP JUMPDEST PUSH2 0x90E JUMP JUMPDEST PUSH2 0x2A7 PUSH2 0x2CA CALLDATASIZE PUSH1 0x4 PUSH2 0x3CCF JUMP JUMPDEST PUSH2 0x9B9 JUMP JUMPDEST CALLVALUE DUP1 ISZERO PUSH2 0x2DB JUMPI PUSH1 0x0 DUP1 REVERT JUMPDEST POP PUSH2 0x2E4 PUSH2 0xB25 JUMP JUMPDEST PUSH1 0x40 MLOAD SWAP1 DUP2 MSTORE PUSH1 0x20 ADD PUSH2 0x1D7 JUMP JUMPDEST CALLVALUE DUP1 ISZERO PUSH2 0x2FE JUMPI PUSH1 0x0 DUP1 REVERT JUMPDEST POP PUSH2 0x307 PUSH2 0xBEA JUMP JUMPDEST PUSH1 0x40 MLOAD PUSH2 0x1D7 SWAP3 SWAP2 SWAP1 PUSH2 0x3D91 JUMP JUMPDEST CALLVALUE DUP1 ISZERO PUSH2 0x321 JUMPI PUSH1 0x0 DUP1 REVERT JUMPDEST POP PUSH1 0xDC SLOAD PUSH2 0x2E4 JUMP JUMPDEST CALLVALUE DUP1 ISZERO PUSH2 0x336 JUMPI PUSH1 0x0 DUP1 REVERT JUMPDEST POP PUSH2 0x2A7 PUSH2 0xCD8 JUMP JUMPDEST PUSH2 0x2A7 PUSH2 0xCEC JUMP JUMPDEST CALLVALUE DUP1 ISZERO PUSH2 0x353 JUMPI PUSH1 0x0 DUP1 REVERT JUMPDEST POP PUSH2 0x2A7 PUSH2 0xD0E JUMP JUMPDEST CALLVALUE DUP1 ISZERO PUSH2 0x368 JUMPI PUSH1 0x0 DUP1 REVERT JUMPDEST POP PUSH2 0x371 PUSH2 0xF03 JUMP JUMPDEST PUSH1 0x40 DUP1 MLOAD SWAP4 DUP5 MSTORE PUSH1 0x20 DUP5 ADD SWAP3 SWAP1 SWAP3 MSTORE SWAP1 DUP3 ADD MSTORE PUSH1 0x60 ADD PUSH2 0x1D7 JUMP JUMPDEST CALLVALUE DUP1 ISZERO PUSH2 0x398 JUMPI PUSH1 0x0 DUP1 REVERT JUMPDEST POP PUSH1 0x33 SLOAD PUSH1 0x40 MLOAD PUSH1 0x1 PUSH1 0x1 PUSH1 0xA0 SHL SUB SWAP1 SWAP2 AND DUP2 MSTORE PUSH1 0x20 ADD PUSH2 0x1D7 JUMP JUMPDEST CALLVALUE DUP1 ISZERO PUSH2 0x3C0 JUMPI PUSH1 0x0 DUP1 REVERT JUMPDEST POP PUSH2 0x2A7 PUSH2 0xF39 JUMP JUMPDEST CALLVALUE DUP1 ISZERO PUSH2 0x3D5 JUMPI PUSH1 0x0 DUP1 REVERT JUMPDEST POP PUSH2 0x427 PUSH2 0x3E4 CALLDATASIZE PUSH1 0x4 PUSH2 0x3DF6 JUMP JUMPDEST PUSH1 0x40 DUP1 MLOAD DUP1 DUP3 ADD DUP3 MSTORE PUSH1 0x0 DUP1 DUP3 MSTORE PUSH1 0x20 SWAP2 DUP3 ADD DUP2 SWAP1 MSTORE PUSH1 0xFF SWAP4 DUP5 AND DUP2 MSTORE PUSH1 0xDB DUP3 MSTORE DUP3 SWAP1 KECCAK256 DUP3 MLOAD DUP1 DUP5 ADD SWAP1 SWAP4 MSTORE DUP1 SLOAD SWAP1 SWAP4 AND DUP3 MSTORE PUSH1 0x1 SWAP1 SWAP3 ADD SLOAD SWAP2 DUP2 ADD SWAP2 SWAP1 SWAP2 MSTORE SWAP1 JUMP JUMPDEST PUSH1 0x40 MLOAD PUSH2 0x1D7 SWAP2 SWAP1 PUSH2 0x3E19 JUMP JUMPDEST CALLVALUE DUP1 ISZERO PUSH2 0x440 JUMPI PUSH1 0x0 DUP1 REVERT JUMPDEST POP PUSH2 0x2E4 PUSH2 0xFCD JUMP JUMPDEST CALLVALUE DUP1 ISZERO PUSH2 0x455 JUMPI PUSH1 0x0 DUP1 REVERT JUMPDEST POP PUSH2 0x2A7 PUSH2 0x464 CALLDATASIZE PUSH1 0x4 PUSH2 0x3E33 JUMP JUMPDEST PUSH2 0xFFC JUMP JUMPDEST CALLVALUE DUP1 ISZERO PUSH2 0x475 JUMPI PUSH1 0x0 DUP1 REVERT JUMPDEST POP PUSH2 0x2A7 PUSH2 0x10A9 JUMP JUMPDEST CALLVALUE DUP1 ISZERO PUSH2 0x48A JUMPI PUSH1 0x0 DUP1 REVERT JUMPDEST POP PUSH2 0x2A7 PUSH2 0x499 CALLDATASIZE PUSH1 0x4 PUSH2 0x3C9E JUMP JUMPDEST PUSH2 0x1332 JUMP JUMPDEST CALLVALUE DUP1 ISZERO PUSH2 0x4AA JUMPI PUSH1 0x0 DUP1 REVERT JUMPDEST POP PUSH2 0x200 PUSH2 0x4B9 CALLDATASIZE PUSH1 0x4 PUSH2 0x3C9E JUMP JUMPDEST PUSH2 0x13BF JUMP JUMPDEST CALLVALUE DUP1 ISZERO PUSH2 0x4CA JUMPI PUSH1 0x0 DUP1 REVERT JUMPDEST POP PUSH2 0x4DE PUSH2 0x4D9 CALLDATASIZE PUSH1 0x4 PUSH2 0x3C9E JUMP JUMPDEST PUSH2 0x15E1 JUMP JUMPDEST PUSH1 0x40 DUP1 MLOAD PUSH1 0xFF SWAP1 SWAP4 AND DUP4 MSTORE PUSH1 0x20 DUP4 ADD SWAP2 SWAP1 SWAP2 MSTORE ADD PUSH2 0x1D7 JUMP JUMPDEST CALLVALUE DUP1 ISZERO PUSH2 0x503 JUMPI PUSH1 0x0 DUP1 REVERT JUMPDEST POP PUSH2 0x517 PUSH2 0x512 CALLDATASIZE PUSH1 0x4 PUSH2 0x3C9E JUMP JUMPDEST PUSH2 0x1805 JUMP JUMPDEST PUSH1 0x40 MLOAD PUSH2 0x1D7 SWAP8 SWAP7 SWAP6 SWAP5 SWAP4 SWAP3 SWAP2 SWAP1 PUSH2 0x3F7B JUMP JUMPDEST CALLVALUE DUP1 ISZERO PUSH2 0x536 JUMPI PUSH1 0x0 DUP1 REVERT JUMPDEST POP PUSH2 0x54A PUSH2 0x545 CALLDATASIZE PUSH1 0x4 PUSH2 0x3C9E JUMP JUMPDEST PUSH2 0x1A4C JUMP JUMPDEST PUSH1 0x40 MLOAD PUSH2 0x1D7 SWAP2 SWAP1 PUSH2 0x3FE4 JUMP JUMPDEST PUSH1 0x1 PUSH1 0x1 PUSH1 0xA0 SHL SUB DUP1 DUP3 AND PUSH1 0x0 SWAP1 DUP2 MSTORE PUSH1 0xDA PUSH1 0x20 SWAP1 DUP2 MSTORE PUSH1 0x40 DUP1 DUP4 KECCAK256 DUP2 MLOAD PUSH2 0x1E0 DUP2 ADD DUP4 MSTORE DUP2 SLOAD DUP7 AND DUP2 MSTORE PUSH1 0x1 DUP3 ADD SLOAD DUP7 AND DUP2 DUP6 ADD MSTORE PUSH1 0x2 DUP3 ADD SLOAD SWAP1 SWAP6 AND DUP6 DUP4 ADD MSTORE PUSH1 0x3 DUP2 ADD DUP1 SLOAD DUP4 MLOAD DUP2 DUP7 MUL DUP2 ADD DUP7 ADD SWAP1 SWAP5 MSTORE DUP1 DUP5 MSTORE SWAP5 SWAP6 DUP7 SWAP6 DUP7 SWAP6 DUP7 SWAP6 DUP7 SWAP6 SWAP4 SWAP5 PUSH1 0x60 DUP7 ADD SWAP4 SWAP2 SWAP3 SWAP1 SWAP2 SWAP1 DUP4 ADD DUP3 DUP3 DUP1 ISZERO PUSH2 0x5FD JUMPI PUSH1 0x20 MUL DUP3 ADD SWAP2 SWAP1 PUSH1 0x0 MSTORE PUSH1 0x20 PUSH1 0x0 KECCAK256 SWAP1 JUMPDEST DUP2 SLOAD PUSH1 0x1 PUSH1 0x1 PUSH1 0xA0 SHL SUB AND DUP2 MSTORE PUSH1 0x1 SWAP1 SWAP2 ADD SWAP1 PUSH1 0x20 ADD DUP1 DUP4 GT PUSH2 0x5DF JUMPI JUMPDEST POP POP POP POP POP DUP2 MSTORE PUSH1 0x20 ADD PUSH1 0x4 DUP3 ADD DUP1 SLOAD DUP1 PUSH1 0x20 MUL PUSH1 0x20 ADD PUSH1 0x40 MLOAD SWAP1 DUP2 ADD PUSH1 0x40 MSTORE DUP1 SWAP3 SWAP2 SWAP1 DUP2 DUP2 MSTORE PUSH1 0x20 ADD PUSH1 0x0 SWAP1 JUMPDEST DUP3 DUP3 LT ISZERO PUSH2 0x676 JUMPI PUSH1 0x0 DUP5 DUP2 MSTORE PUSH1 0x20 SWAP1 DUP2 SWAP1 KECCAK256 PUSH1 0x40 DUP1 MLOAD DUP1 DUP3 ADD SWAP1 SWAP2 MSTORE PUSH1 0x2 DUP6 MUL SWAP1 SWAP2 ADD DUP1 SLOAD PUSH1 0x1 PUSH1 0x1 PUSH1 0xA0 SHL SUB SWAP1 DUP2 AND DUP4 MSTORE PUSH1 0x1 SWAP2 DUP3 ADD SLOAD AND DUP3 DUP5 ADD MSTORE SWAP1 DUP4 MSTORE SWAP1 SWAP3 ADD SWAP2 ADD PUSH2 0x62B JUMP JUMPDEST POP POP POP POP DUP2 MSTORE PUSH1 0x20 ADD PUSH1 0x5 DUP3 ADD DUP1 SLOAD DUP1 PUSH1 0x20 MUL PUSH1 0x20 ADD PUSH1 0x40 MLOAD SWAP1 DUP2 ADD PUSH1 0x40 MSTORE DUP1 SWAP3 SWAP2 SWAP1 DUP2 DUP2 MSTORE PUSH1 0x20 ADD PUSH1 0x0 SWAP1 JUMPDEST DUP3 DUP3 LT ISZERO PUSH2 0x6EC JUMPI PUSH1 0x0 DUP5 DUP2 MSTORE PUSH1 0x20 SWAP1 DUP2 SWAP1 KECCAK256 PUSH1 0x40 DUP1 MLOAD DUP1 DUP3 ADD SWAP1 SWAP2 MSTORE SWAP1 DUP5 ADD SLOAD PUSH1 0x1 PUSH1 0x1 PUSH1 0xA0 SHL SUB DUP2 AND DUP3 MSTORE PUSH1 0x1 PUSH1 0xA0 SHL SWAP1 DIV PUSH1 0xFF AND DUP2 DUP4 ADD MSTORE DUP3 MSTORE PUSH1 0x1 SWAP1 SWAP3 ADD SWAP2 ADD PUSH2 0x6A3 JUMP JUMPDEST POP POP POP SWAP1 DUP3 MSTORE POP PUSH1 0x6 DUP3 ADD SLOAD PUSH1 0x20 DUP3 ADD MSTORE PUSH1 0x7 DUP3 ADD SLOAD PUSH1 0x40 DUP3 ADD MSTORE PUSH1 0x8 DUP3 ADD SLOAD PUSH1 0xFF AND PUSH1 0x60 DUP3 ADD MSTORE PUSH1 0x9 DUP3 ADD SLOAD PUSH1 0x80 DUP3 ADD MSTORE PUSH1 0xA DUP3 ADD SLOAD PUSH1 0xA0 DUP3 ADD MSTORE PUSH1 0xB DUP3 ADD SLOAD PUSH1 0xC0 DUP3 ADD MSTORE PUSH1 0xC DUP3 ADD SLOAD PUSH1 0xE0 DUP3 ADD MSTORE PUSH1 0xD DUP3 ADD SLOAD PUSH2 0x100 DUP3 ADD MSTORE PUSH1 0xE SWAP1 SWAP2 ADD SLOAD PUSH2 0x120 SWAP1 SWAP2 ADD MSTORE PUSH2 0x160 DUP2 ADD MLOAD PUSH2 0x180 DUP3 ADD MLOAD PUSH2 0x1A0 DUP4 ADD MLOAD SWAP2 SWAP8 POP SWAP6 POP SWAP4 POP SWAP1 POP DUP3 PUSH2 0x77A DUP6 DUP8 PUSH2 0x4121 JUMP JUMPDEST PUSH2 0x784 SWAP2 SWAP1 PUSH2 0x4121 JUMP JUMPDEST SWAP2 POP POP SWAP2 SWAP4 POP SWAP2 SWAP4 JUMP JUMPDEST PUSH1 0x1 PUSH1 0x1 PUSH1 0xA0 SHL SUB PUSH32 0x0 AND ADDRESS SUB PUSH2 0x820 JUMPI PUSH1 0x40 MLOAD PUSH3 0x461BCD PUSH1 0xE5 SHL DUP2 MSTORE PUSH1 0x20 PUSH1 0x4 DUP3 ADD MSTORE PUSH1 0x2C PUSH1 0x24 DUP3 ADD MSTORE PUSH32 0x46756E6374696F6E206D7573742062652063616C6C6564207468726F75676820 PUSH1 0x44 DUP3 ADD MSTORE PUSH12 0x19195B1959D85D1958D85B1B PUSH1 0xA2 SHL PUSH1 0x64 DUP3 ADD MSTORE PUSH1 0x84 ADD JUMPDEST PUSH1 0x40 MLOAD DUP1 SWAP2 SUB SWAP1 REVERT JUMPDEST PUSH32 0x0 PUSH1 0x1 PUSH1 0x1 PUSH1 0xA0 SHL SUB AND PUSH2 0x87B PUSH32 0x360894A13BA1A3210667C828492DB98DCA3E2076CC3735A920A3CA505D382BBC SLOAD PUSH1 0x1 PUSH1 0x1 PUSH1 0xA0 SHL SUB AND SWAP1 JUMP JUMPDEST PUSH1 0x1 PUSH1 0x1 PUSH1 0xA0 SHL SUB AND EQ PUSH2 0x8E6 JUMPI PUSH1 0x40 MLOAD PUSH3 0x461BCD PUSH1 0xE5 SHL DUP2 MSTORE PUSH1 0x20 PUSH1 0x4 DUP3 ADD MSTORE PUSH1 0x2C PUSH1 0x24 DUP3 ADD MSTORE PUSH32 0x46756E6374696F6E206D7573742062652063616C6C6564207468726F75676820 PUSH1 0x44 DUP3 ADD MSTORE PUSH12 0x6163746976652070726F7879 PUSH1 0xA0 SHL PUSH1 0x64 DUP3 ADD MSTORE PUSH1 0x84 ADD PUSH2 0x817 JUMP JUMPDEST PUSH2 0x8EF DUP2 PUSH2 0x1CDB JUMP JUMPDEST PUSH1 0x40 DUP1 MLOAD PUSH1 0x0 DUP1 DUP3 MSTORE PUSH1 0x20 DUP3 ADD SWAP1 SWAP3 MSTORE PUSH2 0x90B SWAP2 DUP4 SWAP2 SWAP1 PUSH2 0x1CE3 JUMP JUMPDEST POP JUMP JUMPDEST PUSH1 0x1 PUSH1 0x1 PUSH1 0xA0 SHL SUB DUP2 AND PUSH2 0x98A JUMPI PUSH1 0x40 MLOAD PUSH3 0x461BCD PUSH1 0xE5 SHL DUP2 MSTORE PUSH1 0x20 PUSH1 0x4 DUP3 ADD MSTORE PUSH1 0x23 PUSH1 0x24 DUP3 ADD MSTORE PUSH32 0x5A65726F20416464726573732063616E6E6F7420626520746865207265666572 PUSH1 0x44 DUP3 ADD MSTORE PUSH32 0x7265720000000000000000000000000000000000000000000000000000000000 PUSH1 0x64 DUP3 ADD MSTORE PUSH1 0x84 ADD PUSH2 0x817 JUMP JUMPDEST CALLVALUE PUSH1 0x0 PUSH2 0x996 PUSH1 0xDC SLOAD SWAP1 JUMP JUMPDEST SWAP1 POP PUSH1 0x0 PUSH2 0x9A4 DUP4 DUP4 PUSH2 0x1E83 JUMP JUMPDEST SWAP1 POP PUSH2 0x9B3 DUP5 CALLER DUP4 DUP7 DUP7 PUSH2 0x1EAB JUMP JUMPDEST POP POP POP POP JUMP JUMPDEST PUSH1 0x1 PUSH1 0x1 PUSH1 0xA0 SHL SUB PUSH32 0x0 AND ADDRESS SUB PUSH2 0xA46 JUMPI PUSH1 0x40 MLOAD PUSH3 0x461BCD PUSH1 0xE5 SHL DUP2 MSTORE PUSH1 0x20 PUSH1 0x4 DUP3 ADD MSTORE PUSH1 0x2C PUSH1 0x24 DUP3 ADD MSTORE PUSH32 0x46756E6374696F6E206D7573742062652063616C6C6564207468726F75676820 PUSH1 0x44 DUP3 ADD MSTORE PUSH12 0x19195B1959D85D1958D85B1B PUSH1 0xA2 SHL PUSH1 0x64 DUP3 ADD MSTORE PUSH1 0x84 ADD PUSH2 0x817 JUMP JUMPDEST PUSH32 0x0 PUSH1 0x1 PUSH1 0x1 PUSH1 0xA0 SHL SUB AND PUSH2 0xAA1 PUSH32 0x360894A13BA1A3210667C828492DB98DCA3E2076CC3735A920A3CA505D382BBC SLOAD PUSH1 0x1 PUSH1 0x1 PUSH1 0xA0 SHL SUB AND SWAP1 JUMP JUMPDEST PUSH1 0x1 PUSH1 0x1 PUSH1 0xA0 SHL SUB AND EQ PUSH2 0xB0C JUMPI PUSH1 0x40 MLOAD PUSH3 0x461BCD PUSH1 0xE5 SHL DUP2 MSTORE PUSH1 0x20 PUSH1 0x4 DUP3 ADD MSTORE PUSH1 0x2C PUSH1 0x24 DUP3 ADD MSTORE PUSH32 0x46756E6374696F6E206D7573742062652063616C6C6564207468726F75676820 PUSH1 0x44 DUP3 ADD MSTORE PUSH12 0x6163746976652070726F7879 PUSH1 0xA0 SHL PUSH1 0x64 DUP3 ADD MSTORE PUSH1 0x84 ADD PUSH2 0x817 JUMP JUMPDEST PUSH2 0xB15 DUP3 PUSH2 0x1CDB JUMP JUMPDEST PUSH2 0xB21 DUP3 DUP3 PUSH1 0x1 PUSH2 0x1CE3 JUMP JUMPDEST POP POP JUMP JUMPDEST PUSH1 0x0 ADDRESS PUSH1 0x1 PUSH1 0x1 PUSH1 0xA0 SHL SUB PUSH32 0x0 AND EQ PUSH2 0xBC5 JUMPI PUSH1 0x40 MLOAD PUSH3 0x461BCD PUSH1 0xE5 SHL DUP2 MSTORE PUSH1 0x20 PUSH1 0x4 DUP3 ADD MSTORE PUSH1 0x38 PUSH1 0x24 DUP3 ADD MSTORE PUSH32 0x555550535570677261646561626C653A206D757374206E6F742062652063616C PUSH1 0x44 DUP3 ADD MSTORE PUSH32 0x6C6564207468726F7567682064656C656761746563616C6C0000000000000000 PUSH1 0x64 DUP3 ADD MSTORE PUSH1 0x84 ADD PUSH2 0x817 JUMP JUMPDEST POP PUSH32 0x360894A13BA1A3210667C828492DB98DCA3E2076CC3735A920A3CA505D382BBC SWAP1 JUMP JUMPDEST PUSH1 0x60 PUSH1 0x0 PUSH2 0xBF6 PUSH2 0x276B JUMP JUMPDEST SWAP1 POP PUSH1 0x0 DUP2 PUSH1 0xFF AND PUSH8 0xFFFFFFFFFFFFFFFF DUP2 GT ISZERO PUSH2 0xC16 JUMPI PUSH2 0xC16 PUSH2 0x3CB9 JUMP JUMPDEST PUSH1 0x40 MLOAD SWAP1 DUP1 DUP3 MSTORE DUP1 PUSH1 0x20 MUL PUSH1 0x20 ADD DUP3 ADD PUSH1 0x40 MSTORE DUP1 ISZERO PUSH2 0xC5B JUMPI DUP2 PUSH1 0x20 ADD JUMPDEST PUSH1 0x40 DUP1 MLOAD DUP1 DUP3 ADD SWAP1 SWAP2 MSTORE PUSH1 0x0 DUP1 DUP3 MSTORE PUSH1 0x20 DUP3 ADD MSTORE DUP2 MSTORE PUSH1 0x20 ADD SWAP1 PUSH1 0x1 SWAP1 SUB SWAP1 DUP2 PUSH2 0xC34 JUMPI SWAP1 POP JUMPDEST POP SWAP1 POP PUSH1 0x0 JUMPDEST DUP3 PUSH1 0xFF AND DUP2 PUSH1 0xFF AND LT ISZERO PUSH2 0xCD1 JUMPI PUSH1 0xFF DUP1 DUP3 AND PUSH1 0x0 DUP2 DUP2 MSTORE PUSH1 0xDB PUSH1 0x20 SWAP1 DUP2 MSTORE PUSH1 0x40 SWAP2 DUP3 SWAP1 KECCAK256 DUP3 MLOAD DUP1 DUP5 ADD SWAP1 SWAP4 MSTORE DUP1 SLOAD SWAP1 SWAP5 AND DUP3 MSTORE PUSH1 0x1 SWAP1 SWAP4 ADD SLOAD SWAP3 DUP2 ADD SWAP3 SWAP1 SWAP3 MSTORE DUP4 MLOAD DUP5 SWAP2 SWAP1 DUP2 LT PUSH2 0xCB5 JUMPI PUSH2 0xCB5 PUSH2 0x4134 JUMP JUMPDEST PUSH1 0x20 MUL PUSH1 0x20 ADD ADD DUP2 SWAP1 MSTORE POP DUP1 PUSH2 0xCCA SWAP1 PUSH2 0x414A JUMP JUMPDEST SWAP1 POP PUSH2 0xC61 JUMP JUMPDEST POP SWAP3 SWAP1 SWAP2 POP JUMP JUMPDEST PUSH2 0xCE0 PUSH2 0x27B9 JUMP JUMPDEST PUSH2 0xCEA PUSH1 0x0 PUSH2 0x2813 JUMP JUMPDEST JUMP JUMPDEST CALLVALUE PUSH1 0x0 PUSH2 0xD01 DUP3 PUSH2 0xCFC PUSH1 0xDC SLOAD SWAP1 JUMP JUMPDEST PUSH2 0x1E83 JUMP JUMPDEST SWAP1 POP PUSH2 0xB21 DUP3 DUP3 CALLER PUSH2 0x2865 JUMP JUMPDEST PUSH1 0x0 SLOAD PUSH2 0x100 SWAP1 DIV PUSH1 0xFF AND ISZERO DUP1 DUP1 ISZERO PUSH2 0xD2E JUMPI POP PUSH1 0x0 SLOAD PUSH1 0x1 PUSH1 0xFF SWAP1 SWAP2 AND LT JUMPDEST DUP1 PUSH2 0xD48 JUMPI POP ADDRESS EXTCODESIZE ISZERO DUP1 ISZERO PUSH2 0xD48 JUMPI POP PUSH1 0x0 SLOAD PUSH1 0xFF AND PUSH1 0x1 EQ JUMPDEST PUSH2 0xDBA JUMPI PUSH1 0x40 MLOAD PUSH3 0x461BCD PUSH1 0xE5 SHL DUP2 MSTORE PUSH1 0x20 PUSH1 0x4 DUP3 ADD MSTORE PUSH1 0x2E PUSH1 0x24 DUP3 ADD MSTORE PUSH32 0x496E697469616C697A61626C653A20636F6E747261637420697320616C726561 PUSH1 0x44 DUP3 ADD MSTORE PUSH32 0x647920696E697469616C697A6564000000000000000000000000000000000000 PUSH1 0x64 DUP3 ADD MSTORE PUSH1 0x84 ADD PUSH2 0x817 JUMP JUMPDEST PUSH1 0x0 DUP1 SLOAD PUSH1 0xFF NOT AND PUSH1 0x1 OR SWAP1 SSTORE DUP1 ISZERO PUSH2 0xDDD JUMPI PUSH1 0x0 DUP1 SLOAD PUSH2 0xFF00 NOT AND PUSH2 0x100 OR SWAP1 SSTORE JUMPDEST PUSH1 0xD7 DUP1 SLOAD PUSH20 0xEB1100091CE830BA58A04834C35D29B75B53EB74 PUSH1 0x1 PUSH1 0x1 PUSH1 0xA0 SHL SUB NOT SWAP2 DUP3 AND OR SWAP1 SWAP2 SSTORE PUSH9 0x15AF1D78B58C40000 PUSH1 0xD8 SSTORE PUSH1 0xD5 DUP1 SLOAD PUSH2 0xFFFF NOT AND PUSH2 0x83C OR SWAP1 SSTORE PUSH1 0x2 PUSH1 0xD6 SSTORE PUSH1 0xCF DUP1 SLOAD PUSH21 0xFFFFFFFFFFFFFFFFFFFFFFFFFFFFFFFFFFFFFFFFFF NOT AND PUSH21 0x1476B7C991C3EF93B6771FAC97A984A2CB37962FBC OR SWAP1 SSTORE PUSH1 0xD1 DUP1 SLOAD PUSH1 0x10 PUSH1 0xFF NOT SWAP2 DUP3 AND OR SWAP1 SWAP2 SSTORE PUSH1 0xD3 DUP1 SLOAD SWAP1 SWAP2 AND PUSH1 0x4 OR SWAP1 SSTORE TIMESTAMP PUSH1 0xD4 SSTORE PUSH1 0xD9 DUP1 SLOAD PUSH20 0xEFA6077F510B10A6C1B2F8DA24A89FC561AC9445 SWAP3 AND SWAP2 SWAP1 SWAP2 OR SWAP1 SSTORE PUSH9 0xD8D726B7177A80000 PUSH1 0xDC SSTORE PUSH2 0xEB2 PUSH2 0x2C1D JUMP JUMPDEST PUSH2 0xEBA PUSH2 0x2C90 JUMP JUMPDEST DUP1 ISZERO PUSH2 0x90B JUMPI PUSH1 0x0 DUP1 SLOAD PUSH2 0xFF00 NOT AND SWAP1 SSTORE PUSH1 0x40 MLOAD PUSH1 0x1 DUP2 MSTORE PUSH32 0x7F26B83FF96E1F2B6A682F133852F6798A09C465DA95921460CEFB3847402498 SWAP1 PUSH1 0x20 ADD JUMPDEST PUSH1 0x40 MLOAD DUP1 SWAP2 SUB SWAP1 LOG1 POP JUMP JUMPDEST PUSH1 0xD2 SLOAD PUSH1 0xD4 SLOAD PUSH1 0x0 SWAP1 DUP2 SWAP1 PUSH2 0xF1B SWAP1 PUSH3 0x93A80 PUSH2 0x4121 JUMP JUMPDEST SWAP1 POP TIMESTAMP DUP1 DUP3 GT ISZERO PUSH2 0xF33 JUMPI PUSH2 0xF30 DUP2 DUP4 PUSH2 0x4169 JUMP JUMPDEST SWAP3 POP JUMPDEST POP SWAP1 SWAP2 SWAP3 JUMP JUMPDEST PUSH2 0xF41 PUSH2 0x27B9 JUMP JUMPDEST PUSH1 0xD7 DUP1 SLOAD PUSH1 0x1 PUSH1 0x1 PUSH1 0xA0 SHL SUB SWAP1 DUP2 AND PUSH1 0x0 DUP2 DUP2 MSTORE PUSH1 0xDA PUSH1 0x20 MSTORE PUSH1 0x40 DUP1 DUP3 KECCAK256 DUP1 SLOAD PUSH1 0x1 PUSH1 0x1 PUSH1 0xA0 SHL SUB NOT SWAP1 DUP2 AND SWAP1 SWAP5 OR SWAP1 SSTORE DUP5 SLOAD DUP5 AND DUP1 DUP4 MSTORE SWAP1 DUP3 KECCAK256 PUSH1 0x1 SWAP1 DUP2 ADD DUP1 SLOAD DUP6 AND SWAP1 SWAP3 OR SWAP1 SWAP2 SSTORE SWAP4 SLOAD PUSH1 0xCA DUP1 SLOAD SWAP6 DUP7 ADD DUP2 SSTORE SWAP1 SWAP2 MSTORE PUSH32 0x42D72674974F694B5F5159593243114D38A5C39C89D6B62FEE061FF523240EE1 SWAP1 SWAP4 ADD DUP1 SLOAD SWAP4 SWAP1 SWAP3 AND SWAP3 AND SWAP2 SWAP1 SWAP2 OR SWAP1 SSTORE JUMP JUMPDEST PUSH1 0x0 PUSH2 0xFD8 PUSH1 0xDC SLOAD SWAP1 JUMP JUMPDEST PUSH1 0xD8 SLOAD PUSH2 0xFED SWAP1 PUSH8 0xDE0B6B3A7640000 PUSH2 0x417C JUMP JUMPDEST PUSH2 0xFF7 SWAP2 SWAP1 PUSH2 0x41A9 JUMP JUMPDEST SWAP1 POP SWAP1 JUMP JUMPDEST PUSH2 0x1004 PUSH2 0x27B9 JUMP JUMPDEST PUSH1 0x0 JUMPDEST PUSH1 0xFF DUP2 AND DUP3 GT ISZERO PUSH2 0x10A4 JUMPI PUSH1 0x40 MLOAD DUP1 PUSH1 0x40 ADD PUSH1 0x40 MSTORE DUP1 DUP3 PUSH1 0x1 PUSH2 0x102A SWAP2 SWAP1 PUSH2 0x41BD JUMP JUMPDEST PUSH1 0xFF AND DUP2 MSTORE PUSH1 0x20 ADD DUP5 DUP5 DUP5 PUSH1 0xFF AND DUP2 DUP2 LT PUSH2 0x1047 JUMPI PUSH2 0x1047 PUSH2 0x4134 JUMP JUMPDEST SWAP1 POP PUSH1 0x20 MUL ADD CALLDATALOAD PUSH8 0xDE0B6B3A7640000 PUSH2 0x1061 SWAP2 SWAP1 PUSH2 0x417C JUMP JUMPDEST SWAP1 MSTORE PUSH1 0xFF DUP3 DUP2 AND PUSH1 0x0 SWAP1 DUP2 MSTORE PUSH1 0xDB PUSH1 0x20 SWAP1 DUP2 MSTORE PUSH1 0x40 SWAP1 SWAP2 KECCAK256 DUP4 MLOAD DUP2 SLOAD PUSH1 0xFF NOT AND SWAP4 AND SWAP3 SWAP1 SWAP3 OR DUP3 SSTORE SWAP2 SWAP1 SWAP2 ADD MLOAD PUSH1 0x1 SWAP1 SWAP2 ADD SSTORE PUSH2 0x109D DUP2 PUSH2 0x414A JUMP JUMPDEST SWAP1 POP PUSH2 0x1007 JUMP JUMPDEST POP POP POP JUMP JUMPDEST PUSH1 0xD2 SLOAD PUSH1 0x0 PUSH2 0x10BB DUP3 PUSH2 0xCFC PUSH1 0xDC SLOAD SWAP1 JUMP JUMPDEST SWAP1 POP PUSH1 0x0 PUSH1 0xD4 SLOAD PUSH3 0x93A80 PUSH2 0x10D0 SWAP2 SWAP1 PUSH2 0x4121 JUMP JUMPDEST SWAP1 POP TIMESTAMP DUP2 DUP2 LT ISZERO PUSH2 0x1123 JUMPI PUSH1 0x40 MLOAD PUSH3 0x461BCD PUSH1 0xE5 SHL DUP2 MSTORE PUSH1 0x20 PUSH1 0x4 DUP3 ADD MSTORE PUSH1 0x1C PUSH1 0x24 DUP3 ADD MSTORE PUSH32 0x5765656B6C792074696D65206973206E6F74206F766572207965742E00000000 PUSH1 0x44 DUP3 ADD MSTORE PUSH1 0x64 ADD PUSH2 0x817 JUMP JUMPDEST PUSH1 0x0 PUSH1 0xD2 SLOAD GT PUSH2 0x1175 JUMPI PUSH1 0x40 MLOAD PUSH3 0x461BCD PUSH1 0xE5 SHL DUP2 MSTORE PUSH1 0x20 PUSH1 0x4 DUP3 ADD MSTORE PUSH1 0x18 PUSH1 0x24 DUP3 ADD MSTORE PUSH32 0x4E6F207265776172647320746F20646973747269627574650000000000000000 PUSH1 0x44 DUP3 ADD MSTORE PUSH1 0x64 ADD PUSH2 0x817 JUMP JUMPDEST PUSH1 0x0 PUSH1 0xC9 DUP1 SLOAD DUP1 PUSH1 0x20 MUL PUSH1 0x20 ADD PUSH1 0x40 MLOAD SWAP1 DUP2 ADD PUSH1 0x40 MSTORE DUP1 SWAP3 SWAP2 SWAP1 DUP2 DUP2 MSTORE PUSH1 0x20 ADD DUP3 DUP1 SLOAD DUP1 ISZERO PUSH2 0x11CD JUMPI PUSH1 0x20 MUL DUP3 ADD SWAP2 SWAP1 PUSH1 0x0 MSTORE PUSH1 0x20 PUSH1 0x0 KECCAK256 SWAP1 JUMPDEST DUP2 SLOAD PUSH1 0x1 PUSH1 0x1 PUSH1 0xA0 SHL SUB AND DUP2 MSTORE PUSH1 0x1 SWAP1 SWAP2 ADD SWAP1 PUSH1 0x20 ADD DUP1 DUP4 GT PUSH2 0x11AF JUMPI JUMPDEST POP POP POP POP POP SWAP1 POP PUSH1 0x0 TIMESTAMP PREVRANDAO PUSH1 0x1 NUMBER PUSH2 0x11E5 SWAP2 SWAP1 PUSH2 0x4169 JUMP JUMPDEST PUSH1 0x40 DUP1 MLOAD PUSH1 0x20 DUP2 ADD SWAP5 SWAP1 SWAP5 MSTORE DUP4 ADD SWAP2 SWAP1 SWAP2 MSTORE BLOCKHASH PUSH1 0x60 DUP3 ADD MSTORE PUSH1 0x80 ADD PUSH1 0x40 MLOAD PUSH1 0x20 DUP2 DUP4 SUB SUB DUP2 MSTORE SWAP1 PUSH1 0x40 MSTORE DUP1 MLOAD SWAP1 PUSH1 0x20 ADD KECCAK256 PUSH1 0x0 SHR SWAP1 POP PUSH1 0x0 DUP3 MLOAD DUP3 PUSH2 0x122A SWAP2 SWAP1 PUSH2 0x41D6 JUMP JUMPDEST SWAP1 POP PUSH1 0x0 DUP4 DUP3 DUP2 MLOAD DUP2 LT PUSH2 0x1240 JUMPI PUSH2 0x1240 PUSH2 0x4134 JUMP JUMPDEST PUSH1 0x20 MUL PUSH1 0x20 ADD ADD MLOAD SWAP1 POP PUSH1 0x0 PUSH1 0xDA PUSH1 0x0 DUP4 PUSH1 0x1 PUSH1 0x1 PUSH1 0xA0 SHL SUB AND PUSH1 0x1 PUSH1 0x1 PUSH1 0xA0 SHL SUB AND DUP2 MSTORE PUSH1 0x20 ADD SWAP1 DUP2 MSTORE PUSH1 0x20 ADD PUSH1 0x0 KECCAK256 SWAP1 POP DUP8 DUP2 PUSH1 0xC ADD PUSH1 0x0 DUP3 DUP3 SLOAD PUSH2 0x1287 SWAP2 SWAP1 PUSH2 0x4121 JUMP JUMPDEST SWAP1 SWAP2 SSTORE POP POP PUSH1 0x40 MLOAD PUSH1 0x1 PUSH1 0x1 PUSH1 0xA0 SHL SUB DUP4 AND SWAP1 DUP11 ISZERO PUSH2 0x8FC MUL SWAP1 DUP12 SWAP1 PUSH1 0x0 DUP2 DUP2 DUP2 DUP6 DUP9 DUP9 CALL SWAP4 POP POP POP POP ISZERO DUP1 ISZERO PUSH2 0x12C2 JUMPI RETURNDATASIZE PUSH1 0x0 DUP1 RETURNDATACOPY RETURNDATASIZE PUSH1 0x0 REVERT JUMPDEST POP PUSH1 0x0 PUSH1 0xD2 DUP2 SWAP1 SSTORE TIMESTAMP PUSH1 0xD4 SSTORE PUSH1 0xCE DUP1 SLOAD DUP11 SWAP3 SWAP1 PUSH2 0x12E0 SWAP1 DUP5 SWAP1 PUSH2 0x4121 JUMP JUMPDEST SWAP1 SWAP2 SSTORE POP POP PUSH1 0x40 DUP1 MLOAD PUSH1 0x1 PUSH1 0x1 PUSH1 0xA0 SHL SUB DUP5 AND DUP2 MSTORE PUSH1 0x20 DUP2 ADD DUP11 SWAP1 MSTORE PUSH32 0xFFF6EDC60FD30AFEFCC47525CDF85502200830B22550391F79F9E383DF03AFAD SWAP2 ADD PUSH1 0x40 MLOAD DUP1 SWAP2 SUB SWAP1 LOG1 POP POP POP POP POP POP POP POP POP JUMP JUMPDEST PUSH2 0x133A PUSH2 0x27B9 JUMP JUMPDEST PUSH1 0x1 PUSH1 0x1 PUSH1 0xA0 SHL SUB DUP2 AND PUSH2 0x13B6 JUMPI PUSH1 0x40 MLOAD PUSH3 0x461BCD PUSH1 0xE5 SHL DUP2 MSTORE PUSH1 0x20 PUSH1 0x4 DUP3 ADD MSTORE PUSH1 0x26 PUSH1 0x24 DUP3 ADD MSTORE PUSH32 0x4F776E61626C653A206E6577206F776E657220697320746865207A65726F2061 PUSH1 0x44 DUP3 ADD MSTORE PUSH32 0x6464726573730000000000000000000000000000000000000000000000000000 PUSH1 0x64 DUP3 ADD MSTORE PUSH1 0x84 ADD PUSH2 0x817 JUMP JUMPDEST PUSH2 0x90B DUP2 PUSH2 0x2813 JUMP JUMPDEST PUSH1 0x1 PUSH1 0x1 PUSH1 0xA0 SHL SUB DUP1 DUP3 AND PUSH1 0x0 SWAP1 DUP2 MSTORE PUSH1 0xDA PUSH1 0x20 SWAP1 DUP2 MSTORE PUSH1 0x40 DUP1 DUP4 KECCAK256 DUP2 MLOAD PUSH2 0x1E0 DUP2 ADD DUP4 MSTORE DUP2 SLOAD DUP7 AND DUP2 MSTORE PUSH1 0x1 DUP3 ADD SLOAD DUP7 AND DUP2 DUP6 ADD MSTORE PUSH1 0x2 DUP3 ADD SLOAD SWAP1 SWAP6 AND DUP6 DUP4 ADD MSTORE PUSH1 0x3 DUP2 ADD DUP1 SLOAD DUP4 MLOAD DUP2 DUP7 MUL DUP2 ADD DUP7 ADD SWAP1 SWAP5 MSTORE DUP1 DUP5 MSTORE SWAP5 SWAP6 DUP7 SWAP6 DUP7 SWAP6 DUP7 SWAP6 DUP7 SWAP6 SWAP4 SWAP5 PUSH1 0x60 DUP7 ADD SWAP4 SWAP2 SWAP3 SWAP1 SWAP2 SWAP1 DUP4 ADD DUP3 DUP3 DUP1 ISZERO PUSH2 0x1465 JUMPI PUSH1 0x20 MUL DUP3 ADD SWAP2 SWAP1 PUSH1 0x0 MSTORE PUSH1 0x20 PUSH1 0x0 KECCAK256 SWAP1 JUMPDEST DUP2 SLOAD PUSH1 0x1 PUSH1 0x1 PUSH1 0xA0 SHL SUB AND DUP2 MSTORE PUSH1 0x1 SWAP1 SWAP2 ADD SWAP1 PUSH1 0x20 ADD DUP1 DUP4 GT PUSH2 0x1447 JUMPI JUMPDEST POP POP POP POP POP DUP2 MSTORE PUSH1 0x20 ADD PUSH1 0x4 DUP3 ADD DUP1 SLOAD DUP1 PUSH1 0x20 MUL PUSH1 0x20 ADD PUSH1 0x40 MLOAD SWAP1 DUP2 ADD PUSH1 0x40 MSTORE DUP1 SWAP3 SWAP2 SWAP1 DUP2 DUP2 MSTORE PUSH1 0x20 ADD PUSH1 0x0 SWAP1 JUMPDEST DUP3 DUP3 LT ISZERO PUSH2 0x14DE JUMPI PUSH1 0x0 DUP5 DUP2 MSTORE PUSH1 0x20 SWAP1 DUP2 SWAP1 KECCAK256 PUSH1 0x40 DUP1 MLOAD DUP1 DUP3 ADD SWAP1 SWAP2 MSTORE PUSH1 0x2 DUP6 MUL SWAP1 SWAP2 ADD DUP1 SLOAD PUSH1 0x1 PUSH1 0x1 PUSH1 0xA0 SHL SUB SWAP1 DUP2 AND DUP4 MSTORE PUSH1 0x1 SWAP2 DUP3 ADD SLOAD AND DUP3 DUP5 ADD MSTORE SWAP1 DUP4 MSTORE SWAP1 SWAP3 ADD SWAP2 ADD PUSH2 0x1493 JUMP JUMPDEST POP POP POP POP DUP2 MSTORE PUSH1 0x20 ADD PUSH1 0x5 DUP3 ADD DUP1 SLOAD DUP1 PUSH1 0x20 MUL PUSH1 0x20 ADD PUSH1 0x40 MLOAD SWAP1 DUP2 ADD PUSH1 0x40 MSTORE DUP1 SWAP3 SWAP2 SWAP1 DUP2 DUP2 MSTORE PUSH1 0x20 ADD PUSH1 0x0 SWAP1 JUMPDEST DUP3 DUP3 LT ISZERO PUSH2 0x1554 JUMPI PUSH1 0x0 DUP5 DUP2 MSTORE PUSH1 0x20 SWAP1 DUP2 SWAP1 KECCAK256 PUSH1 0x40 DUP1 MLOAD DUP1 DUP3 ADD SWAP1 SWAP2 MSTORE SWAP1 DUP5 ADD SLOAD PUSH1 0x1 PUSH1 0x1 PUSH1 0xA0 SHL SUB DUP2 AND DUP3 MSTORE PUSH1 0x1 PUSH1 0xA0 SHL SWAP1 DIV PUSH1 0xFF AND DUP2 DUP4 ADD MSTORE DUP3 MSTORE PUSH1 0x1 SWAP1 SWAP3 ADD SWAP2 ADD PUSH2 0x150B JUMP JUMPDEST POP POP POP SWAP1 DUP3 MSTORE POP PUSH1 0x6 DUP3 ADD SLOAD PUSH1 0x20 DUP3 ADD MSTORE PUSH1 0x7 DUP3 ADD SLOAD PUSH1 0x40 DUP3 ADD MSTORE PUSH1 0x8 DUP3 ADD SLOAD PUSH1 0xFF AND PUSH1 0x60 DUP3 ADD MSTORE PUSH1 0x9 DUP3 ADD SLOAD PUSH1 0x80 DUP3 ADD MSTORE PUSH1 0xA DUP3 ADD SLOAD PUSH1 0xA0 DUP3 ADD MSTORE PUSH1 0xB DUP3 ADD SLOAD PUSH1 0xC0 DUP1 DUP4 ADD SWAP2 SWAP1 SWAP2 MSTORE PUSH1 0xC DUP4 ADD SLOAD PUSH1 0xE0 DUP4 ADD MSTORE PUSH1 0xD DUP4 ADD SLOAD PUSH2 0x100 DUP4 ADD MSTORE PUSH1 0xE SWAP1 SWAP3 ADD SLOAD PUSH2 0x120 SWAP2 DUP3 ADD MSTORE SWAP1 DUP3 ADD MLOAD SWAP1 DUP3 ADD MLOAD PUSH2 0x140 DUP4 ADD MLOAD SWAP2 SWAP8 POP SWAP6 POP SWAP4 POP SWAP1 POP PUSH2 0x784 DUP6 DUP5 PUSH2 0x4121 JUMP JUMPDEST PUSH1 0x1 PUSH1 0x1 PUSH1 0xA0 SHL SUB DUP1 DUP3 AND PUSH1 0x0 SWAP1 DUP2 MSTORE PUSH1 0xDA PUSH1 0x20 SWAP1 DUP2 MSTORE PUSH1 0x40 DUP1 DUP4 KECCAK256 DUP2 MLOAD PUSH2 0x1E0 DUP2 ADD DUP4 MSTORE DUP2 SLOAD DUP7 AND DUP2 MSTORE PUSH1 0x1 DUP3 ADD SLOAD DUP7 AND DUP2 DUP6 ADD MSTORE PUSH1 0x2 DUP3 ADD SLOAD SWAP1 SWAP6 AND DUP6 DUP4 ADD MSTORE PUSH1 0x3 DUP2 ADD DUP1 SLOAD DUP4 MLOAD DUP2 DUP7 MUL DUP2 ADD DUP7 ADD SWAP1 SWAP5 MSTORE DUP1 DUP5 MSTORE SWAP5 SWAP6 DUP7 SWAP6 DUP7 SWAP6 SWAP2 SWAP5 PUSH1 0x60 DUP7 ADD SWAP4 SWAP1 SWAP3 SWAP1 SWAP2 SWAP1 DUP4 ADD DUP3 DUP3 DUP1 ISZERO PUSH2 0x1683 JUMPI PUSH1 0x20 MUL DUP3 ADD SWAP2 SWAP1 PUSH1 0x0 MSTORE PUSH1 0x20 PUSH1 0x0 KECCAK256 SWAP1 JUMPDEST DUP2 SLOAD PUSH1 0x1 PUSH1 0x1 PUSH1 0xA0 SHL SUB AND DUP2 MSTORE PUSH1 0x1 SWAP1 SWAP2 ADD SWAP1 PUSH1 0x20 ADD DUP1 DUP4 GT PUSH2 0x1665 JUMPI JUMPDEST POP POP POP POP POP DUP2 MSTORE PUSH1 0x20 ADD PUSH1 0x4 DUP3 ADD DUP1 SLOAD DUP1 PUSH1 0x20 MUL PUSH1 0x20 ADD PUSH1 0x40 MLOAD SWAP1 DUP2 ADD PUSH1 0x40 MSTORE DUP1 SWAP3 SWAP2 SWAP1 DUP2 DUP2 MSTORE PUSH1 0x20 ADD PUSH1 0x0 SWAP1 JUMPDEST DUP3 DUP3 LT ISZERO PUSH2 0x16FC JUMPI PUSH1 0x0 DUP5 DUP2 MSTORE PUSH1 0x20 SWAP1 DUP2 SWAP1 KECCAK256 PUSH1 0x40 DUP1 MLOAD DUP1 DUP3 ADD SWAP1 SWAP2 MSTORE PUSH1 0x2 DUP6 MUL SWAP1 SWAP2 ADD DUP1 SLOAD PUSH1 0x1 PUSH1 0x1 PUSH1 0xA0 SHL SUB SWAP1 DUP2 AND DUP4 MSTORE PUSH1 0x1 SWAP2 DUP3 ADD SLOAD AND DUP3 DUP5 ADD MSTORE SWAP1 DUP4 MSTORE SWAP1 SWAP3 ADD SWAP2 ADD PUSH2 0x16B1 JUMP JUMPDEST POP POP POP POP DUP2 MSTORE PUSH1 0x20 ADD PUSH1 0x5 DUP3 ADD DUP1 SLOAD DUP1 PUSH1 0x20 MUL PUSH1 0x20 ADD PUSH1 0x40 MLOAD SWAP1 DUP2 ADD PUSH1 0x40 MSTORE DUP1 SWAP3 SWAP2 SWAP1 DUP2 DUP2 MSTORE PUSH1 0x20 ADD PUSH1 0x0 SWAP1 JUMPDEST DUP3 DUP3 LT ISZERO PUSH2 0x1772 JUMPI PUSH1 0x0 DUP5 DUP2 MSTORE PUSH1 0x20 SWAP1 DUP2 SWAP1 KECCAK256 PUSH1 0x40 DUP1 MLOAD DUP1 DUP3 ADD SWAP1 SWAP2 MSTORE SWAP1 DUP5 ADD SLOAD PUSH1 0x1 PUSH1 0x1 PUSH1 0xA0 SHL SUB DUP2 AND DUP3 MSTORE PUSH1 0x1 PUSH1 0xA0 SHL SWAP1 DIV PUSH1 0xFF AND DUP2 DUP4 ADD MSTORE DUP3 MSTORE PUSH1 0x1 SWAP1 SWAP3 ADD SWAP2 ADD PUSH2 0x1729 JUMP JUMPDEST POP POP POP SWAP1 DUP3 MSTORE POP PUSH1 0x6 DUP3 ADD SLOAD PUSH1 0x20 DUP3 ADD MSTORE PUSH1 0x7 DUP3 ADD SLOAD PUSH1 0x40 DUP3 ADD MSTORE PUSH1 0x8 DUP3 ADD SLOAD PUSH1 0xFF SWAP1 DUP2 AND PUSH1 0x60 DUP4 ADD MSTORE PUSH1 0x9 DUP4 ADD SLOAD PUSH1 0x80 DUP4 ADD MSTORE PUSH1 0xA DUP4 ADD SLOAD PUSH1 0xA0 DUP4 ADD MSTORE PUSH1 0xB DUP4 ADD SLOAD PUSH1 0xC0 DUP4 ADD MSTORE PUSH1 0xC DUP4 ADD SLOAD PUSH1 0xE0 DUP4 ADD MSTORE PUSH1 0xD DUP4 ADD SLOAD PUSH2 0x100 DUP1 DUP5 ADD SWAP2 SWAP1 SWAP2 MSTORE PUSH1 0xE SWAP1 SWAP4 ADD SLOAD PUSH2 0x120 SWAP1 SWAP3 ADD SWAP2 SWAP1 SWAP2 MSTORE SWAP1 DUP3 ADD MLOAD SWAP2 SWAP3 POP AND ISZERO PUSH2 0x17F9 JUMPI DUP1 PUSH2 0x100 ADD MLOAD SWAP3 POP JUMPDEST PUSH1 0xE0 ADD MLOAD SWAP2 SWAP4 SWAP2 SWAP3 POP POP JUMP JUMPDEST PUSH1 0x1 PUSH1 0x1 PUSH1 0xA0 SHL SUB DUP1 DUP3 AND PUSH1 0x0 SWAP1 DUP2 MSTORE PUSH1 0xDA PUSH1 0x20 SWAP1 DUP2 MSTORE PUSH1 0x40 DUP1 DUP4 KECCAK256 DUP2 MLOAD PUSH2 0x1E0 DUP2 ADD DUP4 MSTORE DUP2 SLOAD DUP7 AND DUP2 MSTORE PUSH1 0x1 DUP3 ADD SLOAD DUP7 AND DUP2 DUP6 ADD MSTORE PUSH1 0x2 DUP3 ADD SLOAD SWAP1 SWAP6 AND DUP6 DUP4 ADD MSTORE PUSH1 0x3 DUP2 ADD DUP1 SLOAD DUP4 MLOAD DUP2 DUP7 MUL DUP2 ADD DUP7 ADD SWAP1 SWAP5 MSTORE DUP1 DUP5 MSTORE SWAP5 SWAP6 PUSH1 0x60 SWAP6 DUP8 SWAP6 DUP8 SWAP6 DUP8 SWAP6 DUP8 SWAP6 DUP8 SWAP6 DUP7 SWAP6 SWAP1 SWAP5 SWAP3 SWAP4 DUP6 DUP10 ADD SWAP4 SWAP1 SWAP3 SWAP2 SWAP1 DUP4 ADD DUP3 DUP3 DUP1 ISZERO PUSH2 0x18B2 JUMPI PUSH1 0x20 MUL DUP3 ADD SWAP2 SWAP1 PUSH1 0x0 MSTORE PUSH1 0x20 PUSH1 0x0 KECCAK256 SWAP1 JUMPDEST DUP2 SLOAD PUSH1 0x1 PUSH1 0x1 PUSH1 0xA0 SHL SUB AND DUP2 MSTORE PUSH1 0x1 SWAP1 SWAP2 ADD SWAP1 PUSH1 0x20 ADD DUP1 DUP4 GT PUSH2 0x1894 JUMPI JUMPDEST POP POP POP POP POP DUP2 MSTORE PUSH1 0x20 ADD PUSH1 0x4 DUP3 ADD DUP1 SLOAD DUP1 PUSH1 0x20 MUL PUSH1 0x20 ADD PUSH1 0x40 MLOAD SWAP1 DUP2 ADD PUSH1 0x40 MSTORE DUP1 SWAP3 SWAP2 SWAP1 DUP2 DUP2 MSTORE PUSH1 0x20 ADD PUSH1 0x0 SWAP1 JUMPDEST DUP3 DUP3 LT ISZERO PUSH2 0x192B JUMPI PUSH1 0x0 DUP5 DUP2 MSTORE PUSH1 0x20 SWAP1 DUP2 SWAP1 KECCAK256 PUSH1 0x40 DUP1 MLOAD DUP1 DUP3 ADD SWAP1 SWAP2 MSTORE PUSH1 0x2 DUP6 MUL SWAP1 SWAP2 ADD DUP1 SLOAD PUSH1 0x1 PUSH1 0x1 PUSH1 0xA0 SHL SUB SWAP1 DUP2 AND DUP4 MSTORE PUSH1 0x1 SWAP2 DUP3 ADD SLOAD AND DUP3 DUP5 ADD MSTORE SWAP1 DUP4 MSTORE SWAP1 SWAP3 ADD SWAP2 ADD PUSH2 0x18E0 JUMP JUMPDEST POP POP POP POP DUP2 MSTORE PUSH1 0x20 ADD PUSH1 0x5 DUP3 ADD DUP1 SLOAD DUP1 PUSH1 0x20 MUL PUSH1 0x20 ADD PUSH1 0x40 MLOAD SWAP1 DUP2 ADD PUSH1 0x40 MSTORE DUP1 SWAP3 SWAP2 SWAP1 DUP2 DUP2 MSTORE PUSH1 0x20 ADD PUSH1 0x0 SWAP1 JUMPDEST DUP3 DUP3 LT ISZERO PUSH2 0x19A1 JUMPI PUSH1 0x0 DUP5 DUP2 MSTORE PUSH1 0x20 SWAP1 DUP2 SWAP1 KECCAK256 PUSH1 0x40 DUP1 MLOAD DUP1 DUP3 ADD SWAP1 SWAP2 MSTORE SWAP1 DUP5 ADD SLOAD PUSH1 0x1 PUSH1 0x1 PUSH1 0xA0 SHL SUB DUP2 AND DUP3 MSTORE PUSH1 0x1 PUSH1 0xA0 SHL SWAP1 DIV PUSH1 0xFF AND DUP2 DUP4 ADD MSTORE DUP3 MSTORE PUSH1 0x1 SWAP1 SWAP3 ADD SWAP2 ADD PUSH2 0x1958 JUMP JUMPDEST POP POP POP SWAP1 DUP3 MSTORE POP PUSH1 0x6 DUP3 ADD SLOAD PUSH1 0x20 DUP3 ADD MSTORE PUSH1 0x7 DUP3 ADD SLOAD PUSH1 0x40 DUP1 DUP4 ADD SWAP2 SWAP1 SWAP2 MSTORE PUSH1 0x8 DUP4 ADD SLOAD PUSH1 0xFF AND PUSH1 0x60 DUP1 DUP5 ADD SWAP2 SWAP1 SWAP2 MSTORE PUSH1 0x9 DUP5 ADD SLOAD PUSH1 0x80 DUP1 DUP6 ADD SWAP2 SWAP1 SWAP2 MSTORE PUSH1 0xA DUP6 ADD SLOAD PUSH1 0xA0 DUP1 DUP7 ADD SWAP2 SWAP1 SWAP2 MSTORE PUSH1 0xB DUP7 ADD SLOAD PUSH1 0xC0 DUP7 ADD MSTORE PUSH1 0xC DUP7 ADD SLOAD PUSH1 0xE0 DUP7 ADD MSTORE PUSH1 0xD DUP7 ADD SLOAD PUSH2 0x100 DUP7 ADD MSTORE PUSH1 0xE SWAP1 SWAP6 ADD SLOAD PUSH2 0x120 SWAP1 SWAP5 ADD SWAP4 SWAP1 SWAP4 MSTORE SWAP1 DUP5 ADD MLOAD SWAP1 DUP5 ADD MLOAD DUP1 MLOAD SWAP3 DUP6 ADD MLOAD DUP1 MLOAD SWAP6 SWAP1 SWAP5 ADD MLOAD DUP1 MLOAD SWAP3 SWAP16 SWAP2 SWAP15 POP SWAP3 SWAP13 POP SWAP3 SWAP11 POP SWAP3 SWAP9 POP SWAP7 POP SWAP1 SWAP5 POP SWAP3 POP POP POP JUMP JUMPDEST PUSH2 0x1AE3 PUSH1 0x40 MLOAD DUP1 PUSH2 0x1E0 ADD PUSH1 0x40 MSTORE DUP1 PUSH1 0x0 PUSH1 0x1 PUSH1 0x1 PUSH1 0xA0 SHL SUB AND DUP2 MSTORE PUSH1 0x20 ADD PUSH1 0x0 PUSH1 0x1 PUSH1 0x1 PUSH1 0xA0 SHL SUB AND DUP2 MSTORE PUSH1 0x20 ADD PUSH1 0x0 PUSH1 0x1 PUSH1 0x1 PUSH1 0xA0 SHL SUB AND DUP2 MSTORE PUSH1 0x20 ADD PUSH1 0x60 DUP2 MSTORE PUSH1 0x20 ADD PUSH1 0x60 DUP2 MSTORE PUSH1 0x20 ADD PUSH1 0x60 DUP2 MSTORE PUSH1 0x20 ADD PUSH1 0x0 DUP2 MSTORE PUSH1 0x20 ADD PUSH1 0x0 DUP2 MSTORE PUSH1 0x20 ADD PUSH1 0x0 PUSH1 0xFF AND DUP2 MSTORE PUSH1 0x20 ADD PUSH1 0x0 DUP2 MSTORE PUSH1 0x20 ADD PUSH1 0x0 DUP2 MSTORE PUSH1 0x20 ADD PUSH1 0x0 DUP2 MSTORE PUSH1 0x20 ADD PUSH1 0x0 DUP2 MSTORE PUSH1 0x20 ADD PUSH1 0x0 DUP2 MSTORE PUSH1 0x20 ADD PUSH1 0x0 DUP2 MSTORE POP SWAP1 JUMP JUMPDEST PUSH1 0x1 PUSH1 0x1 PUSH1 0xA0 SHL SUB DUP1 DUP4 AND PUSH1 0x0 SWAP1 DUP2 MSTORE PUSH1 0xDA PUSH1 0x20 SWAP1 DUP2 MSTORE PUSH1 0x40 SWAP2 DUP3 SWAP1 KECCAK256 DUP3 MLOAD PUSH2 0x1E0 DUP2 ADD DUP5 MSTORE DUP2 SLOAD DUP6 AND DUP2 MSTORE PUSH1 0x1 DUP3 ADD SLOAD DUP6 AND DUP2 DUP5 ADD MSTORE PUSH1 0x2 DUP3 ADD SLOAD SWAP1 SWAP5 AND DUP5 DUP5 ADD MSTORE PUSH1 0x3 DUP2 ADD DUP1 SLOAD DUP5 MLOAD DUP2 DUP6 MUL DUP2 ADD DUP6 ADD SWAP1 SWAP6 MSTORE DUP1 DUP6 MSTORE SWAP2 SWAP4 PUSH1 0x60 DUP7 ADD SWAP4 SWAP1 SWAP3 SWAP1 DUP4 ADD DUP3 DUP3 DUP1 ISZERO PUSH2 0x1B7E JUMPI PUSH1 0x20 MUL DUP3 ADD SWAP2 SWAP1 PUSH1 0x0 MSTORE PUSH1 0x20 PUSH1 0x0 KECCAK256 SWAP1 JUMPDEST DUP2 SLOAD PUSH1 0x1 PUSH1 0x1 PUSH1 0xA0 SHL SUB AND DUP2 MSTORE PUSH1 0x1 SWAP1 SWAP2 ADD SWAP1 PUSH1 0x20 ADD DUP1 DUP4 GT PUSH2 0x1B60 JUMPI JUMPDEST POP POP POP POP POP DUP2 MSTORE PUSH1 0x20 ADD PUSH1 0x4 DUP3 ADD DUP1 SLOAD DUP1 PUSH1 0x20 MUL PUSH1 0x20 ADD PUSH1 0x40 MLOAD SWAP1 DUP2 ADD PUSH1 0x40 MSTORE DUP1 SWAP3 SWAP2 SWAP1 DUP2 DUP2 MSTORE PUSH1 0x20 ADD PUSH1 0x0 SWAP1 JUMPDEST DUP3 DUP3 LT ISZERO PUSH2 0x1BF7 JUMPI PUSH1 0x0 DUP5 DUP2 MSTORE PUSH1 0x20 SWAP1 DUP2 SWAP1 KECCAK256 PUSH1 0x40 DUP1 MLOAD DUP1 DUP3 ADD SWAP1 SWAP2 MSTORE PUSH1 0x2 DUP6 MUL SWAP1 SWAP2 ADD DUP1 SLOAD PUSH1 0x1 PUSH1 0x1 PUSH1 0xA0 SHL SUB SWAP1 DUP2 AND DUP4 MSTORE PUSH1 0x1 SWAP2 DUP3 ADD SLOAD AND DUP3 DUP5 ADD MSTORE SWAP1 DUP4 MSTORE SWAP1 SWAP3 ADD SWAP2 ADD PUSH2 0x1BAC JUMP JUMPDEST POP POP POP POP DUP2 MSTORE PUSH1 0x20 ADD PUSH1 0x5 DUP3 ADD DUP1 SLOAD DUP1 PUSH1 0x20 MUL PUSH1 0x20 ADD PUSH1 0x40 MLOAD SWAP1 DUP2 ADD PUSH1 0x40 MSTORE DUP1 SWAP3 SWAP2 SWAP1 DUP2 DUP2 MSTORE PUSH1 0x20 ADD PUSH1 0x0 SWAP1 JUMPDEST DUP3 DUP3 LT ISZERO PUSH2 0x1C6D JUMPI PUSH1 0x0 DUP5 DUP2 MSTORE PUSH1 0x20 SWAP1 DUP2 SWAP1 KECCAK256 PUSH1 0x40 DUP1 MLOAD DUP1 DUP3 ADD SWAP1 SWAP2 MSTORE SWAP1 DUP5 ADD SLOAD PUSH1 0x1 PUSH1 0x1 PUSH1 0xA0 SHL SUB DUP2 AND DUP3 MSTORE PUSH1 0x1 PUSH1 0xA0 SHL SWAP1 DIV PUSH1 0xFF AND DUP2 DUP4 ADD MSTORE DUP3 MSTORE PUSH1 0x1 SWAP1 SWAP3 ADD SWAP2 ADD PUSH2 0x1C24 JUMP JUMPDEST POP POP POP SWAP1 DUP3 MSTORE POP PUSH1 0x6 DUP3 ADD SLOAD PUSH1 0x20 DUP3 ADD MSTORE PUSH1 0x7 DUP3 ADD SLOAD PUSH1 0x40 DUP3 ADD MSTORE PUSH1 0x8 DUP3 ADD SLOAD PUSH1 0xFF AND PUSH1 0x60 DUP3 ADD MSTORE PUSH1 0x9 DUP3 ADD SLOAD PUSH1 0x80 DUP3 ADD MSTORE PUSH1 0xA DUP3 ADD SLOAD PUSH1 0xA0 DUP3 ADD MSTORE PUSH1 0xB DUP3 ADD SLOAD PUSH1 0xC0 DUP3 ADD MSTORE PUSH1 0xC DUP3 ADD SLOAD PUSH1 0xE0 DUP3 ADD MSTORE PUSH1 0xD DUP3 ADD SLOAD PUSH2 0x100 DUP3 ADD MSTORE PUSH1 0xE SWAP1 SWAP2 ADD SLOAD PUSH2 0x120 SWAP1 SWAP2 ADD MSTORE SWAP3 SWAP2 POP POP JUMP JUMPDEST PUSH2 0x90B PUSH2 0x27B9 JUMP JUMPDEST PUSH32 0x4910FDFA16FED3260ED0E7147F7CC6DA11A60208B5B9406D12A635614FFD9143 SLOAD PUSH1 0xFF AND ISZERO PUSH2 0x1D16 JUMPI PUSH2 0x10A4 DUP4 PUSH2 0x2CFB JUMP JUMPDEST DUP3 PUSH1 0x1 PUSH1 0x1 PUSH1 0xA0 SHL SUB AND PUSH4 0x52D1902D PUSH1 0x40 MLOAD DUP2 PUSH4 0xFFFFFFFF AND PUSH1 0xE0 SHL DUP2 MSTORE PUSH1 0x4 ADD PUSH1 0x20 PUSH1 0x40 MLOAD DUP1 DUP4 SUB DUP2 DUP7 GAS STATICCALL SWAP3 POP POP POP DUP1 ISZERO PUSH2 0x1D70 JUMPI POP PUSH1 0x40 DUP1 MLOAD PUSH1 0x1F RETURNDATASIZE SWAP1 DUP2 ADD PUSH1 0x1F NOT AND DUP3 ADD SWAP1 SWAP3 MSTORE PUSH2 0x1D6D SWAP2 DUP2 ADD SWAP1 PUSH2 0x41EA JUMP JUMPDEST PUSH1 0x1 JUMPDEST PUSH2 0x1DE2 JUMPI PUSH1 0x40 MLOAD PUSH3 0x461BCD PUSH1 0xE5 SHL DUP2 MSTORE PUSH1 0x20 PUSH1 0x4 DUP3 ADD MSTORE PUSH1 0x2E PUSH1 0x24 DUP3 ADD MSTORE PUSH32 0x45524331393637557067726164653A206E657720696D706C656D656E74617469 PUSH1 0x44 DUP3 ADD MSTORE PUSH32 0x6F6E206973206E6F742055555053000000000000000000000000000000000000 PUSH1 0x64 DUP3 ADD MSTORE PUSH1 0x84 ADD PUSH2 0x817 JUMP JUMPDEST PUSH32 0x360894A13BA1A3210667C828492DB98DCA3E2076CC3735A920A3CA505D382BBC DUP2 EQ PUSH2 0x1E77 JUMPI PUSH1 0x40 MLOAD PUSH3 0x461BCD PUSH1 0xE5 SHL DUP2 MSTORE PUSH1 0x20 PUSH1 0x4 DUP3 ADD MSTORE PUSH1 0x29 PUSH1 0x24 DUP3 ADD MSTORE PUSH32 0x45524331393637557067726164653A20756E737570706F727465642070726F78 PUSH1 0x44 DUP3 ADD MSTORE PUSH32 0x6961626C65555549440000000000000000000000000000000000000000000000 PUSH1 0x64 DUP3 ADD MSTORE PUSH1 0x84 ADD PUSH2 0x817 JUMP JUMPDEST POP PUSH2 0x10A4 DUP4 DUP4 DUP4 PUSH2 0x2DB9 JUMP JUMPDEST PUSH1 0x0 PUSH8 0xDE0B6B3A7640000 PUSH2 0x1E98 DUP4 DUP6 PUSH2 0x417C JUMP JUMPDEST PUSH2 0x1EA2 SWAP2 SWAP1 PUSH2 0x41A9 JUMP JUMPDEST SWAP1 POP JUMPDEST SWAP3 SWAP2 POP POP JUMP JUMPDEST PUSH1 0xD8 SLOAD PUSH1 0x64 PUSH2 0x1EBB DUP3 PUSH1 0x5F PUSH2 0x417C JUMP JUMPDEST PUSH2 0x1EC5 SWAP2 SWAP1 PUSH2 0x41A9 JUMP JUMPDEST DUP5 LT ISZERO PUSH2 0x1F3A JUMPI PUSH1 0x40 MLOAD PUSH3 0x461BCD PUSH1 0xE5 SHL DUP2 MSTORE PUSH1 0x20 PUSH1 0x4 DUP3 ADD MSTORE PUSH1 0x26 PUSH1 0x24 DUP3 ADD MSTORE PUSH32 0x56616C7565206973206C657373207468656E20726567697374726174696F6E20 PUSH1 0x44 DUP3 ADD MSTORE PUSH32 0x76616C75652E0000000000000000000000000000000000000000000000000000 PUSH1 0x64 DUP3 ADD MSTORE PUSH1 0x84 ADD PUSH2 0x817 JUMP JUMPDEST PUSH1 0xD5 SLOAD PUSH1 0x1 PUSH1 0x1 PUSH1 0xA0 SHL SUB DUP1 DUP8 AND PUSH1 0x0 SWAP1 DUP2 MSTORE PUSH1 0xDA PUSH1 0x20 MSTORE PUSH1 0x40 DUP1 DUP3 KECCAK256 SWAP3 DUP11 AND DUP3 MSTORE DUP2 KECCAK256 PUSH1 0x6 DUP4 ADD SLOAD PUSH1 0xFF DUP1 DUP7 AND SWAP6 PUSH2 0x100 SWAP1 DIV AND SWAP4 SWAP2 SWAP1 ISZERO PUSH2 0x1FBF JUMPI PUSH1 0x40 MLOAD PUSH3 0x461BCD PUSH1 0xE5 SHL DUP2 MSTORE PUSH1 0x20 PUSH1 0x4 DUP3 ADD MSTORE PUSH1 0x17 PUSH1 0x24 DUP3 ADD MSTORE PUSH32 0x5573657220616C72656164792072656769737465726564000000000000000000 PUSH1 0x44 DUP3 ADD MSTORE PUSH1 0x64 ADD PUSH2 0x817 JUMP JUMPDEST DUP2 SLOAD PUSH1 0x1 PUSH1 0x1 PUSH1 0xA0 SHL SUB AND PUSH2 0x1FE8 JUMPI DUP2 SLOAD PUSH1 0x1 PUSH1 0x1 PUSH1 0xA0 SHL SUB NOT AND PUSH1 0x1 PUSH1 0x1 PUSH1 0xA0 SHL SUB DUP12 AND OR DUP3 SSTORE JUMPDEST DUP1 SLOAD PUSH1 0x1 PUSH1 0x1 PUSH1 0xA0 SHL SUB AND PUSH2 0x2011 JUMPI DUP1 SLOAD PUSH1 0x1 PUSH1 0x1 PUSH1 0xA0 SHL SUB NOT AND PUSH1 0x1 PUSH1 0x1 PUSH1 0xA0 SHL SUB DUP13 AND OR DUP2 SSTORE JUMPDEST DUP2 PUSH1 0x6 ADD SLOAD PUSH1 0x0 SUB PUSH2 0x2069 JUMPI PUSH1 0xC9 DUP1 SLOAD PUSH1 0x1 DUP2 ADD DUP3 SSTORE PUSH1 0x0 SWAP2 SWAP1 SWAP2 MSTORE PUSH32 0x66BE4F155C5EF2EBD3772B228F2F00681E4ED5826CDB3B1943CC11AD15AD1D28 ADD DUP1 SLOAD PUSH1 0x1 PUSH1 0x1 PUSH1 0xA0 SHL SUB NOT AND PUSH1 0x1 PUSH1 0x1 PUSH1 0xA0 SHL SUB DUP13 AND OR SWAP1 SSTORE JUMPDEST DUP9 DUP3 PUSH1 0x6 ADD PUSH1 0x0 DUP3 DUP3 SLOAD PUSH2 0x207D SWAP2 SWAP1 PUSH2 0x4121 JUMP JUMPDEST SWAP1 SWAP2 SSTORE POP POP PUSH1 0x40 DUP1 MLOAD PUSH2 0x1E0 DUP2 ADD DUP3 MSTORE DUP4 SLOAD PUSH1 0x1 PUSH1 0x1 PUSH1 0xA0 SHL SUB SWAP1 DUP2 AND DUP3 MSTORE PUSH1 0x1 DUP6 ADD SLOAD DUP2 AND PUSH1 0x20 DUP1 DUP5 ADD SWAP2 SWAP1 SWAP2 MSTORE PUSH1 0x2 DUP7 ADD SLOAD SWAP1 SWAP2 AND DUP3 DUP5 ADD MSTORE PUSH1 0x3 DUP6 ADD DUP1 SLOAD DUP5 MLOAD DUP2 DUP5 MUL DUP2 ADD DUP5 ADD SWAP1 SWAP6 MSTORE DUP1 DUP6 MSTORE PUSH2 0x2270 SWAP5 DUP8 SWAP4 PUSH1 0x60 DUP7 ADD SWAP4 SWAP2 SWAP3 SWAP1 DUP4 ADD DUP3 DUP3 DUP1 ISZERO PUSH2 0x2114 JUMPI PUSH1 0x20 MUL DUP3 ADD SWAP2 SWAP1 PUSH1 0x0 MSTORE PUSH1 0x20 PUSH1 0x0 KECCAK256 SWAP1 JUMPDEST DUP2 SLOAD PUSH1 0x1 PUSH1 0x1 PUSH1 0xA0 SHL SUB AND DUP2 MSTORE PUSH1 0x1 SWAP1 SWAP2 ADD SWAP1 PUSH1 0x20 ADD DUP1 DUP4 GT PUSH2 0x20F6 JUMPI JUMPDEST POP POP POP POP POP DUP2 MSTORE PUSH1 0x20 ADD PUSH1 0x4 DUP3 ADD DUP1 SLOAD DUP1 PUSH1 0x20 MUL PUSH1 0x20 ADD PUSH1 0x40 MLOAD SWAP1 DUP2 ADD PUSH1 0x40 MSTORE DUP1 SWAP3 SWAP2 SWAP1 DUP2 DUP2 MSTORE PUSH1 0x20 ADD PUSH1 0x0 SWAP1 JUMPDEST DUP3 DUP3 LT ISZERO PUSH2 0x218D JUMPI PUSH1 0x0 DUP5 DUP2 MSTORE PUSH1 0x20 SWAP1 DUP2 SWAP1 KECCAK256 PUSH1 0x40 DUP1 MLOAD DUP1 DUP3 ADD SWAP1 SWAP2 MSTORE PUSH1 0x2 DUP6 MUL SWAP1 SWAP2 ADD DUP1 SLOAD PUSH1 0x1 PUSH1 0x1 PUSH1 0xA0 SHL SUB SWAP1 DUP2 AND DUP4 MSTORE PUSH1 0x1 SWAP2 DUP3 ADD SLOAD AND DUP3 DUP5 ADD MSTORE SWAP1 DUP4 MSTORE SWAP1 SWAP3 ADD SWAP2 ADD PUSH2 0x2142 JUMP JUMPDEST POP POP POP POP DUP2 MSTORE PUSH1 0x20 ADD PUSH1 0x5 DUP3 ADD DUP1 SLOAD DUP1 PUSH1 0x20 MUL PUSH1 0x20 ADD PUSH1 0x40 MLOAD SWAP1 DUP2 ADD PUSH1 0x40 MSTORE DUP1 SWAP3 SWAP2 SWAP1 DUP2 DUP2 MSTORE PUSH1 0x20 ADD PUSH1 0x0 SWAP1 JUMPDEST DUP3 DUP3 LT ISZERO PUSH2 0x2203 JUMPI PUSH1 0x0 DUP5 DUP2 MSTORE PUSH1 0x20 SWAP1 DUP2 SWAP1 KECCAK256 PUSH1 0x40 DUP1 MLOAD DUP1 DUP3 ADD SWAP1 SWAP2 MSTORE SWAP1 DUP5 ADD SLOAD PUSH1 0x1 PUSH1 0x1 PUSH1 0xA0 SHL SUB DUP2 AND DUP3 MSTORE PUSH1 0x1 PUSH1 0xA0 SHL SWAP1 DIV PUSH1 0xFF AND DUP2 DUP4 ADD MSTORE DUP3 MSTORE PUSH1 0x1 SWAP1 SWAP3 ADD SWAP2 ADD PUSH2 0x21BA JUMP JUMPDEST POP POP POP SWAP1 DUP3 MSTORE POP PUSH1 0x6 DUP3 ADD SLOAD PUSH1 0x20 DUP3 ADD MSTORE PUSH1 0x7 DUP3 ADD SLOAD PUSH1 0x40 DUP3 ADD MSTORE PUSH1 0x8 DUP3 ADD SLOAD PUSH1 0xFF AND PUSH1 0x60 DUP3 ADD MSTORE PUSH1 0x9 DUP3 ADD SLOAD PUSH1 0x80 DUP3 ADD MSTORE PUSH1 0xA DUP3 ADD SLOAD PUSH1 0xA0 DUP3 ADD MSTORE PUSH1 0xB DUP3 ADD SLOAD PUSH1 0xC0 DUP3 ADD MSTORE PUSH1 0xC DUP3 ADD SLOAD PUSH1 0xE0 DUP3 ADD MSTORE PUSH1 0xD DUP3 ADD SLOAD PUSH2 0x100 DUP3 ADD MSTORE PUSH1 0xE SWAP1 SWAP2 ADD SLOAD PUSH2 0x120 SWAP1 SWAP2 ADD MSTORE PUSH2 0x2DDE JUMP JUMPDEST PUSH2 0x2283 JUMPI PUSH2 0x227E DUP12 DUP12 PUSH2 0x2DFD JUMP JUMPDEST PUSH2 0x22EB JUMP JUMPDEST PUSH32 0x1F4FFF38C5E64AF9E759D590409F022EA913658008BB1D0CD35E028244F01ECF PUSH1 0x40 MLOAD PUSH2 0x22E2 SWAP1 PUSH1 0x20 DUP1 DUP3 MSTORE PUSH1 0x1F SWAP1 DUP3 ADD MSTORE PUSH32 0x5573657220416C72656164792068617665207265666572726572207365742E00 PUSH1 0x40 DUP3 ADD MSTORE PUSH1 0x60 ADD SWAP1 JUMP JUMPDEST PUSH1 0x40 MLOAD DUP1 SWAP2 SUB SWAP1 LOG1 JUMPDEST PUSH1 0x1 DUP3 ADD SLOAD PUSH1 0x2 DUP4 ADD SLOAD DUP4 SLOAD PUSH1 0x40 DUP1 MLOAD PUSH1 0x1 PUSH1 0x1 PUSH1 0xA0 SHL SUB SWAP5 DUP6 AND DUP2 MSTORE SWAP3 DUP5 AND PUSH1 0x20 DUP5 ADD MSTORE SWAP3 AND DUP2 DUP4 ADD MSTORE PUSH1 0x60 DUP2 ADD DUP12 SWAP1 MSTORE SWAP1 MLOAD PUSH32 0x411C58B3C1E8A39D91C901E5C807BFF1401650BEEDC45ABA65112756BB929B4 SWAP2 DUP2 SWAP1 SUB PUSH1 0x80 ADD SWAP1 LOG1 PUSH1 0x0 PUSH1 0x64 PUSH2 0x235A PUSH1 0xFF DUP9 AND DUP12 PUSH2 0x417C JUMP JUMPDEST PUSH2 0x2364 SWAP2 SWAP1 PUSH2 0x41A9 JUMP JUMPDEST SWAP1 POP PUSH1 0x0 PUSH2 0x2372 DUP3 DUP11 PUSH2 0x1E83 JUMP JUMPDEST PUSH1 0x1 DUP6 ADD SLOAD PUSH1 0x1 PUSH1 0x1 PUSH1 0xA0 SHL SUB SWAP1 DUP2 AND PUSH1 0x0 SWAP1 DUP2 MSTORE PUSH1 0xDA PUSH1 0x20 MSTORE PUSH1 0x40 SWAP1 KECCAK256 DUP1 SLOAD SWAP3 SWAP4 POP SWAP2 AND ISZERO PUSH2 0x245F JUMPI DUP1 SLOAD PUSH1 0x40 MLOAD PUSH1 0x1 PUSH1 0x1 PUSH1 0xA0 SHL SUB SWAP1 SWAP2 AND SWAP1 DUP5 ISZERO PUSH2 0x8FC MUL SWAP1 DUP6 SWAP1 PUSH1 0x0 DUP2 DUP2 DUP2 DUP6 DUP9 DUP9 CALL SWAP4 POP POP POP POP ISZERO DUP1 ISZERO PUSH2 0x23D5 JUMPI RETURNDATASIZE PUSH1 0x0 DUP1 RETURNDATACOPY RETURNDATASIZE PUSH1 0x0 REVERT JUMPDEST POP DUP1 SLOAD PUSH1 0x40 DUP1 MLOAD PUSH1 0x1 PUSH1 0x1 PUSH1 0xA0 SHL SUB SWAP3 DUP4 AND DUP2 MSTORE SWAP2 DUP16 AND PUSH1 0x20 DUP4 ADD MSTORE DUP2 ADD DUP5 SWAP1 MSTORE PUSH1 0x1 PUSH1 0x60 DUP3 ADD MSTORE PUSH32 0x153F77382D7E07DE734977AE352E9B1F5F8AD4B1C0033C883A9A33456A87836F SWAP1 PUSH1 0x80 ADD PUSH1 0x40 MLOAD DUP1 SWAP2 SUB SWAP1 LOG1 DUP2 DUP2 PUSH1 0xB ADD PUSH1 0x0 DUP3 DUP3 SLOAD PUSH2 0x243E SWAP2 SWAP1 PUSH2 0x4121 JUMP JUMPDEST SWAP3 POP POP DUP2 SWAP1 SSTORE POP DUP12 DUP2 PUSH1 0x9 ADD PUSH1 0x0 DUP3 DUP3 SLOAD PUSH2 0x2459 SWAP2 SWAP1 PUSH2 0x4121 JUMP JUMPDEST SWAP1 SWAP2 SSTORE POP POP JUMPDEST PUSH2 0x2469 DUP3 DUP8 PUSH2 0x4121 JUMP JUMPDEST SWAP6 POP PUSH1 0x0 JUMPDEST DUP8 PUSH1 0xFF AND DUP2 PUSH1 0xFF AND LT ISZERO PUSH2 0x25D9 JUMPI PUSH1 0x40 DUP1 MLOAD PUSH2 0x1E0 DUP2 ADD DUP3 MSTORE DUP8 SLOAD PUSH1 0x1 PUSH1 0x1 PUSH1 0xA0 SHL SUB SWAP1 DUP2 AND DUP3 MSTORE PUSH1 0x1 DUP10 ADD SLOAD DUP2 AND PUSH1 0x20 DUP1 DUP5 ADD SWAP2 SWAP1 SWAP2 MSTORE PUSH1 0x2 DUP11 ADD SLOAD SWAP1 SWAP2 AND DUP3 DUP5 ADD MSTORE PUSH1 0x3 DUP10 ADD DUP1 SLOAD DUP5 MLOAD DUP2 DUP5 MUL DUP2 ADD DUP5 ADD SWAP1 SWAP6 MSTORE DUP1 DUP6 MSTORE PUSH2 0x2584 SWAP5 DUP12 SWAP4 PUSH1 0x60 DUP7 ADD SWAP4 SWAP2 SWAP3 SWAP1 DUP4 ADD DUP3 DUP3 DUP1 ISZERO PUSH2 0x2114 JUMPI PUSH1 0x20 MUL DUP3 ADD SWAP2 SWAP1 PUSH1 0x0 MSTORE PUSH1 0x20 PUSH1 0x0 KECCAK256 SWAP1 DUP2 SLOAD PUSH1 0x1 PUSH1 0x1 PUSH1 0xA0 SHL SUB AND DUP2 MSTORE PUSH1 0x1 SWAP1 SWAP2 ADD SWAP1 PUSH1 0x20 ADD DUP1 DUP4 GT PUSH2 0x20F6 JUMPI POP POP POP POP POP DUP2 MSTORE PUSH1 0x20 ADD PUSH1 0x4 DUP3 ADD DUP1 SLOAD DUP1 PUSH1 0x20 MUL PUSH1 0x20 ADD PUSH1 0x40 MLOAD SWAP1 DUP2 ADD PUSH1 0x40 MSTORE DUP1 SWAP3 SWAP2 SWAP1 DUP2 DUP2 MSTORE PUSH1 0x20 ADD PUSH1 0x0 SWAP1 DUP3 DUP3 LT ISZERO PUSH2 0x218D JUMPI PUSH1 0x0 DUP5 DUP2 MSTORE PUSH1 0x20 SWAP1 DUP2 SWAP1 KECCAK256 PUSH1 0x40 DUP1 MLOAD DUP1 DUP3 ADD SWAP1 SWAP2 MSTORE PUSH1 0x2 DUP6 MUL SWAP1 SWAP2 ADD DUP1 SLOAD PUSH1 0x1 PUSH1 0x1 PUSH1 0xA0 SHL SUB SWAP1 DUP2 AND DUP4 MSTORE PUSH1 0x1 SWAP2 DUP3 ADD SLOAD AND DUP3 DUP5 ADD MSTORE SWAP1 DUP4 MSTORE SWAP1 SWAP3 ADD SWAP2 ADD PUSH2 0x2142 JUMP JUMPDEST ISZERO PUSH2 0x25D9 JUMPI PUSH1 0x2 DUP7 ADD SLOAD PUSH1 0x1 PUSH1 0x1 PUSH1 0xA0 SHL SUB AND PUSH1 0x0 SWAP1 DUP2 MSTORE PUSH1 0xDA PUSH1 0x20 MSTORE PUSH1 0x40 DUP2 KECCAK256 PUSH1 0xA DUP2 ADD DUP1 SLOAD SWAP2 SWAP8 POP DUP16 SWAP3 SWAP1 SWAP2 PUSH2 0x25BD SWAP1 DUP5 SWAP1 PUSH2 0x4121 JUMP JUMPDEST SWAP1 SWAP2 SSTORE POP SWAP5 SWAP6 POP DUP6 SWAP5 POP DUP1 PUSH2 0x25D1 DUP2 PUSH2 0x414A JUMP JUMPDEST SWAP2 POP POP PUSH2 0x246E JUMP JUMPDEST POP PUSH1 0xCF SLOAD PUSH1 0x0 SWAP1 PUSH1 0x64 SWAP1 PUSH2 0x25F7 SWAP1 PUSH1 0x1 PUSH1 0xA0 SHL SWAP1 DIV PUSH1 0xFF AND DUP15 PUSH2 0x417C JUMP JUMPDEST PUSH2 0x2601 SWAP2 SWAP1 PUSH2 0x41A9 JUMP JUMPDEST PUSH1 0xCF SLOAD PUSH1 0x40 MLOAD SWAP2 SWAP3 POP PUSH1 0x1 PUSH1 0x1 PUSH1 0xA0 SHL SUB AND SWAP1 DUP3 ISZERO PUSH2 0x8FC MUL SWAP1 DUP4 SWAP1 PUSH1 0x0 DUP2 DUP2 DUP2 DUP6 DUP9 DUP9 CALL SWAP4 POP POP POP POP ISZERO DUP1 ISZERO PUSH2 0x263C JUMPI RETURNDATASIZE PUSH1 0x0 DUP1 RETURNDATACOPY RETURNDATASIZE PUSH1 0x0 REVERT JUMPDEST POP PUSH1 0xCF SLOAD PUSH1 0x40 DUP1 MLOAD PUSH1 0x1 PUSH1 0x1 PUSH1 0xA0 SHL SUB SWAP1 SWAP3 AND DUP3 MSTORE PUSH1 0x20 DUP3 ADD DUP4 SWAP1 MSTORE PUSH32 0x5AA75BDB3269082E844D731608AFAE2A07CBF194F251E3F857B870AF86B754FB SWAP2 ADD PUSH1 0x40 MLOAD DUP1 SWAP2 SUB SWAP1 LOG1 DUP7 PUSH1 0xCC PUSH1 0x0 DUP3 DUP3 SLOAD PUSH2 0x2695 SWAP2 SWAP1 PUSH2 0x4121 JUMP JUMPDEST SWAP3 POP POP DUP2 SWAP1 SSTORE POP DUP13 PUSH1 0xCB PUSH1 0x0 DUP3 DUP3 SLOAD PUSH2 0x26AE SWAP2 SWAP1 PUSH2 0x4121 JUMP JUMPDEST SWAP1 SWAP2 SSTORE POP POP PUSH1 0xD1 SLOAD PUSH1 0x0 SWAP1 PUSH1 0x64 SWAP1 PUSH2 0x26C9 SWAP1 PUSH1 0xFF AND DUP16 PUSH2 0x417C JUMP JUMPDEST PUSH2 0x26D3 SWAP2 SWAP1 PUSH2 0x41A9 JUMP JUMPDEST PUSH1 0xD9 SLOAD PUSH1 0x40 MLOAD SWAP2 SWAP3 POP PUSH1 0x1 PUSH1 0x1 PUSH1 0xA0 SHL SUB AND SWAP1 DUP3 ISZERO PUSH2 0x8FC MUL SWAP1 DUP4 SWAP1 PUSH1 0x0 DUP2 DUP2 DUP2 DUP6 DUP9 DUP9 CALL SWAP4 POP POP POP POP ISZERO DUP1 ISZERO PUSH2 0x270E JUMPI RETURNDATASIZE PUSH1 0x0 DUP1 RETURNDATACOPY RETURNDATASIZE PUSH1 0x0 REVERT JUMPDEST POP DUP1 PUSH1 0xD0 PUSH1 0x0 DUP3 DUP3 SLOAD PUSH2 0x2721 SWAP2 SWAP1 PUSH2 0x4121 JUMP JUMPDEST SWAP1 SWAP2 SSTORE POP POP PUSH1 0xD3 SLOAD PUSH1 0x64 SWAP1 PUSH2 0x2739 SWAP1 PUSH1 0xFF AND DUP16 PUSH2 0x417C JUMP JUMPDEST PUSH2 0x2743 SWAP2 SWAP1 PUSH2 0x41A9 JUMP JUMPDEST PUSH1 0xD2 PUSH1 0x0 DUP3 DUP3 SLOAD PUSH2 0x2754 SWAP2 SWAP1 PUSH2 0x4121 JUMP JUMPDEST SWAP1 SWAP2 SSTORE POP POP POP POP POP POP POP POP POP POP POP POP POP POP POP POP POP POP JUMP JUMPDEST PUSH1 0x0 DUP1 JUMPDEST PUSH1 0x32 DUP2 PUSH1 0xFF AND LT ISZERO PUSH2 0x27B5 JUMPI PUSH1 0xFF DUP1 DUP3 AND PUSH1 0x0 SWAP1 DUP2 MSTORE PUSH1 0xDB PUSH1 0x20 MSTORE PUSH1 0x40 SWAP1 KECCAK256 SLOAD AND ISZERO PUSH2 0x27B5 JUMPI DUP2 PUSH2 0x279F DUP2 PUSH2 0x414A JUMP JUMPDEST SWAP3 POP POP DUP1 DUP1 PUSH2 0x27AD SWAP1 PUSH2 0x414A JUMP JUMPDEST SWAP2 POP POP PUSH2 0x276F JUMP JUMPDEST POP SWAP1 JUMP JUMPDEST PUSH1 0x33 SLOAD PUSH1 0x1 PUSH1 0x1 PUSH1 0xA0 SHL SUB AND CALLER EQ PUSH2 0xCEA JUMPI PUSH1 0x40 MLOAD PUSH3 0x461BCD PUSH1 0xE5 SHL DUP2 MSTORE PUSH1 0x20 PUSH1 0x4 DUP3 ADD DUP2 SWAP1 MSTORE PUSH1 0x24 DUP3 ADD MSTORE PUSH32 0x4F776E61626C653A2063616C6C6572206973206E6F7420746865206F776E6572 PUSH1 0x44 DUP3 ADD MSTORE PUSH1 0x64 ADD PUSH2 0x817 JUMP JUMPDEST PUSH1 0x33 DUP1 SLOAD PUSH1 0x1 PUSH1 0x1 PUSH1 0xA0 SHL SUB DUP4 DUP2 AND PUSH1 0x1 PUSH1 0x1 PUSH1 0xA0 SHL SUB NOT DUP4 AND DUP2 OR SWAP1 SWAP4 SSTORE PUSH1 0x40 MLOAD SWAP2 AND SWAP2 SWAP1 DUP3 SWAP1 PUSH32 0x8BE0079C531659141344CD1FD0A4F28419497F9722A3DAAFE3B4186F6B6457E0 SWAP1 PUSH1 0x0 SWAP1 LOG3 POP POP JUMP JUMPDEST PUSH1 0x1 PUSH1 0x1 PUSH1 0xA0 SHL SUB DUP2 AND PUSH1 0x0 SWAP1 DUP2 MSTORE PUSH1 0xDA PUSH1 0x20 SWAP1 DUP2 MSTORE PUSH1 0x40 DUP1 DUP4 KECCAK256 PUSH1 0x8 DUP2 ADD SLOAD PUSH1 0xFF SWAP1 DUP2 AND DUP1 DUP7 MSTORE PUSH1 0xDB DUP6 MSTORE DUP4 DUP7 KECCAK256 DUP5 MLOAD DUP1 DUP7 ADD SWAP1 SWAP6 MSTORE DUP1 SLOAD SWAP1 SWAP3 AND DUP5 MSTORE PUSH1 0x1 SWAP1 SWAP2 ADD SLOAD SWAP4 DUP4 ADD SWAP4 SWAP1 SWAP4 MSTORE SWAP3 PUSH2 0x28B9 PUSH2 0x276B JUMP JUMPDEST SWAP1 POP DUP2 PUSH1 0x20 ADD MLOAD DUP7 LT ISZERO PUSH2 0x2935 JUMPI PUSH1 0x40 MLOAD PUSH3 0x461BCD PUSH1 0xE5 SHL DUP2 MSTORE PUSH1 0x20 PUSH1 0x4 DUP3 ADD MSTORE PUSH1 0x26 PUSH1 0x24 DUP3 ADD MSTORE PUSH32 0x56616C75652073686F756C6420626520657175616C20746F2075706772616465 PUSH1 0x44 DUP3 ADD MSTORE PUSH32 0x2076616C75650000000000000000000000000000000000000000000000000000 PUSH1 0x64 DUP3 ADD MSTORE PUSH1 0x84 ADD PUSH2 0x817 JUMP JUMPDEST DUP1 PUSH1 0xFF AND DUP4 PUSH1 0xFF AND LT PUSH2 0x298A JUMPI PUSH1 0x40 MLOAD PUSH3 0x461BCD PUSH1 0xE5 SHL DUP2 MSTORE PUSH1 0x20 PUSH1 0x4 DUP3 ADD MSTORE PUSH1 0x1F PUSH1 0x24 DUP3 ADD MSTORE PUSH32 0x5573657220636F6E73756D656420616C6C207570677261646520706C616E7300 PUSH1 0x44 DUP3 ADD MSTORE PUSH1 0x64 ADD PUSH2 0x817 JUMP JUMPDEST DUP6 DUP5 PUSH1 0x7 ADD PUSH1 0x0 DUP3 DUP3 SLOAD PUSH2 0x299E SWAP2 SWAP1 PUSH2 0x4121 JUMP JUMPDEST SWAP1 SWAP2 SSTORE POP PUSH1 0x0 SWAP1 POP JUMPDEST DUP4 PUSH1 0xFF AND DUP2 GT PUSH2 0x2BE5 JUMPI PUSH1 0x2 DUP6 ADD SLOAD PUSH1 0x1 PUSH1 0x1 PUSH1 0xA0 SHL SUB AND ISZERO PUSH2 0x2BE5 JUMPI PUSH1 0x2 DUP6 ADD SLOAD PUSH1 0x1 PUSH1 0x1 PUSH1 0xA0 SHL SUB AND PUSH1 0x0 SWAP1 DUP2 MSTORE PUSH1 0xDA PUSH1 0x20 MSTORE PUSH1 0x40 SWAP1 KECCAK256 PUSH1 0xFF DUP6 AND DUP3 SUB PUSH2 0x2BD3 JUMPI PUSH1 0x8 DUP2 ADD SLOAD PUSH1 0xFF DUP1 DUP8 AND SWAP2 AND GT DUP1 ISZERO PUSH2 0x2A0C JUMPI POP DUP1 SLOAD PUSH1 0x1 PUSH1 0x1 PUSH1 0xA0 SHL SUB AND ISZERO ISZERO JUMPDEST ISZERO PUSH2 0x2AB6 JUMPI DUP8 DUP2 PUSH1 0xD ADD PUSH1 0x0 DUP3 DUP3 SLOAD PUSH2 0x2A25 SWAP2 SWAP1 PUSH2 0x4121 JUMP JUMPDEST SWAP1 SWAP2 SSTORE POP POP DUP1 SLOAD PUSH1 0x40 MLOAD PUSH1 0x1 PUSH1 0x1 PUSH1 0xA0 SHL SUB SWAP1 SWAP2 AND SWAP1 DUP11 ISZERO PUSH2 0x8FC MUL SWAP1 DUP12 SWAP1 PUSH1 0x0 DUP2 DUP2 DUP2 DUP6 DUP9 DUP9 CALL SWAP4 POP POP POP POP ISZERO DUP1 ISZERO PUSH2 0x2A63 JUMPI RETURNDATASIZE PUSH1 0x0 DUP1 RETURNDATACOPY RETURNDATASIZE PUSH1 0x0 REVERT JUMPDEST POP DUP1 SLOAD PUSH1 0x40 DUP1 MLOAD PUSH1 0x1 PUSH1 0x1 PUSH1 0xA0 SHL SUB SWAP3 DUP4 AND DUP2 MSTORE SWAP2 DUP10 AND PUSH1 0x20 DUP4 ADD MSTORE DUP2 ADD DUP11 SWAP1 MSTORE PUSH32 0xB37800F632235E56E1626C9E9DF3DE1E167E9298F0D25F59FD74EC65E3111652 SWAP1 PUSH1 0x60 ADD PUSH1 0x40 MLOAD DUP1 SWAP2 SUB SWAP1 LOG1 PUSH2 0x2BCD JUMP JUMPDEST PUSH32 0x6696B78FC1713892E6E2BB3DF5CDC986AB67A0C675898C7EF535BD2201CA9451 PUSH1 0x40 MLOAD PUSH2 0x2B3B SWAP1 PUSH1 0x20 DUP1 DUP3 MSTORE PUSH1 0x3F SWAP1 DUP3 ADD MSTORE PUSH32 0x55706C696E6520686173206E6F742075706772616465642E20416D6F756E7420 PUSH1 0x40 DUP3 ADD MSTORE PUSH32 0x7472616E73666572656420746F206C69717569646974792077616C6C65742E00 PUSH1 0x60 DUP3 ADD MSTORE PUSH1 0x80 ADD SWAP1 JUMP JUMPDEST PUSH1 0x40 MLOAD DUP1 SWAP2 SUB SWAP1 LOG1 PUSH1 0xD9 SLOAD PUSH1 0x40 MLOAD PUSH1 0x1 PUSH1 0x1 PUSH1 0xA0 SHL SUB SWAP1 SWAP2 AND SWAP1 DUP2 SWAP1 DUP12 ISZERO PUSH2 0x8FC MUL SWAP1 DUP13 SWAP1 PUSH1 0x0 DUP2 DUP2 DUP2 DUP6 DUP9 DUP9 CALL SWAP4 POP POP POP POP ISZERO DUP1 ISZERO PUSH2 0x2B7F JUMPI RETURNDATASIZE PUSH1 0x0 DUP1 RETURNDATACOPY RETURNDATASIZE PUSH1 0x0 REVERT JUMPDEST POP PUSH1 0x40 DUP1 MLOAD PUSH1 0x1 PUSH1 0x1 PUSH1 0xA0 SHL SUB DUP1 DUP5 AND DUP3 MSTORE DUP11 AND PUSH1 0x20 DUP3 ADD MSTORE SWAP1 DUP2 ADD DUP12 SWAP1 MSTORE PUSH32 0xB37800F632235E56E1626C9E9DF3DE1E167E9298F0D25F59FD74EC65E3111652 SWAP1 PUSH1 0x60 ADD PUSH1 0x40 MLOAD DUP1 SWAP2 SUB SWAP1 LOG1 POP JUMPDEST POP PUSH2 0x2BE5 JUMP JUMPDEST SWAP5 POP PUSH2 0x2BDE DUP2 PUSH2 0x4203 JUMP JUMPDEST SWAP1 POP PUSH2 0x29A7 JUMP JUMPDEST POP PUSH1 0x8 DUP5 ADD DUP1 SLOAD PUSH1 0xFF AND SWAP1 PUSH1 0x0 PUSH2 0x2BFB DUP4 PUSH2 0x414A JUMP JUMPDEST SWAP2 SWAP1 PUSH2 0x100 EXP DUP2 SLOAD DUP2 PUSH1 0xFF MUL NOT AND SWAP1 DUP4 PUSH1 0xFF AND MUL OR SWAP1 SSTORE POP POP POP POP POP POP POP POP POP JUMP JUMPDEST PUSH1 0x0 SLOAD PUSH2 0x100 SWAP1 DIV PUSH1 0xFF AND PUSH2 0x2C88 JUMPI PUSH1 0x40 MLOAD PUSH3 0x461BCD PUSH1 0xE5 SHL DUP2 MSTORE PUSH1 0x20 PUSH1 0x4 DUP3 ADD MSTORE PUSH1 0x2B PUSH1 0x24 DUP3 ADD MSTORE PUSH32 0x496E697469616C697A61626C653A20636F6E7472616374206973206E6F742069 PUSH1 0x44 DUP3 ADD MSTORE PUSH11 0x6E697469616C697A696E67 PUSH1 0xA8 SHL PUSH1 0x64 DUP3 ADD MSTORE PUSH1 0x84 ADD PUSH2 0x817 JUMP JUMPDEST PUSH2 0xCEA PUSH2 0x37EC JUMP JUMPDEST PUSH1 0x0 SLOAD PUSH2 0x100 SWAP1 DIV PUSH1 0xFF AND PUSH2 0xCEA JUMPI PUSH1 0x40 MLOAD PUSH3 0x461BCD PUSH1 0xE5 SHL DUP2 MSTORE PUSH1 0x20 PUSH1 0x4 DUP3 ADD MSTORE PUSH1 0x2B PUSH1 0x24 DUP3 ADD MSTORE PUSH32 0x496E697469616C697A61626C653A20636F6E7472616374206973206E6F742069 PUSH1 0x44 DUP3 ADD MSTORE PUSH11 0x6E697469616C697A696E67 PUSH1 0xA8 SHL PUSH1 0x64 DUP3 ADD MSTORE PUSH1 0x84 ADD PUSH2 0x817 JUMP JUMPDEST PUSH1 0x1 PUSH1 0x1 PUSH1 0xA0 SHL SUB DUP2 AND EXTCODESIZE PUSH2 0x2D78 JUMPI PUSH1 0x40 MLOAD PUSH3 0x461BCD PUSH1 0xE5 SHL DUP2 MSTORE PUSH1 0x20 PUSH1 0x4 DUP3 ADD MSTORE PUSH1 0x2D PUSH1 0x24 DUP3 ADD MSTORE PUSH32 0x455243313936373A206E657720696D706C656D656E746174696F6E206973206E PUSH1 0x44 DUP3 ADD MSTORE PUSH32 0x6F74206120636F6E747261637400000000000000000000000000000000000000 PUSH1 0x64 DUP3 ADD MSTORE PUSH1 0x84 ADD PUSH2 0x817 JUMP JUMPDEST PUSH32 0x360894A13BA1A3210667C828492DB98DCA3E2076CC3735A920A3CA505D382BBC DUP1 SLOAD PUSH1 0x1 PUSH1 0x1 PUSH1 0xA0 SHL SUB NOT AND PUSH1 0x1 PUSH1 0x1 PUSH1 0xA0 SHL SUB SWAP3 SWAP1 SWAP3 AND SWAP2 SWAP1 SWAP2 OR SWAP1 SSTORE JUMP JUMPDEST PUSH2 0x2DC2 DUP4 PUSH2 0x3860 JUMP JUMPDEST PUSH1 0x0 DUP3 MLOAD GT DUP1 PUSH2 0x2DCF JUMPI POP DUP1 JUMPDEST ISZERO PUSH2 0x10A4 JUMPI PUSH2 0x9B3 DUP4 DUP4 PUSH2 0x38A0 JUMP JUMPDEST PUSH1 0x40 DUP2 ADD MLOAD PUSH1 0x0 SWAP1 PUSH1 0x1 PUSH1 0x1 PUSH1 0xA0 SHL SUB AND ISZERO PUSH2 0x2DF8 JUMPI POP PUSH1 0x1 JUMPDEST SWAP2 SWAP1 POP JUMP JUMPDEST PUSH1 0x1 PUSH1 0x1 PUSH1 0xA0 SHL SUB DUP1 DUP3 AND PUSH1 0x0 DUP2 DUP2 MSTORE PUSH1 0xDA PUSH1 0x20 MSTORE PUSH1 0x40 SWAP1 KECCAK256 SWAP2 DUP5 AND SUB PUSH2 0x2E66 JUMPI PUSH1 0x40 MLOAD PUSH3 0x461BCD PUSH1 0xE5 SHL DUP2 MSTORE PUSH1 0x20 PUSH1 0x4 DUP3 ADD MSTORE PUSH1 0x1A PUSH1 0x24 DUP3 ADD MSTORE PUSH32 0x596F752063616E6E6F7420726566657220796F757273656C662E000000000000 PUSH1 0x44 DUP3 ADD MSTORE PUSH1 0x64 ADD PUSH2 0x817 JUMP JUMPDEST PUSH1 0x0 PUSH1 0x1 PUSH1 0x1 PUSH1 0xA0 SHL SUB DUP5 AND PUSH2 0x2E96 JUMPI POP PUSH1 0xD7 SLOAD PUSH1 0x1 PUSH1 0x1 PUSH1 0xA0 SHL SUB AND PUSH1 0x0 SWAP1 DUP2 MSTORE PUSH1 0xDA PUSH1 0x20 MSTORE PUSH1 0x40 SWAP1 KECCAK256 PUSH2 0x2EB0 JUMP JUMPDEST POP PUSH1 0x1 PUSH1 0x1 PUSH1 0xA0 SHL SUB DUP4 AND PUSH1 0x0 SWAP1 DUP2 MSTORE PUSH1 0xDA PUSH1 0x20 MSTORE PUSH1 0x40 SWAP1 KECCAK256 JUMPDEST PUSH1 0x40 DUP1 MLOAD PUSH2 0x1E0 DUP2 ADD DUP3 MSTORE DUP3 SLOAD PUSH1 0x1 PUSH1 0x1 PUSH1 0xA0 SHL SUB SWAP1 DUP2 AND DUP3 MSTORE PUSH1 0x1 DUP5 ADD SLOAD DUP2 AND PUSH1 0x20 DUP1 DUP5 ADD SWAP2 SWAP1 SWAP2 MSTORE PUSH1 0x2 DUP6 ADD SLOAD SWAP1 SWAP2 AND DUP3 DUP5 ADD MSTORE PUSH1 0x3 DUP5 ADD DUP1 SLOAD DUP5 MLOAD DUP2 DUP5 MUL DUP2 ADD DUP5 ADD SWAP1 SWAP6 MSTORE DUP1 DUP6 MSTORE PUSH2 0x309E SWAP5 DUP7 SWAP4 PUSH1 0x60 DUP7 ADD SWAP4 SWAP2 SWAP3 SWAP1 DUP4 ADD DUP3 DUP3 DUP1 ISZERO PUSH2 0x2F42 JUMPI PUSH1 0x20 MUL DUP3 ADD SWAP2 SWAP1 PUSH1 0x0 MSTORE PUSH1 0x20 PUSH1 0x0 KECCAK256 SWAP1 JUMPDEST DUP2 SLOAD PUSH1 0x1 PUSH1 0x1 PUSH1 0xA0 SHL SUB AND DUP2 MSTORE PUSH1 0x1 SWAP1 SWAP2 ADD SWAP1 PUSH1 0x20 ADD DUP1 DUP4 GT PUSH2 0x2F24 JUMPI JUMPDEST POP POP POP POP POP DUP2 MSTORE PUSH1 0x20 ADD PUSH1 0x4 DUP3 ADD DUP1 SLOAD DUP1 PUSH1 0x20 MUL PUSH1 0x20 ADD PUSH1 0x40 MLOAD SWAP1 DUP2 ADD PUSH1 0x40 MSTORE DUP1 SWAP3 SWAP2 SWAP1 DUP2 DUP2 MSTORE PUSH1 0x20 ADD PUSH1 0x0 SWAP1 JUMPDEST DUP3 DUP3 LT ISZERO PUSH2 0x2FBB JUMPI PUSH1 0x0 DUP5 DUP2 MSTORE PUSH1 0x20 SWAP1 DUP2 SWAP1 KECCAK256 PUSH1 0x40 DUP1 MLOAD DUP1 DUP3 ADD SWAP1 SWAP2 MSTORE PUSH1 0x2 DUP6 MUL SWAP1 SWAP2 ADD DUP1 SLOAD PUSH1 0x1 PUSH1 0x1 PUSH1 0xA0 SHL SUB SWAP1 DUP2 AND DUP4 MSTORE PUSH1 0x1 SWAP2 DUP3 ADD SLOAD AND DUP3 DUP5 ADD MSTORE SWAP1 DUP4 MSTORE SWAP1 SWAP3 ADD SWAP2 ADD PUSH2 0x2F70 JUMP JUMPDEST POP POP POP POP DUP2 MSTORE PUSH1 0x20 ADD PUSH1 0x5 DUP3 ADD DUP1 SLOAD DUP1 PUSH1 0x20 MUL PUSH1 0x20 ADD PUSH1 0x40 MLOAD SWAP1 DUP2 ADD PUSH1 0x40 MSTORE DUP1 SWAP3 SWAP2 SWAP1 DUP2 DUP2 MSTORE PUSH1 0x20 ADD PUSH1 0x0 SWAP1 JUMPDEST DUP3 DUP3 LT ISZERO PUSH2 0x3031 JUMPI PUSH1 0x0 DUP5 DUP2 MSTORE PUSH1 0x20 SWAP1 DUP2 SWAP1 KECCAK256 PUSH1 0x40 DUP1 MLOAD DUP1 DUP3 ADD SWAP1 SWAP2 MSTORE SWAP1 DUP5 ADD SLOAD PUSH1 0x1 PUSH1 0x1 PUSH1 0xA0 SHL SUB DUP2 AND DUP3 MSTORE PUSH1 0x1 PUSH1 0xA0 SHL SWAP1 DIV PUSH1 0xFF AND DUP2 DUP4 ADD MSTORE DUP3 MSTORE PUSH1 0x1 SWAP1 SWAP3 ADD SWAP2 ADD PUSH2 0x2FE8 JUMP JUMPDEST POP POP POP SWAP1 DUP3 MSTORE POP PUSH1 0x6 DUP3 ADD SLOAD PUSH1 0x20 DUP3 ADD MSTORE PUSH1 0x7 DUP3 ADD SLOAD PUSH1 0x40 DUP3 ADD MSTORE PUSH1 0x8 DUP3 ADD SLOAD PUSH1 0xFF AND PUSH1 0x60 DUP3 ADD MSTORE PUSH1 0x9 DUP3 ADD SLOAD PUSH1 0x80 DUP3 ADD MSTORE PUSH1 0xA DUP3 ADD SLOAD PUSH1 0xA0 DUP3 ADD MSTORE PUSH1 0xB DUP3 ADD SLOAD PUSH1 0xC0 DUP3 ADD MSTORE PUSH1 0xC DUP3 ADD SLOAD PUSH1 0xE0 DUP3 ADD MSTORE PUSH1 0xD DUP3 ADD SLOAD PUSH2 0x100 DUP3 ADD MSTORE PUSH1 0xE SWAP1 SWAP2 ADD SLOAD PUSH2 0x120 SWAP1 SWAP2 ADD MSTORE PUSH2 0x39AB JUMP JUMPDEST PUSH2 0x31EF JUMPI PUSH2 0x30AC DUP2 DUP4 PUSH2 0x39D5 JUMP JUMPDEST PUSH1 0x3 DUP2 ADD DUP1 SLOAD PUSH1 0x1 DUP1 DUP3 ADD DUP4 SSTORE PUSH1 0x0 DUP4 DUP2 MSTORE PUSH1 0x20 SWAP1 DUP2 SWAP1 KECCAK256 SWAP1 SWAP3 ADD DUP1 SLOAD PUSH1 0x1 PUSH1 0x1 PUSH1 0xA0 SHL SUB NOT AND PUSH1 0x1 PUSH1 0x1 PUSH1 0xA0 SHL SUB DUP9 DUP2 AND SWAP2 SWAP1 SWAP2 OR SWAP1 SWAP2 SSTORE PUSH1 0x40 DUP1 MLOAD PUSH2 0x1E0 DUP2 ADD DUP3 MSTORE DUP7 SLOAD DUP4 AND DUP2 MSTORE SWAP3 DUP7 ADD SLOAD DUP3 AND DUP4 DUP6 ADD MSTORE PUSH1 0x2 DUP7 ADD SLOAD SWAP1 SWAP2 AND DUP3 DUP3 ADD MSTORE DUP4 SLOAD DUP2 MLOAD DUP2 DUP6 MUL DUP2 ADD DUP6 ADD SWAP1 SWAP3 MSTORE DUP1 DUP3 MSTORE PUSH2 0x31DC SWAP5 SWAP3 SWAP4 DUP7 SWAP4 PUSH1 0x60 DUP7 ADD SWAP4 SWAP3 SWAP1 SWAP2 DUP4 ADD DUP3 DUP3 DUP1 ISZERO PUSH2 0x2F42 JUMPI PUSH1 0x20 MUL DUP3 ADD SWAP2 SWAP1 PUSH1 0x0 MSTORE PUSH1 0x20 PUSH1 0x0 KECCAK256 SWAP1 DUP2 SLOAD PUSH1 0x1 PUSH1 0x1 PUSH1 0xA0 SHL SUB AND DUP2 MSTORE PUSH1 0x1 SWAP1 SWAP2 ADD SWAP1 PUSH1 0x20 ADD DUP1 DUP4 GT PUSH2 0x2F24 JUMPI POP POP POP POP POP DUP2 MSTORE PUSH1 0x20 ADD PUSH1 0x4 DUP3 ADD DUP1 SLOAD DUP1 PUSH1 0x20 MUL PUSH1 0x20 ADD PUSH1 0x40 MLOAD SWAP1 DUP2 ADD PUSH1 0x40 MSTORE DUP1 SWAP3 SWAP2 SWAP1 DUP2 DUP2 MSTORE PUSH1 0x20 ADD PUSH1 0x0 SWAP1 DUP3 DUP3 LT ISZERO PUSH2 0x2FBB JUMPI PUSH1 0x0 DUP5 DUP2 MSTORE PUSH1 0x20 SWAP1 DUP2 SWAP1 KECCAK256 PUSH1 0x40 DUP1 MLOAD DUP1 DUP3 ADD SWAP1 SWAP2 MSTORE PUSH1 0x2 DUP6 MUL SWAP1 SWAP2 ADD DUP1 SLOAD PUSH1 0x1 PUSH1 0x1 PUSH1 0xA0 SHL SUB SWAP1 DUP2 AND DUP4 MSTORE PUSH1 0x1 SWAP2 DUP3 ADD SLOAD AND DUP3 DUP5 ADD MSTORE SWAP1 DUP4 MSTORE SWAP1 SWAP3 ADD SWAP2 ADD PUSH2 0x2F70 JUMP JUMPDEST ISZERO PUSH2 0x31EA JUMPI PUSH2 0x31EA DUP2 PUSH2 0x3A38 JUMP JUMPDEST PUSH2 0x3621 JUMP JUMPDEST PUSH1 0x0 PUSH1 0xDA PUSH1 0x0 PUSH2 0x31FD PUSH2 0x3B2D JUMP JUMPDEST PUSH1 0x1 PUSH1 0x1 PUSH1 0xA0 SHL SUB AND PUSH1 0x1 PUSH1 0x1 PUSH1 0xA0 SHL SUB AND DUP2 MSTORE PUSH1 0x20 ADD SWAP1 DUP2 MSTORE PUSH1 0x20 ADD PUSH1 0x0 KECCAK256 SWAP1 POP PUSH2 0x3229 DUP2 DUP5 PUSH2 0x39D5 JUMP JUMPDEST PUSH1 0x40 DUP1 MLOAD PUSH2 0x1E0 DUP2 ADD DUP3 MSTORE DUP3 SLOAD PUSH1 0x1 PUSH1 0x1 PUSH1 0xA0 SHL SUB SWAP1 DUP2 AND DUP3 MSTORE PUSH1 0x1 DUP5 ADD SLOAD DUP2 AND PUSH1 0x20 DUP1 DUP5 ADD SWAP2 SWAP1 SWAP2 MSTORE PUSH1 0x2 DUP6 ADD SLOAD SWAP1 SWAP2 AND DUP3 DUP5 ADD MSTORE PUSH1 0x3 DUP5 ADD DUP1 SLOAD DUP5 MLOAD DUP2 DUP5 MUL DUP2 ADD DUP5 ADD SWAP1 SWAP6 MSTORE DUP1 DUP6 MSTORE PUSH2 0x3331 SWAP5 DUP7 SWAP4 PUSH1 0x60 DUP7 ADD SWAP4 SWAP2 SWAP3 SWAP1 DUP4 ADD DUP3 DUP3 DUP1 ISZERO PUSH2 0x2F42 JUMPI PUSH1 0x20 MUL DUP3 ADD SWAP2 SWAP1 PUSH1 0x0 MSTORE PUSH1 0x20 PUSH1 0x0 KECCAK256 SWAP1 DUP2 SLOAD PUSH1 0x1 PUSH1 0x1 PUSH1 0xA0 SHL SUB AND DUP2 MSTORE PUSH1 0x1 SWAP1 SWAP2 ADD SWAP1 PUSH1 0x20 ADD DUP1 DUP4 GT PUSH2 0x2F24 JUMPI POP POP POP POP POP DUP2 MSTORE PUSH1 0x20 ADD PUSH1 0x4 DUP3 ADD DUP1 SLOAD DUP1 PUSH1 0x20 MUL PUSH1 0x20 ADD PUSH1 0x40 MLOAD SWAP1 DUP2 ADD PUSH1 0x40 MSTORE DUP1 SWAP3 SWAP2 SWAP1 DUP2 DUP2 MSTORE PUSH1 0x20 ADD PUSH1 0x0 SWAP1 DUP3 DUP3 LT ISZERO PUSH2 0x2FBB JUMPI PUSH1 0x0 DUP5 DUP2 MSTORE PUSH1 0x20 SWAP1 DUP2 SWAP1 KECCAK256 PUSH1 0x40 DUP1 MLOAD DUP1 DUP3 ADD SWAP1 SWAP2 MSTORE PUSH1 0x2 DUP6 MUL SWAP1 SWAP2 ADD DUP1 SLOAD PUSH1 0x1 PUSH1 0x1 PUSH1 0xA0 SHL SUB SWAP1 DUP2 AND DUP4 MSTORE PUSH1 0x1 SWAP2 DUP3 ADD SLOAD AND DUP3 DUP5 ADD MSTORE SWAP1 DUP4 MSTORE SWAP1 SWAP3 ADD SWAP2 ADD PUSH2 0x2F70 JUMP JUMPDEST ISZERO PUSH2 0x333F JUMPI PUSH2 0x333F DUP2 PUSH2 0x3A38 JUMP JUMPDEST DUP2 SLOAD DUP2 SLOAD PUSH1 0x40 DUP1 MLOAD PUSH1 0x1 PUSH1 0x1 PUSH1 0xA0 SHL SUB SWAP4 DUP5 AND DUP2 MSTORE SWAP2 DUP4 AND PUSH1 0x20 DUP4 ADD MSTORE SWAP2 DUP7 AND DUP2 DUP4 ADD MSTORE SWAP1 MLOAD PUSH32 0xA1B30426557565C4FA85CE5F9C88513D7D3F49D21EB30569C249B07B037831EF SWAP2 DUP2 SWAP1 SUB PUSH1 0x60 ADD SWAP1 LOG1 PUSH1 0x40 DUP1 MLOAD DUP1 DUP3 ADD SWAP1 SWAP2 MSTORE PUSH1 0x1 PUSH1 0x1 PUSH1 0xA0 SHL SUB DUP1 DUP7 AND DUP3 MSTORE DUP3 SLOAD DUP2 AND PUSH1 0x20 DUP1 DUP5 ADD SWAP2 DUP3 MSTORE PUSH1 0x4 DUP7 ADD DUP1 SLOAD PUSH1 0x1 DUP2 DUP2 ADD DUP4 SSTORE PUSH1 0x0 SWAP3 DUP4 MSTORE SWAP3 DUP3 KECCAK256 SWAP6 MLOAD PUSH1 0x2 SWAP1 SWAP2 MUL SWAP1 SWAP6 ADD DUP1 SLOAD SWAP6 DUP6 AND PUSH1 0x1 PUSH1 0x1 PUSH1 0xA0 SHL SUB NOT SWAP7 DUP8 AND OR DUP2 SSTORE SWAP3 MLOAD SWAP3 SWAP1 SWAP2 ADD DUP1 SLOAD SWAP3 SWAP1 SWAP4 AND SWAP2 SWAP1 SWAP4 AND OR SWAP1 SSTORE PUSH1 0x6 DUP5 ADD SLOAD SWAP1 SUB PUSH2 0x35F1 JUMPI PUSH1 0x40 DUP1 MLOAD PUSH2 0x1E0 DUP2 ADD DUP3 MSTORE DUP5 SLOAD PUSH1 0x1 PUSH1 0x1 PUSH1 0xA0 SHL SUB SWAP1 DUP2 AND DUP3 MSTORE PUSH1 0x1 DUP7 ADD SLOAD DUP2 AND PUSH1 0x20 DUP1 DUP5 ADD SWAP2 SWAP1 SWAP2 MSTORE PUSH1 0x2 DUP8 ADD SLOAD SWAP1 SWAP2 AND DUP3 DUP5 ADD MSTORE PUSH1 0x3 DUP7 ADD DUP1 SLOAD DUP5 MLOAD DUP2 DUP5 MUL DUP2 ADD DUP5 ADD SWAP1 SWAP6 MSTORE DUP1 DUP6 MSTORE PUSH2 0x35F1 SWAP5 DUP9 SWAP4 PUSH1 0x60 DUP7 ADD SWAP4 SWAP2 SWAP3 SWAP1 DUP4 ADD DUP3 DUP3 DUP1 ISZERO PUSH2 0x3495 JUMPI PUSH1 0x20 MUL DUP3 ADD SWAP2 SWAP1 PUSH1 0x0 MSTORE PUSH1 0x20 PUSH1 0x0 KECCAK256 SWAP1 JUMPDEST DUP2 SLOAD PUSH1 0x1 PUSH1 0x1 PUSH1 0xA0 SHL SUB AND DUP2 MSTORE PUSH1 0x1 SWAP1 SWAP2 ADD SWAP1 PUSH1 0x20 ADD DUP1 DUP4 GT PUSH2 0x3477 JUMPI JUMPDEST POP POP POP POP POP DUP2 MSTORE PUSH1 0x20 ADD PUSH1 0x4 DUP3 ADD DUP1 SLOAD DUP1 PUSH1 0x20 MUL PUSH1 0x20 ADD PUSH1 0x40 MLOAD SWAP1 DUP2 ADD PUSH1 0x40 MSTORE DUP1 SWAP3 SWAP2 SWAP1 DUP2 DUP2 MSTORE PUSH1 0x20 ADD PUSH1 0x0 SWAP1 JUMPDEST DUP3 DUP3 LT ISZERO PUSH2 0x350E JUMPI PUSH1 0x0 DUP5 DUP2 MSTORE PUSH1 0x20 SWAP1 DUP2 SWAP1 KECCAK256 PUSH1 0x40 DUP1 MLOAD DUP1 DUP3 ADD SWAP1 SWAP2 MSTORE PUSH1 0x2 DUP6 MUL SWAP1 SWAP2 ADD DUP1 SLOAD PUSH1 0x1 PUSH1 0x1 PUSH1 0xA0 SHL SUB SWAP1 DUP2 AND DUP4 MSTORE PUSH1 0x1 SWAP2 DUP3 ADD SLOAD AND DUP3 DUP5 ADD MSTORE SWAP1 DUP4 MSTORE SWAP1 SWAP3 ADD SWAP2 ADD PUSH2 0x34C3 JUMP JUMPDEST POP POP POP POP DUP2 MSTORE PUSH1 0x20 ADD PUSH1 0x5 DUP3 ADD DUP1 SLOAD DUP1 PUSH1 0x20 MUL PUSH1 0x20 ADD PUSH1 0x40 MLOAD SWAP1 DUP2 ADD PUSH1 0x40 MSTORE DUP1 SWAP3 SWAP2 SWAP1 DUP2 DUP2 MSTORE PUSH1 0x20 ADD PUSH1 0x0 SWAP1 JUMPDEST DUP3 DUP3 LT ISZERO PUSH2 0x3584 JUMPI PUSH1 0x0 DUP5 DUP2 MSTORE PUSH1 0x20 SWAP1 DUP2 SWAP1 KECCAK256 PUSH1 0x40 DUP1 MLOAD DUP1 DUP3 ADD SWAP1 SWAP2 MSTORE SWAP1 DUP5 ADD SLOAD PUSH1 0x1 PUSH1 0x1 PUSH1 0xA0 SHL SUB DUP2 AND DUP3 MSTORE PUSH1 0x1 PUSH1 0xA0 SHL SWAP1 DIV PUSH1 0xFF AND DUP2 DUP4 ADD MSTORE DUP3 MSTORE PUSH1 0x1 SWAP1 SWAP3 ADD SWAP2 ADD PUSH2 0x353B JUMP JUMPDEST POP POP POP SWAP1 DUP3 MSTORE POP PUSH1 0x6 DUP3 ADD SLOAD PUSH1 0x20 DUP3 ADD MSTORE PUSH1 0x7 DUP3 ADD SLOAD PUSH1 0x40 DUP3 ADD MSTORE PUSH1 0x8 DUP3 ADD SLOAD PUSH1 0xFF AND PUSH1 0x60 DUP3 ADD MSTORE PUSH1 0x9 DUP3 ADD SLOAD PUSH1 0x80 DUP3 ADD MSTORE PUSH1 0xA DUP3 ADD SLOAD PUSH1 0xA0 DUP3 ADD MSTORE PUSH1 0xB DUP3 ADD SLOAD PUSH1 0xC0 DUP3 ADD MSTORE PUSH1 0xC DUP3 ADD SLOAD PUSH1 0xE0 DUP3 ADD MSTORE PUSH1 0xD DUP3 ADD SLOAD PUSH2 0x100 DUP3 ADD MSTORE PUSH1 0xE SWAP1 SWAP2 ADD SLOAD PUSH2 0x120 SWAP1 SWAP2 ADD MSTORE PUSH2 0x3BB4 JUMP JUMPDEST PUSH1 0x3 ADD DUP1 SLOAD PUSH1 0x1 DUP2 ADD DUP3 SSTORE PUSH1 0x0 SWAP2 DUP3 MSTORE PUSH1 0x20 SWAP1 SWAP2 KECCAK256 ADD DUP1 SLOAD PUSH1 0x1 PUSH1 0x1 PUSH1 0xA0 SHL SUB NOT AND PUSH1 0x1 PUSH1 0x1 PUSH1 0xA0 SHL SUB DUP6 AND OR SWAP1 SSTORE JUMPDEST PUSH1 0x1 DUP3 ADD SLOAD PUSH1 0x1 PUSH1 0x1 PUSH1 0xA0 SHL SUB AND PUSH2 0x369F JUMPI DUP1 SLOAD PUSH1 0x1 DUP4 ADD DUP1 SLOAD PUSH1 0x1 PUSH1 0x1 PUSH1 0xA0 SHL SUB SWAP3 DUP4 AND PUSH1 0x1 PUSH1 0x1 PUSH1 0xA0 SHL SUB NOT SWAP1 SWAP2 AND DUP2 OR SWAP1 SWAP2 SSTORE PUSH1 0x2 DUP5 ADD SLOAD PUSH1 0x40 DUP1 MLOAD SWAP3 DUP4 MSTORE SWAP1 DUP4 AND PUSH1 0x20 DUP4 ADD MSTORE SWAP2 DUP6 AND DUP2 DUP4 ADD MSTORE SWAP1 MLOAD PUSH32 0x8EFA008F8AE98AE30D3219078A298C85BC25A62F50C57ED9A3EC838B7EED9F47 SWAP2 DUP2 SWAP1 SUB PUSH1 0x60 ADD SWAP1 LOG1 JUMPDEST PUSH1 0xD5 SLOAD PUSH2 0x100 SWAP1 DIV PUSH1 0xFF AND PUSH1 0x0 JUMPDEST DUP2 PUSH1 0xFF AND DUP2 PUSH1 0xFF AND LT ISZERO PUSH2 0x37E4 JUMPI PUSH1 0x2 DUP5 ADD SLOAD PUSH1 0x1 PUSH1 0x1 PUSH1 0xA0 SHL SUB AND ISZERO PUSH2 0x37E4 JUMPI PUSH1 0x2 DUP5 ADD SLOAD PUSH1 0x1 PUSH1 0x1 PUSH1 0xA0 SHL SUB SWAP1 DUP2 AND PUSH1 0x0 SWAP1 DUP2 MSTORE PUSH1 0xDA PUSH1 0x20 SWAP1 DUP2 MSTORE PUSH1 0x40 SWAP2 DUP3 SWAP1 KECCAK256 DUP3 MLOAD DUP1 DUP5 ADD SWAP1 SWAP4 MSTORE SWAP3 DUP9 AND DUP3 MSTORE SWAP2 SWAP5 POP PUSH1 0x5 DUP6 ADD SWAP2 DUP2 ADD PUSH2 0x3712 DUP5 PUSH1 0x1 PUSH2 0x41BD JUMP JUMPDEST PUSH1 0xFF SWAP1 DUP2 AND SWAP1 SWAP2 MSTORE DUP3 SLOAD PUSH1 0x1 DUP2 DUP2 ADD DUP6 SSTORE PUSH1 0x0 SWAP5 DUP6 MSTORE PUSH1 0x20 SWAP5 DUP6 SWAP1 KECCAK256 DUP5 MLOAD SWAP3 ADD DUP1 SLOAD SWAP6 SWAP1 SWAP5 ADD MLOAD SWAP1 SWAP3 AND PUSH1 0x1 PUSH1 0xA0 SHL MUL PUSH21 0xFFFFFFFFFFFFFFFFFFFFFFFFFFFFFFFFFFFFFFFFFF NOT SWAP1 SWAP5 AND PUSH1 0x1 PUSH1 0x1 PUSH1 0xA0 SHL SUB SWAP2 DUP3 AND OR SWAP4 SWAP1 SWAP4 OR SWAP1 SWAP2 SSTORE DUP5 SLOAD PUSH32 0x85DB3F10B88EA7FC653F3F818097A3FC3C543196ED60CAD2251DF922BCC9AD7F SWAP3 AND SWAP1 DUP8 SWAP1 PUSH2 0x37A2 SWAP1 DUP6 SWAP1 PUSH2 0x41BD JUMP JUMPDEST PUSH1 0x40 DUP1 MLOAD PUSH1 0x1 PUSH1 0x1 PUSH1 0xA0 SHL SUB SWAP5 DUP6 AND DUP2 MSTORE SWAP4 SWAP1 SWAP3 AND PUSH1 0x20 DUP5 ADD MSTORE PUSH1 0xFF AND SWAP1 DUP3 ADD MSTORE PUSH1 0x60 ADD PUSH1 0x40 MLOAD DUP1 SWAP2 SUB SWAP1 LOG1 DUP3 SWAP4 POP DUP1 DUP1 PUSH2 0x37DC SWAP1 PUSH2 0x414A JUMP JUMPDEST SWAP2 POP POP PUSH2 0x36AD JUMP JUMPDEST POP POP POP POP POP POP JUMP JUMPDEST PUSH1 0x0 SLOAD PUSH2 0x100 SWAP1 DIV PUSH1 0xFF AND PUSH2 0x3857 JUMPI PUSH1 0x40 MLOAD PUSH3 0x461BCD PUSH1 0xE5 SHL DUP2 MSTORE PUSH1 0x20 PUSH1 0x4 DUP3 ADD MSTORE PUSH1 0x2B PUSH1 0x24 DUP3 ADD MSTORE PUSH32 0x496E697469616C697A61626C653A20636F6E7472616374206973206E6F742069 PUSH1 0x44 DUP3 ADD MSTORE PUSH11 0x6E697469616C697A696E67 PUSH1 0xA8 SHL PUSH1 0x64 DUP3 ADD MSTORE PUSH1 0x84 ADD PUSH2 0x817 JUMP JUMPDEST PUSH2 0xCEA CALLER PUSH2 0x2813 JUMP JUMPDEST PUSH2 0x3869 DUP2 PUSH2 0x2CFB JUMP JUMPDEST PUSH1 0x40 MLOAD PUSH1 0x1 PUSH1 0x1 PUSH1 0xA0 SHL SUB DUP3 AND SWAP1 PUSH32 0xBC7CD75A20EE27FD9ADEBAB32041F755214DBC6BFFA90CC0225B39DA2E5C2D3B SWAP1 PUSH1 0x0 SWAP1 LOG2 POP JUMP JUMPDEST PUSH1 0x60 PUSH1 0x1 PUSH1 0x1 PUSH1 0xA0 SHL SUB DUP4 AND EXTCODESIZE PUSH2 0x391F JUMPI PUSH1 0x40 MLOAD PUSH3 0x461BCD PUSH1 0xE5 SHL DUP2 MSTORE PUSH1 0x20 PUSH1 0x4 DUP3 ADD MSTORE PUSH1 0x26 PUSH1 0x24 DUP3 ADD MSTORE PUSH32 0x416464726573733A2064656C65676174652063616C6C20746F206E6F6E2D636F PUSH1 0x44 DUP3 ADD MSTORE PUSH32 0x6E74726163740000000000000000000000000000000000000000000000000000 PUSH1 0x64 DUP3 ADD MSTORE PUSH1 0x84 ADD PUSH2 0x817 JUMP JUMPDEST PUSH1 0x0 DUP1 DUP5 PUSH1 0x1 PUSH1 0x1 PUSH1 0xA0 SHL SUB AND DUP5 PUSH1 0x40 MLOAD PUSH2 0x393A SWAP2 SWAP1 PUSH2 0x4240 JUMP JUMPDEST PUSH1 0x0 PUSH1 0x40 MLOAD DUP1 DUP4 SUB DUP2 DUP6 GAS DELEGATECALL SWAP2 POP POP RETURNDATASIZE DUP1 PUSH1 0x0 DUP2 EQ PUSH2 0x3975 JUMPI PUSH1 0x40 MLOAD SWAP2 POP PUSH1 0x1F NOT PUSH1 0x3F RETURNDATASIZE ADD AND DUP3 ADD PUSH1 0x40 MSTORE RETURNDATASIZE DUP3 MSTORE RETURNDATASIZE PUSH1 0x0 PUSH1 0x20 DUP5 ADD RETURNDATACOPY PUSH2 0x397A JUMP JUMPDEST PUSH1 0x60 SWAP2 POP JUMPDEST POP SWAP2 POP SWAP2 POP PUSH2 0x39A2 DUP3 DUP3 PUSH1 0x40 MLOAD DUP1 PUSH1 0x60 ADD PUSH1 0x40 MSTORE DUP1 PUSH1 0x27 DUP2 MSTORE PUSH1 0x20 ADD PUSH2 0x42A6 PUSH1 0x27 SWAP2 CODECOPY PUSH2 0x3C3D JUMP JUMPDEST SWAP6 SWAP5 POP POP POP POP POP JUMP JUMPDEST PUSH1 0x0 PUSH1 0xD6 SLOAD DUP3 PUSH1 0x60 ADD MLOAD MLOAD GT DUP1 PUSH2 0x39C8 JUMPI POP PUSH1 0xD6 SLOAD DUP3 PUSH1 0x60 ADD MLOAD MLOAD EQ JUMPDEST ISZERO PUSH2 0x2DF8 JUMPI POP PUSH1 0x1 SWAP2 SWAP1 POP JUMP JUMPDEST DUP2 SLOAD PUSH1 0x2 DUP3 ADD DUP1 SLOAD PUSH1 0x1 PUSH1 0x1 PUSH1 0xA0 SHL SUB NOT AND PUSH1 0x1 PUSH1 0x1 PUSH1 0xA0 SHL SUB SWAP3 DUP4 AND OR SWAP1 SSTORE DUP3 SLOAD DUP3 SLOAD PUSH1 0x40 DUP1 MLOAD SWAP3 DUP5 AND DUP4 MSTORE SWAP3 AND PUSH1 0x20 DUP3 ADD MSTORE PUSH32 0xEC49A3C8C4AE06C18160FE86119C381C9D213AC3E052FF35B594DA8687B193C7 SWAP2 ADD PUSH1 0x40 MLOAD DUP1 SWAP2 SUB SWAP1 LOG1 POP POP JUMP JUMPDEST PUSH1 0xCA DUP1 SLOAD PUSH2 0x3A48 SWAP1 PUSH1 0x1 SWAP1 PUSH2 0x4169 JUMP JUMPDEST DUP2 SLOAD DUP2 LT PUSH2 0x3A58 JUMPI PUSH2 0x3A58 PUSH2 0x4134 JUMP JUMPDEST SWAP1 PUSH1 0x0 MSTORE PUSH1 0x20 PUSH1 0x0 KECCAK256 ADD PUSH1 0x0 SWAP1 SLOAD SWAP1 PUSH2 0x100 EXP SWAP1 DIV PUSH1 0x1 PUSH1 0x1 PUSH1 0xA0 SHL SUB AND PUSH1 0xCA DUP3 PUSH1 0xE ADD SLOAD DUP2 SLOAD DUP2 LT PUSH2 0x3A8D JUMPI PUSH2 0x3A8D PUSH2 0x4134 JUMP JUMPDEST SWAP1 PUSH1 0x0 MSTORE PUSH1 0x20 PUSH1 0x0 KECCAK256 ADD PUSH1 0x0 PUSH2 0x100 EXP DUP2 SLOAD DUP2 PUSH1 0x1 PUSH1 0x1 PUSH1 0xA0 SHL SUB MUL NOT AND SWAP1 DUP4 PUSH1 0x1 PUSH1 0x1 PUSH1 0xA0 SHL SUB AND MUL OR SWAP1 SSTORE POP PUSH1 0xCA DUP1 SLOAD DUP1 PUSH2 0x3ACC JUMPI PUSH2 0x3ACC PUSH2 0x425C JUMP JUMPDEST PUSH1 0x0 DUP3 DUP2 MSTORE PUSH1 0x20 SWAP1 DUP2 SWAP1 KECCAK256 PUSH1 0x0 NOT SWAP1 DUP4 ADD DUP2 ADD DUP1 SLOAD PUSH1 0x1 PUSH1 0x1 PUSH1 0xA0 SHL SUB NOT AND SWAP1 SSTORE SWAP1 SWAP2 ADD SWAP1 SWAP2 SSTORE DUP2 SLOAD PUSH1 0x40 MLOAD PUSH1 0x1 PUSH1 0x1 PUSH1 0xA0 SHL SUB SWAP1 SWAP2 AND DUP2 MSTORE PUSH32 0x644B85583BA83E73113FFC0C122B165819CA11DB493CD4CC38F5BA29138FFA1B SWAP2 ADD PUSH2 0xEF8 JUMP JUMPDEST PUSH1 0x0 DUP1 TIMESTAMP PREVRANDAO PUSH2 0x3B3D PUSH1 0x1 NUMBER PUSH2 0x4169 JUMP JUMPDEST PUSH1 0x40 DUP1 MLOAD PUSH1 0x20 DUP2 ADD SWAP5 SWAP1 SWAP5 MSTORE DUP4 ADD SWAP2 SWAP1 SWAP2 MSTORE BLOCKHASH PUSH1 0x60 DUP3 ADD MSTORE PUSH1 0x80 ADD PUSH1 0x40 DUP1 MLOAD PUSH1 0x1F NOT DUP2 DUP5 SUB ADD DUP2 MSTORE SWAP2 SWAP1 MSTORE DUP1 MLOAD PUSH1 0x20 SWAP1 SWAP2 ADD KECCAK256 PUSH1 0xCA SLOAD SWAP1 SWAP2 POP PUSH1 0x0 SWAP1 PUSH2 0x3B83 SWAP1 DUP4 PUSH2 0x41D6 JUMP JUMPDEST SWAP1 POP PUSH1 0xCA DUP2 DUP2 SLOAD DUP2 LT PUSH2 0x3B98 JUMPI PUSH2 0x3B98 PUSH2 0x4134 JUMP JUMPDEST PUSH1 0x0 SWAP2 DUP3 MSTORE PUSH1 0x20 SWAP1 SWAP2 KECCAK256 ADD SLOAD PUSH1 0x1 PUSH1 0x1 PUSH1 0xA0 SHL SUB AND SWAP4 SWAP3 POP POP POP JUMP JUMPDEST PUSH1 0xCA DUP1 SLOAD PUSH2 0x1C0 DUP4 ADD DUP2 SWAP1 MSTORE DUP3 MLOAD PUSH1 0x1 DUP3 ADD DUP4 SSTORE PUSH1 0x0 SWAP3 SWAP1 SWAP3 MSTORE PUSH32 0x42D72674974F694B5F5159593243114D38A5C39C89D6B62FEE061FF523240EE1 ADD DUP1 SLOAD PUSH1 0x1 PUSH1 0x1 PUSH1 0xA0 SHL SUB NOT AND PUSH1 0x1 PUSH1 0x1 PUSH1 0xA0 SHL SUB SWAP3 DUP4 AND OR SWAP1 SSTORE DUP2 MLOAD PUSH1 0x40 MLOAD SWAP2 AND DUP2 MSTORE PUSH32 0x6BAF10092C7EA144C4FB56FB8CF641E1F00E291A535B5D54B547EADB29485A7 SWAP1 PUSH1 0x20 ADD PUSH2 0xEF8 JUMP JUMPDEST PUSH1 0x60 DUP4 ISZERO PUSH2 0x3C4C JUMPI POP DUP2 PUSH2 0x3C56 JUMP JUMPDEST PUSH2 0x3C56 DUP4 DUP4 PUSH2 0x3C5D JUMP JUMPDEST SWAP4 SWAP3 POP POP POP JUMP JUMPDEST DUP2 MLOAD ISZERO PUSH2 0x3C6D JUMPI DUP2 MLOAD DUP1 DUP4 PUSH1 0x20 ADD REVERT JUMPDEST DUP1 PUSH1 0x40 MLOAD PUSH3 0x461BCD PUSH1 0xE5 SHL DUP2 MSTORE PUSH1 0x4 ADD PUSH2 0x817 SWAP2 SWAP1 PUSH2 0x4272 JUMP JUMPDEST DUP1 CALLDATALOAD PUSH1 0x1 PUSH1 0x1 PUSH1 0xA0 SHL SUB DUP2 AND DUP2 EQ PUSH2 0x2DF8 JUMPI PUSH1 0x0 DUP1 REVERT JUMPDEST PUSH1 0x0 PUSH1 0x20 DUP3 DUP5 SUB SLT ISZERO PUSH2 0x3CB0 JUMPI PUSH1 0x0 DUP1 REVERT JUMPDEST PUSH2 0x1EA2 DUP3 PUSH2 0x3C87 JUMP JUMPDEST PUSH4 0x4E487B71 PUSH1 0xE0 SHL PUSH1 0x0 MSTORE PUSH1 0x41 PUSH1 0x4 MSTORE PUSH1 0x24 PUSH1 0x0 REVERT JUMPDEST PUSH1 0x0 DUP1 PUSH1 0x40 DUP4 DUP6 SUB SLT ISZERO PUSH2 0x3CE2 JUMPI PUSH1 0x0 DUP1 REVERT JUMPDEST PUSH2 0x3CEB DUP4 PUSH2 0x3C87 JUMP JUMPDEST SWAP2 POP PUSH1 0x20 DUP4 ADD CALLDATALOAD PUSH8 0xFFFFFFFFFFFFFFFF DUP1 DUP3 GT ISZERO PUSH2 0x3D08 JUMPI PUSH1 0x0 DUP1 REVERT JUMPDEST DUP2 DUP6 ADD SWAP2 POP DUP6 PUSH1 0x1F DUP4 ADD SLT PUSH2 0x3D1C JUMPI PUSH1 0x0 DUP1 REVERT JUMPDEST DUP2 CALLDATALOAD DUP2 DUP2 GT ISZERO PUSH2 0x3D2E JUMPI PUSH2 0x3D2E PUSH2 0x3CB9 JUMP JUMPDEST PUSH1 0x40 MLOAD PUSH1 0x1F DUP3 ADD PUSH1 0x1F NOT SWAP1 DUP2 AND PUSH1 0x3F ADD AND DUP2 ADD SWAP1 DUP4 DUP3 GT DUP2 DUP4 LT OR ISZERO PUSH2 0x3D56 JUMPI PUSH2 0x3D56 PUSH2 0x3CB9 JUMP JUMPDEST DUP2 PUSH1 0x40 MSTORE DUP3 DUP2 MSTORE DUP9 PUSH1 0x20 DUP5 DUP8 ADD ADD GT ISZERO PUSH2 0x3D6F JUMPI PUSH1 0x0 DUP1 REVERT JUMPDEST DUP3 PUSH1 0x20 DUP7 ADD PUSH1 0x20 DUP4 ADD CALLDATACOPY PUSH1 0x0 PUSH1 0x20 DUP5 DUP4 ADD ADD MSTORE DUP1 SWAP6 POP POP POP POP POP POP SWAP3 POP SWAP3 SWAP1 POP JUMP JUMPDEST PUSH1 0x40 DUP1 DUP3 MSTORE DUP4 MLOAD DUP3 DUP3 ADD DUP2 SWAP1 MSTORE PUSH1 0x0 SWAP2 SWAP1 PUSH1 0x20 SWAP1 PUSH1 0x60 DUP6 ADD SWAP1 DUP3 DUP9 ADD DUP6 JUMPDEST DUP3 DUP2 LT ISZERO PUSH2 0x3DDF JUMPI PUSH2 0x3DCF DUP5 DUP4 MLOAD DUP1 MLOAD PUSH1 0xFF AND DUP3 MSTORE PUSH1 0x20 SWAP1 DUP2 ADD MLOAD SWAP2 ADD MSTORE JUMP JUMPDEST SWAP3 DUP6 ADD SWAP3 SWAP1 DUP5 ADD SWAP1 PUSH1 0x1 ADD PUSH2 0x3DAF JUMP JUMPDEST POP POP POP PUSH1 0xFF SWAP6 SWAP1 SWAP6 AND SWAP4 ADD SWAP3 SWAP1 SWAP3 MSTORE POP SWAP1 SWAP3 SWAP2 POP POP JUMP JUMPDEST PUSH1 0x0 PUSH1 0x20 DUP3 DUP5 SUB SLT ISZERO PUSH2 0x3E08 JUMPI PUSH1 0x0 DUP1 REVERT JUMPDEST DUP2 CALLDATALOAD PUSH1 0xFF DUP2 AND DUP2 EQ PUSH2 0x3C56 JUMPI PUSH1 0x0 DUP1 REVERT JUMPDEST DUP2 MLOAD PUSH1 0xFF AND DUP2 MSTORE PUSH1 0x20 DUP1 DUP4 ADD MLOAD SWAP1 DUP3 ADD MSTORE PUSH1 0x40 DUP2 ADD PUSH2 0x1EA5 JUMP JUMPDEST PUSH1 0x0 DUP1 PUSH1 0x20 DUP4 DUP6 SUB SLT ISZERO PUSH2 0x3E46 JUMPI PUSH1 0x0 DUP1 REVERT JUMPDEST DUP3 CALLDATALOAD PUSH8 0xFFFFFFFFFFFFFFFF DUP1 DUP3 GT ISZERO PUSH2 0x3E5E JUMPI PUSH1 0x0 DUP1 REVERT JUMPDEST DUP2 DUP6 ADD SWAP2 POP DUP6 PUSH1 0x1F DUP4 ADD SLT PUSH2 0x3E72 JUMPI PUSH1 0x0 DUP1 REVERT JUMPDEST DUP2 CALLDATALOAD DUP2 DUP2 GT ISZERO PUSH2 0x3E81 JUMPI PUSH1 0x0 DUP1 REVERT JUMPDEST DUP7 PUSH1 0x20 DUP3 PUSH1 0x5 SHL DUP6 ADD ADD GT ISZERO PUSH2 0x3E96 JUMPI PUSH1 0x0 DUP1 REVERT JUMPDEST PUSH1 0x20 SWAP3 SWAP1 SWAP3 ADD SWAP7 SWAP2 SWAP6 POP SWAP1 SWAP4 POP POP POP POP JUMP JUMPDEST PUSH1 0x0 DUP2 MLOAD DUP1 DUP5 MSTORE PUSH1 0x20 DUP1 DUP6 ADD SWAP5 POP DUP1 DUP5 ADD PUSH1 0x0 JUMPDEST DUP4 DUP2 LT ISZERO PUSH2 0x3EE1 JUMPI DUP2 MLOAD PUSH1 0x1 PUSH1 0x1 PUSH1 0xA0 SHL SUB AND DUP8 MSTORE SWAP6 DUP3 ADD SWAP6 SWAP1 DUP3 ADD SWAP1 PUSH1 0x1 ADD PUSH2 0x3EBC JUMP JUMPDEST POP SWAP5 SWAP6 SWAP5 POP POP POP POP POP JUMP JUMPDEST PUSH1 0x0 DUP2 MLOAD DUP1 DUP5 MSTORE PUSH1 0x20 DUP1 DUP6 ADD SWAP5 POP DUP1 DUP5 ADD PUSH1 0x0 JUMPDEST DUP4 DUP2 LT ISZERO PUSH2 0x3EE1 JUMPI DUP2 MLOAD DUP1 MLOAD PUSH1 0x1 PUSH1 0x1 PUSH1 0xA0 SHL SUB SWAP1 DUP2 AND DUP10 MSTORE SWAP1 DUP5 ADD MLOAD AND DUP4 DUP9 ADD MSTORE PUSH1 0x40 SWAP1 SWAP7 ADD SWAP6 SWAP1 DUP3 ADD SWAP1 PUSH1 0x1 ADD PUSH2 0x3F00 JUMP JUMPDEST PUSH1 0x0 DUP2 MLOAD DUP1 DUP5 MSTORE PUSH1 0x20 DUP1 DUP6 ADD SWAP5 POP DUP1 DUP5 ADD PUSH1 0x0 JUMPDEST DUP4 DUP2 LT ISZERO PUSH2 0x3EE1 JUMPI DUP2 MLOAD DUP1 MLOAD PUSH1 0x1 PUSH1 0x1 PUSH1 0xA0 SHL SUB AND DUP9 MSTORE DUP4 ADD MLOAD PUSH1 0xFF AND DUP4 DUP9 ADD MSTORE PUSH1 0x40 SWAP1 SWAP7 ADD SWAP6 SWAP1 DUP3 ADD SWAP1 PUSH1 0x1 ADD PUSH2 0x3F48 JUMP JUMPDEST PUSH1 0x1 PUSH1 0x1 PUSH1 0xA0 SHL SUB DUP9 AND DUP2 MSTORE PUSH1 0xE0 PUSH1 0x20 DUP3 ADD MSTORE PUSH1 0x0 PUSH2 0x3F9D PUSH1 0xE0 DUP4 ADD DUP10 PUSH2 0x3EA8 JUMP JUMPDEST DUP8 PUSH1 0x40 DUP5 ADD MSTORE DUP3 DUP2 SUB PUSH1 0x60 DUP5 ADD MSTORE PUSH2 0x3FB5 DUP2 DUP9 PUSH2 0x3EEC JUMP JUMPDEST SWAP1 POP DUP6 PUSH1 0x80 DUP5 ADD MSTORE DUP3 DUP2 SUB PUSH1 0xA0 DUP5 ADD MSTORE PUSH2 0x3FCF DUP2 DUP7 PUSH2 0x3F34 JUMP JUMPDEST SWAP2 POP POP DUP3 PUSH1 0xC0 DUP4 ADD MSTORE SWAP9 SWAP8 POP POP POP POP POP POP POP POP JUMP JUMPDEST PUSH1 0x20 DUP2 MSTORE PUSH2 0x3FFE PUSH1 0x20 DUP3 ADD DUP4 MLOAD PUSH1 0x1 PUSH1 0x1 PUSH1 0xA0 SHL SUB AND SWAP1 MSTORE JUMP JUMPDEST PUSH1 0x0 PUSH1 0x20 DUP4 ADD MLOAD PUSH2 0x401A PUSH1 0x40 DUP5 ADD DUP3 PUSH1 0x1 PUSH1 0x1 PUSH1 0xA0 SHL SUB AND SWAP1 MSTORE JUMP JUMPDEST POP PUSH1 0x40 DUP4 ADD MLOAD PUSH1 0x1 PUSH1 0x1 PUSH1 0xA0 SHL SUB DUP2 AND PUSH1 0x60 DUP5 ADD MSTORE POP PUSH1 0x60 DUP4 ADD MLOAD PUSH2 0x1E0 DUP1 PUSH1 0x80 DUP6 ADD MSTORE PUSH2 0x404C PUSH2 0x200 DUP6 ADD DUP4 PUSH2 0x3EA8 JUMP JUMPDEST SWAP2 POP PUSH1 0x80 DUP6 ADD MLOAD PUSH1 0x1F NOT DUP1 DUP7 DUP6 SUB ADD PUSH1 0xA0 DUP8 ADD MSTORE PUSH2 0x406A DUP5 DUP4 PUSH2 0x3EEC JUMP JUMPDEST SWAP4 POP PUSH1 0xA0 DUP8 ADD MLOAD SWAP2 POP DUP1 DUP7 DUP6 SUB ADD PUSH1 0xC0 DUP8 ADD MSTORE POP PUSH2 0x4088 DUP4 DUP3 PUSH2 0x3F34 JUMP JUMPDEST SWAP3 POP POP PUSH1 0xC0 DUP6 ADD MLOAD PUSH1 0xE0 DUP6 ADD MSTORE PUSH1 0xE0 DUP6 ADD MLOAD PUSH2 0x100 DUP2 DUP2 DUP8 ADD MSTORE DUP1 DUP8 ADD MLOAD SWAP2 POP POP PUSH2 0x120 PUSH2 0x40BA DUP2 DUP8 ADD DUP4 PUSH1 0xFF AND SWAP1 MSTORE JUMP JUMPDEST DUP7 ADD MLOAD PUSH2 0x140 DUP7 DUP2 ADD SWAP2 SWAP1 SWAP2 MSTORE DUP7 ADD MLOAD PUSH2 0x160 DUP1 DUP8 ADD SWAP2 SWAP1 SWAP2 MSTORE DUP7 ADD MLOAD PUSH2 0x180 DUP1 DUP8 ADD SWAP2 SWAP1 SWAP2 MSTORE DUP7 ADD MLOAD PUSH2 0x1A0 DUP1 DUP8 ADD SWAP2 SWAP1 SWAP2 MSTORE DUP7 ADD MLOAD PUSH2 0x1C0 DUP1 DUP8 ADD SWAP2 SWAP1 SWAP2 MSTORE SWAP1 SWAP6 ADD MLOAD SWAP4 ADD SWAP3 SWAP1 SWAP3 MSTORE POP SWAP2 SWAP1 POP JUMP JUMPDEST PUSH4 0x4E487B71 PUSH1 0xE0 SHL PUSH1 0x0 MSTORE PUSH1 0x11 PUSH1 0x4 MSTORE PUSH1 0x24 PUSH1 0x0 REVERT JUMPDEST DUP1 DUP3 ADD DUP1 DUP3 GT ISZERO PUSH2 0x1EA5 JUMPI PUSH2 0x1EA5 PUSH2 0x410B JUMP JUMPDEST PUSH4 0x4E487B71 PUSH1 0xE0 SHL PUSH1 0x0 MSTORE PUSH1 0x32 PUSH1 0x4 MSTORE PUSH1 0x24 PUSH1 0x0 REVERT JUMPDEST PUSH1 0x0 PUSH1 0xFF DUP3 AND PUSH1 0xFF DUP2 SUB PUSH2 0x4160 JUMPI PUSH2 0x4160 PUSH2 0x410B JUMP JUMPDEST PUSH1 0x1 ADD SWAP3 SWAP2 POP POP JUMP JUMPDEST DUP2 DUP2 SUB DUP2 DUP2 GT ISZERO PUSH2 0x1EA5 JUMPI PUSH2 0x1EA5 PUSH2 0x410B JUMP JUMPDEST DUP1 DUP3 MUL DUP2 ISZERO DUP3 DUP3 DIV DUP5 EQ OR PUSH2 0x1EA5 JUMPI PUSH2 0x1EA5 PUSH2 0x410B JUMP JUMPDEST PUSH4 0x4E487B71 PUSH1 0xE0 SHL PUSH1 0x0 MSTORE PUSH1 0x12 PUSH1 0x4 MSTORE PUSH1 0x24 PUSH1 0x0 REVERT JUMPDEST PUSH1 0x0 DUP3 PUSH2 0x41B8 JUMPI PUSH2 0x41B8 PUSH2 0x4193 JUMP JUMPDEST POP DIV SWAP1 JUMP JUMPDEST PUSH1 0xFF DUP2 DUP2 AND DUP4 DUP3 AND ADD SWAP1 DUP2 GT ISZERO PUSH2 0x1EA5 JUMPI PUSH2 0x1EA5 PUSH2 0x410B JUMP JUMPDEST PUSH1 0x0 DUP3 PUSH2 0x41E5 JUMPI PUSH2 0x41E5 PUSH2 0x4193 JUMP JUMPDEST POP MOD SWAP1 JUMP JUMPDEST PUSH1 0x0 PUSH1 0x20 DUP3 DUP5 SUB SLT ISZERO PUSH2 0x41FC JUMPI PUSH1 0x0 DUP1 REVERT JUMPDEST POP MLOAD SWAP2 SWAP1 POP JUMP JUMPDEST PUSH1 0x0 PUSH1 0x1 DUP3 ADD PUSH2 0x4215 JUMPI PUSH2 0x4215 PUSH2 0x410B JUMP JUMPDEST POP PUSH1 0x1 ADD SWAP1 JUMP JUMPDEST PUSH1 0x0 JUMPDEST DUP4 DUP2 LT ISZERO PUSH2 0x4237 JUMPI DUP2 DUP2 ADD MLOAD DUP4 DUP3 ADD MSTORE PUSH1 0x20 ADD PUSH2 0x421F JUMP JUMPDEST POP POP PUSH1 0x0 SWAP2 ADD MSTORE JUMP JUMPDEST PUSH1 0x0 DUP3 MLOAD PUSH2 0x4252 DUP2 DUP5 PUSH1 0x20 DUP8 ADD PUSH2 0x421C JUMP JUMPDEST SWAP2 SWAP1 SWAP2 ADD SWAP3 SWAP2 POP POP JUMP JUMPDEST PUSH4 0x4E487B71 PUSH1 0xE0 SHL PUSH1 0x0 MSTORE PUSH1 0x31 PUSH1 0x4 MSTORE PUSH1 0x24 PUSH1 0x0 REVERT JUMPDEST PUSH1 0x20 DUP2 MSTORE PUSH1 0x0 DUP3 MLOAD DUP1 PUSH1 0x20 DUP5 ADD MSTORE PUSH2 0x4291 DUP2 PUSH1 0x40 DUP6 ADD PUSH1 0x20 DUP8 ADD PUSH2 0x421C JUMP JUMPDEST PUSH1 0x1F ADD PUSH1 0x1F NOT AND SWAP2 SWAP1 SWAP2 ADD PUSH1 0x40 ADD SWAP3 SWAP2 POP POP JUMP INVALID COINBASE PUSH5 0x6472657373 GASPRICE KECCAK256 PUSH13 0x6F772D6C6576656C2064656C65 PUSH8 0x6174652063616C6C KECCAK256 PUSH7 0x61696C6564A264 PUSH10 0x7066735822122084B697 GASPRICE SMOD NOT PUSH17 0xDCBA05BB4B6541D0C31BB0093FFFF693C8 0xFC 0xAD SHR BASEFEE PUSH22 0xD2221164736F6C634300081200330000000000000000 "},"methodIdentifiers":{"distributeWeeklyReward()":"ebd0f48f","getContractDefaults()":"1a746344","getNativePriceInUSD()":"63a54042","getRegistrationsStats()":"0690c6a8","getUpgradePlans()":"59a04544","getUpgradePlansById(uint8)":"a9df9fae","getUserAccount(address)":"fb47e016","getUserBusiness(address)":"f87127b4","getUserCurrentUpgradeLevel(address)":"f9250171","getUserRewards(address)":"078b0fb7","getUserTeam(address)":"faeda7e5","getWeeklyRewardToBeDistributed()":"846688f7","initialize()":"8129fc1c","needNativeToRegister()":"ac21689a","owner()":"8da5cb5b","proxiableUUID()":"52d1902d","registrationNative(address)":"438c2f55","renounceOwnership()":"715018a6","setDefaults()":"a7be6a72","transferOwnership(address)":"f2fde38b","updateUpgradePlans(uint256[])":"e35422e7","upgradeAccountNative()":"770cc0dd","upgradeTo(address)":"3659cfe6","upgradeToAndCall(address,bytes)":"4f1ef286"}},"storageLayout":{"storage":[{"astId":527,"contract":"contracts/CashXProtocolReferral.sol:CashXProtocolReferral","label":"_initialized","offset":0,"slot":"0","type":"t_uint8"},{"astId":530,"contract":"contracts/CashXProtocolReferral.sol:CashXProtocolReferral","label":"_initializing","offset":1,"slot":"0","type":"t_bool"},{"astId":1228,"contract":"contracts/CashXProtocolReferral.sol:CashXProtocolReferral","label":"__gap","offset":0,"slot":"1","type":"t_array(t_uint256)50_storage"},{"astId":10,"contract":"contracts/CashXProtocolReferral.sol:CashXProtocolReferral","label":"_owner","offset":0,"slot":"51","type":"t_address"},{"astId":130,"contract":"contracts/CashXProtocolReferral.sol:CashXProtocolReferral","label":"__gap","offset":0,"slot":"52","type":"t_array(t_uint256)49_storage"},{"astId":509,"contract":"contracts/CashXProtocolReferral.sol:CashXProtocolReferral","label":"__gap","offset":0,"slot":"101","type":"t_array(t_uint256)50_storage"},{"astId":824,"contract":"contracts/CashXProtocolReferral.sol:CashXProtocolReferral","label":"__gap","offset":0,"slot":"151","type":"t_array(t_uint256)50_storage"},{"astId":1381,"contract":"contracts/CashXProtocolReferral.sol:CashXProtocolReferral","label":"_users","offset":0,"slot":"201","type":"t_array(t_address)dyn_storage"},{"astId":1384,"contract":"contracts/CashXProtocolReferral.sol:CashXProtocolReferral","label":"_randomUserList","offset":0,"slot":"202","type":"t_array(t_address)dyn_storage"},{"astId":1386,"contract":"contracts/CashXProtocolReferral.sol:CashXProtocolReferral","label":"_totalRegistrationValueInUSD","offset":0,"slot":"203","type":"t_uint256"},{"astId":1388,"contract":"contracts/CashXProtocolReferral.sol:CashXProtocolReferral","label":"_referralPaidInUSD","offset":0,"slot":"204","type":"t_uint256"},{"astId":1390,"contract":"contracts/CashXProtocolReferral.sol:CashXProtocolReferral","label":"_randomRewardsPaidInUSD","offset":0,"slot":"205","type":"t_uint256"},{"astId":1392,"contract":"contracts/CashXProtocolReferral.sol:CashXProtocolReferral","label":"_weeklyRewardsPaidInUSD","offset":0,"slot":"206","type":"t_uint256"},{"astId":1394,"contract":"contracts/CashXProtocolReferral.sol:CashXProtocolReferral","label":"_teamWallet","offset":0,"slot":"207","type":"t_address"},{"astId":1396,"contract":"contracts/CashXProtocolReferral.sol:CashXProtocolReferral","label":"_teamWalletRate","offset":20,"slot":"207","type":"t_uint8"},{"astId":1398,"contract":"contracts/CashXProtocolReferral.sol:CashXProtocolReferral","label":"_valueToCreateLiquidityInWei","offset":0,"slot":"208","type":"t_uint256"},{"astId":1400,"contract":"contracts/CashXProtocolReferral.sol:CashXProtocolReferral","label":"_liquidityCreateRate","offset":0,"slot":"209","type":"t_uint8"},{"astId":1402,"contract":"contracts/CashXProtocolReferral.sol:CashXProtocolReferral","label":"_weeklyRewardValueInWei","offset":0,"slot":"210","type":"t_uint256"},{"astId":1404,"contract":"contracts/CashXProtocolReferral.sol:CashXProtocolReferral","label":"_weeklyRewardRate","offset":0,"slot":"211","type":"t_uint8"},{"astId":1406,"contract":"contracts/CashXProtocolReferral.sol:CashXProtocolReferral","label":"_weeklyRewardTimestamp","offset":0,"slot":"212","type":"t_uint256"},{"astId":1408,"contract":"contracts/CashXProtocolReferral.sol:CashXProtocolReferral","label":"_levelRatesFixed","offset":0,"slot":"213","type":"t_uint8"},{"astId":1410,"contract":"contracts/CashXProtocolReferral.sol:CashXProtocolReferral","label":"_levelsToCount","offset":1,"slot":"213","type":"t_uint8"},{"astId":1412,"contract":"contracts/CashXProtocolReferral.sol:CashXProtocolReferral","label":"_refereeLimit","offset":0,"slot":"214","type":"t_uint256"},{"astId":1414,"contract":"contracts/CashXProtocolReferral.sol:CashXProtocolReferral","label":"_defaultReferrer","offset":0,"slot":"215","type":"t_address"},{"astId":1416,"contract":"contracts/CashXProtocolReferral.sol:CashXProtocolReferral","label":"_registrationValueInUSD","offset":0,"slot":"216","type":"t_uint256"},{"astId":1418,"contract":"contracts/CashXProtocolReferral.sol:CashXProtocolReferral","label":"_liquidityWallet","offset":0,"slot":"217","type":"t_address"},{"astId":1423,"contract":"contracts/CashXProtocolReferral.sol:CashXProtocolReferral","label":"mappingAccounts","offset":0,"slot":"218","type":"t_mapping(t_address,t_struct(AccountStruct)1372_storage)"},{"astId":1428,"contract":"contracts/CashXProtocolReferral.sol:CashXProtocolReferral","label":"_mappingUpgrade","offset":0,"slot":"219","type":"t_mapping(t_uint8,t_struct(UpgradeStruct)1326_storage)"},{"astId":1520,"contract":"contracts/CashXProtocolReferral.sol:CashXProtocolReferral","label":"_nativePriceInUSD","offset":0,"slot":"220","type":"t_uint256"}],"types":{"t_address":{"encoding":"inplace","label":"address","numberOfBytes":"20"},"t_array(t_address)dyn_storage":{"base":"t_address","encoding":"dynamic_array","label":"address[]","numberOfBytes":"32"},"t_array(t_struct(RefereeStruct)1331_storage)dyn_storage":{"base":"t_struct(RefereeStruct)1331_storage","encoding":"dynamic_array","label":"struct RefereeStruct[]","numberOfBytes":"32"},"t_array(t_struct(TeamStruct)1336_storage)dyn_storage":{"base":"t_struct(TeamStruct)1336_storage","encoding":"dynamic_array","label":"struct TeamStruct[]","numberOfBytes":"32"},"t_array(t_uint256)49_storage":{"base":"t_uint256","encoding":"inplace","label":"uint256[49]","numberOfBytes":"1568"},"t_array(t_uint256)50_storage":{"base":"t_uint256","encoding":"inplace","label":"uint256[50]","numberOfBytes":"1600"},"t_bool":{"encoding":"inplace","label":"bool","numberOfBytes":"1"},"t_mapping(t_address,t_struct(AccountStruct)1372_storage)":{"encoding":"mapping","key":"t_address","label":"mapping(address => struct AccountStruct)","numberOfBytes":"32","value":"t_struct(AccountStruct)1372_storage"},"t_mapping(t_uint8,t_struct(UpgradeStruct)1326_storage)":{"encoding":"mapping","key":"t_uint8","label":"mapping(uint8 => struct UpgradeStruct)","numberOfBytes":"32","value":"t_struct(UpgradeStruct)1326_storage"},"t_struct(AccountStruct)1372_storage":{"encoding":"inplace","label":"struct AccountStruct","members":[{"astId":1338,"contract":"contracts/CashXProtocolReferral.sol:CashXProtocolReferral","label":"self","offset":0,"slot":"0","type":"t_address"},{"astId":1340,"contract":"contracts/CashXProtocolReferral.sol:CashXProtocolReferral","label":"parent","offset":0,"slot":"1","type":"t_address"},{"astId":1342,"contract":"contracts/CashXProtocolReferral.sol:CashXProtocolReferral","label":"referrer","offset":0,"slot":"2","type":"t_address"},{"astId":1345,"contract":"contracts/CashXProtocolReferral.sol:CashXProtocolReferral","label":"referee","offset":0,"slot":"3","type":"t_array(t_address)dyn_storage"},{"astId":1349,"contract":"contracts/CashXProtocolReferral.sol:CashXProtocolReferral","label":"refereeAssigned","offset":0,"slot":"4","type":"t_array(t_struct(RefereeStruct)1331_storage)dyn_storage"},{"astId":1353,"contract":"contracts/CashXProtocolReferral.sol:CashXProtocolReferral","label":"team","offset":0,"slot":"5","type":"t_array(t_struct(TeamStruct)1336_storage)dyn_storage"},{"astId":1355,"contract":"contracts/CashXProtocolReferral.sol:CashXProtocolReferral","label":"selfBusinessInUSD","offset":0,"slot":"6","type":"t_uint256"},{"astId":1357,"contract":"contracts/CashXProtocolReferral.sol:CashXProtocolReferral","label":"upgradedValueInUSD","offset":0,"slot":"7","type":"t_uint256"},{"astId":1359,"contract":"contracts/CashXProtocolReferral.sol:CashXProtocolReferral","label":"upgradeId","offset":0,"slot":"8","type":"t_uint8"},{"astId":1361,"contract":"contracts/CashXProtocolReferral.sol:CashXProtocolReferral","label":"directBusinessInUSD","offset":0,"slot":"9","type":"t_uint256"},{"astId":1363,"contract":"contracts/CashXProtocolReferral.sol:CashXProtocolReferral","label":"teamBusinessInUSD","offset":0,"slot":"10","type":"t_uint256"},{"astId":1365,"contract":"contracts/CashXProtocolReferral.sol:CashXProtocolReferral","label":"referralRewardsInUSD","offset":0,"slot":"11","type":"t_uint256"},{"astId":1367,"contract":"contracts/CashXProtocolReferral.sol:CashXProtocolReferral","label":"weeklyRewardsInUSD","offset":0,"slot":"12","type":"t_uint256"},{"astId":1369,"contract":"contracts/CashXProtocolReferral.sol:CashXProtocolReferral","label":"upgradeRewardsInUSD","offset":0,"slot":"13","type":"t_uint256"},{"astId":1371,"contract":"contracts/CashXProtocolReferral.sol:CashXProtocolReferral","label":"userRandomIndex","offset":0,"slot":"14","type":"t_uint256"}],"numberOfBytes":"480"},"t_struct(RefereeStruct)1331_storage":{"encoding":"inplace","label":"struct RefereeStruct","members":[{"astId":1328,"contract":"contracts/CashXProtocolReferral.sol:CashXProtocolReferral","label":"referee","offset":0,"slot":"0","type":"t_address"},{"astId":1330,"contract":"contracts/CashXProtocolReferral.sol:CashXProtocolReferral","label":"assignedTo","offset":0,"slot":"1","type":"t_address"}],"numberOfBytes":"64"},"t_struct(TeamStruct)1336_storage":{"encoding":"inplace","label":"struct TeamStruct","members":[{"astId":1333,"contract":"contracts/CashXProtocolReferral.sol:CashXProtocolReferral","label":"teamMember","offset":0,"slot":"0","type":"t_address"},{"astId":1335,"contract":"contracts/CashXProtocolReferral.sol:CashXProtocolReferral","label":"level","offset":20,"slot":"0","type":"t_uint8"}],"numberOfBytes":"32"},"t_struct(UpgradeStruct)1326_storage":{"encoding":"inplace","label":"struct UpgradeStruct","members":[{"astId":1323,"contract":"contracts/CashXProtocolReferral.sol:CashXProtocolReferral","label":"id","offset":0,"slot":"0","type":"t_uint8"},{"astId":1325,"contract":"contracts/CashXProtocolReferral.sol:CashXProtocolReferral","label":"valueToUpgradeInUSD","offset":0,"slot":"1","type":"t_uint256"}],"numberOfBytes":"64"},"t_uint256":{"encoding":"inplace","label":"uint256","numberOfBytes":"32"},"t_uint8":{"encoding":"inplace","label":"uint8","numberOfBytes":"1"}}}}}}