{
  "_format": "hh-sol-artifact-1",
  "contractName": "PriceOracle",
  "sourceName": "contracts/PriceOracle.sol",
  "abi": [
    {
      "anonymous": false,
      "inputs": [
        {
          "indexed": false,
          "internalType": "address",
          "name": "previousAdmin",
          "type": "address"
        },
        {
          "indexed": false,
          "internalType": "address",
          "name": "newAdmin",
          "type": "address"
        }
      ],
      "name": "AdminChanged",
      "type": "event"
    },
    {
      "anonymous": false,
      "inputs": [
        {
          "indexed": true,
          "internalType": "address",
          "name": "beacon",
          "type": "address"
        }
      ],
      "name": "BeaconUpgraded",
      "type": "event"
    },
    {
      "anonymous": false,
      "inputs": [
        {
          "indexed": false,
          "internalType": "uint8",
          "name": "version",
          "type": "uint8"
        }
      ],
      "name": "Initialized",
      "type": "event"
    },
    {
      "anonymous": false,
      "inputs": [
        {
          "indexed": true,
          "internalType": "address",
          "name": "previousOwner",
          "type": "address"
        },
        {
          "indexed": true,
          "internalType": "address",
          "name": "newOwner",
          "type": "address"
        }
      ],
      "name": "OwnershipTransferred",
      "type": "event"
    },
    {
      "anonymous": false,
      "inputs": [
        {
          "indexed": true,
          "internalType": "address",
          "name": "implementation",
          "type": "address"
        }
      ],
      "name": "Upgraded",
      "type": "event"
    },
    {
      "inputs": [],
      "name": "decimals",
      "outputs": [
        {
          "internalType": "uint8",
          "name": "",
          "type": "uint8"
        }
      ],
      "stateMutability": "pure",
      "type": "function"
    },
    {
      "inputs": [],
      "name": "initialize",
      "outputs": [],
      "stateMutability": "nonpayable",
      "type": "function"
    },
    {
      "inputs": [],
      "name": "latestAnswer",
      "outputs": [
        {
          "internalType": "uint256",
          "name": "",
          "type": "uint256"
        }
      ],
      "stateMutability": "pure",
      "type": "function"
    },
    {
      "inputs": [],
      "name": "owner",
      "outputs": [
        {
          "internalType": "address",
          "name": "",
          "type": "address"
        }
      ],
      "stateMutability": "view",
      "type": "function"
    },
    {
      "inputs": [],
      "name": "proxiableUUID",
      "outputs": [
        {
          "internalType": "bytes32",
          "name": "",
          "type": "bytes32"
        }
      ],
      "stateMutability": "view",
      "type": "function"
    },
    {
      "inputs": [],
      "name": "renounceOwnership",
      "outputs": [],
      "stateMutability": "nonpayable",
      "type": "function"
    },
    {
      "inputs": [
        {
          "internalType": "address",
          "name": "newOwner",
          "type": "address"
        }
      ],
      "name": "transferOwnership",
      "outputs": [],
      "stateMutability": "nonpayable",
      "type": "function"
    },
    {
      "inputs": [
        {
          "internalType": "address",
          "name": "newImplementation",
          "type": "address"
        }
      ],
      "name": "upgradeTo",
      "outputs": [],
      "stateMutability": "nonpayable",
      "type": "function"
    },
    {
      "inputs": [
        {
          "internalType": "address",
          "name": "newImplementation",
          "type": "address"
        },
        {
          "internalType": "bytes",
          "name": "data",
          "type": "bytes"
        }
      ],
      "name": "upgradeToAndCall",
      "outputs": [],
      "stateMutability": "payable",
      "type": "function"
    }
  ],
  "bytecode": "0x60a06040523060805234801561001457600080fd5b50608051610f6b61004c600039600081816101a80152818161023201528181610328015281816103ad01526104970152610f6b6000f3fe6080604052600436106100965760003560e01c806352d1902d116100695780638129fc1c1161004e5780638129fc1c146101415780638da5cb5b14610156578063f2fde38b1461017e57600080fd5b806352d1902d14610117578063715018a61461012c57600080fd5b8063313ce5671461009b5780633659cfe6146100bc5780634f1ef286146100de57806350d25bcd146100f1575b600080fd5b3480156100a757600080fd5b50604051601281526020015b60405180910390f35b3480156100c857600080fd5b506100dc6100d7366004610d76565b61019e565b005b6100dc6100ec366004610dc0565b61031e565b3480156100fd57600080fd5b50680d8d726b7177a800005b6040519081526020016100b3565b34801561012357600080fd5b5061010961048a565b34801561013857600080fd5b506100dc61054f565b34801561014d57600080fd5b506100dc610563565b34801561016257600080fd5b506033546040516001600160a01b0390911681526020016100b3565b34801561018a57600080fd5b506100dc610199366004610d76565b61068a565b6001600160a01b037f00000000000000000000000000000000000000000000000000000000000000001630036102305760405162461bcd60e51b815260206004820152602c60248201527f46756e6374696f6e206d7573742062652063616c6c6564207468726f7567682060448201526b19195b1959d85d1958d85b1b60a21b60648201526084015b60405180910390fd5b7f00000000000000000000000000000000000000000000000000000000000000006001600160a01b031661028b7f360894a13ba1a3210667c828492db98dca3e2076cc3735a920a3ca505d382bbc546001600160a01b031690565b6001600160a01b0316146102f65760405162461bcd60e51b815260206004820152602c60248201527f46756e6374696f6e206d7573742062652063616c6c6564207468726f7567682060448201526b6163746976652070726f787960a01b6064820152608401610227565b6102ff81610717565b6040805160008082526020820190925261031b9183919061071f565b50565b6001600160a01b037f00000000000000000000000000000000000000000000000000000000000000001630036103ab5760405162461bcd60e51b815260206004820152602c60248201527f46756e6374696f6e206d7573742062652063616c6c6564207468726f7567682060448201526b19195b1959d85d1958d85b1b60a21b6064820152608401610227565b7f00000000000000000000000000000000000000000000000000000000000000006001600160a01b03166104067f360894a13ba1a3210667c828492db98dca3e2076cc3735a920a3ca505d382bbc546001600160a01b031690565b6001600160a01b0316146104715760405162461bcd60e51b815260206004820152602c60248201527f46756e6374696f6e206d7573742062652063616c6c6564207468726f7567682060448201526b6163746976652070726f787960a01b6064820152608401610227565b61047a82610717565b6104868282600161071f565b5050565b6000306001600160a01b037f0000000000000000000000000000000000000000000000000000000000000000161461052a5760405162461bcd60e51b815260206004820152603860248201527f555550535570677261646561626c653a206d757374206e6f742062652063616c60448201527f6c6564207468726f7567682064656c656761746563616c6c00000000000000006064820152608401610227565b507f360894a13ba1a3210667c828492db98dca3e2076cc3735a920a3ca505d382bbc90565b6105576108c4565b610561600061091e565b565b600054610100900460ff16158080156105835750600054600160ff909116105b8061059d5750303b15801561059d575060005460ff166001145b61060f5760405162461bcd60e51b815260206004820152602e60248201527f496e697469616c697a61626c653a20636f6e747261637420697320616c72656160448201527f647920696e697469616c697a65640000000000000000000000000000000000006064820152608401610227565b6000805460ff191660011790558015610632576000805461ff0019166101001790555b61063a61097d565b6106426109f0565b801561031b576000805461ff0019169055604051600181527f7f26b83ff96e1f2b6a682f133852f6798a09c465da95921460cefb38474024989060200160405180910390a150565b6106926108c4565b6001600160a01b03811661070e5760405162461bcd60e51b815260206004820152602660248201527f4f776e61626c653a206e6577206f776e657220697320746865207a65726f206160448201527f64647265737300000000000000000000000000000000000000000000000000006064820152608401610227565b61031b8161091e565b61031b6108c4565b7f4910fdfa16fed3260ed0e7147f7cc6da11a60208b5b9406d12a635614ffd91435460ff16156107575761075283610a5b565b505050565b826001600160a01b03166352d1902d6040518163ffffffff1660e01b8152600401602060405180830381865afa9250505080156107b1575060408051601f3d908101601f191682019092526107ae91810190610e82565b60015b6108235760405162461bcd60e51b815260206004820152602e60248201527f45524331393637557067726164653a206e657720696d706c656d656e7461746960448201527f6f6e206973206e6f7420555550530000000000000000000000000000000000006064820152608401610227565b7f360894a13ba1a3210667c828492db98dca3e2076cc3735a920a3ca505d382bbc81146108b85760405162461bcd60e51b815260206004820152602960248201527f45524331393637557067726164653a20756e737570706f727465642070726f7860448201527f6961626c655555494400000000000000000000000000000000000000000000006064820152608401610227565b50610752838383610b26565b6033546001600160a01b031633146105615760405162461bcd60e51b815260206004820181905260248201527f4f776e61626c653a2063616c6c6572206973206e6f7420746865206f776e65726044820152606401610227565b603380546001600160a01b0383811673ffffffffffffffffffffffffffffffffffffffff19831681179093556040519116919082907f8be0079c531659141344cd1fd0a4f28419497f9722a3daafe3b4186f6b6457e090600090a35050565b600054610100900460ff166109e85760405162461bcd60e51b815260206004820152602b60248201527f496e697469616c697a61626c653a20636f6e7472616374206973206e6f74206960448201526a6e697469616c697a696e6760a81b6064820152608401610227565b610561610b51565b600054610100900460ff166105615760405162461bcd60e51b815260206004820152602b60248201527f496e697469616c697a61626c653a20636f6e7472616374206973206e6f74206960448201526a6e697469616c697a696e6760a81b6064820152608401610227565b6001600160a01b0381163b610ad85760405162461bcd60e51b815260206004820152602d60248201527f455243313936373a206e657720696d706c656d656e746174696f6e206973206e60448201527f6f74206120636f6e7472616374000000000000000000000000000000000000006064820152608401610227565b7f360894a13ba1a3210667c828492db98dca3e2076cc3735a920a3ca505d382bbc805473ffffffffffffffffffffffffffffffffffffffff19166001600160a01b0392909216919091179055565b610b2f83610bc5565b600082511180610b3c5750805b1561075257610b4b8383610c05565b50505050565b600054610100900460ff16610bbc5760405162461bcd60e51b815260206004820152602b60248201527f496e697469616c697a61626c653a20636f6e7472616374206973206e6f74206960448201526a6e697469616c697a696e6760a81b6064820152608401610227565b6105613361091e565b610bce81610a5b565b6040516001600160a01b038216907fbc7cd75a20ee27fd9adebab32041f755214dbc6bffa90cc0225b39da2e5c2d3b90600090a250565b60606001600160a01b0383163b610c845760405162461bcd60e51b815260206004820152602660248201527f416464726573733a2064656c65676174652063616c6c20746f206e6f6e2d636f60448201527f6e747261637400000000000000000000000000000000000000000000000000006064820152608401610227565b600080846001600160a01b031684604051610c9f9190610ebf565b600060405180830381855af49150503d8060008114610cda576040519150601f19603f3d011682016040523d82523d6000602084013e610cdf565b606091505b5091509150610d078282604051806060016040528060278152602001610f0f60279139610d10565b95945050505050565b60608315610d1f575081610d29565b610d298383610d30565b9392505050565b815115610d405781518083602001fd5b8060405162461bcd60e51b81526004016102279190610edb565b80356001600160a01b0381168114610d7157600080fd5b919050565b600060208284031215610d8857600080fd5b610d2982610d5a565b7f4e487b7100000000000000000000000000000000000000000000000000000000600052604160045260246000fd5b60008060408385031215610dd357600080fd5b610ddc83610d5a565b9150602083013567ffffffffffffffff80821115610df957600080fd5b818501915085601f830112610e0d57600080fd5b813581811115610e1f57610e1f610d91565b604051601f8201601f19908116603f01168101908382118183101715610e4757610e47610d91565b81604052828152886020848701011115610e6057600080fd5b8260208601602083013760006020848301015280955050505050509250929050565b600060208284031215610e9457600080fd5b5051919050565b60005b83811015610eb6578181015183820152602001610e9e565b50506000910152565b60008251610ed1818460208701610e9b565b9190910192915050565b6020815260008251806020840152610efa816040850160208701610e9b565b601f01601f1916919091016040019291505056fe416464726573733a206c6f772d6c6576656c2064656c65676174652063616c6c206661696c6564a26469706673582212200e341d9bcbc80024968e0a0209105a6f87a101cc5e60743f4f6a9d88ae3a6a6c64736f6c63430008120033",
  "linkReferences": {},
  "deployedLinkReferences": {}
}