{
  "_format": "hh-sol-artifact-1",
  "contractName": "MonthlyRewardsUpgradeable",
  "sourceName": "contracts/MonthlyRewardsUpgradeable.sol",
  "abi": [
    {
      "inputs": [
        {
          "internalType": "address",
          "name": "_userAddress",
          "type": "address"
        },
        {
          "internalType": "uint256",
          "name": "_valueInUSD",
          "type": "uint256"
        }
      ],
      "name": "setDirectBusines",
      "outputs": [],
      "stateMutability": "nonpayable",
      "type": "function"
    },
    {
      "inputs": [
        {
          "internalType": "address",
          "name": "_userAddress",
          "type": "address"
        },
        {
          "internalType": "uint256",
          "name": "_valueInUSD",
          "type": "uint256"
        }
      ],
      "name": "setSelfBusines",
      "outputs": [],
      "stateMutability": "nonpayable",
      "type": "function"
    },
    {
      "inputs": [
        {
          "internalType": "address",
          "name": "_userAddress",
          "type": "address"
        },
        {
          "internalType": "uint256",
          "name": "_valueInUSD",
          "type": "uint256"
        }
      ],
      "name": "setTeamBusines",
      "outputs": [],
      "stateMutability": "nonpayable",
      "type": "function"
    }
  ],
  "bytecode": "0x608060405234801561001057600080fd5b5060be8061001f6000396000f3fe6080604052348015600f57600080fd5b5060043610603c5760003560e01c806360dab6be14604157806371c1c2f1146041578063ea186bf2146041575b600080fd5b6050604c3660046052565b5050565b005b60008060408385031215606457600080fd5b82356001600160a01b0381168114607a57600080fd5b94602093909301359350505056fea264697066735822122063c8930af87d126845dc35b668f24ed5e70f5a117846181e4e019712170d2ff964736f6c63430008120033",
  "linkReferences": {},
  "deployedLinkReferences": {}
}